{
  "_format": "hh-sol-artifact-1",
  "contractName": "MyOFT",
  "sourceName": "contracts/MyOFT.sol",
  "abi": [
    {
      "inputs": [
        {
          "internalType": "string",
          "name": "_name",
          "type": "string"
        },
        {
          "internalType": "string",
          "name": "_symbol",
          "type": "string"
        },
        {
          "internalType": "address",
          "name": "_lzEndpoint",
          "type": "address"
        },
        {
          "internalType": "address",
          "name": "_delegate",
          "type": "address"
        }
      ],
      "stateMutability": "nonpayable",
      "type": "constructor"
    },
    {
      "inputs": [
        {
          "internalType": "address",
          "name": "spender",
          "type": "address"
        },
        {
          "internalType": "uint256",
          "name": "allowance",
          "type": "uint256"
        },
        {
          "internalType": "uint256",
          "name": "needed",
          "type": "uint256"
        }
      ],
      "name": "ERC20InsufficientAllowance",
      "type": "error"
    },
    {
      "inputs": [
        {
          "internalType": "address",
          "name": "sender",
          "type": "address"
        },
        {
          "internalType": "uint256",
          "name": "balance",
          "type": "uint256"
        },
        {
          "internalType": "uint256",
          "name": "needed",
          "type": "uint256"
        }
      ],
      "name": "ERC20InsufficientBalance",
      "type": "error"
    },
    {
      "inputs": [
        {
          "internalType": "address",
          "name": "approver",
          "type": "address"
        }
      ],
      "name": "ERC20InvalidApprover",
      "type": "error"
    },
    {
      "inputs": [
        {
          "internalType": "address",
          "name": "receiver",
          "type": "address"
        }
      ],
      "name": "ERC20InvalidReceiver",
      "type": "error"
    },
    {
      "inputs": [
        {
          "internalType": "address",
          "name": "sender",
          "type": "address"
        }
      ],
      "name": "ERC20InvalidSender",
      "type": "error"
    },
    {
      "inputs": [
        {
          "internalType": "address",
          "name": "spender",
          "type": "address"
        }
      ],
      "name": "ERC20InvalidSpender",
      "type": "error"
    },
    {
      "inputs": [],
      "name": "InvalidDelegate",
      "type": "error"
    },
    {
      "inputs": [],
      "name": "InvalidEndpointCall",
      "type": "error"
    },
    {
      "inputs": [],
      "name": "InvalidLocalDecimals",
      "type": "error"
    },
    {
      "inputs": [
        {
          "internalType": "bytes",
          "name": "options",
          "type": "bytes"
        }
      ],
      "name": "InvalidOptions",
      "type": "error"
    },
    {
      "inputs": [],
      "name": "LzTokenUnavailable",
      "type": "error"
    },
    {
      "inputs": [
        {
          "internalType": "uint32",
          "name": "eid",
          "type": "uint32"
        }
      ],
      "name": "NoPeer",
      "type": "error"
    },
    {
      "inputs": [
        {
          "internalType": "uint256",
          "name": "msgValue",
          "type": "uint256"
        }
      ],
      "name": "NotEnoughNative",
      "type": "error"
    },
    {
      "inputs": [
        {
          "internalType": "address",
          "name": "addr",
          "type": "address"
        }
      ],
      "name": "OnlyEndpoint",
      "type": "error"
    },
    {
      "inputs": [
        {
          "internalType": "uint32",
          "name": "eid",
          "type": "uint32"
        },
        {
          "internalType": "bytes32",
          "name": "sender",
          "type": "bytes32"
        }
      ],
      "name": "OnlyPeer",
      "type": "error"
    },
    {
      "inputs": [],
      "name": "OnlySelf",
      "type": "error"
    },
    {
      "inputs": [
        {
          "internalType": "address",
          "name": "owner",
          "type": "address"
        }
      ],
      "name": "OwnableInvalidOwner",
      "type": "error"
    },
    {
      "inputs": [
        {
          "internalType": "address",
          "name": "account",
          "type": "address"
        }
      ],
      "name": "OwnableUnauthorizedAccount",
      "type": "error"
    },
    {
      "inputs": [
        {
          "internalType": "address",
          "name": "token",
          "type": "address"
        }
      ],
      "name": "SafeERC20FailedOperation",
      "type": "error"
    },
    {
      "inputs": [
        {
          "internalType": "bytes",
          "name": "result",
          "type": "bytes"
        }
      ],
      "name": "SimulationResult",
      "type": "error"
    },
    {
      "inputs": [
        {
          "internalType": "uint256",
          "name": "amountLD",
          "type": "uint256"
        },
        {
          "internalType": "uint256",
          "name": "minAmountLD",
          "type": "uint256"
        }
      ],
      "name": "SlippageExceeded",
      "type": "error"
    },
    {
      "anonymous": false,
      "inputs": [
        {
          "indexed": true,
          "internalType": "address",
          "name": "owner",
          "type": "address"
        },
        {
          "indexed": true,
          "internalType": "address",
          "name": "spender",
          "type": "address"
        },
        {
          "indexed": false,
          "internalType": "uint256",
          "name": "value",
          "type": "uint256"
        }
      ],
      "name": "Approval",
      "type": "event"
    },
    {
      "anonymous": false,
      "inputs": [
        {
          "components": [
            {
              "internalType": "uint32",
              "name": "eid",
              "type": "uint32"
            },
            {
              "internalType": "uint16",
              "name": "msgType",
              "type": "uint16"
            },
            {
              "internalType": "bytes",
              "name": "options",
              "type": "bytes"
            }
          ],
          "indexed": false,
          "internalType": "struct EnforcedOptionParam[]",
          "name": "_enforcedOptions",
          "type": "tuple[]"
        }
      ],
      "name": "EnforcedOptionSet",
      "type": "event"
    },
    {
      "anonymous": false,
      "inputs": [
        {
          "indexed": false,
          "internalType": "address",
          "name": "inspector",
          "type": "address"
        }
      ],
      "name": "MsgInspectorSet",
      "type": "event"
    },
    {
      "anonymous": false,
      "inputs": [
        {
          "indexed": true,
          "internalType": "bytes32",
          "name": "guid",
          "type": "bytes32"
        },
        {
          "indexed": false,
          "internalType": "uint32",
          "name": "srcEid",
          "type": "uint32"
        },
        {
          "indexed": true,
          "internalType": "address",
          "name": "toAddress",
          "type": "address"
        },
        {
          "indexed": false,
          "internalType": "uint256",
          "name": "amountReceivedLD",
          "type": "uint256"
        }
      ],
      "name": "OFTReceived",
      "type": "event"
    },
    {
      "anonymous": false,
      "inputs": [
        {
          "indexed": true,
          "internalType": "bytes32",
          "name": "guid",
          "type": "bytes32"
        },
        {
          "indexed": false,
          "internalType": "uint32",
          "name": "dstEid",
          "type": "uint32"
        },
        {
          "indexed": true,
          "internalType": "address",
          "name": "fromAddress",
          "type": "address"
        },
        {
          "indexed": false,
          "internalType": "uint256",
          "name": "amountSentLD",
          "type": "uint256"
        },
        {
          "indexed": false,
          "internalType": "uint256",
          "name": "amountReceivedLD",
          "type": "uint256"
        }
      ],
      "name": "OFTSent",
      "type": "event"
    },
    {
      "anonymous": false,
      "inputs": [
        {
          "indexed": true,
          "internalType": "address",
          "name": "previousOwner",
          "type": "address"
        },
        {
          "indexed": true,
          "internalType": "address",
          "name": "newOwner",
          "type": "address"
        }
      ],
      "name": "OwnershipTransferred",
      "type": "event"
    },
    {
      "anonymous": false,
      "inputs": [
        {
          "indexed": false,
          "internalType": "uint32",
          "name": "eid",
          "type": "uint32"
        },
        {
          "indexed": false,
          "internalType": "bytes32",
          "name": "peer",
          "type": "bytes32"
        }
      ],
      "name": "PeerSet",
      "type": "event"
    },
    {
      "anonymous": false,
      "inputs": [
        {
          "indexed": false,
          "internalType": "address",
          "name": "preCrimeAddress",
          "type": "address"
        }
      ],
      "name": "PreCrimeSet",
      "type": "event"
    },
    {
      "anonymous": false,
      "inputs": [
        {
          "indexed": true,
          "internalType": "address",
          "name": "from",
          "type": "address"
        },
        {
          "indexed": true,
          "internalType": "address",
          "name": "to",
          "type": "address"
        },
        {
          "indexed": false,
          "internalType": "uint256",
          "name": "value",
          "type": "uint256"
        }
      ],
      "name": "Transfer",
      "type": "event"
    },
    {
      "inputs": [],
      "name": "SEND",
      "outputs": [
        {
          "internalType": "uint16",
          "name": "",
          "type": "uint16"
        }
      ],
      "stateMutability": "view",
      "type": "function"
    },
    {
      "inputs": [],
      "name": "SEND_AND_CALL",
      "outputs": [
        {
          "internalType": "uint16",
          "name": "",
          "type": "uint16"
        }
      ],
      "stateMutability": "view",
      "type": "function"
    },
    {
      "inputs": [
        {
          "components": [
            {
              "internalType": "uint32",
              "name": "srcEid",
              "type": "uint32"
            },
            {
              "internalType": "bytes32",
              "name": "sender",
              "type": "bytes32"
            },
            {
              "internalType": "uint64",
              "name": "nonce",
              "type": "uint64"
            }
          ],
          "internalType": "struct Origin",
          "name": "origin",
          "type": "tuple"
        }
      ],
      "name": "allowInitializePath",
      "outputs": [
        {
          "internalType": "bool",
          "name": "",
          "type": "bool"
        }
      ],
      "stateMutability": "view",
      "type": "function"
    },
    {
      "inputs": [
        {
          "internalType": "address",
          "name": "owner",
          "type": "address"
        },
        {
          "internalType": "address",
          "name": "spender",
          "type": "address"
        }
      ],
      "name": "allowance",
      "outputs": [
        {
          "internalType": "uint256",
          "name": "",
          "type": "uint256"
        }
      ],
      "stateMutability": "view",
      "type": "function"
    },
    {
      "inputs": [],
      "name": "approvalRequired",
      "outputs": [
        {
          "internalType": "bool",
          "name": "",
          "type": "bool"
        }
      ],
      "stateMutability": "pure",
      "type": "function"
    },
    {
      "inputs": [
        {
          "internalType": "address",
          "name": "spender",
          "type": "address"
        },
        {
          "internalType": "uint256",
          "name": "value",
          "type": "uint256"
        }
      ],
      "name": "approve",
      "outputs": [
        {
          "internalType": "bool",
          "name": "",
          "type": "bool"
        }
      ],
      "stateMutability": "nonpayable",
      "type": "function"
    },
    {
      "inputs": [
        {
          "internalType": "address",
          "name": "account",
          "type": "address"
        }
      ],
      "name": "balanceOf",
      "outputs": [
        {
          "internalType": "uint256",
          "name": "",
          "type": "uint256"
        }
      ],
      "stateMutability": "view",
      "type": "function"
    },
    {
      "inputs": [
        {
          "internalType": "uint32",
          "name": "_eid",
          "type": "uint32"
        },
        {
          "internalType": "uint16",
          "name": "_msgType",
          "type": "uint16"
        },
        {
          "internalType": "bytes",
          "name": "_extraOptions",
          "type": "bytes"
        }
      ],
      "name": "combineOptions",
      "outputs": [
        {
          "internalType": "bytes",
          "name": "",
          "type": "bytes"
        }
      ],
      "stateMutability": "view",
      "type": "function"
    },
    {
      "inputs": [],
      "name": "decimalConversionRate",
      "outputs": [
        {
          "internalType": "uint256",
          "name": "",
          "type": "uint256"
        }
      ],
      "stateMutability": "view",
      "type": "function"
    },
    {
      "inputs": [],
      "name": "decimals",
      "outputs": [
        {
          "internalType": "uint8",
          "name": "",
          "type": "uint8"
        }
      ],
      "stateMutability": "view",
      "type": "function"
    },
    {
      "inputs": [],
      "name": "endpoint",
      "outputs": [
        {
          "internalType": "contract ILayerZeroEndpointV2",
          "name": "",
          "type": "address"
        }
      ],
      "stateMutability": "view",
      "type": "function"
    },
    {
      "inputs": [
        {
          "internalType": "uint32",
          "name": "eid",
          "type": "uint32"
        },
        {
          "internalType": "uint16",
          "name": "msgType",
          "type": "uint16"
        }
      ],
      "name": "enforcedOptions",
      "outputs": [
        {
          "internalType": "bytes",
          "name": "enforcedOption",
          "type": "bytes"
        }
      ],
      "stateMutability": "view",
      "type": "function"
    },
    {
      "inputs": [
        {
          "components": [
            {
              "internalType": "uint32",
              "name": "srcEid",
              "type": "uint32"
            },
            {
              "internalType": "bytes32",
              "name": "sender",
              "type": "bytes32"
            },
            {
              "internalType": "uint64",
              "name": "nonce",
              "type": "uint64"
            }
          ],
          "internalType": "struct Origin",
          "name": "",
          "type": "tuple"
        },
        {
          "internalType": "bytes",
          "name": "",
          "type": "bytes"
        },
        {
          "internalType": "address",
          "name": "_sender",
          "type": "address"
        }
      ],
      "name": "isComposeMsgSender",
      "outputs": [
        {
          "internalType": "bool",
          "name": "",
          "type": "bool"
        }
      ],
      "stateMutability": "view",
      "type": "function"
    },
    {
      "inputs": [
        {
          "internalType": "uint32",
          "name": "_eid",
          "type": "uint32"
        },
        {
          "internalType": "bytes32",
          "name": "_peer",
          "type": "bytes32"
        }
      ],
      "name": "isPeer",
      "outputs": [
        {
          "internalType": "bool",
          "name": "",
          "type": "bool"
        }
      ],
      "stateMutability": "view",
      "type": "function"
    },
    {
      "inputs": [
        {
          "components": [
            {
              "internalType": "uint32",
              "name": "srcEid",
              "type": "uint32"
            },
            {
              "internalType": "bytes32",
              "name": "sender",
              "type": "bytes32"
            },
            {
              "internalType": "uint64",
              "name": "nonce",
              "type": "uint64"
            }
          ],
          "internalType": "struct Origin",
          "name": "_origin",
          "type": "tuple"
        },
        {
          "internalType": "bytes32",
          "name": "_guid",
          "type": "bytes32"
        },
        {
          "internalType": "bytes",
          "name": "_message",
          "type": "bytes"
        },
        {
          "internalType": "address",
          "name": "_executor",
          "type": "address"
        },
        {
          "internalType": "bytes",
          "name": "_extraData",
          "type": "bytes"
        }
      ],
      "name": "lzReceive",
      "outputs": [],
      "stateMutability": "payable",
      "type": "function"
    },
    {
      "inputs": [
        {
          "components": [
            {
              "components": [
                {
                  "internalType": "uint32",
                  "name": "srcEid",
                  "type": "uint32"
                },
                {
                  "internalType": "bytes32",
                  "name": "sender",
                  "type": "bytes32"
                },
                {
                  "internalType": "uint64",
                  "name": "nonce",
                  "type": "uint64"
                }
              ],
              "internalType": "struct Origin",
              "name": "origin",
              "type": "tuple"
            },
            {
              "internalType": "uint32",
              "name": "dstEid",
              "type": "uint32"
            },
            {
              "internalType": "address",
              "name": "receiver",
              "type": "address"
            },
            {
              "internalType": "bytes32",
              "name": "guid",
              "type": "bytes32"
            },
            {
              "internalType": "uint256",
              "name": "value",
              "type": "uint256"
            },
            {
              "internalType": "address",
              "name": "executor",
              "type": "address"
            },
            {
              "internalType": "bytes",
              "name": "message",
              "type": "bytes"
            },
            {
              "internalType": "bytes",
              "name": "extraData",
              "type": "bytes"
            }
          ],
          "internalType": "struct InboundPacket[]",
          "name": "_packets",
          "type": "tuple[]"
        }
      ],
      "name": "lzReceiveAndRevert",
      "outputs": [],
      "stateMutability": "payable",
      "type": "function"
    },
    {
      "inputs": [
        {
          "components": [
            {
              "internalType": "uint32",
              "name": "srcEid",
              "type": "uint32"
            },
            {
              "internalType": "bytes32",
              "name": "sender",
              "type": "bytes32"
            },
            {
              "internalType": "uint64",
              "name": "nonce",
              "type": "uint64"
            }
          ],
          "internalType": "struct Origin",
          "name": "_origin",
          "type": "tuple"
        },
        {
          "internalType": "bytes32",
          "name": "_guid",
          "type": "bytes32"
        },
        {
          "internalType": "bytes",
          "name": "_message",
          "type": "bytes"
        },
        {
          "internalType": "address",
          "name": "_executor",
          "type": "address"
        },
        {
          "internalType": "bytes",
          "name": "_extraData",
          "type": "bytes"
        }
      ],
      "name": "lzReceiveSimulate",
      "outputs": [],
      "stateMutability": "payable",
      "type": "function"
    },
    {
      "inputs": [
        {
          "internalType": "address",
          "name": "to",
          "type": "address"
        },
        {
          "internalType": "uint256",
          "name": "amount",
          "type": "uint256"
        }
      ],
      "name": "mint",
      "outputs": [],
      "stateMutability": "nonpayable",
      "type": "function"
    },
    {
      "inputs": [],
      "name": "msgInspector",
      "outputs": [
        {
          "internalType": "address",
          "name": "",
          "type": "address"
        }
      ],
      "stateMutability": "view",
      "type": "function"
    },
    {
      "inputs": [],
      "name": "name",
      "outputs": [
        {
          "internalType": "string",
          "name": "",
          "type": "string"
        }
      ],
      "stateMutability": "view",
      "type": "function"
    },
    {
      "inputs": [
        {
          "internalType": "uint32",
          "name": "",
          "type": "uint32"
        },
        {
          "internalType": "bytes32",
          "name": "",
          "type": "bytes32"
        }
      ],
      "name": "nextNonce",
      "outputs": [
        {
          "internalType": "uint64",
          "name": "nonce",
          "type": "uint64"
        }
      ],
      "stateMutability": "view",
      "type": "function"
    },
    {
      "inputs": [],
      "name": "oApp",
      "outputs": [
        {
          "internalType": "address",
          "name": "",
          "type": "address"
        }
      ],
      "stateMutability": "view",
      "type": "function"
    },
    {
      "inputs": [],
      "name": "oAppVersion",
      "outputs": [
        {
          "internalType": "uint64",
          "name": "senderVersion",
          "type": "uint64"
        },
        {
          "internalType": "uint64",
          "name": "receiverVersion",
          "type": "uint64"
        }
      ],
      "stateMutability": "pure",
      "type": "function"
    },
    {
      "inputs": [],
      "name": "oftVersion",
      "outputs": [
        {
          "internalType": "bytes4",
          "name": "interfaceId",
          "type": "bytes4"
        },
        {
          "internalType": "uint64",
          "name": "version",
          "type": "uint64"
        }
      ],
      "stateMutability": "pure",
      "type": "function"
    },
    {
      "inputs": [],
      "name": "owner",
      "outputs": [
        {
          "internalType": "address",
          "name": "",
          "type": "address"
        }
      ],
      "stateMutability": "view",
      "type": "function"
    },
    {
      "inputs": [
        {
          "internalType": "uint32",
          "name": "eid",
          "type": "uint32"
        }
      ],
      "name": "peers",
      "outputs": [
        {
          "internalType": "bytes32",
          "name": "peer",
          "type": "bytes32"
        }
      ],
      "stateMutability": "view",
      "type": "function"
    },
    {
      "inputs": [],
      "name": "preCrime",
      "outputs": [
        {
          "internalType": "address",
          "name": "",
          "type": "address"
        }
      ],
      "stateMutability": "view",
      "type": "function"
    },
    {
      "inputs": [
        {
          "components": [
            {
              "internalType": "uint32",
              "name": "dstEid",
              "type": "uint32"
            },
            {
              "internalType": "bytes32",
              "name": "to",
              "type": "bytes32"
            },
            {
              "internalType": "uint256",
              "name": "amountLD",
              "type": "uint256"
            },
            {
              "internalType": "uint256",
              "name": "minAmountLD",
              "type": "uint256"
            },
            {
              "internalType": "bytes",
              "name": "extraOptions",
              "type": "bytes"
            },
            {
              "internalType": "bytes",
              "name": "composeMsg",
              "type": "bytes"
            },
            {
              "internalType": "bytes",
              "name": "oftCmd",
              "type": "bytes"
            }
          ],
          "internalType": "struct SendParam",
          "name": "_sendParam",
          "type": "tuple"
        }
      ],
      "name": "quoteOFT",
      "outputs": [
        {
          "components": [
            {
              "internalType": "uint256",
              "name": "minAmountLD",
              "type": "uint256"
            },
            {
              "internalType": "uint256",
              "name": "maxAmountLD",
              "type": "uint256"
            }
          ],
          "internalType": "struct OFTLimit",
          "name": "oftLimit",
          "type": "tuple"
        },
        {
          "components": [
            {
              "internalType": "int256",
              "name": "feeAmountLD",
              "type": "int256"
            },
            {
              "internalType": "string",
              "name": "description",
              "type": "string"
            }
          ],
          "internalType": "struct OFTFeeDetail[]",
          "name": "oftFeeDetails",
          "type": "tuple[]"
        },
        {
          "components": [
            {
              "internalType": "uint256",
              "name": "amountSentLD",
              "type": "uint256"
            },
            {
              "internalType": "uint256",
              "name": "amountReceivedLD",
              "type": "uint256"
            }
          ],
          "internalType": "struct OFTReceipt",
          "name": "oftReceipt",
          "type": "tuple"
        }
      ],
      "stateMutability": "view",
      "type": "function"
    },
    {
      "inputs": [
        {
          "components": [
            {
              "internalType": "uint32",
              "name": "dstEid",
              "type": "uint32"
            },
            {
              "internalType": "bytes32",
              "name": "to",
              "type": "bytes32"
            },
            {
              "internalType": "uint256",
              "name": "amountLD",
              "type": "uint256"
            },
            {
              "internalType": "uint256",
              "name": "minAmountLD",
              "type": "uint256"
            },
            {
              "internalType": "bytes",
              "name": "extraOptions",
              "type": "bytes"
            },
            {
              "internalType": "bytes",
              "name": "composeMsg",
              "type": "bytes"
            },
            {
              "internalType": "bytes",
              "name": "oftCmd",
              "type": "bytes"
            }
          ],
          "internalType": "struct SendParam",
          "name": "_sendParam",
          "type": "tuple"
        },
        {
          "internalType": "bool",
          "name": "_payInLzToken",
          "type": "bool"
        }
      ],
      "name": "quoteSend",
      "outputs": [
        {
          "components": [
            {
              "internalType": "uint256",
              "name": "nativeFee",
              "type": "uint256"
            },
            {
              "internalType": "uint256",
              "name": "lzTokenFee",
              "type": "uint256"
            }
          ],
          "internalType": "struct MessagingFee",
          "name": "msgFee",
          "type": "tuple"
        }
      ],
      "stateMutability": "view",
      "type": "function"
    },
    {
      "inputs": [],
      "name": "renounceOwnership",
      "outputs": [],
      "stateMutability": "nonpayable",
      "type": "function"
    },
    {
      "inputs": [
        {
          "components": [
            {
              "internalType": "uint32",
              "name": "dstEid",
              "type": "uint32"
            },
            {
              "internalType": "bytes32",
              "name": "to",
              "type": "bytes32"
            },
            {
              "internalType": "uint256",
              "name": "amountLD",
              "type": "uint256"
            },
            {
              "internalType": "uint256",
              "name": "minAmountLD",
              "type": "uint256"
            },
            {
              "internalType": "bytes",
              "name": "extraOptions",
              "type": "bytes"
            },
            {
              "internalType": "bytes",
              "name": "composeMsg",
              "type": "bytes"
            },
            {
              "internalType": "bytes",
              "name": "oftCmd",
              "type": "bytes"
            }
          ],
          "internalType": "struct SendParam",
          "name": "_sendParam",
          "type": "tuple"
        },
        {
          "components": [
            {
              "internalType": "uint256",
              "name": "nativeFee",
              "type": "uint256"
            },
            {
              "internalType": "uint256",
              "name": "lzTokenFee",
              "type": "uint256"
            }
          ],
          "internalType": "struct MessagingFee",
          "name": "_fee",
          "type": "tuple"
        },
        {
          "internalType": "address",
          "name": "_refundAddress",
          "type": "address"
        }
      ],
      "name": "send",
      "outputs": [
        {
          "components": [
            {
              "internalType": "bytes32",
              "name": "guid",
              "type": "bytes32"
            },
            {
              "internalType": "uint64",
              "name": "nonce",
              "type": "uint64"
            },
            {
              "components": [
                {
                  "internalType": "uint256",
                  "name": "nativeFee",
                  "type": "uint256"
                },
                {
                  "internalType": "uint256",
                  "name": "lzTokenFee",
                  "type": "uint256"
                }
              ],
              "internalType": "struct MessagingFee",
              "name": "fee",
              "type": "tuple"
            }
          ],
          "internalType": "struct MessagingReceipt",
          "name": "msgReceipt",
          "type": "tuple"
        },
        {
          "components": [
            {
              "internalType": "uint256",
              "name": "amountSentLD",
              "type": "uint256"
            },
            {
              "internalType": "uint256",
              "name": "amountReceivedLD",
              "type": "uint256"
            }
          ],
          "internalType": "struct OFTReceipt",
          "name": "oftReceipt",
          "type": "tuple"
        }
      ],
      "stateMutability": "payable",
      "type": "function"
    },
    {
      "inputs": [
        {
          "internalType": "address",
          "name": "_delegate",
          "type": "address"
        }
      ],
      "name": "setDelegate",
      "outputs": [],
      "stateMutability": "nonpayable",
      "type": "function"
    },
    {
      "inputs": [
        {
          "components": [
            {
              "internalType": "uint32",
              "name": "eid",
              "type": "uint32"
            },
            {
              "internalType": "uint16",
              "name": "msgType",
              "type": "uint16"
            },
            {
              "internalType": "bytes",
              "name": "options",
              "type": "bytes"
            }
          ],
          "internalType": "struct EnforcedOptionParam[]",
          "name": "_enforcedOptions",
          "type": "tuple[]"
        }
      ],
      "name": "setEnforcedOptions",
      "outputs": [],
      "stateMutability": "nonpayable",
      "type": "function"
    },
    {
      "inputs": [
        {
          "internalType": "address",
          "name": "_msgInspector",
          "type": "address"
        }
      ],
      "name": "setMsgInspector",
      "outputs": [],
      "stateMutability": "nonpayable",
      "type": "function"
    },
    {
      "inputs": [
        {
          "internalType": "uint32",
          "name": "_eid",
          "type": "uint32"
        },
        {
          "internalType": "bytes32",
          "name": "_peer",
          "type": "bytes32"
        }
      ],
      "name": "setPeer",
      "outputs": [],
      "stateMutability": "nonpayable",
      "type": "function"
    },
    {
      "inputs": [
        {
          "internalType": "address",
          "name": "_preCrime",
          "type": "address"
        }
      ],
      "name": "setPreCrime",
      "outputs": [],
      "stateMutability": "nonpayable",
      "type": "function"
    },
    {
      "inputs": [],
      "name": "sharedDecimals",
      "outputs": [
        {
          "internalType": "uint8",
          "name": "",
          "type": "uint8"
        }
      ],
      "stateMutability": "view",
      "type": "function"
    },
    {
      "inputs": [],
      "name": "symbol",
      "outputs": [
        {
          "internalType": "string",
          "name": "",
          "type": "string"
        }
      ],
      "stateMutability": "view",
      "type": "function"
    },
    {
      "inputs": [],
      "name": "token",
      "outputs": [
        {
          "internalType": "address",
          "name": "",
          "type": "address"
        }
      ],
      "stateMutability": "view",
      "type": "function"
    },
    {
      "inputs": [],
      "name": "totalSupply",
      "outputs": [
        {
          "internalType": "uint256",
          "name": "",
          "type": "uint256"
        }
      ],
      "stateMutability": "view",
      "type": "function"
    },
    {
      "inputs": [
        {
          "internalType": "address",
          "name": "to",
          "type": "address"
        },
        {
          "internalType": "uint256",
          "name": "value",
          "type": "uint256"
        }
      ],
      "name": "transfer",
      "outputs": [
        {
          "internalType": "bool",
          "name": "",
          "type": "bool"
        }
      ],
      "stateMutability": "nonpayable",
      "type": "function"
    },
    {
      "inputs": [
        {
          "internalType": "address",
          "name": "from",
          "type": "address"
        },
        {
          "internalType": "address",
          "name": "to",
          "type": "address"
        },
        {
          "internalType": "uint256",
          "name": "value",
          "type": "uint256"
        }
      ],
      "name": "transferFrom",
      "outputs": [
        {
          "internalType": "bool",
          "name": "",
          "type": "bool"
        }
      ],
      "stateMutability": "nonpayable",
      "type": "function"
    },
    {
      "inputs": [
        {
          "internalType": "address",
          "name": "newOwner",
          "type": "address"
        }
      ],
      "name": "transferOwnership",
      "outputs": [],
      "stateMutability": "nonpayable",
      "type": "function"
    }
  ],
  "bytecode": "0x60c060405234801561001057600080fd5b5060405161382838038061382883398101604081905261002f916102ab565b83838383838360128484818181818d6001600160a01b03811661006c57604051631e4fbdf760e01b81526000600482015260240160405180910390fd5b61007581610181565b506001600160a01b0380831660805281166100a357604051632d618d8160e21b815260040160405180910390fd5b60805160405163ca5eb5e160e01b81526001600160a01b0383811660048301529091169063ca5eb5e190602401600060405180830381600087803b1580156100ea57600080fd5b505af11580156100fe573d6000803e3d6000fd5b50505050505050506101146101d160201b60201c565b60ff168360ff16101561013a576040516301e9714b60e41b815260040160405180910390fd5b61014560068461034b565b61015090600a610451565b60a0525060089150610164905083826104f0565b50600961017182826104f0565b50505050505050505050506105ae565b600080546001600160a01b038381166001600160a01b0319831681178455604051919092169283917f8be0079c531659141344cd1fd0a4f28419497f9722a3daafe3b4186f6b6457e09190a35050565b600690565b634e487b7160e01b600052604160045260246000fd5b600082601f8301126101fd57600080fd5b81516001600160401b03811115610216576102166101d6565b604051601f8201601f19908116603f011681016001600160401b0381118282101715610244576102446101d6565b60405281815283820160200185101561025c57600080fd5b60005b8281101561027b5760208186018101518383018201520161025f565b506000918101602001919091529392505050565b80516001600160a01b03811681146102a657600080fd5b919050565b600080600080608085870312156102c157600080fd5b84516001600160401b038111156102d757600080fd5b6102e3878288016101ec565b602087015190955090506001600160401b0381111561030157600080fd5b61030d878288016101ec565b93505061031c6040860161028f565b915061032a6060860161028f565b905092959194509250565b634e487b7160e01b600052601160045260246000fd5b60ff828116828216039081111561036457610364610335565b92915050565b6001815b60018411156103a55780850481111561038957610389610335565b600184161561039757908102905b60019390931c92800261036e565b935093915050565b6000826103bc57506001610364565b816103c957506000610364565b81600181146103df57600281146103e957610405565b6001915050610364565b60ff8411156103fa576103fa610335565b50506001821b610364565b5060208310610133831016604e8410600b8410161715610428575081810a610364565b610435600019848461036a565b806000190482111561044957610449610335565b029392505050565b600061046060ff8416836103ad565b9392505050565b600181811c9082168061047b57607f821691505b60208210810361049b57634e487b7160e01b600052602260045260246000fd5b50919050565b601f8211156104eb57806000526020600020601f840160051c810160208510156104c85750805b601f840160051c820191505b818110156104e857600081556001016104d4565b50505b505050565b81516001600160401b03811115610509576105096101d6565b61051d816105178454610467565b846104a1565b6020601f82116001811461055157600083156105395750848201515b600019600385901b1c1916600184901b1784556104e8565b600084815260208120601f198516915b828110156105815787850151825560209485019460019092019101610561565b508482101561059f5786840151600019600387901b60f8161c191681555b50505050600190811b01905550565b60805160a0516132166106126000396000818161064901528181611cb501528181611d330152611f3701526000818161050801528181611137015281816113bd015281816117b001528181611b0401528181612074015261212d01526132166000f3fe60806040526004361061025c5760003560e01c8063715018a611610144578063bb0b6a53116100b6578063d045a0dc1161007a578063d045a0dc14610780578063d424388514610793578063dd62ed3e146107b3578063f2fde38b146107f9578063fc0c546a1461048c578063ff7bd03d1461081957600080fd5b8063bb0b6a53146106df578063bc70b3541461070c578063bd815db01461072c578063c7c7f5b31461073f578063ca5eb5e11461076057600080fd5b806395d89b411161010857806395d89b4114610622578063963efcaa146106375780639f68b9641461066b578063a9059cbb1461067f578063b731ea0a1461069f578063b98bd070146106bf57600080fd5b8063715018a6146105805780637d25a05e1461059557806382413eac146105d0578063857749b0146105f05780638da5cb5b1461060457600080fd5b806323b872dd116101dd57806352ae2879116101a157806352ae28791461048c5780635535d4611461049f5780635a0dfe4d146104bf5780635e280f11146104f65780636fc1b31e1461052a57806370a082311461054a57600080fd5b806323b872dd146103dd578063313ce567146103fd5780633400288b1461041f5780633b6f743b1461043f57806340c10f191461046c57600080fd5b8063134d4f2511610224578063134d4f2514610338578063156a0d0f1461036057806317442b701461038757806318160ddd146103a95780631f5e1334146103c857600080fd5b806306fdde0314610261578063095ea7b31461028c5780630d35b415146102bc578063111ecdad146102eb57806313137d6514610323575b600080fd5b34801561026d57600080fd5b50610276610839565b60405161028391906122d0565b60405180910390f35b34801561029857600080fd5b506102ac6102a73660046122f8565b6108cb565b6040519015158152602001610283565b3480156102c857600080fd5b506102dc6102d736600461233c565b6108e5565b60405161028393929190612370565b3480156102f757600080fd5b5060045461030b906001600160a01b031681565b6040516001600160a01b039091168152602001610283565b610336610331366004612467565b6109b6565b005b34801561034457600080fd5b5061034d600281565b60405161ffff9091168152602001610283565b34801561036c57600080fd5b506040805162b9270b60e21b81526001602082015201610283565b34801561039357600080fd5b5060408051600181526002602082015201610283565b3480156103b557600080fd5b506007545b604051908152602001610283565b3480156103d457600080fd5b5061034d600181565b3480156103e957600080fd5b506102ac6103f8366004612508565b6109fe565b34801561040957600080fd5b5060125b60405160ff9091168152602001610283565b34801561042b57600080fd5b5061033661043a366004612562565b610a24565b34801561044b57600080fd5b5061045f61045a36600461258c565b610a3a565b60405161028391906125dd565b34801561047857600080fd5b506103366104873660046122f8565b610ae5565b34801561049857600080fd5b503061030b565b3480156104ab57600080fd5b506102766104ba366004612606565b610af7565b3480156104cb57600080fd5b506102ac6104da366004612562565b63ffffffff919091166000908152600160205260409020541490565b34801561050257600080fd5b5061030b7f000000000000000000000000000000000000000000000000000000000000000081565b34801561053657600080fd5b50610336610545366004612639565b610b9c565b34801561055657600080fd5b506103ba610565366004612639565b6001600160a01b031660009081526005602052604090205490565b34801561058c57600080fd5b50610336610bf9565b3480156105a157600080fd5b506105b86105b0366004612562565b600092915050565b6040516001600160401b039091168152602001610283565b3480156105dc57600080fd5b506102ac6105eb366004612656565b610c0d565b3480156105fc57600080fd5b50600661040d565b34801561061057600080fd5b506000546001600160a01b031661030b565b34801561062e57600080fd5b50610276610c22565b34801561064357600080fd5b506103ba7f000000000000000000000000000000000000000000000000000000000000000081565b34801561067757600080fd5b5060006102ac565b34801561068b57600080fd5b506102ac61069a3660046122f8565b610c31565b3480156106ab57600080fd5b5060025461030b906001600160a01b031681565b3480156106cb57600080fd5b506103366106da366004612700565b610c3f565b3480156106eb57600080fd5b506103ba6106fa366004612741565b60016020526000908152604090205481565b34801561071857600080fd5b5061027661072736600461275c565b610c59565b61033661073a366004612700565b610e0a565b61075261074d3660046127bc565b610f94565b604051610283929190612829565b34801561076c57600080fd5b5061033661077b366004612639565b611110565b61033661078e366004612467565b611196565b34801561079f57600080fd5b506103366107ae366004612639565b6111c5565b3480156107bf57600080fd5b506103ba6107ce36600461287b565b6001600160a01b03918216600090815260066020908152604080832093909416825291909152205490565b34801561080557600080fd5b50610336610814366004612639565b61121b565b34801561082557600080fd5b506102ac6108343660046128a9565b611259565b606060088054610848906128c5565b80601f0160208091040260200160405190810160405280929190818152602001828054610874906128c5565b80156108c15780601f10610896576101008083540402835291602001916108c1565b820191906000526020600020905b8154815290600101906020018083116108a457829003601f168201915b5050505050905090565b6000336108d981858561128f565b60019150505b92915050565b60408051808201909152600080825260208201526060610918604051806040016040528060008152602001600081525090565b60408051808201825260008082526001600160401b03602080840182905284518381529081019094529195509182610973565b60408051808201909152600081526060602082015281526020019060019003908161094b5790505b509350600080610998604089013560608a013561099360208c018c612741565b6112a1565b60408051808201909152918252602082015296989597505050505050565b6109e66040518060400160405280600f81526020016e363d2932b1b2b4bb32903132b3b4b760891b8152506112e5565b6109f587878787878787611328565b50505050505050565b600033610a0c85828561148f565b610a1785858561150d565b60019150505b9392505050565b610a2c61156c565b610a368282611599565b5050565b60408051808201909152600080825260208201526000610a6a604085013560608601356109936020880188612741565b915050610aa06040518060400160405280601181526020017030b6b7bab73a2932b1b2b4bb32b226221d60791b815250826115ee565b600080610aad8684611633565b91509150610aba82611757565b610ac381611757565b610adb610ad36020880188612741565b83838861179a565b9695505050505050565b610aed61156c565b610a36828261187b565b600360209081526000928352604080842090915290825290208054610b1b906128c5565b80601f0160208091040260200160405190810160405280929190818152602001828054610b47906128c5565b8015610b945780601f10610b6957610100808354040283529160200191610b94565b820191906000526020600020905b815481529060010190602001808311610b7757829003601f168201915b505050505081565b610ba461156c565b600480546001600160a01b0319166001600160a01b0383169081179091556040519081527ff0be4f1e87349231d80c36b33f9e8639658eeaf474014dee15a3e6a4d4414197906020015b60405180910390a150565b610c0161156c565b610c0b60006118b1565b565b6001600160a01b03811630145b949350505050565b606060098054610848906128c5565b6000336108d981858561150d565b610c4761156c565b610a36610c5482846129b0565b611901565b63ffffffff8416600090815260036020908152604080832061ffff87168452909152812080546060929190610c8d906128c5565b80601f0160208091040260200160405190810160405280929190818152602001828054610cb9906128c5565b8015610d065780601f10610cdb57610100808354040283529160200191610d06565b820191906000526020600020905b815481529060010190602001808311610ce957829003601f168201915b505050505090508051600003610d565783838080601f016020809104026020016040519081016040528093929190818152602001838380828437600092019190915250929450610c1a9350505050565b6000839003610d66579050610c1a565b60028310610de457610dad84848080601f016020809104026020016040519081016040528093929190818152602001838380828437600092019190915250611a0892505050565b80610dbb8460028188612ad9565b604051602001610dcd93929190612b03565b604051602081830303815290604052915050610c1a565b8383604051639a6d49cd60e01b8152600401610e01929190612b54565b60405180910390fd5b60005b81811015610f135736838383818110610e2857610e28612b68565b9050602002810190610e3a9190612b7e565b9050610e6d610e4c6020830183612741565b602083013563ffffffff919091166000908152600160205260409020541490565b610e775750610f0b565b3063d045a0dc60c08301358360a0810135610e96610100830183612b9f565b610ea7610100890160e08a01612639565b610eb56101208a018a612b9f565b6040518963ffffffff1660e01b8152600401610ed79796959493929190612bfa565b6000604051808303818588803b158015610ef057600080fd5b505af1158015610f04573d6000803e3d6000fd5b5050505050505b600101610e0d565b50336001600160a01b0316638e9e70996040518163ffffffff1660e01b8152600401600060405180830381865afa158015610f52573d6000803e3d6000fd5b505050506040513d6000823e601f3d908101601f19168201604052610f7a9190810190612c80565b604051638351eea760e01b8152600401610e0191906122d0565b610f9c612239565b6040805180820190915260008082526020820152600080610fd333604089013560608a0135610fce60208c018c612741565b611a34565b91509150611009604051806040016040528060118152602001706166746572205f64656269742066756e6360781b8152506112e5565b6000806110168984611633565b9150915061102382611757565b61102c81611757565b61106a6040518060400160405280601e81526020017f6166746572205f6275696c644d7367416e644f7074696f6e732066756e6300008152506112e5565b61109161107a60208b018b612741565b838361108b368d90038d018d612ced565b8b611a5a565b60408051808201909152858152602080820186905282519298509096503391907f85496b760a4b7f8d66384b9df21b381f5d1b1e79f229a47aaf4c232edc2fe59a906110df908d018d612741565b6040805163ffffffff909216825260208201899052810187905260600160405180910390a350505050935093915050565b61111861156c565b60405163ca5eb5e160e01b81526001600160a01b0382811660048301527f0000000000000000000000000000000000000000000000000000000000000000169063ca5eb5e190602401600060405180830381600087803b15801561117b57600080fd5b505af115801561118f573d6000803e3d6000fd5b5050505050565b3330146111b65760405163029a949d60e31b815260040160405180910390fd5b6109f5878787878787876109e6565b6111cd61156c565b600280546001600160a01b0319166001600160a01b0383169081179091556040519081527fd48d879cef83a1c0bdda516f27b13ddb1b3f8bbac1c9e1511bb2a659c242776090602001610bee565b61122361156c565b6001600160a01b03811661124d57604051631e4fbdf760e01b815260006004820152602401610e01565b611256816118b1565b50565b60006020820180359060019083906112719086612741565b63ffffffff1681526020810191909152604001600020541492915050565b61129c8383836001611bdc565b505050565b6000806112ad85611cb1565b9150819050838110156112dd576040516371c4efed60e01b81526004810182905260248101859052604401610e01565b935093915050565b611256816040516024016112f991906122d0565b60408051601f198184030181529190526020810180516001600160e01b031663104c13eb60e21b179052611ce8565b600061133a6113378787611cf1565b90565b905060006113668261135461134f8a8a611d09565b611d2c565b61136160208d018d612741565b611d61565b9050602886111561142d5760006113a361138660608c0160408d01612d20565b61139360208d018d612741565b8461139e8c8c611d89565b611dd4565b604051633e5ac80960e11b81529091506001600160a01b037f00000000000000000000000000000000000000000000000000000000000000001690637cb59012906113f99086908d906000908790600401612d3d565b600060405180830381600087803b15801561141357600080fd5b505af1158015611427573d6000803e3d6000fd5b50505050505b6001600160a01b038216887fefed6d3500546b29533b128a29e3a94d70788727f0507505ac12eaf2e578fd9c61146660208d018d612741565b6040805163ffffffff9092168252602082018690520160405180910390a3505050505050505050565b6001600160a01b03838116600090815260066020908152604080832093861683529290522054600019811461150757818110156114f857604051637dc7a0d960e11b81526001600160a01b03841660048201526024810182905260448101839052606401610e01565b61150784848484036000611bdc565b50505050565b6001600160a01b03831661153757604051634b637e8f60e11b815260006004820152602401610e01565b6001600160a01b0382166115615760405163ec442f0560e01b815260006004820152602401610e01565b61129c838383611e06565b6000546001600160a01b03163314610c0b5760405163118cdaa760e01b8152336004820152602401610e01565b63ffffffff8216600081815260016020908152604091829020849055815192835282018390527f238399d427b947898edb290f5ff0f9109849b1c3ba196a42e35f00c50a54b98b910160405180910390a15050565b610a368282604051602401611604929190612d6e565b60408051601f198184030181529190526020810180516001600160e01b0316632d839cb360e21b179052611ce8565b6060806000611690856020013561164986611f30565b61165660a0890189612b9f565b8080601f016020809104026020016040519081016040528093929190818152602001838380828437600092019190915250611f5c92505050565b90935090506000816116a35760016116a6565b60025b90506116c66116b86020880188612741565b8261072760808a018a612b9f565b6004549093506001600160a01b03161561174e576004805460405163043a78eb60e01b81526001600160a01b039091169163043a78eb9161170b918891889101612d90565b602060405180830381865afa158015611728573d6000803e3d6000fd5b505050506040513d601f19601f8201168201806040525081019061174c9190612db5565b505b50509250929050565b6112568160405160240161176b91906122d0565b60408051601f198184030181529190526020810180516001600160e01b03166305f3bfab60e11b179052611ce8565b60408051808201909152600080825260208201527f00000000000000000000000000000000000000000000000000000000000000006001600160a01b031663ddc28c586040518060a001604052808863ffffffff1681526020016117fd89611fd6565b8152602001878152602001868152602001851515815250306040518363ffffffff1660e01b8152600401611832929190612dd2565b6040805180830381865afa15801561184e573d6000803e3d6000fd5b505050506040513d601f19601f820116820180604052508101906118729190612e7c565b95945050505050565b6001600160a01b0382166118a55760405163ec442f0560e01b815260006004820152602401610e01565b610a3660008383611e06565b600080546001600160a01b038381166001600160a01b0319831681178455604051919092169283917f8be0079c531659141344cd1fd0a4f28419497f9722a3daafe3b4186f6b6457e09190a35050565b60005b81518110156119d85761193382828151811061192257611922612b68565b602002602001015160400151611a08565b81818151811061194557611945612b68565b6020026020010151604001516003600084848151811061196757611967612b68565b60200260200101516000015163ffffffff1663ffffffff16815260200190815260200160002060008484815181106119a1576119a1612b68565b60200260200101516020015161ffff1661ffff16815260200190815260200160002090816119cf9190612edf565b50600101611904565b507fbe4864a8e820971c0247f5992e2da559595f7bf076a21cb5928d443d2a13b67481604051610bee9190612f9d565b600281015161ffff8116600314610a365781604051639a6d49cd60e01b8152600401610e0191906122d0565b600080611a428585856112a1565b9092509050611a518683612012565b94509492505050565b611a62612239565b6000611a718460000151612048565b602085015190915015611a8b57611a8b8460200151612070565b611ac1604051806040016040528060158152602001746265666f726520656e64706f696e742e73656e642160581b8152506112e5565b611af06040518060400160405280600d81526020016c36b2b9b9b0b3b2ab30b63ab29d60991b815250826115ee565b611af986611757565b611b0285611757565b7f00000000000000000000000000000000000000000000000000000000000000006001600160a01b0316632637a450826040518060a001604052808b63ffffffff168152602001611b528c611fd6565b81526020018a815260200189815260200160008960200151111515815250866040518463ffffffff1660e01b8152600401611b8e929190612dd2565b60806040518083038185885af1158015611bac573d6000803e3d6000fd5b50505050506040513d601f19601f82011682018060405250810190611bd1919061302d565b979650505050505050565b6001600160a01b038416611c065760405163e602df0560e01b815260006004820152602401610e01565b6001600160a01b038316611c3057604051634a1406b160e11b815260006004820152602401610e01565b6001600160a01b038085166000908152600660209081526040808320938716835292905220829055801561150757826001600160a01b0316846001600160a01b03167f8c5be1e5ebec7d5bd14f71427d1e84f3dd0314c0f7b2291e5b200ac8c7c3b92584604051611ca391815260200190565b60405180910390a350505050565b60007f0000000000000000000000000000000000000000000000000000000000000000611cde818461308f565b6108df91906130b1565b61125681612152565b6000611d006020828486612ad9565b610a1d916130c8565b6000611d19602860208486612ad9565b611d22916130e6565b60c01c9392505050565b60006108df7f00000000000000000000000000000000000000000000000000000000000000006001600160401b0384166130b1565b60006001600160a01b038416611d775761dead93505b611d81848461187b565b509092915050565b6060611d988260288186612ad9565b8080601f016020809104026020016040519081016040528093929190818152602001838380828437600092019190915250929695505050505050565b606084848484604051602001611ded949392919061311e565b6040516020818303038152906040529050949350505050565b6001600160a01b038316611e31578060076000828254611e26919061316d565b90915550611ea39050565b6001600160a01b03831660009081526005602052604090205481811015611e845760405163391434e360e21b81526001600160a01b03851660048201526024810182905260448101839052606401610e01565b6001600160a01b03841660009081526005602052604090209082900390555b6001600160a01b038216611ebf57600780548290039055611ede565b6001600160a01b03821660009081526005602052604090208054820190555b816001600160a01b0316836001600160a01b03167fddf252ad1be2c89b69c2b068fc378daa952ba7f163c4a11628f55a4df523b3ef83604051611f2391815260200190565b60405180910390a3505050565b60006108df7f00000000000000000000000000000000000000000000000000000000000000008361308f565b8051606090151580611fa5578484604051602001611f9192919091825260c01b6001600160c01b031916602082015260280190565b604051602081830303815290604052611fcc565b84843385604051602001611fbc9493929190613180565b6040516020818303038152906040525b9150935093915050565b63ffffffff8116600090815260016020526040812054806108df5760405163f6ff4fb760e01b815263ffffffff84166004820152602401610e01565b6001600160a01b03821661203c57604051634b637e8f60e11b815260006004820152602401610e01565b610a3682600083611e06565b600081341461206c576040516304fb820960e51b8152346004820152602401610e01565b5090565b60007f00000000000000000000000000000000000000000000000000000000000000006001600160a01b031663e4fe1d946040518163ffffffff1660e01b8152600401602060405180830381865afa1580156120d0573d6000803e3d6000fd5b505050506040513d601f19601f820116820180604052508101906120f491906131c3565b90506001600160a01b03811661211d576040516329b99a9560e11b815260040160405180910390fd5b610a366001600160a01b038216337f000000000000000000000000000000000000000000000000000000000000000085612173565b60006a636f6e736f6c652e6c6f679050600080835160208501845afa505050565b604080516001600160a01b038581166024830152841660448201526064808201849052825180830390910181526084909101909152602080820180516001600160e01b03166323b872dd60e01b1781528251611507938893909260009283929183919082885af1806121eb576040513d6000823e3d81fd5b50506000513d91508115612203578060011415612210565b6001600160a01b0384163b155b1561150757604051635274afe760e01b81526001600160a01b0385166004820152602401610e01565b60405180606001604052806000801916815260200160006001600160401b0316815260200161227b604051806040016040528060008152602001600081525090565b905290565b60005b8381101561229b578181015183820152602001612283565b50506000910152565b600081518084526122bc816020860160208601612280565b601f01601f19169290920160200192915050565b602081526000610a1d60208301846122a4565b6001600160a01b038116811461125657600080fd5b6000806040838503121561230b57600080fd5b8235612316816122e3565b946020939093013593505050565b600060e0828403121561233657600080fd5b50919050565b60006020828403121561234e57600080fd5b81356001600160401b0381111561236457600080fd5b610c1a84828501612324565b8351815260208085015190820152600060a0820160a0604084015280855180835260c08501915060c08160051b86010192506020870160005b828110156123f15760bf1987860301845281518051865260208101519050604060208701526123db60408701826122a4565b95505060209384019391909101906001016123a9565b5050855160608601525050602084015160808401529050610c1a565b60006060828403121561233657600080fd5b60008083601f84011261243157600080fd5b5081356001600160401b0381111561244857600080fd5b60208301915083602082850101111561246057600080fd5b9250929050565b600080600080600080600060e0888a03121561248257600080fd5b61248c898961240d565b96506060880135955060808801356001600160401b038111156124ae57600080fd5b6124ba8a828b0161241f565b90965094505060a08801356124ce816122e3565b925060c08801356001600160401b038111156124e957600080fd5b6124f58a828b0161241f565b989b979a50959850939692959293505050565b60008060006060848603121561251d57600080fd5b8335612528816122e3565b92506020840135612538816122e3565b929592945050506040919091013590565b803563ffffffff8116811461255d57600080fd5b919050565b6000806040838503121561257557600080fd5b61231683612549565b801515811461125657600080fd5b6000806040838503121561259f57600080fd5b82356001600160401b038111156125b557600080fd5b6125c185828601612324565b92505060208301356125d28161257e565b809150509250929050565b8151815260208083015190820152604081016108df565b803561ffff8116811461255d57600080fd5b6000806040838503121561261957600080fd5b61262283612549565b9150612630602084016125f4565b90509250929050565b60006020828403121561264b57600080fd5b8135610a1d816122e3565b60008060008060a0858703121561266c57600080fd5b612676868661240d565b935060608501356001600160401b0381111561269157600080fd5b61269d8782880161241f565b90945092505060808501356126b1816122e3565b939692955090935050565b60008083601f8401126126ce57600080fd5b5081356001600160401b038111156126e557600080fd5b6020830191508360208260051b850101111561246057600080fd5b6000806020838503121561271357600080fd5b82356001600160401b0381111561272957600080fd5b612735858286016126bc565b90969095509350505050565b60006020828403121561275357600080fd5b610a1d82612549565b6000806000806060858703121561277257600080fd5b61277b85612549565b9350612789602086016125f4565b925060408501356001600160401b038111156127a457600080fd5b6127b08782880161241f565b95989497509550505050565b600080600083850360808112156127d257600080fd5b84356001600160401b038111156127e857600080fd5b6127f487828801612324565b9450506040601f198201121561280957600080fd5b50602084019150606084013561281e816122e3565b809150509250925092565b600060c082019050835182526001600160401b0360208501511660208301526040840151612864604084018280518252602090810151910152565b5082516080830152602083015160a0830152610a1d565b6000806040838503121561288e57600080fd5b8235612899816122e3565b915060208301356125d2816122e3565b6000606082840312156128bb57600080fd5b610a1d838361240d565b600181811c908216806128d957607f821691505b60208210810361233657634e487b7160e01b600052602260045260246000fd5b634e487b7160e01b600052604160045260246000fd5b604051606081016001600160401b0381118282101715612931576129316128f9565b60405290565b604080519081016001600160401b0381118282101715612931576129316128f9565b604051601f8201601f191681016001600160401b0381118282101715612981576129816128f9565b604052919050565b60006001600160401b038211156129a2576129a26128f9565b50601f01601f191660200190565b60006001600160401b038311156129c9576129c96128f9565b8260051b6129d960208201612959565b848152908301906020810190368311156129f257600080fd5b845b83811015612acf5780356001600160401b03811115612a1257600080fd5b86016060368290031215612a2557600080fd5b612a2d61290f565b612a3682612549565b8152612a44602083016125f4565b602082015260408201356001600160401b03811115612a6257600080fd5b919091019036601f830112612a7657600080fd5b8135612a89612a8482612989565b612959565b818152366020838601011115612a9e57600080fd5b81602085016020830137600060208383010152806040840152505080855250506020830192506020810190506129f4565b5095945050505050565b60008085851115612ae957600080fd5b83861115612af657600080fd5b5050820193919092039150565b60008451612b15818460208901612280565b8201838582376000930192835250909392505050565b81835281816020850137506000828201602090810191909152601f909101601f19169091010190565b602081526000610c1a602083018486612b2b565b634e487b7160e01b600052603260045260246000fd5b6000823561013e19833603018112612b9557600080fd5b9190910192915050565b6000808335601e19843603018112612bb657600080fd5b8301803591506001600160401b03821115612bd057600080fd5b60200191503681900382131561246057600080fd5b6001600160401b038116811461125657600080fd5b63ffffffff612c0889612549565b1681526020888101359082015260006040890135612c2581612be5565b6001600160401b03811660408401525087606083015260e06080830152612c5060e083018789612b2b565b6001600160a01b03861660a084015282810360c0840152612c72818587612b2b565b9a9950505050505050505050565b600060208284031215612c9257600080fd5b81516001600160401b03811115612ca857600080fd5b8201601f81018413612cb957600080fd5b8051612cc7612a8482612989565b818152856020838501011115612cdc57600080fd5b611872826020830160208601612280565b60006040828403128015612d0057600080fd5b50612d09612937565b823581526020928301359281019290925250919050565b600060208284031215612d3257600080fd5b8135610a1d81612be5565b60018060a01b038516815283602082015261ffff83166040820152608060608201526000610adb60808301846122a4565b604081526000612d8160408301856122a4565b90508260208301529392505050565b604081526000612da360408301856122a4565b828103602084015261187281856122a4565b600060208284031215612dc757600080fd5b8151610a1d8161257e565b6040815263ffffffff8351166040820152602083015160608201526000604084015160a06080840152612e0860e08401826122a4565b90506060850151603f198483030160a0850152612e2582826122a4565b60809690960151151560c08501525050506001600160a01b039190911660209091015290565b600060408284031215612e5d57600080fd5b612e65612937565b825181526020928301519281019290925250919050565b600060408284031215612e8e57600080fd5b610a1d8383612e4b565b601f82111561129c57806000526020600020601f840160051c81016020851015612ebf5750805b601f840160051c820191505b8181101561118f5760008155600101612ecb565b81516001600160401b03811115612ef857612ef86128f9565b612f0c81612f0684546128c5565b84612e98565b6020601f821160018114612f405760008315612f285750848201515b600019600385901b1c1916600184901b17845561118f565b600084815260208120601f198516915b82811015612f705787850151825560209485019460019092019101612f50565b5084821015612f8e5786840151600019600387901b60f8161c191681555b50505050600190811b01905550565b6000602082016020835280845180835260408501915060408160051b86010192506020860160005b8281101561302157603f19878603018452815163ffffffff815116865261ffff6020820151166020870152604081015190506060604087015261300b60608701826122a4565b9550506020938401939190910190600101612fc5565b50929695505050505050565b6000608082840312801561304057600080fd5b5061304961290f565b82518152602083015161305b81612be5565b602082015261306d8460408501612e4b565b60408201529392505050565b634e487b7160e01b600052601160045260246000fd5b6000826130ac57634e487b7160e01b600052601260045260246000fd5b500490565b80820281158282048414176108df576108df613079565b803560208310156108df57600019602084900360031b1b1692915050565b80356001600160c01b03198116906008841015613117576001600160c01b0319600885900360031b81901b82161691505b5092915050565b6001600160401b0360c01b8560c01b16815263ffffffff60e01b8460e01b16600882015282600c8201526000825161315d81602c850160208701612280565b91909101602c0195945050505050565b808201808211156108df576108df613079565b8481526001600160401b0360c01b8460c01b166020820152826028820152600082516131b3816048850160208701612280565b9190910160480195945050505050565b6000602082840312156131d557600080fd5b8151610a1d816122e356fea26469706673582212205ce201bc16746243c5509d44c0858d645fc7568e7abab5d5dec738591d0f3f1864736f6c634300081c0033",
  "linkReferences": {},
  "deployedLinkReferences": {}
}