{"contracts/MockStargateFeeLib.sol":{"MockStargateFeeLib":{"abi":[{"inputs":[{"components":[{"internalType":"address","name":"sender","type":"address"},{"internalType":"uint32","name":"dstEid","type":"uint32"},{"internalType":"uint64","name":"amountInSD","type":"uint64"},{"internalType":"uint64","name":"deficitSD","type":"uint64"},{"internalType":"bool","name":"toOFT","type":"bool"},{"internalType":"bool","name":"isTaxi","type":"bool"}],"internalType":"struct FeeParams","name":"_params","type":"tuple"}],"name":"applyFee","outputs":[{"internalType":"uint64","name":"amountOutSD","type":"uint64"}],"stateMutability":"pure","type":"function"},{"inputs":[{"components":[{"internalType":"address","name":"sender","type":"address"},{"internalType":"uint32","name":"dstEid","type":"uint32"},{"internalType":"uint64","name":"amountInSD","type":"uint64"},{"internalType":"uint64","name":"deficitSD","type":"uint64"},{"internalType":"bool","name":"toOFT","type":"bool"},{"internalType":"bool","name":"isTaxi","type":"bool"}],"internalType":"struct FeeParams","name":"_params","type":"tuple"}],"name":"applyFeeView","outputs":[{"internalType":"uint64","name":"amountOutSD","type":"uint64"}],"stateMutability":"pure","type":"function"}],"evm":{"bytecode":{"linkReferences":{},"object":"6080604052348015600f57600080fd5b5061019b8061001f6000396000f3fe608060405234801561001057600080fd5b50600436106100365760003560e01c806343d9564d1461003b57806381993cd01461003b575b600080fd5b61004e6100493660046100ae565b61006b565b60405167ffffffffffffffff909116815260200160405180910390f35b600080606461008060608501604086016100c9565b61008a91906100f3565b90508061009d60608501604086016100c9565b6100a79190610131565b9392505050565b600060c08284031280156100c157600080fd5b509092915050565b6000602082840312156100db57600080fd5b813567ffffffffffffffff811681146100a757600080fd5b600067ffffffffffffffff83168061011b57634e487b7160e01b600052601260045260246000fd5b8067ffffffffffffffff84160491505092915050565b67ffffffffffffffff828116828216039081111561015f57634e487b7160e01b600052601160045260246000fd5b9291505056fea26469706673582212200fbf41d33615526a3dbb1787d224da09b8097211bd5c98f891d3619f72cad3cb64736f6c634300081c0033","opcodes":"PUSH1 0x80 PUSH1 0x40 MSTORE CALLVALUE DUP1 ISZERO PUSH1 0xF JUMPI PUSH1 0x0 DUP1 REVERT JUMPDEST POP PUSH2 0x19B DUP1 PUSH2 0x1F PUSH1 0x0 CODECOPY PUSH1 0x0 RETURN INVALID PUSH1 0x80 PUSH1 0x40 MSTORE CALLVALUE DUP1 ISZERO PUSH2 0x10 JUMPI PUSH1 0x0 DUP1 REVERT JUMPDEST POP PUSH1 0x4 CALLDATASIZE LT PUSH2 0x36 JUMPI PUSH1 0x0 CALLDATALOAD PUSH1 0xE0 SHR DUP1 PUSH4 0x43D9564D EQ PUSH2 0x3B JUMPI DUP1 PUSH4 0x81993CD0 EQ PUSH2 0x3B JUMPI JUMPDEST PUSH1 0x0 DUP1 REVERT JUMPDEST PUSH2 0x4E PUSH2 0x49 CALLDATASIZE PUSH1 0x4 PUSH2 0xAE JUMP JUMPDEST PUSH2 0x6B JUMP JUMPDEST PUSH1 0x40 MLOAD PUSH8 0xFFFFFFFFFFFFFFFF SWAP1 SWAP2 AND DUP2 MSTORE PUSH1 0x20 ADD PUSH1 0x40 MLOAD DUP1 SWAP2 SUB SWAP1 RETURN JUMPDEST PUSH1 0x0 DUP1 PUSH1 0x64 PUSH2 0x80 PUSH1 0x60 DUP6 ADD PUSH1 0x40 DUP7 ADD PUSH2 0xC9 JUMP JUMPDEST PUSH2 0x8A SWAP2 SWAP1 PUSH2 0xF3 JUMP JUMPDEST SWAP1 POP DUP1 PUSH2 0x9D PUSH1 0x60 DUP6 ADD PUSH1 0x40 DUP7 ADD PUSH2 0xC9 JUMP JUMPDEST PUSH2 0xA7 SWAP2 SWAP1 PUSH2 0x131 JUMP JUMPDEST SWAP4 SWAP3 POP POP POP JUMP JUMPDEST PUSH1 0x0 PUSH1 0xC0 DUP3 DUP5 SUB SLT DUP1 ISZERO PUSH2 0xC1 JUMPI PUSH1 0x0 DUP1 REVERT JUMPDEST POP SWAP1 SWAP3 SWAP2 POP POP JUMP JUMPDEST PUSH1 0x0 PUSH1 0x20 DUP3 DUP5 SUB SLT ISZERO PUSH2 0xDB JUMPI PUSH1 0x0 DUP1 REVERT JUMPDEST DUP2 CALLDATALOAD PUSH8 0xFFFFFFFFFFFFFFFF DUP2 AND DUP2 EQ PUSH2 0xA7 JUMPI PUSH1 0x0 DUP1 REVERT JUMPDEST PUSH1 0x0 PUSH8 0xFFFFFFFFFFFFFFFF DUP4 AND DUP1 PUSH2 0x11B JUMPI PUSH4 0x4E487B71 PUSH1 0xE0 SHL PUSH1 0x0 MSTORE PUSH1 0x12 PUSH1 0x4 MSTORE PUSH1 0x24 PUSH1 0x0 REVERT JUMPDEST DUP1 PUSH8 0xFFFFFFFFFFFFFFFF DUP5 AND DIV SWAP2 POP POP SWAP3 SWAP2 POP POP JUMP JUMPDEST PUSH8 0xFFFFFFFFFFFFFFFF DUP3 DUP2 AND DUP3 DUP3 AND SUB SWAP1 DUP2 GT ISZERO PUSH2 0x15F JUMPI PUSH4 0x4E487B71 PUSH1 0xE0 SHL PUSH1 0x0 MSTORE PUSH1 0x11 PUSH1 0x4 MSTORE PUSH1 0x24 PUSH1 0x0 REVERT JUMPDEST SWAP3 SWAP2 POP POP JUMP INVALID LOG2 PUSH5 0x6970667358 0x22 SLT KECCAK256 0xF 0xBF COINBASE 0xD3 CALLDATASIZE ISZERO MSTORE PUSH11 0x3DBB1787D224DA09B80972 GT 0xBD TLOAD SWAP9 0xF8 SWAP2 0xD3 PUSH2 0x9F72 0xCA 0xD3 0xCB PUSH5 0x736F6C6343 STOP ADDMOD SHR STOP CALLER "},"methodIdentifiers":{"applyFee((address,uint32,uint64,uint64,bool,bool))":"43d9564d","applyFeeView((address,uint32,uint64,uint64,bool,bool))":"81993cd0"}}}}}