{
  "_format": "hh-sol-artifact-1",
  "contractName": "EndpointV2ViewUpgradeable",
  "sourceName": "contracts/EndpointV2ViewUpgradeable.sol",
  "abi": [
    {
      "inputs": [],
      "name": "InvalidInitialization",
      "type": "error"
    },
    {
      "inputs": [],
      "name": "NotInitializing",
      "type": "error"
    },
    {
      "anonymous": false,
      "inputs": [
        {
          "indexed": false,
          "internalType": "uint64",
          "name": "version",
          "type": "uint64"
        }
      ],
      "name": "Initialized",
      "type": "event"
    },
    {
      "inputs": [],
      "name": "EMPTY_PAYLOAD_HASH",
      "outputs": [
        {
          "internalType": "bytes32",
          "name": "",
          "type": "bytes32"
        }
      ],
      "stateMutability": "view",
      "type": "function"
    },
    {
      "inputs": [],
      "name": "NIL_PAYLOAD_HASH",
      "outputs": [
        {
          "internalType": "bytes32",
          "name": "",
          "type": "bytes32"
        }
      ],
      "stateMutability": "view",
      "type": "function"
    },
    {
      "inputs": [],
      "name": "endpoint",
      "outputs": [
        {
          "internalType": "contract ILayerZeroEndpointV2",
          "name": "",
          "type": "address"
        }
      ],
      "stateMutability": "view",
      "type": "function"
    },
    {
      "inputs": [
        {
          "components": [
            {
              "internalType": "uint32",
              "name": "srcEid",
              "type": "uint32"
            },
            {
              "internalType": "bytes32",
              "name": "sender",
              "type": "bytes32"
            },
            {
              "internalType": "uint64",
              "name": "nonce",
              "type": "uint64"
            }
          ],
          "internalType": "struct Origin",
          "name": "_origin",
          "type": "tuple"
        },
        {
          "internalType": "address",
          "name": "_receiver",
          "type": "address"
        }
      ],
      "name": "executable",
      "outputs": [
        {
          "internalType": "enum ExecutionState",
          "name": "",
          "type": "uint8"
        }
      ],
      "stateMutability": "view",
      "type": "function"
    },
    {
      "inputs": [
        {
          "components": [
            {
              "internalType": "uint32",
              "name": "srcEid",
              "type": "uint32"
            },
            {
              "internalType": "bytes32",
              "name": "sender",
              "type": "bytes32"
            },
            {
              "internalType": "uint64",
              "name": "nonce",
              "type": "uint64"
            }
          ],
          "internalType": "struct Origin",
          "name": "_origin",
          "type": "tuple"
        },
        {
          "internalType": "address",
          "name": "_receiver",
          "type": "address"
        }
      ],
      "name": "initializable",
      "outputs": [
        {
          "internalType": "bool",
          "name": "",
          "type": "bool"
        }
      ],
      "stateMutability": "view",
      "type": "function"
    },
    {
      "inputs": [
        {
          "components": [
            {
              "internalType": "uint32",
              "name": "srcEid",
              "type": "uint32"
            },
            {
              "internalType": "bytes32",
              "name": "sender",
              "type": "bytes32"
            },
            {
              "internalType": "uint64",
              "name": "nonce",
              "type": "uint64"
            }
          ],
          "internalType": "struct Origin",
          "name": "_origin",
          "type": "tuple"
        },
        {
          "internalType": "address",
          "name": "_receiver",
          "type": "address"
        },
        {
          "internalType": "address",
          "name": "_receiveLib",
          "type": "address"
        },
        {
          "internalType": "bytes32",
          "name": "_payloadHash",
          "type": "bytes32"
        }
      ],
      "name": "verifiable",
      "outputs": [
        {
          "internalType": "bool",
          "name": "",
          "type": "bool"
        }
      ],
      "stateMutability": "view",
      "type": "function"
    }
  ],
  "bytecode": "0x6080604052348015600f57600080fd5b5061073f8061001f6000396000f3fe608060405234801561001057600080fd5b50600436106100625760003560e01c80632baf0be7146100675780634b4b2efb146100835780635e280f11146100a3578063861e1ca5146100ce578063cb5026b9146100f1578063e1e3a7df146100f9575b600080fd5b61007060001981565b6040519081526020015b60405180910390f35b6100966100913660046105c3565b61010c565b60405161007a91906105f7565b6000546100b6906001600160a01b031681565b6040516001600160a01b03909116815260200161007a565b6100e16100dc3660046105c3565b61035a565b604051901515815260200161007a565b610070600081565b6100e161010736600461061f565b6103d9565b6000805483516020850151604080870151905163c9fc7bcd60e01b81526001600160a01b03878116600483015263ffffffff9094166024820152604481019290925267ffffffffffffffff1660648201528392919091169063c9fc7bcd90608401602060405180830381865afa15801561018a573d6000803e3d6000fd5b505050506040513d601f19601f820116820180604052508101906101ae919061066b565b90508015801561025e5750600054845160208601516040516305b17bb760e41b81526001600160a01b03878116600483015263ffffffff90931660248201526044810191909152911690635b17bb7090606401602060405180830381865afa15801561021e573d6000803e3d6000fd5b505050506040513d601f19601f820116820180604052508101906102429190610684565b67ffffffffffffffff16846040015167ffffffffffffffff1611155b1561026d576003915050610354565b600019811480159061031f57506000548451602086015160405163283750ff60e21b81526001600160a01b03878116600483015263ffffffff9093166024820152604481019190915291169063a0dd43fc90606401602060405180830381865afa1580156102df573d6000803e3d6000fd5b505050506040513d601f19601f820116820180604052508101906103039190610684565b67ffffffffffffffff16846040015167ffffffffffffffff1611155b1561032e576002915050610354565b801580159061033f57506000198114155b1561034e576001915050610354565b60009150505b92915050565b6000805460405163861e1ca560e01b81526001600160a01b039091169063861e1ca59061038d90869086906004016106a8565b602060405180830381865afa9250505080156103c6575060408051601f3d908101601f191682019092526103c3918101906106e7565b60015b6103d257506000610354565b9050610354565b600080548551604051639d7f977560e01b81526001600160a01b03878116600483015263ffffffff90921660248201528582166044820152911690639d7f977590606401602060405180830381865afa15801561043a573d6000803e3d6000fd5b505050506040513d601f19601f8201168201806040525081019061045e91906106e7565b61046a575060006104fa565b60005460405163c9a54a9960e01b81526001600160a01b039091169063c9a54a999061049c90889088906004016106a8565b602060405180830381865afa1580156104b9573d6000803e3d6000fd5b505050506040513d601f19601f820116820180604052508101906104dd91906106e7565b6104e9575060006104fa565b816104f6575060006104fa565b5060015b949350505050565b67ffffffffffffffff8116811461051857600080fd5b50565b803561052681610502565b919050565b60006060828403121561053d57600080fd5b6040516060810181811067ffffffffffffffff8211171561056e57634e487b7160e01b600052604160045260246000fd5b604052905080823563ffffffff8116811461058857600080fd5b8152602083810135908201526105a06040840161051b565b60408201525092915050565b80356001600160a01b038116811461052657600080fd5b600080608083850312156105d657600080fd5b6105e0848461052b565b91506105ee606084016105ac565b90509250929050565b602081016004831061061957634e487b7160e01b600052602160045260246000fd5b91905290565b60008060008060c0858703121561063557600080fd5b61063f868661052b565b935061064d606086016105ac565b925061065b608086016105ac565b9396929550929360a00135925050565b60006020828403121561067d57600080fd5b5051919050565b60006020828403121561069657600080fd5b81516106a181610502565b9392505050565b825163ffffffff1681526020808401519082015260409283015167ffffffffffffffff16928101929092526001600160a01b0316606082015260800190565b6000602082840312156106f957600080fd5b815180151581146106a157600080fdfea264697066735822122049d79e15b028237aa1c02ca8ef51d5985f0bd6cb5cd3424d23bebf163ba83fff64736f6c634300081c0033",
  "linkReferences": {},
  "deployedLinkReferences": {}
}