{
  "_format": "hh-sol-artifact-1",
  "contractName": "Transfer",
  "sourceName": "contracts/libs/Transfer.sol",
  "abi": [
    {
      "inputs": [
        {
          "internalType": "address",
          "name": "owner",
          "type": "address"
        }
      ],
      "name": "OwnableInvalidOwner",
      "type": "error"
    },
    {
      "inputs": [
        {
          "internalType": "address",
          "name": "account",
          "type": "address"
        }
      ],
      "name": "OwnableUnauthorizedAccount",
      "type": "error"
    },
    {
      "inputs": [],
      "name": "Transfer_ApproveFailed",
      "type": "error"
    },
    {
      "inputs": [],
      "name": "Transfer_TransferFailed",
      "type": "error"
    },
    {
      "anonymous": false,
      "inputs": [
        {
          "indexed": true,
          "internalType": "address",
          "name": "previousOwner",
          "type": "address"
        },
        {
          "indexed": true,
          "internalType": "address",
          "name": "newOwner",
          "type": "address"
        }
      ],
      "name": "OwnershipTransferred",
      "type": "event"
    },
    {
      "inputs": [],
      "name": "getTransferGasLimit",
      "outputs": [
        {
          "internalType": "uint256",
          "name": "",
          "type": "uint256"
        }
      ],
      "stateMutability": "view",
      "type": "function"
    },
    {
      "inputs": [],
      "name": "owner",
      "outputs": [
        {
          "internalType": "address",
          "name": "",
          "type": "address"
        }
      ],
      "stateMutability": "view",
      "type": "function"
    },
    {
      "inputs": [],
      "name": "renounceOwnership",
      "outputs": [],
      "stateMutability": "nonpayable",
      "type": "function"
    },
    {
      "inputs": [
        {
          "internalType": "uint256",
          "name": "_gasLimit",
          "type": "uint256"
        }
      ],
      "name": "setTransferGasLimit",
      "outputs": [],
      "stateMutability": "nonpayable",
      "type": "function"
    },
    {
      "inputs": [
        {
          "internalType": "address",
          "name": "newOwner",
          "type": "address"
        }
      ],
      "name": "transferOwnership",
      "outputs": [],
      "stateMutability": "nonpayable",
      "type": "function"
    }
  ],
  "bytecode": "0x60806040526108fc600155348015601557600080fd5b503380603b57604051631e4fbdf760e01b81526000600482015260240160405180910390fd5b6042816047565b506097565b600080546001600160a01b038381166001600160a01b0319831681178455604051919092169283917f8be0079c531659141344cd1fd0a4f28419497f9722a3daafe3b4186f6b6457e09190a35050565b61021d806100a66000396000f3fe608060405234801561001057600080fd5b50600436106100575760003560e01c8063715018a61461005c57806388543f0e146100665780638c70830b1461007c5780638da5cb5b1461008f578063f2fde38b146100aa575b600080fd5b6100646100bd565b005b6001546040519081526020015b60405180910390f35b61006461008a36600461019e565b6100d1565b6000546040516001600160a01b039091168152602001610073565b6100646100b83660046101b7565b6100de565b6100c5610121565b6100cf600061014e565b565b6100d9610121565b600155565b6100e6610121565b6001600160a01b03811661011557604051631e4fbdf760e01b8152600060048201526024015b60405180910390fd5b61011e8161014e565b50565b6000546001600160a01b031633146100cf5760405163118cdaa760e01b815233600482015260240161010c565b600080546001600160a01b038381166001600160a01b0319831681178455604051919092169283917f8be0079c531659141344cd1fd0a4f28419497f9722a3daafe3b4186f6b6457e09190a35050565b6000602082840312156101b057600080fd5b5035919050565b6000602082840312156101c957600080fd5b81356001600160a01b03811681146101e057600080fd5b939250505056fea2646970667358221220c565dbbb1fee73d8e4166b9e848867964c4393feaaf12d6667385fdd3360968d64736f6c634300081c0033",
  "linkReferences": {},
  "deployedLinkReferences": {}
}