{
  "_format": "hh-sol-artifact-1",
  "contractName": "BlockedMessageLib",
  "sourceName": "contracts/messagelib/BlockedMessageLib.sol",
  "abi": [
    {
      "inputs": [],
      "name": "LZ_NotImplemented",
      "type": "error"
    },
    {
      "stateMutability": "nonpayable",
      "type": "fallback"
    },
    {
      "inputs": [
        {
          "internalType": "uint32",
          "name": "",
          "type": "uint32"
        }
      ],
      "name": "isSupportedEid",
      "outputs": [
        {
          "internalType": "bool",
          "name": "",
          "type": "bool"
        }
      ],
      "stateMutability": "pure",
      "type": "function"
    },
    {
      "inputs": [],
      "name": "messageLibType",
      "outputs": [
        {
          "internalType": "enum MessageLibType",
          "name": "",
          "type": "uint8"
        }
      ],
      "stateMutability": "pure",
      "type": "function"
    },
    {
      "inputs": [
        {
          "internalType": "bytes4",
          "name": "interfaceId",
          "type": "bytes4"
        }
      ],
      "name": "supportsInterface",
      "outputs": [
        {
          "internalType": "bool",
          "name": "",
          "type": "bool"
        }
      ],
      "stateMutability": "view",
      "type": "function"
    },
    {
      "inputs": [],
      "name": "version",
      "outputs": [
        {
          "internalType": "uint64",
          "name": "major",
          "type": "uint64"
        },
        {
          "internalType": "uint8",
          "name": "minor",
          "type": "uint8"
        },
        {
          "internalType": "uint8",
          "name": "endpointVersion",
          "type": "uint8"
        }
      ],
      "stateMutability": "pure",
      "type": "function"
    }
  ],
  "bytecode": "0x6080604052348015600f57600080fd5b506101c38061001f6000396000f3fe608060405234801561001057600080fd5b506004361061004c5760003560e01c806301ffc9a7146100655780631881d94d1461008d57806354fd4d501461009c5780636750cd4c146100c3575b604051632657b6c360e01b815260040160405180910390fd5b61007861007336600461010e565b6100d7565b60405190151581526020015b60405180910390f35b6002604051610084919061013f565b6040805167ffffffffffffffff815260ff6020820152600291810191909152606001610084565b6100786100d1366004610167565b50600190565b60006001600160e01b031982166325fc096160e21b148061010857506301ffc9a760e01b6001600160e01b03198316145b92915050565b60006020828403121561012057600080fd5b81356001600160e01b03198116811461013857600080fd5b9392505050565b602081016003831061016157634e487b7160e01b600052602160045260246000fd5b91905290565b60006020828403121561017957600080fd5b813563ffffffff8116811461013857600080fdfea26469706673582212200bec363c98544a8f85617e2ef220e14d2655ab6298ab7031e82642204d15ab8664736f6c634300081c0033",
  "linkReferences": {},
  "deployedLinkReferences": {}
}