{
  "_format": "hh-sol-artifact-1",
  "contractName": "LPToken",
  "sourceName": "contracts/utils/LPToken.sol",
  "abi": [
    {
      "inputs": [
        {
          "internalType": "string",
          "name": "_name",
          "type": "string"
        },
        {
          "internalType": "string",
          "name": "_symbol",
          "type": "string"
        },
        {
          "internalType": "uint8",
          "name": "_decimals",
          "type": "uint8"
        }
      ],
      "stateMutability": "nonpayable",
      "type": "constructor"
    },
    {
      "inputs": [],
      "name": "ECDSAInvalidSignature",
      "type": "error"
    },
    {
      "inputs": [
        {
          "internalType": "uint256",
          "name": "length",
          "type": "uint256"
        }
      ],
      "name": "ECDSAInvalidSignatureLength",
      "type": "error"
    },
    {
      "inputs": [
        {
          "internalType": "bytes32",
          "name": "s",
          "type": "bytes32"
        }
      ],
      "name": "ECDSAInvalidSignatureS",
      "type": "error"
    },
    {
      "inputs": [
        {
          "internalType": "address",
          "name": "spender",
          "type": "address"
        },
        {
          "internalType": "uint256",
          "name": "allowance",
          "type": "uint256"
        },
        {
          "internalType": "uint256",
          "name": "needed",
          "type": "uint256"
        }
      ],
      "name": "ERC20InsufficientAllowance",
      "type": "error"
    },
    {
      "inputs": [
        {
          "internalType": "address",
          "name": "sender",
          "type": "address"
        },
        {
          "internalType": "uint256",
          "name": "balance",
          "type": "uint256"
        },
        {
          "internalType": "uint256",
          "name": "needed",
          "type": "uint256"
        }
      ],
      "name": "ERC20InsufficientBalance",
      "type": "error"
    },
    {
      "inputs": [
        {
          "internalType": "address",
          "name": "approver",
          "type": "address"
        }
      ],
      "name": "ERC20InvalidApprover",
      "type": "error"
    },
    {
      "inputs": [
        {
          "internalType": "address",
          "name": "receiver",
          "type": "address"
        }
      ],
      "name": "ERC20InvalidReceiver",
      "type": "error"
    },
    {
      "inputs": [
        {
          "internalType": "address",
          "name": "sender",
          "type": "address"
        }
      ],
      "name": "ERC20InvalidSender",
      "type": "error"
    },
    {
      "inputs": [
        {
          "internalType": "address",
          "name": "spender",
          "type": "address"
        }
      ],
      "name": "ERC20InvalidSpender",
      "type": "error"
    },
    {
      "inputs": [
        {
          "internalType": "uint256",
          "name": "deadline",
          "type": "uint256"
        }
      ],
      "name": "ERC2612ExpiredSignature",
      "type": "error"
    },
    {
      "inputs": [
        {
          "internalType": "address",
          "name": "signer",
          "type": "address"
        },
        {
          "internalType": "address",
          "name": "owner",
          "type": "address"
        }
      ],
      "name": "ERC2612InvalidSigner",
      "type": "error"
    },
    {
      "inputs": [
        {
          "internalType": "address",
          "name": "account",
          "type": "address"
        },
        {
          "internalType": "uint256",
          "name": "currentNonce",
          "type": "uint256"
        }
      ],
      "name": "InvalidAccountNonce",
      "type": "error"
    },
    {
      "inputs": [],
      "name": "InvalidShortString",
      "type": "error"
    },
    {
      "inputs": [],
      "name": "LPToken_Unauthorized",
      "type": "error"
    },
    {
      "inputs": [
        {
          "internalType": "string",
          "name": "str",
          "type": "string"
        }
      ],
      "name": "StringTooLong",
      "type": "error"
    },
    {
      "anonymous": false,
      "inputs": [
        {
          "indexed": true,
          "internalType": "address",
          "name": "owner",
          "type": "address"
        },
        {
          "indexed": true,
          "internalType": "address",
          "name": "spender",
          "type": "address"
        },
        {
          "indexed": false,
          "internalType": "uint256",
          "name": "value",
          "type": "uint256"
        }
      ],
      "name": "Approval",
      "type": "event"
    },
    {
      "anonymous": false,
      "inputs": [],
      "name": "EIP712DomainChanged",
      "type": "event"
    },
    {
      "anonymous": false,
      "inputs": [
        {
          "indexed": true,
          "internalType": "address",
          "name": "from",
          "type": "address"
        },
        {
          "indexed": true,
          "internalType": "address",
          "name": "to",
          "type": "address"
        },
        {
          "indexed": false,
          "internalType": "uint256",
          "name": "value",
          "type": "uint256"
        }
      ],
      "name": "Transfer",
      "type": "event"
    },
    {
      "inputs": [],
      "name": "DOMAIN_SEPARATOR",
      "outputs": [
        {
          "internalType": "bytes32",
          "name": "",
          "type": "bytes32"
        }
      ],
      "stateMutability": "view",
      "type": "function"
    },
    {
      "inputs": [
        {
          "internalType": "address",
          "name": "owner",
          "type": "address"
        },
        {
          "internalType": "address",
          "name": "spender",
          "type": "address"
        }
      ],
      "name": "allowance",
      "outputs": [
        {
          "internalType": "uint256",
          "name": "",
          "type": "uint256"
        }
      ],
      "stateMutability": "view",
      "type": "function"
    },
    {
      "inputs": [
        {
          "internalType": "address",
          "name": "spender",
          "type": "address"
        },
        {
          "internalType": "uint256",
          "name": "value",
          "type": "uint256"
        }
      ],
      "name": "approve",
      "outputs": [
        {
          "internalType": "bool",
          "name": "",
          "type": "bool"
        }
      ],
      "stateMutability": "nonpayable",
      "type": "function"
    },
    {
      "inputs": [
        {
          "internalType": "address",
          "name": "account",
          "type": "address"
        }
      ],
      "name": "balanceOf",
      "outputs": [
        {
          "internalType": "uint256",
          "name": "",
          "type": "uint256"
        }
      ],
      "stateMutability": "view",
      "type": "function"
    },
    {
      "inputs": [
        {
          "internalType": "address",
          "name": "_from",
          "type": "address"
        },
        {
          "internalType": "uint256",
          "name": "_amount",
          "type": "uint256"
        }
      ],
      "name": "burnFrom",
      "outputs": [],
      "stateMutability": "nonpayable",
      "type": "function"
    },
    {
      "inputs": [],
      "name": "decimals",
      "outputs": [
        {
          "internalType": "uint8",
          "name": "",
          "type": "uint8"
        }
      ],
      "stateMutability": "view",
      "type": "function"
    },
    {
      "inputs": [],
      "name": "eip712Domain",
      "outputs": [
        {
          "internalType": "bytes1",
          "name": "fields",
          "type": "bytes1"
        },
        {
          "internalType": "string",
          "name": "name",
          "type": "string"
        },
        {
          "internalType": "string",
          "name": "version",
          "type": "string"
        },
        {
          "internalType": "uint256",
          "name": "chainId",
          "type": "uint256"
        },
        {
          "internalType": "address",
          "name": "verifyingContract",
          "type": "address"
        },
        {
          "internalType": "bytes32",
          "name": "salt",
          "type": "bytes32"
        },
        {
          "internalType": "uint256[]",
          "name": "extensions",
          "type": "uint256[]"
        }
      ],
      "stateMutability": "view",
      "type": "function"
    },
    {
      "inputs": [
        {
          "internalType": "address",
          "name": "_to",
          "type": "address"
        },
        {
          "internalType": "uint256",
          "name": "_amount",
          "type": "uint256"
        }
      ],
      "name": "mint",
      "outputs": [],
      "stateMutability": "nonpayable",
      "type": "function"
    },
    {
      "inputs": [],
      "name": "name",
      "outputs": [
        {
          "internalType": "string",
          "name": "",
          "type": "string"
        }
      ],
      "stateMutability": "view",
      "type": "function"
    },
    {
      "inputs": [
        {
          "internalType": "address",
          "name": "owner",
          "type": "address"
        }
      ],
      "name": "nonces",
      "outputs": [
        {
          "internalType": "uint256",
          "name": "",
          "type": "uint256"
        }
      ],
      "stateMutability": "view",
      "type": "function"
    },
    {
      "inputs": [
        {
          "internalType": "address",
          "name": "owner",
          "type": "address"
        },
        {
          "internalType": "address",
          "name": "spender",
          "type": "address"
        },
        {
          "internalType": "uint256",
          "name": "value",
          "type": "uint256"
        },
        {
          "internalType": "uint256",
          "name": "deadline",
          "type": "uint256"
        },
        {
          "internalType": "uint8",
          "name": "v",
          "type": "uint8"
        },
        {
          "internalType": "bytes32",
          "name": "r",
          "type": "bytes32"
        },
        {
          "internalType": "bytes32",
          "name": "s",
          "type": "bytes32"
        }
      ],
      "name": "permit",
      "outputs": [],
      "stateMutability": "nonpayable",
      "type": "function"
    },
    {
      "inputs": [],
      "name": "stargate",
      "outputs": [
        {
          "internalType": "address",
          "name": "",
          "type": "address"
        }
      ],
      "stateMutability": "view",
      "type": "function"
    },
    {
      "inputs": [],
      "name": "symbol",
      "outputs": [
        {
          "internalType": "string",
          "name": "",
          "type": "string"
        }
      ],
      "stateMutability": "view",
      "type": "function"
    },
    {
      "inputs": [],
      "name": "totalSupply",
      "outputs": [
        {
          "internalType": "uint256",
          "name": "",
          "type": "uint256"
        }
      ],
      "stateMutability": "view",
      "type": "function"
    },
    {
      "inputs": [
        {
          "internalType": "address",
          "name": "to",
          "type": "address"
        },
        {
          "internalType": "uint256",
          "name": "value",
          "type": "uint256"
        }
      ],
      "name": "transfer",
      "outputs": [
        {
          "internalType": "bool",
          "name": "",
          "type": "bool"
        }
      ],
      "stateMutability": "nonpayable",
      "type": "function"
    },
    {
      "inputs": [
        {
          "internalType": "address",
          "name": "from",
          "type": "address"
        },
        {
          "internalType": "address",
          "name": "to",
          "type": "address"
        },
        {
          "internalType": "uint256",
          "name": "value",
          "type": "uint256"
        }
      ],
      "name": "transferFrom",
      "outputs": [
        {
          "internalType": "bool",
          "name": "",
          "type": "bool"
        }
      ],
      "stateMutability": "nonpayable",
      "type": "function"
    }
  ],
  "bytecode": "0x6101a060405234801561001157600080fd5b506040516115d63803806115d68339810160408190526100309161026e565b6040805180820190915260018152603160f81b6020820152839081908185600361005a838261037a565b506004610067828261037a565b5061007791508390506005610131565b61012052610086816006610131565b61014052815160208084019190912060e052815190820120610100524660a05261011360e05161010051604080517f8b73c3c69bb8fe3d512ecc4cf759cc79239f7b179b0ffacaa9a75d522b39400f60208201529081019290925260608201524660808201523060a082015260009060c00160405160208183030381529060405280519060200120905090565b60805250503060c05250336101605260ff16610180525061048f9050565b600060208351101561014d5761014683610164565b905061015e565b81610158848261037a565b5060ff90505b92915050565b600080829050601f81511115610198578260405163305a27a960e01b815260040161018f9190610438565b60405180910390fd5b80516101a38261046b565b179392505050565b634e487b7160e01b600052604160045260246000fd5b60005b838110156101dc5781810151838201526020016101c4565b50506000910152565b600082601f8301126101f657600080fd5b81516001600160401b0381111561020f5761020f6101ab565b604051601f8201601f19908116603f011681016001600160401b038111828210171561023d5761023d6101ab565b60405281815283820160200185101561025557600080fd5b6102668260208301602087016101c1565b949350505050565b60008060006060848603121561028357600080fd5b83516001600160401b0381111561029957600080fd5b6102a5868287016101e5565b602086015190945090506001600160401b038111156102c357600080fd5b6102cf868287016101e5565b925050604084015160ff811681146102e657600080fd5b809150509250925092565b600181811c9082168061030557607f821691505b60208210810361032557634e487b7160e01b600052602260045260246000fd5b50919050565b601f82111561037557806000526020600020601f840160051c810160208510156103525750805b601f840160051c820191505b81811015610372576000815560010161035e565b50505b505050565b81516001600160401b03811115610393576103936101ab565b6103a7816103a184546102f1565b8461032b565b6020601f8211600181146103db57600083156103c35750848201515b600019600385901b1c1916600184901b178455610372565b600084815260208120601f198516915b8281101561040b57878501518255602094850194600190920191016103eb565b50848210156104295786840151600019600387901b60f8161c191681555b50505050600190811b01905550565b60208152600082518060208401526104578160408501602087016101c1565b601f01601f19169190910160400192915050565b805160208083015191908110156103255760001960209190910360031b1b16919050565b60805160a05160c05160e05161010051610120516101405161016051610180516110c961050d60003960006101720152600081816101be015281816103b3015261040a015260006108cc0152600061089f015260006107db015260006107b30152600061070e015260006107380152600061076201526110c96000f3fe608060405234801561001057600080fd5b50600436106101005760003560e01c806370a082311161009757806395d89b411161006657806395d89b4114610262578063a9059cbb1461026a578063d505accf1461027d578063dd62ed3e1461029057600080fd5b806370a08231146101f857806379cc6790146102215780637ecebe001461023457806384b0196e1461024757600080fd5b8063313ce567116100d3578063313ce5671461016b5780633644e5151461019c57806340c10f19146101a45780636c099dee146101b957600080fd5b806306fdde0314610105578063095ea7b31461012357806318160ddd1461014657806323b872dd14610158575b600080fd5b61010d6102c9565b60405161011a9190610e2c565b60405180910390f35b610136610131366004610e62565b61035b565b604051901515815260200161011a565b6002545b60405190815260200161011a565b610136610166366004610e8c565b610375565b60405160ff7f000000000000000000000000000000000000000000000000000000000000000016815260200161011a565b61014a610399565b6101b76101b2366004610e62565b6103a8565b005b6101e07f000000000000000000000000000000000000000000000000000000000000000081565b6040516001600160a01b03909116815260200161011a565b61014a610206366004610ec9565b6001600160a01b031660009081526020819052604090205490565b6101b761022f366004610e62565b6103ff565b61014a610242366004610ec9565b610452565b61024f610470565b60405161011a9796959493929190610ee4565b61010d6104b6565b610136610278366004610e62565b6104c5565b6101b761028b366004610f7c565b6104d3565b61014a61029e366004610fef565b6001600160a01b03918216600090815260016020908152604080832093909416825291909152205490565b6060600380546102d890611022565b80601f016020809104026020016040519081016040528092919081815260200182805461030490611022565b80156103515780601f1061032657610100808354040283529160200191610351565b820191906000526020600020905b81548152906001019060200180831161033457829003601f168201915b5050505050905090565b600033610369818585610612565b60019150505b92915050565b600033610383858285610624565b61038e8585856106a2565b506001949350505050565b60006103a3610701565b905090565b336001600160a01b037f000000000000000000000000000000000000000000000000000000000000000016146103f15760405163ba06efeb60e01b815260040160405180910390fd5b6103fb828261082c565b5050565b336001600160a01b037f000000000000000000000000000000000000000000000000000000000000000016146104485760405163ba06efeb60e01b815260040160405180910390fd5b6103fb8282610862565b6001600160a01b03811660009081526007602052604081205461036f565b600060608060008060006060610484610898565b61048c6108c5565b60408051600080825260208201909252600f60f81b9b939a50919850469750309650945092509050565b6060600480546102d890611022565b6000336103698185856106a2565b834211156104fc5760405163313c898160e11b8152600481018590526024015b60405180910390fd5b60007f6e71edae12b1b97f4d1f60370fef10105fa2faae0126114a169c64845d6126c98888886105498c6001600160a01b0316600090815260076020526040902080546001810190915590565b6040805160208101969096526001600160a01b0394851690860152929091166060840152608083015260a082015260c0810186905260e00160405160208183030381529060405280519060200120905060006105a4826108f2565b905060006105b48287878761091f565b9050896001600160a01b0316816001600160a01b0316146105fb576040516325c0072360e11b81526001600160a01b0380831660048301528b1660248201526044016104f3565b6106068a8a8a610612565b50505050505050505050565b61061f838383600161094d565b505050565b6001600160a01b03838116600090815260016020908152604080832093861683529290522054600019811461069c578181101561068d57604051637dc7a0d960e11b81526001600160a01b038416600482015260248101829052604481018390526064016104f3565b61069c8484848403600061094d565b50505050565b6001600160a01b0383166106cc57604051634b637e8f60e11b8152600060048201526024016104f3565b6001600160a01b0382166106f65760405163ec442f0560e01b8152600060048201526024016104f3565b61061f838383610a22565b6000306001600160a01b037f00000000000000000000000000000000000000000000000000000000000000001614801561075a57507f000000000000000000000000000000000000000000000000000000000000000046145b1561078457507f000000000000000000000000000000000000000000000000000000000000000090565b6103a3604080517f8b73c3c69bb8fe3d512ecc4cf759cc79239f7b179b0ffacaa9a75d522b39400f60208201527f0000000000000000000000000000000000000000000000000000000000000000918101919091527f000000000000000000000000000000000000000000000000000000000000000060608201524660808201523060a082015260009060c00160405160208183030381529060405280519060200120905090565b6001600160a01b0382166108565760405163ec442f0560e01b8152600060048201526024016104f3565b6103fb60008383610a22565b6001600160a01b03821661088c57604051634b637e8f60e11b8152600060048201526024016104f3565b6103fb82600083610a22565b60606103a37f00000000000000000000000000000000000000000000000000000000000000006005610b4c565b60606103a37f00000000000000000000000000000000000000000000000000000000000000006006610b4c565b600061036f6108ff610701565b8360405161190160f01b8152600281019290925260228201526042902090565b60008060008061093188888888610bf7565b9250925092506109418282610cc6565b50909695505050505050565b6001600160a01b0384166109775760405163e602df0560e01b8152600060048201526024016104f3565b6001600160a01b0383166109a157604051634a1406b160e11b8152600060048201526024016104f3565b6001600160a01b038085166000908152600160209081526040808320938716835292905220829055801561069c57826001600160a01b0316846001600160a01b03167f8c5be1e5ebec7d5bd14f71427d1e84f3dd0314c0f7b2291e5b200ac8c7c3b92584604051610a1491815260200190565b60405180910390a350505050565b6001600160a01b038316610a4d578060026000828254610a42919061105c565b90915550610abf9050565b6001600160a01b03831660009081526020819052604090205481811015610aa05760405163391434e360e21b81526001600160a01b038516600482015260248101829052604481018390526064016104f3565b6001600160a01b03841660009081526020819052604090209082900390555b6001600160a01b038216610adb57600280548290039055610afa565b6001600160a01b03821660009081526020819052604090208054820190555b816001600160a01b0316836001600160a01b03167fddf252ad1be2c89b69c2b068fc378daa952ba7f163c4a11628f55a4df523b3ef83604051610b3f91815260200190565b60405180910390a3505050565b606060ff8314610b6657610b5f83610d7f565b905061036f565b818054610b7290611022565b80601f0160208091040260200160405190810160405280929190818152602001828054610b9e90611022565b8015610beb5780601f10610bc057610100808354040283529160200191610beb565b820191906000526020600020905b815481529060010190602001808311610bce57829003601f168201915b5050505050905061036f565b600080807f7fffffffffffffffffffffffffffffff5d576e7357a4501ddfe92f46681b20a0841115610c325750600091506003905082610cbc565b604080516000808252602082018084528a905260ff891692820192909252606081018790526080810186905260019060a0016020604051602081039080840390855afa158015610c86573d6000803e3d6000fd5b5050604051601f1901519150506001600160a01b038116610cb257506000925060019150829050610cbc565b9250600091508190505b9450945094915050565b6000826003811115610cda57610cda61107d565b03610ce3575050565b6001826003811115610cf757610cf761107d565b03610d155760405163f645eedf60e01b815260040160405180910390fd5b6002826003811115610d2957610d2961107d565b03610d4a5760405163fce698f760e01b8152600481018290526024016104f3565b6003826003811115610d5e57610d5e61107d565b036103fb576040516335e2f38360e21b8152600481018290526024016104f3565b60606000610d8c83610dbe565b604080516020808252818301909252919250600091906020820181803683375050509182525060208101929092525090565b600060ff8216601f81111561036f57604051632cd44ac360e21b815260040160405180910390fd5b6000815180845260005b81811015610e0c57602081850181015186830182015201610df0565b506000602082860101526020601f19601f83011685010191505092915050565b602081526000610e3f6020830184610de6565b9392505050565b80356001600160a01b0381168114610e5d57600080fd5b919050565b60008060408385031215610e7557600080fd5b610e7e83610e46565b946020939093013593505050565b600080600060608486031215610ea157600080fd5b610eaa84610e46565b9250610eb860208501610e46565b929592945050506040919091013590565b600060208284031215610edb57600080fd5b610e3f82610e46565b60ff60f81b8816815260e060208201526000610f0360e0830189610de6565b8281036040840152610f158189610de6565b606084018890526001600160a01b038716608085015260a0840186905283810360c08501528451808252602080870193509091019060005b81811015610f6b578351835260209384019390920191600101610f4d565b50909b9a5050505050505050505050565b600080600080600080600060e0888a031215610f9757600080fd5b610fa088610e46565b9650610fae60208901610e46565b95506040880135945060608801359350608088013560ff81168114610fd257600080fd5b9699959850939692959460a0840135945060c09093013592915050565b6000806040838503121561100257600080fd5b61100b83610e46565b915061101960208401610e46565b90509250929050565b600181811c9082168061103657607f821691505b60208210810361105657634e487b7160e01b600052602260045260246000fd5b50919050565b8082018082111561036f57634e487b7160e01b600052601160045260246000fd5b634e487b7160e01b600052602160045260246000fdfea26469706673582212205ce3c61f8a1c8f3b5ad8f2ee0bf03daea088ac65e95726526e56f3b8588a2c4164736f6c634300081c0033",
  "linkReferences": {},
  "deployedLinkReferences": {}
}