{
  "_format": "hh-sol-artifact-1",
  "contractName": "SimpleMessageLib",
  "sourceName": "contracts/messagelib/SimpleMessageLib.sol",
  "abi": [
    {
      "inputs": [
        {
          "internalType": "address",
          "name": "_endpoint",
          "type": "address"
        },
        {
          "internalType": "address",
          "name": "_treasury",
          "type": "address"
        }
      ],
      "stateMutability": "nonpayable",
      "type": "constructor"
    },
    {
      "inputs": [
        {
          "internalType": "address",
          "name": "expected",
          "type": "address"
        },
        {
          "internalType": "address",
          "name": "actual",
          "type": "address"
        }
      ],
      "name": "InvalidEndpoint",
      "type": "error"
    },
    {
      "inputs": [],
      "name": "LZ_NotImplemented",
      "type": "error"
    },
    {
      "inputs": [],
      "name": "LzTokenIsAddressZero",
      "type": "error"
    },
    {
      "inputs": [],
      "name": "OnlyEndpoint",
      "type": "error"
    },
    {
      "inputs": [],
      "name": "OnlyWhitelistCaller",
      "type": "error"
    },
    {
      "inputs": [
        {
          "internalType": "address",
          "name": "owner",
          "type": "address"
        }
      ],
      "name": "OwnableInvalidOwner",
      "type": "error"
    },
    {
      "inputs": [
        {
          "internalType": "address",
          "name": "account",
          "type": "address"
        }
      ],
      "name": "OwnableUnauthorizedAccount",
      "type": "error"
    },
    {
      "inputs": [
        {
          "internalType": "address",
          "name": "token",
          "type": "address"
        }
      ],
      "name": "SafeERC20FailedOperation",
      "type": "error"
    },
    {
      "inputs": [],
      "name": "ToIsAddressZero",
      "type": "error"
    },
    {
      "inputs": [],
      "name": "TransferFailed",
      "type": "error"
    },
    {
      "inputs": [
        {
          "internalType": "address",
          "name": "_to",
          "type": "address"
        },
        {
          "internalType": "uint256",
          "name": "_value",
          "type": "uint256"
        }
      ],
      "name": "Transfer_NativeFailed",
      "type": "error"
    },
    {
      "inputs": [],
      "name": "Transfer_ToAddressIsZero",
      "type": "error"
    },
    {
      "anonymous": false,
      "inputs": [
        {
          "indexed": true,
          "internalType": "address",
          "name": "previousOwner",
          "type": "address"
        },
        {
          "indexed": true,
          "internalType": "address",
          "name": "newOwner",
          "type": "address"
        }
      ],
      "name": "OwnershipTransferred",
      "type": "event"
    },
    {
      "stateMutability": "payable",
      "type": "fallback"
    },
    {
      "inputs": [],
      "name": "PACKET_VERSION",
      "outputs": [
        {
          "internalType": "uint8",
          "name": "",
          "type": "uint8"
        }
      ],
      "stateMutability": "view",
      "type": "function"
    },
    {
      "inputs": [],
      "name": "defaultOption",
      "outputs": [
        {
          "internalType": "bytes",
          "name": "",
          "type": "bytes"
        }
      ],
      "stateMutability": "view",
      "type": "function"
    },
    {
      "inputs": [],
      "name": "endpoint",
      "outputs": [
        {
          "internalType": "address",
          "name": "",
          "type": "address"
        }
      ],
      "stateMutability": "view",
      "type": "function"
    },
    {
      "inputs": [
        {
          "internalType": "uint32",
          "name": "",
          "type": "uint32"
        }
      ],
      "name": "isSupportedEid",
      "outputs": [
        {
          "internalType": "bool",
          "name": "",
          "type": "bool"
        }
      ],
      "stateMutability": "pure",
      "type": "function"
    },
    {
      "inputs": [],
      "name": "localEid",
      "outputs": [
        {
          "internalType": "uint32",
          "name": "",
          "type": "uint32"
        }
      ],
      "stateMutability": "view",
      "type": "function"
    },
    {
      "inputs": [],
      "name": "lzTokenFee",
      "outputs": [
        {
          "internalType": "uint256",
          "name": "",
          "type": "uint256"
        }
      ],
      "stateMutability": "view",
      "type": "function"
    },
    {
      "inputs": [],
      "name": "messageLibType",
      "outputs": [
        {
          "internalType": "enum MessageLibType",
          "name": "",
          "type": "uint8"
        }
      ],
      "stateMutability": "pure",
      "type": "function"
    },
    {
      "inputs": [],
      "name": "nativeFee",
      "outputs": [
        {
          "internalType": "uint256",
          "name": "",
          "type": "uint256"
        }
      ],
      "stateMutability": "view",
      "type": "function"
    },
    {
      "inputs": [],
      "name": "owner",
      "outputs": [
        {
          "internalType": "address",
          "name": "",
          "type": "address"
        }
      ],
      "stateMutability": "view",
      "type": "function"
    },
    {
      "inputs": [
        {
          "components": [
            {
              "internalType": "uint64",
              "name": "nonce",
              "type": "uint64"
            },
            {
              "internalType": "uint32",
              "name": "srcEid",
              "type": "uint32"
            },
            {
              "internalType": "address",
              "name": "sender",
              "type": "address"
            },
            {
              "internalType": "uint32",
              "name": "dstEid",
              "type": "uint32"
            },
            {
              "internalType": "bytes32",
              "name": "receiver",
              "type": "bytes32"
            },
            {
              "internalType": "bytes32",
              "name": "guid",
              "type": "bytes32"
            },
            {
              "internalType": "bytes",
              "name": "message",
              "type": "bytes"
            }
          ],
          "internalType": "struct Packet",
          "name": "",
          "type": "tuple"
        },
        {
          "internalType": "bytes",
          "name": "",
          "type": "bytes"
        },
        {
          "internalType": "bool",
          "name": "_payInLzToken",
          "type": "bool"
        }
      ],
      "name": "quote",
      "outputs": [
        {
          "components": [
            {
              "internalType": "uint256",
              "name": "nativeFee",
              "type": "uint256"
            },
            {
              "internalType": "uint256",
              "name": "lzTokenFee",
              "type": "uint256"
            }
          ],
          "internalType": "struct MessagingFee",
          "name": "",
          "type": "tuple"
        }
      ],
      "stateMutability": "view",
      "type": "function"
    },
    {
      "inputs": [],
      "name": "renounceOwnership",
      "outputs": [],
      "stateMutability": "nonpayable",
      "type": "function"
    },
    {
      "inputs": [
        {
          "components": [
            {
              "internalType": "uint64",
              "name": "nonce",
              "type": "uint64"
            },
            {
              "internalType": "uint32",
              "name": "srcEid",
              "type": "uint32"
            },
            {
              "internalType": "address",
              "name": "sender",
              "type": "address"
            },
            {
              "internalType": "uint32",
              "name": "dstEid",
              "type": "uint32"
            },
            {
              "internalType": "bytes32",
              "name": "receiver",
              "type": "bytes32"
            },
            {
              "internalType": "bytes32",
              "name": "guid",
              "type": "bytes32"
            },
            {
              "internalType": "bytes",
              "name": "message",
              "type": "bytes"
            }
          ],
          "internalType": "struct Packet",
          "name": "_packet",
          "type": "tuple"
        },
        {
          "internalType": "bytes",
          "name": "_options",
          "type": "bytes"
        },
        {
          "internalType": "bool",
          "name": "_payInLzToken",
          "type": "bool"
        }
      ],
      "name": "send",
      "outputs": [
        {
          "components": [
            {
              "internalType": "uint256",
              "name": "nativeFee",
              "type": "uint256"
            },
            {
              "internalType": "uint256",
              "name": "lzTokenFee",
              "type": "uint256"
            }
          ],
          "internalType": "struct MessagingFee",
          "name": "fee",
          "type": "tuple"
        },
        {
          "internalType": "bytes",
          "name": "encodedPacket",
          "type": "bytes"
        },
        {
          "internalType": "bytes",
          "name": "options",
          "type": "bytes"
        }
      ],
      "stateMutability": "nonpayable",
      "type": "function"
    },
    {
      "inputs": [
        {
          "internalType": "bytes",
          "name": "_defaultOption",
          "type": "bytes"
        }
      ],
      "name": "setDefaultOption",
      "outputs": [],
      "stateMutability": "nonpayable",
      "type": "function"
    },
    {
      "inputs": [
        {
          "internalType": "uint256",
          "name": "_nativeFee",
          "type": "uint256"
        },
        {
          "internalType": "uint256",
          "name": "_lzTokenFee",
          "type": "uint256"
        }
      ],
      "name": "setMessagingFee",
      "outputs": [],
      "stateMutability": "nonpayable",
      "type": "function"
    },
    {
      "inputs": [
        {
          "internalType": "address",
          "name": "_whitelistCaller",
          "type": "address"
        }
      ],
      "name": "setWhitelistCaller",
      "outputs": [],
      "stateMutability": "nonpayable",
      "type": "function"
    },
    {
      "inputs": [
        {
          "internalType": "bytes4",
          "name": "interfaceId",
          "type": "bytes4"
        }
      ],
      "name": "supportsInterface",
      "outputs": [
        {
          "internalType": "bool",
          "name": "",
          "type": "bool"
        }
      ],
      "stateMutability": "view",
      "type": "function"
    },
    {
      "inputs": [
        {
          "internalType": "address",
          "name": "newOwner",
          "type": "address"
        }
      ],
      "name": "transferOwnership",
      "outputs": [],
      "stateMutability": "nonpayable",
      "type": "function"
    },
    {
      "inputs": [],
      "name": "treasury",
      "outputs": [
        {
          "internalType": "address",
          "name": "",
          "type": "address"
        }
      ],
      "stateMutability": "view",
      "type": "function"
    },
    {
      "inputs": [
        {
          "internalType": "bytes",
          "name": "packetBytes",
          "type": "bytes"
        }
      ],
      "name": "validatePacket",
      "outputs": [],
      "stateMutability": "nonpayable",
      "type": "function"
    },
    {
      "inputs": [],
      "name": "version",
      "outputs": [
        {
          "internalType": "uint64",
          "name": "major",
          "type": "uint64"
        },
        {
          "internalType": "uint8",
          "name": "minor",
          "type": "uint8"
        },
        {
          "internalType": "uint8",
          "name": "endpointVersion",
          "type": "uint8"
        }
      ],
      "stateMutability": "pure",
      "type": "function"
    },
    {
      "inputs": [],
      "name": "whitelistCaller",
      "outputs": [
        {
          "internalType": "address",
          "name": "",
          "type": "address"
        }
      ],
      "stateMutability": "view",
      "type": "function"
    },
    {
      "inputs": [
        {
          "internalType": "address",
          "name": "_to",
          "type": "address"
        },
        {
          "internalType": "uint256",
          "name": "_amount",
          "type": "uint256"
        }
      ],
      "name": "withdrawFee",
      "outputs": [],
      "stateMutability": "nonpayable",
      "type": "function"
    },
    {
      "inputs": [
        {
          "internalType": "address",
          "name": "_to",
          "type": "address"
        },
        {
          "internalType": "uint256",
          "name": "_amount",
          "type": "uint256"
        }
      ],
      "name": "withdrawLzTokenFee",
      "outputs": [],
      "stateMutability": "nonpayable",
      "type": "function"
    },
    {
      "stateMutability": "payable",
      "type": "receive"
    }
  ],
  "bytecode": "0x60e060405234801561001057600080fd5b5060405161184938038061184983398101604081905261002f9161015a565b338061005557604051631e4fbdf760e01b81526000600482015260240160405180910390fd5b61005e816100ee565b506001600160a01b03808316608081905290821660a0526040805163416ecebf60e01b8152905163416ecebf916004808201926020929091908290030181865afa1580156100b0573d6000803e3d6000fd5b505050506040513d601f19601f820116820180604052508101906100d4919061018d565b63ffffffff1660c0525050606360025560646003556101ba565b600080546001600160a01b038381166001600160a01b0319831681178455604051919092169283917f8be0079c531659141344cd1fd0a4f28419497f9722a3daafe3b4186f6b6457e09190a35050565b80516001600160a01b038116811461015557600080fd5b919050565b6000806040838503121561016d57600080fd5b6101768361013e565b91506101846020840161013e565b90509250929050565b60006020828403121561019f57600080fd5b815163ffffffff811681146101b357600080fd5b9392505050565b60805160a05160c0516116446102056000396000610361015260006102d001526000818161029c015281816105ab015281816106b4015281816108b00152610a6c01526116446000f3fe6080604052600436106101445760003560e01c8063715018a6116100b6578063996f79c01161006f578063996f79c01461041c578063aec336e614610432578063d80e9bd914610452578063dabca0631461047f578063f2fde38b1461049f578063fd9be522146104bf5761014b565b8063715018a61461033a578063726075371461034f57806372d71322146103985780638da5cb5b146103ba5780638f58aa7a146103d857806390953238146103f85761014b565b80634389e58f116101085780634389e58f1461022f57806354fd4d501461025e5780635e280f111461028a57806361d027b3146102be5780636251b637146102f25780636750cd4c146103195761014b565b806301ffc9a71461016457806312cc947f146101995780631881d94d146101bb5780631c7c294e146101d7578063334993ff1461020f5761014b565b3661014b57005b604051632657b6c360e01b815260040160405180910390fd5b34801561017057600080fd5b5061018461017f366004610e46565b6104df565b60405190151581526020015b60405180910390f35b3480156101a557600080fd5b506101b96101b4366004610eb1565b610516565b005b3480156101c757600080fd5b5060026040516101909190610ef2565b3480156101e357600080fd5b506001546101f7906001600160a01b031681565b6040516001600160a01b039091168152602001610190565b34801561021b57600080fd5b506101b961022a366004610f1a565b610688565b34801561023b57600080fd5b5061024f61024a366004611034565b61069b565b604051610190939291906110fb565b34801561026a57600080fd5b506040805160008082526020820152600291810191909152606001610190565b34801561029657600080fd5b506101f77f000000000000000000000000000000000000000000000000000000000000000081565b3480156102ca57600080fd5b506101f77f000000000000000000000000000000000000000000000000000000000000000081565b3480156102fe57600080fd5b50610307600181565b60405160ff9091168152602001610190565b34801561032557600080fd5b5061018461033436600461114f565b50600190565b34801561034657600080fd5b506101b96107db565b34801561035b57600080fd5b506103837f000000000000000000000000000000000000000000000000000000000000000081565b60405163ffffffff9091168152602001610190565b3480156103a457600080fd5b506103ad6107ef565b604051610190919061116a565b3480156103c657600080fd5b506000546001600160a01b03166101f7565b3480156103e457600080fd5b506101b96103f336600461119d565b61087d565b34801561040457600080fd5b5061040e60025481565b604051908152602001610190565b34801561042857600080fd5b5061040e60035481565b34801561043e57600080fd5b506101b961044d3660046111c9565b610972565b34801561045e57600080fd5b5061047261046d3660046111e6565b61099c565b6040516101909190611264565b34801561048b57600080fd5b506101b961049a36600461127b565b6109de565b3480156104ab57600080fd5b506101b96104ba3660046111c9565b6109f6565b3480156104cb57600080fd5b506101b96104da36600461119d565b610a39565b60006001600160e01b031982166325fc096160e21b148061051057506301ffc9a760e01b6001600160e01b03198316145b92915050565b6001546001600160a01b03161580159061053b57506001546001600160a01b03163314155b1561055957604051631c2c85bb60e21b815260040160405180910390fd5b600060405180606001604052806105708585610af9565b63ffffffff1681526020016105858585610b1c565b81526020016105948585610b3c565b6001600160401b0316905290506001600160a01b037f00000000000000000000000000000000000000000000000000000000000000001663a825d747826105db8686610b5f565b6105e58787610b71565b6040516105f39291906112b7565b6040805191829003822060e086901b6001600160e01b0319168352845163ffffffff166004840152602085015160248401529301516001600160401b031660448201526001600160a01b039091166064820152608481019190915260a401600060405180830381600087803b15801561066b57600080fd5b505af115801561067f573d6000803e3d6000fd5b50505050505050565b610690610b8d565b600391909155600255565b60408051808201909152600080825260208201526060807f00000000000000000000000000000000000000000000000000000000000000006001600160a01b031633146106fb57604051630fd72cd960e31b815260040160405180910390fd5b61070c610707876112de565b610bba565b9150845160001461071d57846107a9565b6004805461072a9061137b565b80601f01602080910402602001604051908101604052809291908181526020018280546107569061137b565b80156107a35780601f10610778576101008083540402835291602001916107a3565b820191906000526020600020905b81548152906001019060200180831161078657829003601f168201915b50505050505b905060405180604001604052806003548152602001856107ca5760006107ce565b6002545b9052969195509350915050565b6107e3610b8d565b6107ed6000610c12565b565b600480546107fc9061137b565b80601f01602080910402602001604051908101604052809291908181526020018280546108289061137b565b80156108755780601f1061084a57610100808354040283529160200191610875565b820191906000526020600020905b81548152906001019060200180831161085857829003601f168201915b505050505081565b610885610b8d565b6001600160a01b0382166108ac57604051633d3496e160e01b815260040160405180910390fd5b60007f00000000000000000000000000000000000000000000000000000000000000006001600160a01b031663e4fe1d946040518163ffffffff1660e01b8152600401602060405180830381865afa15801561090c573d6000803e3d6000fd5b505050506040513d601f19601f8201168201806040525081019061093091906113af565b90506001600160a01b038116610959576040516354c1781b60e01b815260040160405180910390fd5b61096d6001600160a01b0382168484610c62565b505050565b61097a610b8d565b600180546001600160a01b0319166001600160a01b0392909216919091179055565b604080518082019091526000808252602082015260405180604001604052806003548152602001836109cf5760006109d3565b6002545b905295945050505050565b6109e6610b8d565b60046109f2828261141a565b5050565b6109fe610b8d565b6001600160a01b038116610a2d57604051631e4fbdf760e01b8152600060048201526024015b60405180910390fd5b610a3681610c12565b50565b610a41610b8d565b6001600160a01b038216610a6857604051633d3496e160e01b815260040160405180910390fd5b60007f00000000000000000000000000000000000000000000000000000000000000006001600160a01b031663e1758bd86040518163ffffffff1660e01b8152600401602060405180830381865afa158015610ac8573d6000803e3d6000fd5b505050506040513d601f19601f82011682018060405250810190610aec91906113af565b905061096d818484610cb4565b6000610b09600d600984866114d8565b610b1291611502565b60e01c9392505050565b6000610b2c602d600d84866114d8565b610b359161153a565b9392505050565b6000610b4c6009600184866114d8565b610b5591611558565b60c01c9392505050565b6000610b35610b6e8484610cd7565b90565b366000610b8183605181876114d8565b915091505b9250929050565b6000546001600160a01b031633146107ed5760405163118cdaa760e01b8152336004820152602401610a24565b8051602080830151604080850151606080870151608088015160a089015160c08a015195519398610bfc98600198919791966001600160a01b0316950161158e565b6040516020818303038152906040529050919050565b600080546001600160a01b038381166001600160a01b0319831681178455604051919092169283917f8be0079c531659141344cd1fd0a4f28419497f9722a3daafe3b4186f6b6457e09190a35050565b604080516001600160a01b038416602482015260448082018490528251808303909101815260649091019091526020810180516001600160e01b031663a9059cbb60e01b17905261096d908490610ce7565b6001600160a01b038316610ccc5761096d8282610d5e565b61096d838383610e0b565b6000610b2c6051603184866114d8565b600080602060008451602086016000885af180610d0a576040513d6000823e3d81fd5b50506000513d91508115610d22578060011415610d2f565b6001600160a01b0384163b155b15610d5857604051635274afe760e01b81526001600160a01b0385166004820152602401610a24565b50505050565b6001600160a01b038216610d85576040516306b7a93160e41b815260040160405180910390fd5b6000826001600160a01b03168260405160006040518083038185875af1925050503d8060008114610dd2576040519150601f19603f3d011682016040523d82523d6000602084013e610dd7565b606091505b505090508061096d57604051631196f20d60e21b81526001600160a01b038416600482015260248101839052604401610a24565b6001600160a01b038216610e32576040516306b7a93160e41b815260040160405180910390fd5b61096d6001600160a01b0384168383610c62565b600060208284031215610e5857600080fd5b81356001600160e01b031981168114610b3557600080fd5b60008083601f840112610e8257600080fd5b5081356001600160401b03811115610e9957600080fd5b602083019150836020828501011115610b8657600080fd5b60008060208385031215610ec457600080fd5b82356001600160401b03811115610eda57600080fd5b610ee685828601610e70565b90969095509350505050565b6020810160038310610f1457634e487b7160e01b600052602160045260246000fd5b91905290565b60008060408385031215610f2d57600080fd5b50508035926020909101359150565b600060e08284031215610f4e57600080fd5b50919050565b634e487b7160e01b600052604160045260246000fd5b60405160e081016001600160401b0381118282101715610f8c57610f8c610f54565b60405290565b600082601f830112610fa357600080fd5b81356001600160401b03811115610fbc57610fbc610f54565b604051601f8201601f19908116603f011681016001600160401b0381118282101715610fea57610fea610f54565b60405281815283820160200185101561100257600080fd5b816020850160208301376000918101602001919091529392505050565b8035801515811461102f57600080fd5b919050565b60008060006060848603121561104957600080fd5b83356001600160401b0381111561105f57600080fd5b61106b86828701610f3c565b93505060208401356001600160401b0381111561108757600080fd5b61109386828701610f92565b9250506110a26040850161101f565b90509250925092565b60005b838110156110c65781810151838201526020016110ae565b50506000910152565b600081518084526110e78160208601602086016110ab565b601f01601f19169290920160200192915050565b835181526020808501519082015260806040820152600061111f60808301856110cf565b828103606084015261113181856110cf565b9695505050505050565b803563ffffffff8116811461102f57600080fd5b60006020828403121561116157600080fd5b610b358261113b565b602081526000610b3560208301846110cf565b6001600160a01b0381168114610a3657600080fd5b803561102f8161117d565b600080604083850312156111b057600080fd5b82356111bb8161117d565b946020939093013593505050565b6000602082840312156111db57600080fd5b8135610b358161117d565b600080600080606085870312156111fc57600080fd5b84356001600160401b0381111561121257600080fd5b61121e87828801610f3c565b94505060208501356001600160401b0381111561123a57600080fd5b61124687828801610e70565b909450925061125990506040860161101f565b905092959194509250565b815181526020808301519082015260408101610510565b60006020828403121561128d57600080fd5b81356001600160401b038111156112a357600080fd5b6112af84828501610f92565b949350505050565b8183823760009101908152919050565b80356001600160401b038116811461102f57600080fd5b600060e082360312156112f057600080fd5b6112f8610f6a565b611301836112c7565b815261130f6020840161113b565b602082015261132060408401611192565b60408201526113316060840161113b565b60608201526080838101359082015260a0808401359082015260c08301356001600160401b0381111561136357600080fd5b61136f36828601610f92565b60c08301525092915050565b600181811c9082168061138f57607f821691505b602082108103610f4e57634e487b7160e01b600052602260045260246000fd5b6000602082840312156113c157600080fd5b8151610b358161117d565b601f82111561096d57806000526020600020601f840160051c810160208510156113f35750805b601f840160051c820191505b8181101561141357600081556001016113ff565b5050505050565b81516001600160401b0381111561143357611433610f54565b61144781611441845461137b565b846113cc565b6020601f82116001811461147b57600083156114635750848201515b600019600385901b1c1916600184901b178455611413565b600084815260208120601f198516915b828110156114ab578785015182556020948501946001909201910161148b565b50848210156114c95786840151600019600387901b60f8161c191681555b50505050600190811b01905550565b600080858511156114e857600080fd5b838611156114f557600080fd5b5050820193919092039150565b80356001600160e01b03198116906004841015611533576001600160e01b0319600485900360031b81901b82161691505b5092915050565b8035602083101561051057600019602084900360031b1b1692915050565b80356001600160c01b03198116906008841015611533576001600160c01b031960089490940360031b84901b1690921692915050565b60ff60f81b8960f81b1681526001600160401b0360c01b8860c01b16600182015263ffffffff60e01b8760e01b16600982015285600d82015263ffffffff60e01b8560e01b16602d820152836031820152826051820152600082516115fa8160718501602087016110ab565b91909101607101999850505050505050505056fea26469706673582212202538b02d67a5f0a9e99662fb100004009ae212cb7868921662881f4a36d3979964736f6c634300081c0033",
  "linkReferences": {},
  "deployedLinkReferences": {}
}