{
  "_format": "hh-sol-artifact-1",
  "contractName": "StargatePool",
  "sourceName": "contracts/StargatePool.sol",
  "abi": [
    {
      "inputs": [
        {
          "internalType": "string",
          "name": "_lpTokenName",
          "type": "string"
        },
        {
          "internalType": "string",
          "name": "_lpTokenSymbol",
          "type": "string"
        },
        {
          "internalType": "address",
          "name": "_token",
          "type": "address"
        },
        {
          "internalType": "uint8",
          "name": "_tokenDecimals",
          "type": "uint8"
        },
        {
          "internalType": "uint8",
          "name": "_sharedDecimals",
          "type": "uint8"
        },
        {
          "internalType": "address",
          "name": "_endpoint",
          "type": "address"
        },
        {
          "internalType": "address",
          "name": "_owner",
          "type": "address"
        }
      ],
      "stateMutability": "nonpayable",
      "type": "constructor"
    },
    {
      "inputs": [],
      "name": "InvalidLocalDecimals",
      "type": "error"
    },
    {
      "inputs": [
        {
          "internalType": "address",
          "name": "owner",
          "type": "address"
        }
      ],
      "name": "OwnableInvalidOwner",
      "type": "error"
    },
    {
      "inputs": [
        {
          "internalType": "address",
          "name": "account",
          "type": "address"
        }
      ],
      "name": "OwnableUnauthorizedAccount",
      "type": "error"
    },
    {
      "inputs": [],
      "name": "Path_AlreadyHasCredit",
      "type": "error"
    },
    {
      "inputs": [],
      "name": "Path_InsufficientCredit",
      "type": "error"
    },
    {
      "inputs": [],
      "name": "Path_UnlimitedCredit",
      "type": "error"
    },
    {
      "inputs": [
        {
          "internalType": "uint8",
          "name": "bits",
          "type": "uint8"
        },
        {
          "internalType": "uint256",
          "name": "value",
          "type": "uint256"
        }
      ],
      "name": "SafeCastOverflowedUintDowncast",
      "type": "error"
    },
    {
      "inputs": [
        {
          "internalType": "uint256",
          "name": "value",
          "type": "uint256"
        }
      ],
      "name": "SafeCastOverflowedUintToInt",
      "type": "error"
    },
    {
      "inputs": [
        {
          "internalType": "uint256",
          "name": "amountLD",
          "type": "uint256"
        },
        {
          "internalType": "uint256",
          "name": "minAmountLD",
          "type": "uint256"
        }
      ],
      "name": "SlippageExceeded",
      "type": "error"
    },
    {
      "inputs": [],
      "name": "Stargate_InsufficientFare",
      "type": "error"
    },
    {
      "inputs": [],
      "name": "Stargate_InvalidAmount",
      "type": "error"
    },
    {
      "inputs": [],
      "name": "Stargate_InvalidPath",
      "type": "error"
    },
    {
      "inputs": [],
      "name": "Stargate_InvalidTokenDecimals",
      "type": "error"
    },
    {
      "inputs": [],
      "name": "Stargate_LzTokenUnavailable",
      "type": "error"
    },
    {
      "inputs": [],
      "name": "Stargate_OnlyTaxi",
      "type": "error"
    },
    {
      "inputs": [],
      "name": "Stargate_OutflowFailed",
      "type": "error"
    },
    {
      "inputs": [],
      "name": "Stargate_Paused",
      "type": "error"
    },
    {
      "inputs": [],
      "name": "Stargate_RecoverTokenUnsupported",
      "type": "error"
    },
    {
      "inputs": [],
      "name": "Stargate_ReentrantCall",
      "type": "error"
    },
    {
      "inputs": [],
      "name": "Stargate_SlippageTooHigh",
      "type": "error"
    },
    {
      "inputs": [],
      "name": "Stargate_Unauthorized",
      "type": "error"
    },
    {
      "inputs": [],
      "name": "Stargate_UnreceivedTokenNotFound",
      "type": "error"
    },
    {
      "inputs": [],
      "name": "Transfer_ApproveFailed",
      "type": "error"
    },
    {
      "inputs": [],
      "name": "Transfer_TransferFailed",
      "type": "error"
    },
    {
      "anonymous": false,
      "inputs": [
        {
          "components": [
            {
              "internalType": "address",
              "name": "feeLib",
              "type": "address"
            },
            {
              "internalType": "address",
              "name": "planner",
              "type": "address"
            },
            {
              "internalType": "address",
              "name": "treasurer",
              "type": "address"
            },
            {
              "internalType": "address",
              "name": "tokenMessaging",
              "type": "address"
            },
            {
              "internalType": "address",
              "name": "creditMessaging",
              "type": "address"
            },
            {
              "internalType": "address",
              "name": "lzToken",
              "type": "address"
            }
          ],
          "indexed": false,
          "internalType": "struct StargateBase.AddressConfig",
          "name": "config",
          "type": "tuple"
        }
      ],
      "name": "AddressConfigSet",
      "type": "event"
    },
    {
      "anonymous": false,
      "inputs": [
        {
          "indexed": false,
          "internalType": "uint32",
          "name": "srcEid",
          "type": "uint32"
        },
        {
          "components": [
            {
              "internalType": "uint32",
              "name": "srcEid",
              "type": "uint32"
            },
            {
              "internalType": "uint64",
              "name": "amount",
              "type": "uint64"
            }
          ],
          "indexed": false,
          "internalType": "struct Credit[]",
          "name": "credits",
          "type": "tuple[]"
        }
      ],
      "name": "CreditsReceived",
      "type": "event"
    },
    {
      "anonymous": false,
      "inputs": [
        {
          "indexed": false,
          "internalType": "uint32",
          "name": "dstEid",
          "type": "uint32"
        },
        {
          "components": [
            {
              "internalType": "uint32",
              "name": "srcEid",
              "type": "uint32"
            },
            {
              "internalType": "uint64",
              "name": "amount",
              "type": "uint64"
            }
          ],
          "indexed": false,
          "internalType": "struct Credit[]",
          "name": "credits",
          "type": "tuple[]"
        }
      ],
      "name": "CreditsSent",
      "type": "event"
    },
    {
      "anonymous": false,
      "inputs": [
        {
          "indexed": true,
          "internalType": "address",
          "name": "payer",
          "type": "address"
        },
        {
          "indexed": true,
          "internalType": "address",
          "name": "receiver",
          "type": "address"
        },
        {
          "indexed": false,
          "internalType": "uint256",
          "name": "amountLD",
          "type": "uint256"
        }
      ],
      "name": "Deposited",
      "type": "event"
    },
    {
      "anonymous": false,
      "inputs": [
        {
          "indexed": false,
          "internalType": "uint64",
          "name": "amountOutSD",
          "type": "uint64"
        }
      ],
      "name": "FeeCharged",
      "type": "event"
    },
    {
      "anonymous": false,
      "inputs": [
        {
          "indexed": false,
          "internalType": "bool",
          "name": "isTaxi",
          "type": "bool"
        },
        {
          "indexed": false,
          "internalType": "uint64",
          "name": "amountInSD",
          "type": "uint64"
        },
        {
          "indexed": false,
          "internalType": "uint64",
          "name": "amountOutSD",
          "type": "uint64"
        }
      ],
      "name": "InflowAndCharge",
      "type": "event"
    },
    {
      "anonymous": false,
      "inputs": [
        {
          "indexed": false,
          "internalType": "uint32",
          "name": "dstEid",
          "type": "uint32"
        },
        {
          "indexed": false,
          "internalType": "bool",
          "name": "oft",
          "type": "bool"
        }
      ],
      "name": "OFTPathSet",
      "type": "event"
    },
    {
      "anonymous": false,
      "inputs": [
        {
          "indexed": true,
          "internalType": "bytes32",
          "name": "guid",
          "type": "bytes32"
        },
        {
          "indexed": false,
          "internalType": "uint32",
          "name": "srcEid",
          "type": "uint32"
        },
        {
          "indexed": true,
          "internalType": "address",
          "name": "toAddress",
          "type": "address"
        },
        {
          "indexed": false,
          "internalType": "uint256",
          "name": "amountReceivedLD",
          "type": "uint256"
        }
      ],
      "name": "OFTReceived",
      "type": "event"
    },
    {
      "anonymous": false,
      "inputs": [
        {
          "indexed": true,
          "internalType": "bytes32",
          "name": "guid",
          "type": "bytes32"
        },
        {
          "indexed": false,
          "internalType": "uint32",
          "name": "dstEid",
          "type": "uint32"
        },
        {
          "indexed": true,
          "internalType": "address",
          "name": "fromAddress",
          "type": "address"
        },
        {
          "indexed": false,
          "internalType": "uint256",
          "name": "amountSentLD",
          "type": "uint256"
        },
        {
          "indexed": false,
          "internalType": "uint256",
          "name": "amountReceivedLD",
          "type": "uint256"
        }
      ],
      "name": "OFTSent",
      "type": "event"
    },
    {
      "anonymous": false,
      "inputs": [
        {
          "indexed": true,
          "internalType": "address",
          "name": "previousOwner",
          "type": "address"
        },
        {
          "indexed": true,
          "internalType": "address",
          "name": "newOwner",
          "type": "address"
        }
      ],
      "name": "OwnershipTransferred",
      "type": "event"
    },
    {
      "anonymous": false,
      "inputs": [
        {
          "indexed": false,
          "internalType": "bool",
          "name": "paused",
          "type": "bool"
        }
      ],
      "name": "PauseSet",
      "type": "event"
    },
    {
      "anonymous": false,
      "inputs": [
        {
          "indexed": false,
          "internalType": "uint256",
          "name": "amount",
          "type": "uint256"
        }
      ],
      "name": "PlannerFeeWithdrawn",
      "type": "event"
    },
    {
      "anonymous": false,
      "inputs": [
        {
          "indexed": true,
          "internalType": "address",
          "name": "payer",
          "type": "address"
        },
        {
          "indexed": true,
          "internalType": "address",
          "name": "receiver",
          "type": "address"
        },
        {
          "indexed": false,
          "internalType": "uint256",
          "name": "amountLD",
          "type": "uint256"
        }
      ],
      "name": "Redeemed",
      "type": "event"
    },
    {
      "anonymous": false,
      "inputs": [
        {
          "indexed": false,
          "internalType": "uint64",
          "name": "amountSD",
          "type": "uint64"
        }
      ],
      "name": "TreasuryFeeAdded",
      "type": "event"
    },
    {
      "anonymous": false,
      "inputs": [
        {
          "indexed": false,
          "internalType": "address",
          "name": "to",
          "type": "address"
        },
        {
          "indexed": false,
          "internalType": "uint64",
          "name": "amountSD",
          "type": "uint64"
        }
      ],
      "name": "TreasuryFeeWithdrawn",
      "type": "event"
    },
    {
      "anonymous": false,
      "inputs": [
        {
          "indexed": false,
          "internalType": "bytes32",
          "name": "guid",
          "type": "bytes32"
        },
        {
          "indexed": false,
          "internalType": "uint8",
          "name": "index",
          "type": "uint8"
        },
        {
          "indexed": false,
          "internalType": "uint32",
          "name": "srcEid",
          "type": "uint32"
        },
        {
          "indexed": false,
          "internalType": "address",
          "name": "receiver",
          "type": "address"
        },
        {
          "indexed": false,
          "internalType": "uint256",
          "name": "amountLD",
          "type": "uint256"
        },
        {
          "indexed": false,
          "internalType": "bytes",
          "name": "composeMsg",
          "type": "bytes"
        }
      ],
      "name": "UnreceivedTokenCached",
      "type": "event"
    },
    {
      "inputs": [
        {
          "components": [
            {
              "internalType": "uint256",
              "name": "nativeFee",
              "type": "uint256"
            },
            {
              "internalType": "uint256",
              "name": "lzTokenFee",
              "type": "uint256"
            }
          ],
          "internalType": "struct MessagingFee",
          "name": "_fee",
          "type": "tuple"
        },
        {
          "internalType": "uint256",
          "name": "",
          "type": "uint256"
        }
      ],
      "name": "_assertMessagingFee",
      "outputs": [
        {
          "components": [
            {
              "internalType": "uint256",
              "name": "nativeFee",
              "type": "uint256"
            },
            {
              "internalType": "uint256",
              "name": "lzTokenFee",
              "type": "uint256"
            }
          ],
          "internalType": "struct MessagingFee",
          "name": "",
          "type": "tuple"
        }
      ],
      "stateMutability": "payable",
      "type": "function"
    },
    {
      "inputs": [
        {
          "internalType": "uint32",
          "name": "_dstEid",
          "type": "uint32"
        },
        {
          "internalType": "uint64",
          "name": "_amountInSD",
          "type": "uint64"
        },
        {
          "internalType": "bool",
          "name": "_isTaxi",
          "type": "bool"
        }
      ],
      "name": "_buildFeeParams",
      "outputs": [
        {
          "components": [
            {
              "internalType": "address",
              "name": "sender",
              "type": "address"
            },
            {
              "internalType": "uint32",
              "name": "dstEid",
              "type": "uint32"
            },
            {
              "internalType": "uint64",
              "name": "amountInSD",
              "type": "uint64"
            },
            {
              "internalType": "uint64",
              "name": "deficitSD",
              "type": "uint64"
            },
            {
              "internalType": "bool",
              "name": "toOFT",
              "type": "bool"
            },
            {
              "internalType": "bool",
              "name": "isTaxi",
              "type": "bool"
            }
          ],
          "internalType": "struct FeeParams",
          "name": "",
          "type": "tuple"
        }
      ],
      "stateMutability": "view",
      "type": "function"
    },
    {
      "inputs": [
        {
          "components": [
            {
              "internalType": "address",
              "name": "sender",
              "type": "address"
            },
            {
              "internalType": "uint32",
              "name": "dstEid",
              "type": "uint32"
            },
            {
              "internalType": "uint64",
              "name": "amountInSD",
              "type": "uint64"
            },
            {
              "internalType": "uint64",
              "name": "deficitSD",
              "type": "uint64"
            },
            {
              "internalType": "bool",
              "name": "toOFT",
              "type": "bool"
            },
            {
              "internalType": "bool",
              "name": "isTaxi",
              "type": "bool"
            }
          ],
          "internalType": "struct FeeParams",
          "name": "_feeParams",
          "type": "tuple"
        },
        {
          "internalType": "uint64",
          "name": "_minAmountOutSD",
          "type": "uint64"
        }
      ],
      "name": "_chargeFee",
      "outputs": [
        {
          "internalType": "uint64",
          "name": "amountOutSD",
          "type": "uint64"
        }
      ],
      "stateMutability": "nonpayable",
      "type": "function"
    },
    {
      "inputs": [
        {
          "internalType": "address",
          "name": "_from",
          "type": "address"
        },
        {
          "internalType": "uint256",
          "name": "_amountLD",
          "type": "uint256"
        }
      ],
      "name": "_inflow",
      "outputs": [
        {
          "internalType": "uint64",
          "name": "amountSD",
          "type": "uint64"
        }
      ],
      "stateMutability": "nonpayable",
      "type": "function"
    },
    {
      "inputs": [
        {
          "components": [
            {
              "internalType": "uint32",
              "name": "dstEid",
              "type": "uint32"
            },
            {
              "internalType": "bytes32",
              "name": "to",
              "type": "bytes32"
            },
            {
              "internalType": "uint256",
              "name": "amountLD",
              "type": "uint256"
            },
            {
              "internalType": "uint256",
              "name": "minAmountLD",
              "type": "uint256"
            },
            {
              "internalType": "bytes",
              "name": "extraOptions",
              "type": "bytes"
            },
            {
              "internalType": "bytes",
              "name": "composeMsg",
              "type": "bytes"
            },
            {
              "internalType": "bytes",
              "name": "oftCmd",
              "type": "bytes"
            }
          ],
          "internalType": "struct SendParam",
          "name": "_sendParam",
          "type": "tuple"
        }
      ],
      "name": "_inflowAndCharge",
      "outputs": [
        {
          "internalType": "bool",
          "name": "isTaxi",
          "type": "bool"
        },
        {
          "internalType": "uint64",
          "name": "amountInSD",
          "type": "uint64"
        },
        {
          "internalType": "uint64",
          "name": "amountOutSD",
          "type": "uint64"
        }
      ],
      "stateMutability": "nonpayable",
      "type": "function"
    },
    {
      "inputs": [
        {
          "internalType": "bytes",
          "name": "_oftCmd",
          "type": "bytes"
        }
      ],
      "name": "_isTaxiMode",
      "outputs": [
        {
          "internalType": "bool",
          "name": "",
          "type": "bool"
        }
      ],
      "stateMutability": "pure",
      "type": "function"
    },
    {
      "inputs": [
        {
          "internalType": "uint256",
          "name": "_amountLD",
          "type": "uint256"
        }
      ],
      "name": "_ld2sd",
      "outputs": [
        {
          "internalType": "uint64",
          "name": "amountSD",
          "type": "uint64"
        }
      ],
      "stateMutability": "view",
      "type": "function"
    },
    {
      "inputs": [
        {
          "components": [
            {
              "internalType": "uint32",
              "name": "dstEid",
              "type": "uint32"
            },
            {
              "internalType": "bytes32",
              "name": "to",
              "type": "bytes32"
            },
            {
              "internalType": "uint256",
              "name": "amountLD",
              "type": "uint256"
            },
            {
              "internalType": "uint256",
              "name": "minAmountLD",
              "type": "uint256"
            },
            {
              "internalType": "bytes",
              "name": "extraOptions",
              "type": "bytes"
            },
            {
              "internalType": "bytes",
              "name": "composeMsg",
              "type": "bytes"
            },
            {
              "internalType": "bytes",
              "name": "oftCmd",
              "type": "bytes"
            }
          ],
          "internalType": "struct SendParam",
          "name": "_sendParam",
          "type": "tuple"
        },
        {
          "components": [
            {
              "internalType": "uint256",
              "name": "nativeFee",
              "type": "uint256"
            },
            {
              "internalType": "uint256",
              "name": "lzTokenFee",
              "type": "uint256"
            }
          ],
          "internalType": "struct MessagingFee",
          "name": "_messagingFee",
          "type": "tuple"
        },
        {
          "internalType": "uint64",
          "name": "_amountSD",
          "type": "uint64"
        },
        {
          "internalType": "address",
          "name": "_refundAddress",
          "type": "address"
        }
      ],
      "name": "_rideBus",
      "outputs": [
        {
          "components": [
            {
              "internalType": "bytes32",
              "name": "guid",
              "type": "bytes32"
            },
            {
              "internalType": "uint64",
              "name": "nonce",
              "type": "uint64"
            },
            {
              "components": [
                {
                  "internalType": "uint256",
                  "name": "nativeFee",
                  "type": "uint256"
                },
                {
                  "internalType": "uint256",
                  "name": "lzTokenFee",
                  "type": "uint256"
                }
              ],
              "internalType": "struct MessagingFee",
              "name": "fee",
              "type": "tuple"
            }
          ],
          "internalType": "struct MessagingReceipt",
          "name": "receipt",
          "type": "tuple"
        },
        {
          "components": [
            {
              "internalType": "uint72",
              "name": "ticketId",
              "type": "uint72"
            },
            {
              "internalType": "bytes",
              "name": "passengerBytes",
              "type": "bytes"
            }
          ],
          "internalType": "struct Ticket",
          "name": "ticket",
          "type": "tuple"
        }
      ],
      "stateMutability": "nonpayable",
      "type": "function"
    },
    {
      "inputs": [
        {
          "internalType": "uint64",
          "name": "_amountSD",
          "type": "uint64"
        }
      ],
      "name": "_sd2ld",
      "outputs": [
        {
          "internalType": "uint256",
          "name": "amountLD",
          "type": "uint256"
        }
      ],
      "stateMutability": "view",
      "type": "function"
    },
    {
      "inputs": [
        {
          "internalType": "uint256",
          "name": "_amountLD",
          "type": "uint256"
        }
      ],
      "name": "addTreasuryFee",
      "outputs": [],
      "stateMutability": "payable",
      "type": "function"
    },
    {
      "inputs": [],
      "name": "approvalRequired",
      "outputs": [
        {
          "internalType": "bool",
          "name": "",
          "type": "bool"
        }
      ],
      "stateMutability": "pure",
      "type": "function"
    },
    {
      "inputs": [],
      "name": "deficitOffset",
      "outputs": [
        {
          "internalType": "uint256",
          "name": "",
          "type": "uint256"
        }
      ],
      "stateMutability": "view",
      "type": "function"
    },
    {
      "inputs": [
        {
          "internalType": "address",
          "name": "_receiver",
          "type": "address"
        },
        {
          "internalType": "uint256",
          "name": "_amountLD",
          "type": "uint256"
        }
      ],
      "name": "deposit",
      "outputs": [
        {
          "internalType": "uint256",
          "name": "amountLD",
          "type": "uint256"
        }
      ],
      "stateMutability": "payable",
      "type": "function"
    },
    {
      "inputs": [],
      "name": "endpoint",
      "outputs": [
        {
          "internalType": "contract ILayerZeroEndpointV2",
          "name": "",
          "type": "address"
        }
      ],
      "stateMutability": "view",
      "type": "function"
    },
    {
      "inputs": [],
      "name": "getAddressConfig",
      "outputs": [
        {
          "components": [
            {
              "internalType": "address",
              "name": "feeLib",
              "type": "address"
            },
            {
              "internalType": "address",
              "name": "planner",
              "type": "address"
            },
            {
              "internalType": "address",
              "name": "treasurer",
              "type": "address"
            },
            {
              "internalType": "address",
              "name": "tokenMessaging",
              "type": "address"
            },
            {
              "internalType": "address",
              "name": "creditMessaging",
              "type": "address"
            },
            {
              "internalType": "address",
              "name": "lzToken",
              "type": "address"
            }
          ],
          "internalType": "struct StargateBase.AddressConfig",
          "name": "",
          "type": "tuple"
        }
      ],
      "stateMutability": "view",
      "type": "function"
    },
    {
      "inputs": [],
      "name": "getTransferGasLimit",
      "outputs": [
        {
          "internalType": "uint256",
          "name": "",
          "type": "uint256"
        }
      ],
      "stateMutability": "view",
      "type": "function"
    },
    {
      "inputs": [],
      "name": "localEid",
      "outputs": [
        {
          "internalType": "uint32",
          "name": "",
          "type": "uint32"
        }
      ],
      "stateMutability": "view",
      "type": "function"
    },
    {
      "inputs": [],
      "name": "lpToken",
      "outputs": [
        {
          "internalType": "address",
          "name": "",
          "type": "address"
        }
      ],
      "stateMutability": "view",
      "type": "function"
    },
    {
      "inputs": [],
      "name": "oftVersion",
      "outputs": [
        {
          "internalType": "bytes4",
          "name": "interfaceId",
          "type": "bytes4"
        },
        {
          "internalType": "uint64",
          "name": "version",
          "type": "uint64"
        }
      ],
      "stateMutability": "pure",
      "type": "function"
    },
    {
      "inputs": [],
      "name": "owner",
      "outputs": [
        {
          "internalType": "address",
          "name": "",
          "type": "address"
        }
      ],
      "stateMutability": "view",
      "type": "function"
    },
    {
      "inputs": [
        {
          "internalType": "uint32",
          "name": "eid",
          "type": "uint32"
        }
      ],
      "name": "paths",
      "outputs": [
        {
          "internalType": "uint64",
          "name": "credit",
          "type": "uint64"
        }
      ],
      "stateMutability": "view",
      "type": "function"
    },
    {
      "inputs": [],
      "name": "plannerFee",
      "outputs": [
        {
          "internalType": "uint256",
          "name": "available",
          "type": "uint256"
        }
      ],
      "stateMutability": "view",
      "type": "function"
    },
    {
      "inputs": [],
      "name": "poolBalance",
      "outputs": [
        {
          "internalType": "uint256",
          "name": "",
          "type": "uint256"
        }
      ],
      "stateMutability": "view",
      "type": "function"
    },
    {
      "inputs": [
        {
          "components": [
            {
              "internalType": "uint32",
              "name": "dstEid",
              "type": "uint32"
            },
            {
              "internalType": "bytes32",
              "name": "to",
              "type": "bytes32"
            },
            {
              "internalType": "uint256",
              "name": "amountLD",
              "type": "uint256"
            },
            {
              "internalType": "uint256",
              "name": "minAmountLD",
              "type": "uint256"
            },
            {
              "internalType": "bytes",
              "name": "extraOptions",
              "type": "bytes"
            },
            {
              "internalType": "bytes",
              "name": "composeMsg",
              "type": "bytes"
            },
            {
              "internalType": "bytes",
              "name": "oftCmd",
              "type": "bytes"
            }
          ],
          "internalType": "struct SendParam",
          "name": "_sendParam",
          "type": "tuple"
        }
      ],
      "name": "quoteOFT",
      "outputs": [
        {
          "components": [
            {
              "internalType": "uint256",
              "name": "minAmountLD",
              "type": "uint256"
            },
            {
              "internalType": "uint256",
              "name": "maxAmountLD",
              "type": "uint256"
            }
          ],
          "internalType": "struct OFTLimit",
          "name": "limit",
          "type": "tuple"
        },
        {
          "components": [
            {
              "internalType": "int256",
              "name": "feeAmountLD",
              "type": "int256"
            },
            {
              "internalType": "string",
              "name": "description",
              "type": "string"
            }
          ],
          "internalType": "struct OFTFeeDetail[]",
          "name": "oftFeeDetails",
          "type": "tuple[]"
        },
        {
          "components": [
            {
              "internalType": "uint256",
              "name": "amountSentLD",
              "type": "uint256"
            },
            {
              "internalType": "uint256",
              "name": "amountReceivedLD",
              "type": "uint256"
            }
          ],
          "internalType": "struct OFTReceipt",
          "name": "receipt",
          "type": "tuple"
        }
      ],
      "stateMutability": "view",
      "type": "function"
    },
    {
      "inputs": [
        {
          "components": [
            {
              "internalType": "uint32",
              "name": "dstEid",
              "type": "uint32"
            },
            {
              "internalType": "bytes32",
              "name": "to",
              "type": "bytes32"
            },
            {
              "internalType": "uint256",
              "name": "amountLD",
              "type": "uint256"
            },
            {
              "internalType": "uint256",
              "name": "minAmountLD",
              "type": "uint256"
            },
            {
              "internalType": "bytes",
              "name": "extraOptions",
              "type": "bytes"
            },
            {
              "internalType": "bytes",
              "name": "composeMsg",
              "type": "bytes"
            },
            {
              "internalType": "bytes",
              "name": "oftCmd",
              "type": "bytes"
            }
          ],
          "internalType": "struct SendParam",
          "name": "_sendParam",
          "type": "tuple"
        },
        {
          "internalType": "bool",
          "name": "_payInLzToken",
          "type": "bool"
        }
      ],
      "name": "quoteRedeemSend",
      "outputs": [
        {
          "components": [
            {
              "internalType": "uint256",
              "name": "nativeFee",
              "type": "uint256"
            },
            {
              "internalType": "uint256",
              "name": "lzTokenFee",
              "type": "uint256"
            }
          ],
          "internalType": "struct MessagingFee",
          "name": "fee",
          "type": "tuple"
        }
      ],
      "stateMutability": "view",
      "type": "function"
    },
    {
      "inputs": [
        {
          "components": [
            {
              "internalType": "uint32",
              "name": "dstEid",
              "type": "uint32"
            },
            {
              "internalType": "bytes32",
              "name": "to",
              "type": "bytes32"
            },
            {
              "internalType": "uint256",
              "name": "amountLD",
              "type": "uint256"
            },
            {
              "internalType": "uint256",
              "name": "minAmountLD",
              "type": "uint256"
            },
            {
              "internalType": "bytes",
              "name": "extraOptions",
              "type": "bytes"
            },
            {
              "internalType": "bytes",
              "name": "composeMsg",
              "type": "bytes"
            },
            {
              "internalType": "bytes",
              "name": "oftCmd",
              "type": "bytes"
            }
          ],
          "internalType": "struct SendParam",
          "name": "_sendParam",
          "type": "tuple"
        },
        {
          "internalType": "bool",
          "name": "_payInLzToken",
          "type": "bool"
        }
      ],
      "name": "quoteSend",
      "outputs": [
        {
          "components": [
            {
              "internalType": "uint256",
              "name": "nativeFee",
              "type": "uint256"
            },
            {
              "internalType": "uint256",
              "name": "lzTokenFee",
              "type": "uint256"
            }
          ],
          "internalType": "struct MessagingFee",
          "name": "fee",
          "type": "tuple"
        }
      ],
      "stateMutability": "view",
      "type": "function"
    },
    {
      "inputs": [
        {
          "internalType": "uint32",
          "name": "_srcEid",
          "type": "uint32"
        },
        {
          "components": [
            {
              "internalType": "uint32",
              "name": "srcEid",
              "type": "uint32"
            },
            {
              "internalType": "uint64",
              "name": "amount",
              "type": "uint64"
            }
          ],
          "internalType": "struct Credit[]",
          "name": "_credits",
          "type": "tuple[]"
        }
      ],
      "name": "receiveCredits",
      "outputs": [],
      "stateMutability": "nonpayable",
      "type": "function"
    },
    {
      "inputs": [
        {
          "components": [
            {
              "internalType": "uint32",
              "name": "srcEid",
              "type": "uint32"
            },
            {
              "internalType": "bytes32",
              "name": "sender",
              "type": "bytes32"
            },
            {
              "internalType": "uint64",
              "name": "nonce",
              "type": "uint64"
            }
          ],
          "internalType": "struct Origin",
          "name": "_origin",
          "type": "tuple"
        },
        {
          "internalType": "bytes32",
          "name": "_guid",
          "type": "bytes32"
        },
        {
          "internalType": "uint8",
          "name": "_seatNumber",
          "type": "uint8"
        },
        {
          "internalType": "address",
          "name": "_receiver",
          "type": "address"
        },
        {
          "internalType": "uint64",
          "name": "_amountSD",
          "type": "uint64"
        }
      ],
      "name": "receiveTokenBus",
      "outputs": [],
      "stateMutability": "nonpayable",
      "type": "function"
    },
    {
      "inputs": [
        {
          "components": [
            {
              "internalType": "uint32",
              "name": "srcEid",
              "type": "uint32"
            },
            {
              "internalType": "bytes32",
              "name": "sender",
              "type": "bytes32"
            },
            {
              "internalType": "uint64",
              "name": "nonce",
              "type": "uint64"
            }
          ],
          "internalType": "struct Origin",
          "name": "_origin",
          "type": "tuple"
        },
        {
          "internalType": "bytes32",
          "name": "_guid",
          "type": "bytes32"
        },
        {
          "internalType": "address",
          "name": "_receiver",
          "type": "address"
        },
        {
          "internalType": "uint64",
          "name": "_amountSD",
          "type": "uint64"
        },
        {
          "internalType": "bytes",
          "name": "_composeMsg",
          "type": "bytes"
        }
      ],
      "name": "receiveTokenTaxi",
      "outputs": [],
      "stateMutability": "nonpayable",
      "type": "function"
    },
    {
      "inputs": [
        {
          "internalType": "address",
          "name": "_token",
          "type": "address"
        },
        {
          "internalType": "address",
          "name": "_to",
          "type": "address"
        },
        {
          "internalType": "uint256",
          "name": "_amount",
          "type": "uint256"
        }
      ],
      "name": "recoverToken",
      "outputs": [
        {
          "internalType": "uint256",
          "name": "",
          "type": "uint256"
        }
      ],
      "stateMutability": "nonpayable",
      "type": "function"
    },
    {
      "inputs": [
        {
          "internalType": "uint256",
          "name": "_amountLD",
          "type": "uint256"
        },
        {
          "internalType": "address",
          "name": "_receiver",
          "type": "address"
        }
      ],
      "name": "redeem",
      "outputs": [
        {
          "internalType": "uint256",
          "name": "amountLD",
          "type": "uint256"
        }
      ],
      "stateMutability": "nonpayable",
      "type": "function"
    },
    {
      "inputs": [
        {
          "components": [
            {
              "internalType": "uint32",
              "name": "dstEid",
              "type": "uint32"
            },
            {
              "internalType": "bytes32",
              "name": "to",
              "type": "bytes32"
            },
            {
              "internalType": "uint256",
              "name": "amountLD",
              "type": "uint256"
            },
            {
              "internalType": "uint256",
              "name": "minAmountLD",
              "type": "uint256"
            },
            {
              "internalType": "bytes",
              "name": "extraOptions",
              "type": "bytes"
            },
            {
              "internalType": "bytes",
              "name": "composeMsg",
              "type": "bytes"
            },
            {
              "internalType": "bytes",
              "name": "oftCmd",
              "type": "bytes"
            }
          ],
          "internalType": "struct SendParam",
          "name": "_sendParam",
          "type": "tuple"
        },
        {
          "components": [
            {
              "internalType": "uint256",
              "name": "nativeFee",
              "type": "uint256"
            },
            {
              "internalType": "uint256",
              "name": "lzTokenFee",
              "type": "uint256"
            }
          ],
          "internalType": "struct MessagingFee",
          "name": "_fee",
          "type": "tuple"
        },
        {
          "internalType": "address",
          "name": "_refundAddress",
          "type": "address"
        }
      ],
      "name": "redeemSend",
      "outputs": [
        {
          "components": [
            {
              "internalType": "bytes32",
              "name": "guid",
              "type": "bytes32"
            },
            {
              "internalType": "uint64",
              "name": "nonce",
              "type": "uint64"
            },
            {
              "components": [
                {
                  "internalType": "uint256",
                  "name": "nativeFee",
                  "type": "uint256"
                },
                {
                  "internalType": "uint256",
                  "name": "lzTokenFee",
                  "type": "uint256"
                }
              ],
              "internalType": "struct MessagingFee",
              "name": "fee",
              "type": "tuple"
            }
          ],
          "internalType": "struct MessagingReceipt",
          "name": "msgReceipt",
          "type": "tuple"
        },
        {
          "components": [
            {
              "internalType": "uint256",
              "name": "amountSentLD",
              "type": "uint256"
            },
            {
              "internalType": "uint256",
              "name": "amountReceivedLD",
              "type": "uint256"
            }
          ],
          "internalType": "struct OFTReceipt",
          "name": "oftReceipt",
          "type": "tuple"
        }
      ],
      "stateMutability": "payable",
      "type": "function"
    },
    {
      "inputs": [
        {
          "internalType": "address",
          "name": "_owner",
          "type": "address"
        }
      ],
      "name": "redeemable",
      "outputs": [
        {
          "internalType": "uint256",
          "name": "amountLD",
          "type": "uint256"
        }
      ],
      "stateMutability": "view",
      "type": "function"
    },
    {
      "inputs": [],
      "name": "renounceOwnership",
      "outputs": [],
      "stateMutability": "nonpayable",
      "type": "function"
    },
    {
      "inputs": [
        {
          "internalType": "bytes32",
          "name": "_guid",
          "type": "bytes32"
        },
        {
          "internalType": "uint8",
          "name": "_index",
          "type": "uint8"
        },
        {
          "internalType": "uint32",
          "name": "_srcEid",
          "type": "uint32"
        },
        {
          "internalType": "address",
          "name": "_receiver",
          "type": "address"
        },
        {
          "internalType": "uint256",
          "name": "_amountLD",
          "type": "uint256"
        },
        {
          "internalType": "bytes",
          "name": "_composeMsg",
          "type": "bytes"
        }
      ],
      "name": "retryReceiveToken",
      "outputs": [],
      "stateMutability": "nonpayable",
      "type": "function"
    },
    {
      "inputs": [
        {
          "components": [
            {
              "internalType": "uint32",
              "name": "dstEid",
              "type": "uint32"
            },
            {
              "internalType": "bytes32",
              "name": "to",
              "type": "bytes32"
            },
            {
              "internalType": "uint256",
              "name": "amountLD",
              "type": "uint256"
            },
            {
              "internalType": "uint256",
              "name": "minAmountLD",
              "type": "uint256"
            },
            {
              "internalType": "bytes",
              "name": "extraOptions",
              "type": "bytes"
            },
            {
              "internalType": "bytes",
              "name": "composeMsg",
              "type": "bytes"
            },
            {
              "internalType": "bytes",
              "name": "oftCmd",
              "type": "bytes"
            }
          ],
          "internalType": "struct SendParam",
          "name": "_sendParam",
          "type": "tuple"
        },
        {
          "components": [
            {
              "internalType": "uint256",
              "name": "nativeFee",
              "type": "uint256"
            },
            {
              "internalType": "uint256",
              "name": "lzTokenFee",
              "type": "uint256"
            }
          ],
          "internalType": "struct MessagingFee",
          "name": "_fee",
          "type": "tuple"
        },
        {
          "internalType": "address",
          "name": "_refundAddress",
          "type": "address"
        }
      ],
      "name": "send",
      "outputs": [
        {
          "components": [
            {
              "internalType": "bytes32",
              "name": "guid",
              "type": "bytes32"
            },
            {
              "internalType": "uint64",
              "name": "nonce",
              "type": "uint64"
            },
            {
              "components": [
                {
                  "internalType": "uint256",
                  "name": "nativeFee",
                  "type": "uint256"
                },
                {
                  "internalType": "uint256",
                  "name": "lzTokenFee",
                  "type": "uint256"
                }
              ],
              "internalType": "struct MessagingFee",
              "name": "fee",
              "type": "tuple"
            }
          ],
          "internalType": "struct MessagingReceipt",
          "name": "msgReceipt",
          "type": "tuple"
        },
        {
          "components": [
            {
              "internalType": "uint256",
              "name": "amountSentLD",
              "type": "uint256"
            },
            {
              "internalType": "uint256",
              "name": "amountReceivedLD",
              "type": "uint256"
            }
          ],
          "internalType": "struct OFTReceipt",
          "name": "oftReceipt",
          "type": "tuple"
        }
      ],
      "stateMutability": "payable",
      "type": "function"
    },
    {
      "inputs": [
        {
          "internalType": "uint32",
          "name": "_dstEid",
          "type": "uint32"
        },
        {
          "components": [
            {
              "internalType": "uint32",
              "name": "srcEid",
              "type": "uint32"
            },
            {
              "internalType": "uint64",
              "name": "amount",
              "type": "uint64"
            },
            {
              "internalType": "uint64",
              "name": "minAmount",
              "type": "uint64"
            }
          ],
          "internalType": "struct TargetCredit[]",
          "name": "_credits",
          "type": "tuple[]"
        }
      ],
      "name": "sendCredits",
      "outputs": [
        {
          "components": [
            {
              "internalType": "uint32",
              "name": "srcEid",
              "type": "uint32"
            },
            {
              "internalType": "uint64",
              "name": "amount",
              "type": "uint64"
            }
          ],
          "internalType": "struct Credit[]",
          "name": "",
          "type": "tuple[]"
        }
      ],
      "stateMutability": "nonpayable",
      "type": "function"
    },
    {
      "inputs": [
        {
          "components": [
            {
              "internalType": "uint32",
              "name": "dstEid",
              "type": "uint32"
            },
            {
              "internalType": "bytes32",
              "name": "to",
              "type": "bytes32"
            },
            {
              "internalType": "uint256",
              "name": "amountLD",
              "type": "uint256"
            },
            {
              "internalType": "uint256",
              "name": "minAmountLD",
              "type": "uint256"
            },
            {
              "internalType": "bytes",
              "name": "extraOptions",
              "type": "bytes"
            },
            {
              "internalType": "bytes",
              "name": "composeMsg",
              "type": "bytes"
            },
            {
              "internalType": "bytes",
              "name": "oftCmd",
              "type": "bytes"
            }
          ],
          "internalType": "struct SendParam",
          "name": "_sendParam",
          "type": "tuple"
        },
        {
          "components": [
            {
              "internalType": "uint256",
              "name": "nativeFee",
              "type": "uint256"
            },
            {
              "internalType": "uint256",
              "name": "lzTokenFee",
              "type": "uint256"
            }
          ],
          "internalType": "struct MessagingFee",
          "name": "_fee",
          "type": "tuple"
        },
        {
          "internalType": "address",
          "name": "_refundAddress",
          "type": "address"
        }
      ],
      "name": "sendToken",
      "outputs": [
        {
          "components": [
            {
              "internalType": "bytes32",
              "name": "guid",
              "type": "bytes32"
            },
            {
              "internalType": "uint64",
              "name": "nonce",
              "type": "uint64"
            },
            {
              "components": [
                {
                  "internalType": "uint256",
                  "name": "nativeFee",
                  "type": "uint256"
                },
                {
                  "internalType": "uint256",
                  "name": "lzTokenFee",
                  "type": "uint256"
                }
              ],
              "internalType": "struct MessagingFee",
              "name": "fee",
              "type": "tuple"
            }
          ],
          "internalType": "struct MessagingReceipt",
          "name": "msgReceipt",
          "type": "tuple"
        },
        {
          "components": [
            {
              "internalType": "uint256",
              "name": "amountSentLD",
              "type": "uint256"
            },
            {
              "internalType": "uint256",
              "name": "amountReceivedLD",
              "type": "uint256"
            }
          ],
          "internalType": "struct OFTReceipt",
          "name": "oftReceipt",
          "type": "tuple"
        },
        {
          "components": [
            {
              "internalType": "uint72",
              "name": "ticketId",
              "type": "uint72"
            },
            {
              "internalType": "bytes",
              "name": "passengerBytes",
              "type": "bytes"
            }
          ],
          "internalType": "struct Ticket",
          "name": "ticket",
          "type": "tuple"
        }
      ],
      "stateMutability": "payable",
      "type": "function"
    },
    {
      "inputs": [
        {
          "components": [
            {
              "internalType": "address",
              "name": "feeLib",
              "type": "address"
            },
            {
              "internalType": "address",
              "name": "planner",
              "type": "address"
            },
            {
              "internalType": "address",
              "name": "treasurer",
              "type": "address"
            },
            {
              "internalType": "address",
              "name": "tokenMessaging",
              "type": "address"
            },
            {
              "internalType": "address",
              "name": "creditMessaging",
              "type": "address"
            },
            {
              "internalType": "address",
              "name": "lzToken",
              "type": "address"
            }
          ],
          "internalType": "struct StargateBase.AddressConfig",
          "name": "_config",
          "type": "tuple"
        }
      ],
      "name": "setAddressConfig",
      "outputs": [],
      "stateMutability": "nonpayable",
      "type": "function"
    },
    {
      "inputs": [
        {
          "internalType": "uint256",
          "name": "_deficitOffsetLD",
          "type": "uint256"
        }
      ],
      "name": "setDeficitOffset",
      "outputs": [],
      "stateMutability": "nonpayable",
      "type": "function"
    },
    {
      "inputs": [
        {
          "internalType": "uint32",
          "name": "_dstEid",
          "type": "uint32"
        },
        {
          "internalType": "bool",
          "name": "_oft",
          "type": "bool"
        }
      ],
      "name": "setOFTPath",
      "outputs": [],
      "stateMutability": "nonpayable",
      "type": "function"
    },
    {
      "inputs": [
        {
          "internalType": "bool",
          "name": "_paused",
          "type": "bool"
        }
      ],
      "name": "setPause",
      "outputs": [],
      "stateMutability": "nonpayable",
      "type": "function"
    },
    {
      "inputs": [
        {
          "internalType": "uint256",
          "name": "_gasLimit",
          "type": "uint256"
        }
      ],
      "name": "setTransferGasLimit",
      "outputs": [],
      "stateMutability": "nonpayable",
      "type": "function"
    },
    {
      "inputs": [],
      "name": "sharedDecimals",
      "outputs": [
        {
          "internalType": "uint8",
          "name": "",
          "type": "uint8"
        }
      ],
      "stateMutability": "view",
      "type": "function"
    },
    {
      "inputs": [],
      "name": "stargateType",
      "outputs": [
        {
          "internalType": "enum StargateType",
          "name": "",
          "type": "uint8"
        }
      ],
      "stateMutability": "pure",
      "type": "function"
    },
    {
      "inputs": [],
      "name": "status",
      "outputs": [
        {
          "internalType": "uint8",
          "name": "",
          "type": "uint8"
        }
      ],
      "stateMutability": "view",
      "type": "function"
    },
    {
      "inputs": [],
      "name": "token",
      "outputs": [
        {
          "internalType": "address",
          "name": "",
          "type": "address"
        }
      ],
      "stateMutability": "view",
      "type": "function"
    },
    {
      "inputs": [
        {
          "internalType": "address",
          "name": "newOwner",
          "type": "address"
        }
      ],
      "name": "transferOwnership",
      "outputs": [],
      "stateMutability": "nonpayable",
      "type": "function"
    },
    {
      "inputs": [],
      "name": "treasuryFee",
      "outputs": [
        {
          "internalType": "uint64",
          "name": "",
          "type": "uint64"
        }
      ],
      "stateMutability": "view",
      "type": "function"
    },
    {
      "inputs": [],
      "name": "tvl",
      "outputs": [
        {
          "internalType": "uint256",
          "name": "",
          "type": "uint256"
        }
      ],
      "stateMutability": "view",
      "type": "function"
    },
    {
      "inputs": [
        {
          "internalType": "bytes32",
          "name": "guid",
          "type": "bytes32"
        },
        {
          "internalType": "uint8",
          "name": "index",
          "type": "uint8"
        }
      ],
      "name": "unreceivedTokens",
      "outputs": [
        {
          "internalType": "bytes32",
          "name": "hash",
          "type": "bytes32"
        }
      ],
      "stateMutability": "view",
      "type": "function"
    },
    {
      "inputs": [],
      "name": "withdrawPlannerFee",
      "outputs": [],
      "stateMutability": "nonpayable",
      "type": "function"
    },
    {
      "inputs": [
        {
          "internalType": "address",
          "name": "_to",
          "type": "address"
        },
        {
          "internalType": "uint64",
          "name": "_amountSD",
          "type": "uint64"
        }
      ],
      "name": "withdrawTreasuryFee",
      "outputs": [],
      "stateMutability": "nonpayable",
      "type": "function"
    }
  ],
  "bytecode": "0x6101406040526108fc6001556002805460ff60a01b1916600160a01b17905534801561002a57600080fd5b5060405161775d38038061775d833981016040819052610049916102f6565b8484848484338061007457604051631e4fbdf760e01b81526000600482015260240160405180910390fd5b61007d816101a9565b506001600160a01b03851660805260ff80841690851610156100b257604051632e4b554360e01b815260040160405180910390fd5b6100bc83856103c8565b6100c790600a6104ce565b60c05260ff831660a0526001600160a01b03821660e08190526040805163416ecebf60e01b8152905163416ecebf916004808201926020929091908290030181865afa15801561011b573d6000803e3d6000fd5b505050506040513d601f19601f8201168201806040525081019061013f91906104e4565b63ffffffff1661010052610152816101a9565b5050505050868685604051610166906101f9565b61017293929190610536565b604051809103906000f08015801561018e573d6000803e3d6000fd5b506001600160a01b0316610120525061056f95505050505050565b600080546001600160a01b038381166001600160a01b0319831681178455604051919092169283917f8be0079c531659141344cd1fd0a4f28419497f9722a3daafe3b4186f6b6457e09190a35050565b6115d68061618783390190565b634e487b7160e01b600052604160045260246000fd5b60005b8381101561023757818101518382015260200161021f565b50506000910152565b600082601f83011261025157600080fd5b81516001600160401b0381111561026a5761026a610206565b604051601f8201601f19908116603f011681016001600160401b038111828210171561029857610298610206565b6040528181528382016020018510156102b057600080fd5b6102c182602083016020870161021c565b949350505050565b80516001600160a01b03811681146102e057600080fd5b919050565b805160ff811681146102e057600080fd5b600080600080600080600060e0888a03121561031157600080fd5b87516001600160401b0381111561032757600080fd5b6103338a828b01610240565b60208a015190985090506001600160401b0381111561035157600080fd5b61035d8a828b01610240565b96505061036c604089016102c9565b945061037a606089016102e5565b9350610388608089016102e5565b925061039660a089016102c9565b91506103a460c089016102c9565b905092959891949750929550565b634e487b7160e01b600052601160045260246000fd5b60ff82811682821603908111156103e1576103e16103b2565b92915050565b6001815b600184111561042257808504811115610406576104066103b2565b600184161561041457908102905b60019390931c9280026103eb565b935093915050565b600082610439575060016103e1565b81610446575060006103e1565b816001811461045c576002811461046657610482565b60019150506103e1565b60ff841115610477576104776103b2565b50506001821b6103e1565b5060208310610133831016604e8410600b84101617156104a5575081810a6103e1565b6104b260001984846103e7565b80600019048211156104c6576104c66103b2565b029392505050565b60006104dd60ff84168361042a565b9392505050565b6000602082840312156104f657600080fd5b815163ffffffff811681146104dd57600080fd5b6000815180845261052281602086016020860161021c565b601f01601f19169290920160200192915050565b606081526000610549606083018661050a565b828103602084015261055b818661050a565b91505060ff83166040830152949350505050565b60805160a05160c05160e0516101005161012051615b4b61063c6000396000818161071c01528181611fb901528181612145015281816124ff0152612995015260008181610787015281816119c9015281816120c80152818161267e015281816127380152818161292e0152613d530152600081816106d3015281816114fe01528181612e1401526144a5015260008181612890015261363101526000610831015260008181610b63015281816123e201528181612c3e01528181613aa101526141310152615b4b6000f3fe60806040526004361061031a5760003560e01c80637878e644116101ab578063b20446f8116100f7578063d7c3a56d11610095578063e5328e061161006f578063e5328e0614610aef578063ecb0315f14610b04578063f2fde38b14610b31578063fc0c546a14610b5157600080fd5b8063d7c3a56d14610a67578063d9d1404b14610a88578063dc952df514610aa857600080fd5b8063c859c483116100d1578063c859c483146109c6578063cbef2aa9146109e6578063cc32d17614610a08578063d621ad3f14610a2f57600080fd5b8063b20446f814610965578063bedb86fb14610993578063c7c7f5b3146109b357600080fd5b80639561b12f11610164578063a7229fd91161013e578063a7229fd9146108fb578063a85dc7f21461091b578063a88835d714610930578063b0d7ca5d1461095057600080fd5b80639561b12f146108a657806396365d44146108c65780639f68b964146108db57600080fd5b80637878e644146107df5780637bde82f2146107ff578063857749b01461081f57806388543f0e146108535780638c70830b146108685780638da5cb5b1461088857600080fd5b80633faa12c51161026a5780635114bf09116102235780636b0932ec116101fd5780636b0932ec14610740578063715018a6146107605780637260753714610775578063764f6a78146107be57600080fd5b80635114bf09146106ae5780635e280f11146106c15780635fcbd2851461070d57600080fd5b80633faa12c5146105ed578063434def551461060d578063461bb0b91461062d57806347e7ef241461064d578063484267a41461066e5780634b65b81a1461068e57600080fd5b8063192adc5d116102d75780632bc5114c116102b15780632bc5114c1461047c578063341a46481461056c57806338da6b8e1461057f5780633b6f743b146105cd57600080fd5b8063192adc5d14610409578063200d2ed214610429578063203bd15f1461045c57600080fd5b80630141e41b1461031f5780630478c4c0146103555780630d35b4151461037557806313bc4bc7146103a4578063156a0d0f146103c657806316909bca146103ed575b600080fd5b34801561032b57600080fd5b5061033f61033a36600461475c565b610b85565b60405161034c9190614839565b60405180910390f35b61036861036336600461490d565b610ddd565b60405161034c9190614938565b34801561038157600080fd5b50610395610390366004614961565b610e66565b60405161034c939291906149e5565b3480156103b057600080fd5b506103c46103bf366004614a82565b6111cb565b005b3480156103d257600080fd5b506040805162b9270b60e21b8152600060208201520161034c565b3480156103f957600080fd5b50600060405161034c9190614a9b565b34801561041557600080fd5b50610368610424366004614ad1565b61122a565b34801561043557600080fd5b5060025461044a90600160a01b900460ff1681565b60405160ff909116815260200161034c565b34801561046857600080fd5b506103c4610477366004614bac565b6113c9565b34801561048857600080fd5b506105116040805160c081018252600080825260208201819052918101829052606081018290526080810182905260a0810191909152506040805160c0810182526002546001600160a01b03908116825260055481166020830152600754811692820192909252600654821660608201526003548216608082015260045490911660a082015290565b60405161034c919081516001600160a01b03908116825260208084015182169083015260408084015182169083015260608084015182169083015260808084015182169083015260a092830151169181019190915260c00190565b6103c461057a366004614a82565b611687565b34801561058b57600080fd5b506105b561059a366004614c2d565b6008602052600090815260409020546001600160401b031681565b6040516001600160401b03909116815260200161034c565b3480156105d957600080fd5b506103686105e8366004614ad1565b61175d565b3480156105f957600080fd5b506103c4610608366004614c48565b6119bf565b34801561061957600080fd5b506103c4610628366004614c85565b611a7a565b34801561063957600080fd5b506103c4610648366004614ce8565b611dae565b61066061065b366004614d03565b611f0e565b60405190815260200161034c565b34801561067a57600080fd5b50610660610689366004614d2d565b6120c1565b34801561069a57600080fd5b506105b56106a9366004614d48565b6121cd565b3480156106ba57600080fd5b5047610660565b3480156106cd57600080fd5b506106f57f000000000000000000000000000000000000000000000000000000000000000081565b6040516001600160a01b03909116815260200161034c565b34801561071957600080fd5b507f00000000000000000000000000000000000000000000000000000000000000006106f5565b34801561074c57600080fd5b506105b561075b366004614d03565b6123d0565b34801561076c57600080fd5b506103c4612411565b34801561078157600080fd5b506107a97f000000000000000000000000000000000000000000000000000000000000000081565b60405163ffffffff909116815260200161034c565b6107d16107cc366004614df2565b612425565b60405161034c929190614e8e565b3480156107eb57600080fd5b506105b56107fa366004614a82565b612889565b34801561080b57600080fd5b5061066061081a366004614eb2565b6128c3565b34801561082b57600080fd5b5061044a7f000000000000000000000000000000000000000000000000000000000000000081565b34801561085f57600080fd5b50600154610660565b34801561087457600080fd5b506103c4610883366004614a82565b612a8c565b34801561089457600080fd5b506000546001600160a01b03166106f5565b3480156108b257600080fd5b506103c46108c1366004614ed5565b612a99565b3480156108d257600080fd5b50610660612bee565b3480156108e757600080fd5b5060015b604051901515815260200161034c565b34801561090757600080fd5b50610660610916366004614f4a565b612c0d565b34801561092757600080fd5b50610660612ce3565b34801561093c57600080fd5b506103c461094b366004614f87565b612d02565b34801561095c57600080fd5b506103c4612eed565b34801561097157600080fd5b5061098561098036600461500f565b612f56565b60405161034c9291906150aa565b34801561099f57600080fd5b506103c46109ae3660046150ca565b613192565b6107d16109c1366004614df2565b61324d565b3480156109d257600080fd5b506103c46109e13660046150e7565b613281565b6109f96109f4366004614df2565b61334e565b60405161034c93929190615113565b348015610a1457600080fd5b506002546105b590600160a81b90046001600160401b031681565b348015610a3b57600080fd5b50610660610a4a366004615144565b600960209081526000928352604080842090915290825290205481565b348015610a7357600080fd5b506108eb610a82366004615167565b15919050565b348015610a9457600080fd5b50610660610aa33660046151a8565b613626565b348015610ab457600080fd5b50610ac8610ac3366004614961565b613654565b6040805193151584526001600160401b03928316602085015291169082015260600161034c565b348015610afb57600080fd5b506106606137ba565b348015610b1057600080fd5b50610b24610b1f3660046151c5565b6137d2565b60405161034c919061520e565b348015610b3d57600080fd5b506103c4610b4c366004614d2d565b6138cc565b348015610b5d57600080fd5b506106f57f000000000000000000000000000000000000000000000000000000000000000081565b600254606090600160a01b900460ff16600114610be457600254600119600160a01b90910460ff1601610bcb576040516376a9ad7360e01b815260040160405180910390fd5b6040516336c8b0cf60e21b815260040160405180910390fd5b6002805460ff60a01b1916600160a11b1790556003546001600160a01b0316338114610c2357604051635bd25eff60e01b815260040160405180910390fd5b6000836001600160401b03811115610c3d57610c3d61484c565b604051908082528060200260200182016040528015610c8257816020015b6040805180820190915260008082526020820152815260200190600190039081610c5b5790505b5090506000805b85811015610d825736878783818110610ca457610ca4615276565b90506060020190506000610d0e826020016020810190610cc491906151a8565b610cd460608501604086016151a8565b60086000610ce56020880188614c2d565b63ffffffff1663ffffffff16815260200190815260200160002061390f9092919063ffffffff16565b90506001600160401b03811615610d78576040805180820190915280610d376020850185614c2d565b63ffffffff1681526001600160401b0383166020909101528585610d5a816152a2565b965081518110610d6c57610d6c615276565b60200260200101819052505b5050600101610c89565b508082527fce105e156370093e6600169f7c01277f740d45fbcf95435227ce6f43ad0c3abd8783604051610db79291906152bb565b60405180910390a1509150506002805460ff60a01b1916600160a01b1790559392505050565b6040805180820190915260008082526020820152610e3c604051806040016040528060058152602001642fb332b29d60d91b8152508460000151604051806040016040528060068152602001653b30b63ab29d60d11b815250346139a7565b82513414610e5d57604051633442dd9560e01b815260040160405180910390fd5b50815b92915050565b60408051808201909152600080825260208201526060610e99604051806040016040528060008152602001600081525090565b6040518060400160405280610eae6001613626565b8152602001610ef260086000886000016020810190610ecd9190614c2d565b63ffffffff1681526020810191909152604001600020546001600160401b0316613626565b81525092506000610f1f8460200151866040013511610f15578560400135612889565b8460200151612889565b90506000610f44610f336020880188614c2d565b83610b1f610a8260c08b018b6152da565b60025460405163081993cd60e41b81529192506000916001600160a01b03909116906381993cd090610f7a90859060040161520e565b602060405180830381865afa158015610f97573d6000803e3d6000fd5b505050506040513d601f19601f82011682018060405250810190610fbb9190615320565b9050826001600160401b0316816001600160401b03161461119c5760408051600180825281830190925290816020015b604080518082019091526000815260606020820152815260200190600190039081610feb579050509450826001600160401b0316816001600160401b031610156110ad57604051806040016040528061105161104c8487610aa3919061533d565b6139f6565b61105d9060001961535c565b81526020016040518060400160405280600c81526020016b70726f746f636f6c2066656560a01b8152508152508560008151811061109d5761109d615276565b602002602001018190525061119c565b826001600160401b0316816001600160401b0316111561119c5760006110d3848361533d565b90506110df8282613a27565b90925090506001600160401b038085169083160361113d576040805160008082526020820190925290611135565b60408051808201909152600081526060602082015281526020019060019003908161110d5790505b50955061119a565b604051806040016040528061115461104c84613626565b8152602001604051806040016040528060068152602001651c995dd85c9960d21b8152508152508660008151811061118e5761118e615276565b60200260200101819052505b505b60405180604001604052806111b085613626565b81526020016111be83613626565b9052959794965050505050565b6005546001600160a01b03163381146111f757604051635bd25eff60e01b815260040160405180910390fd5b61120082612889565b600a60106101000a8154816001600160401b0302191690836001600160401b031602179055505050565b604080518082019091526000808252602082015261124e610a8260c08501856152da565b61126b576040516316cab05f60e11b815260040160405180910390fd5b600061127a8460400135612889565b6006546040805160c081019091523381529192506001600160a01b031690633292cf02906020808201906112b090890189614c2d565b63ffffffff168152602088810135908201526001600160401b03851660408201526060016112e160a08901896152da565b8080601f01602080910402602001604051908101604052809392919081815260200183838082843760009201919091525050509082525060200161132860808901896152da565b8080601f01602080910402602001604051908101604052809392919081815260200183838082843760009201919091525050509152506040516001600160e01b031960e084901b168152611381919087906004016153f9565b6040805180830381865afa15801561139d573d6000803e3d6000fd5b505050506040513d601f19601f820116820180604052508101906113c1919061544e565b949350505050565b600254600160a01b900460ff1660011461140c57600254600119600160a01b90910460ff1601610bcb576040516376a9ad7360e01b815260040160405180910390fd5b6002805460ff60a01b1916600160a11b1790556006546001600160a01b031633811461144b57604051635bd25eff60e01b815260040160405180910390fd5b600061145685613626565b905082158015906060906114c4576114c161147760608c0160408d016151a8565b61148460208d018d614c2d565b8589898080601f016020809104026020016040519081016040528093929190818152602001838380828437600092019190915250613a6892505050565b90505b60006114d08985613a9a565b905080156115c9576114e188613ac7565b821561156d57604051633e5ac80960e11b81526001600160a01b037f00000000000000000000000000000000000000000000000000000000000000001690637cb590129061153a908c908e90600090889060040161546a565b600060405180830381600087803b15801561155457600080fd5b505af1158015611568573d6000803e3d6000fd5b505050505b6001600160a01b0389168a7fefed6d3500546b29533b128a29e3a94d70788727f0507505ac12eaf2e578fd9c6115a660208f018f614c2d565b6040805163ffffffff9092168252602082018990520160405180910390a3611667565b6115d660208c018c614c2d565b8985846040516020016115ec94939291906154a5565b60408051601f19818403018152918152815160209283012060008d8152600984528281208180528452918220557e7c17198cd078035dc663f9a0961f84cb6265411d0b4c793f96d432f6af4b55918c9190611649908f018f614c2d565b8c888760405161165e969594939291906154f7565b60405180910390a15b50506002805460ff60a01b1916600160a01b179055505050505050505050565b6007546001600160a01b03163381146116b357604051635bd25eff60e01b815260040160405180910390fd5b6116bc82613c29565b60006116c833846123d0565b905080600260158282829054906101000a90046001600160401b03166116ee9190615545565b92506101000a8154816001600160401b0302191690836001600160401b031602179055507fa064a2faa279f4d67c85c8fc69d4ebb7de2739a9e6dd864dfdd1b9e066d4bfd08160405161175091906001600160401b0391909116815260200190565b60405180910390a1505050565b604080518082019091526000808252602082015260006117808460400135612889565b9050806001600160401b03166000036117ac57604051633442dd9560e01b815260040160405180910390fd5b60006117be610a8260c08701876152da565b90508015611913576006546040805160c081019091523381526001600160a01b0390911690633292cf02906020808201906117fb908a018a614c2d565b63ffffffff168152602089810135908201526001600160401b038616604082015260600161182c60a08a018a6152da565b8080601f01602080910402602001604051908101604052809392919081815260200183838082843760009201919091525050509082525060200161187360808a018a6152da565b8080601f01602080910402602001604051908101604052809392919081815260200183838082843760009201919091525050509152506040516001600160e01b031960e084901b1681526118cc919088906004016153f9565b6040805180830381865afa1580156118e8573d6000803e3d6000fd5b505050506040513d601f19601f8201168201806040525081019061190c919061544e565b92506119b7565b60008061192360808801886152da565b60065492109250506001600160a01b03166375d2208c6119466020890189614c2d565b6040516001600160e01b031960e084901b16815263ffffffff91909116600482015283151560248201526044016040805180830381865afa15801561198f573d6000803e3d6000fd5b505050506040513d601f19601f820116820180604052508101906119b3919061544e565b9350505b505092915050565b6119c7613c48565b7f000000000000000000000000000000000000000000000000000000000000000063ffffffff168263ffffffff1603611a1357604051632b6a0d0960e21b815260040160405180910390fd5b63ffffffff8083166000908152600860205260409020611a35918390613c7516565b6040805163ffffffff8416815282151560208201527faf6b8dd4c5a827e03f548d06181b36aaba61e22436ff1cfa9bc409d576366a6091015b60405180910390a15050565b600254600160a01b900460ff16600114611abd57600254600119600160a01b90910460ff1601610bcb576040516376a9ad7360e01b815260040160405180910390fd5b6002805460ff60a01b1916600160a11b1790556006546001600160a01b0316338114611afc57604051635bd25eff60e01b815260040160405180910390fd5b6000611b0783613626565b9050611b3f6040518060400160405280601581526020017473746172742072656365697665546f6b656e42757360581b815250613d09565b6000611b4b8583613a9a565b90508015611c2957611b916040518060400160405280601781526020017f72656365697665546f6b656e4275732073756363657373000000000000000000815250613d09565b611b9a84613ac7565b611bcd604051806040016040528060128152602001716166746572205f706f73744f7574666c6f7760701b815250613d09565b6001600160a01b038516877fefed6d3500546b29533b128a29e3a94d70788727f0507505ac12eaf2e578fd9c611c0660208c018c614c2d565b6040805163ffffffff9092168252602082018790520160405180910390a3611d5d565b611c676040518060400160405280601b81526020017f72656365697665546f6b656e427573206e6f7420737563636573730000000000815250613d09565b611c746020890189614c2d565b60405160e09190911b6001600160e01b0319166020820152606086901b6bffffffffffffffffffffffff191660248201526038810183905260580160408051601f19818403018152918152815160209283012060008a81526009845282812060ff8b168252845291909120557e7c17198cd078035dc663f9a0961f84cb6265411d0b4c793f96d432f6af4b559088908890611d11908c018c614c2d565b6040805193845260ff909216602084015263ffffffff16908201526001600160a01b03871660608201526080810184905260c060a0820181905260009082015260e00160405180910390a15b611d9160405180604001604052806013815260200172656e642072656365697665546f6b656e42757360681b815250613d09565b50506002805460ff60a01b1916600160a01b179055505050505050565b611db6613c48565b611dc36020820182614d2d565b600280546001600160a01b0319166001600160a01b0392909216919091179055611df36040820160208301614d2d565b600580546001600160a01b0319166001600160a01b0392909216919091179055611e236060820160408301614d2d565b600780546001600160a01b0319166001600160a01b0392909216919091179055611e536080820160608301614d2d565b600680546001600160a01b0319166001600160a01b0392909216919091179055611e8360a0820160808301614d2d565b600380546001600160a01b0319166001600160a01b0392909216919091179055611eb360c0820160a08301614d2d565b600480546001600160a01b0319166001600160a01b03929092169190911790556040517f9774229668135b546675daf425e41c0848f60aa32d0951881245f4f528cc33f090611f03908390615564565b60405180910390a150565b600254600090600160a01b900460ff16600114611f5457600254600119600160a01b90910460ff1601610bcb576040516376a9ad7360e01b815260040160405180910390fd5b6002805460ff60a01b1916600160a11b179055611f7082613c29565b6000611f7c33846123d0565b9050611f8781613d4c565b611f9081613626565b6040516340c10f1960e01b81526001600160a01b038681166004830152602482018390529193507f0000000000000000000000000000000000000000000000000000000000000000909116906340c10f1990604401600060405180830381600087803b158015611fff57600080fd5b505af1158015612013573d6000803e3d6000fd5b5050600a80548493509091506000906120369084906001600160401b0316615545565b92506101000a8154816001600160401b0302191690836001600160401b03160217905550836001600160a01b0316336001600160a01b03167f8752a472e571a816aea92eec8dae9baf628e840f4929fbcc2d155e6233ff68a78460405161209f91815260200190565b60405180910390a3506002805460ff60a01b1916600160a01b17905592915050565b63ffffffff7f000000000000000000000000000000000000000000000000000000000000000016600090815260086020526040812054819061210b906001600160401b0316613626565b90506001600160a01b038316612123578091506121c7565b6040516370a0823160e01b81526001600160a01b0384811660048301526000917f0000000000000000000000000000000000000000000000000000000000000000909116906370a0823190602401602060405180830381865afa15801561218e573d6000803e3d6000fd5b505050506040513d601f19601f820116820180604052508101906121b29190615604565b90508082116121c157816121c3565b805b9250505b50919050565b6002546040516343d9564d60e01b81526000916001600160a01b0316906343d9564d906121fe90869060040161520e565b6020604051808303816000875af115801561221d573d6000803e3d6000fd5b505050506040513d601f19601f820116820180604052508101906122419190615320565b60408401519091506001600160401b0380821690831610156122b257612267828261533d565b60028054601590612289908490600160a81b90046001600160401b0316615545565b92506101000a8154816001600160401b0302191690836001600160401b03160217905550612343565b806001600160401b0316826001600160401b031611156123435760006122d8828461533d565b90506122e48382613a27565b90935090506001600160401b038116156123415780600260158282829054906101000a90046001600160401b031661231c919061533d565b92506101000a8154816001600160401b0302191690836001600160401b031602179055505b505b826001600160401b0316826001600160401b0316108061236a57506001600160401b038216155b156123885760405163a1e8654560e01b815260040160405180910390fd5b6040516001600160401b03831681527f6f1fa2531369a7ffc9892608e862988368f03d5f2b2ba1c74c4b1a65b44e72c09060200160405180910390a15092915050565b905090565b60006123db82612889565b9050610e607f0000000000000000000000000000000000000000000000000000000000000000843061240c85613626565b613dd9565b612419613c48565b6124236000613e02565b565b61242d6146fc565b6040805180820190915260008082526020820152600254600160a01b900460ff1660011461248457600254600119600160a01b90910460ff1601610bcb576040516376a9ad7360e01b815260040160405180910390fd5b6002805460ff60a01b1916600160a11b1790556124a7610a8260c08701876152da565b6124c4576040516316cab05f60e11b815260040160405180910390fd5b60006124d38660400135612889565b905060006124e082613626565b60405163079cc67960e41b8152336004820152602481018290529091507f00000000000000000000000000000000000000000000000000000000000000006001600160a01b0316906379cc679090604401600060405180830381600087803b15801561254b57600080fd5b505af115801561255f573d6000803e3d6000fd5b5050604051838152600092503391507f27d4634c833b7622a0acddbf7f746183625f105945e95c723ad1d5a9f2a0b6fc9060200160405180910390a360006125b56125ad60208a018a614c2d565b8460016137d2565b905060006125ca826106a98b60600135612889565b600a805491925085916000906125ea9084906001600160401b031661533d565b92506101000a8154816001600160401b0302191690836001600160401b0316021790555061265181600860008c60000160208101906126299190614c2d565b63ffffffff1663ffffffff168152602001908152602001600020613e5290919063ffffffff16565b806001600160401b0316846001600160401b0316111561270b576000612677828661533d565b63ffffffff7f0000000000000000000000000000000000000000000000000000000000000000811660009081526008602052604090209192506126bd91908390613e5216565b80600a60088282829054906101000a90046001600160401b03166126e1919061533d565b92506101000a8154816001600160401b0302191690836001600160401b03160217905550506127c1565b806001600160401b0316846001600160401b031610156127c1576000612731858361533d565b63ffffffff7f00000000000000000000000000000000000000000000000000000000000000008116600090815260086020526040902091925061277791908390613ec316565b80600a60088282829054906101000a90046001600160401b031661279b9190615545565b92506101000a8154816001600160401b0302191690836001600160401b03160217905550505b60006127dc6127d5368b90038b018b61561d565b6000610ddd565b90506127ea8a82848b613f41565b9650604051806040016040528085815260200161280684613626565b9052875190965033907f85496b760a4b7f8d66384b9df21b381f5d1b1e79f229a47aaf4c232edc2fe59a61283d60208e018e614c2d565b60208a8101516040805163ffffffff90941684529183018a90529082015260600160405180910390a350506002805460ff60a01b1916600160a01b179055509296919550909350505050565b6000610e607f000000000000000000000000000000000000000000000000000000000000000083816128bd576128bd615639565b046140b7565b600254600090600160a01b900460ff1660011461290957600254600119600160a01b90910460ff1601610bcb576040516376a9ad7360e01b815260040160405180910390fd5b6002805460ff60a01b1916600160a11b179055600061292784612889565b63ffffffff7f00000000000000000000000000000000000000000000000000000000000000008116600090815260086020526040902091925061296d91908390613e5216565b61297681613626565b60405163079cc67960e41b8152336004820152602481018290529092507f00000000000000000000000000000000000000000000000000000000000000006001600160a01b0316906379cc679090604401600060405180830381600087803b1580156129e157600080fd5b505af11580156129f5573d6000803e3d6000fd5b5050600a8054849350909150600090612a189084906001600160401b031661533d565b92506101000a8154816001600160401b0302191690836001600160401b03160217905550612a4683836140ed565b612a4f81613ac7565b6040518281526001600160a01b0384169033907f27d4634c833b7622a0acddbf7f746183625f105945e95c723ad1d5a9f2a0b6fc9060200161209f565b612a94613c48565b600155565b600254600160a01b900460ff16600114612adc57600254600119600160a01b90910460ff1601610bcb576040516376a9ad7360e01b815260040160405180910390fd5b6002805460ff60a01b1916600160a11b1790556003546001600160a01b0316338114612b1b57604051635bd25eff60e01b815260040160405180910390fd5b60005b82811015612b995736848483818110612b3957612b39615276565b9050604002019050612b90816020016020810190612b5791906151a8565b60086000612b686020860186614c2d565b63ffffffff1663ffffffff168152602001908152602001600020613ec390919063ffffffff16565b50600101612b1e565b507f10c5f2b007767d266c6c75c86ae9ed0c74e6320b30bda231af7396a990e7263c848484604051612bcd9392919061564f565b60405180910390a150506002805460ff60a01b1916600160a01b1790555050565b600a546000906123cb90600160401b90046001600160401b0316613626565b6007546000906001600160a01b0316338114612c3c57604051635bd25eff60e01b815260040160405180910390fd5b7f00000000000000000000000000000000000000000000000000000000000000006001600160a01b0316856001600160a01b031603612ccd57600254600a54600091612ca691610aa3916001600160401b03600160a81b909104811691600160401b900416615545565b612cae614119565b612cb891906156c1565b9050808411612cc75783612cc9565b805b9350505b612cd88585856141a4565b91505b509392505050565b600a546000906123cb90600160801b90046001600160401b0316613626565b600254600160a01b900460ff16600114612d4557600254600119600160a01b90910460ff1601610bcb576040516376a9ad7360e01b815260040160405180910390fd5b6002805460ff60a01b1916600160a11b179055604051612d7190869086908690869086906020016156d4565b60408051601f19818403018152918152815160209283012060008a81526009845282812060ff8b16825290935291205414612dbf5760405163aba8b6ef60e01b815260040160405180910390fd5b600087815260096020908152604080832060ff8a168452909152812055612de684846140ed565b612df7612df284612889565b613ac7565b8015612e8557604051633e5ac80960e11b81526001600160a01b037f00000000000000000000000000000000000000000000000000000000000000001690637cb5901290612e529087908b906000908890889060040161571a565b600060405180830381600087803b158015612e6c57600080fd5b505af1158015612e80573d6000803e3d6000fd5b505050505b6040805163ffffffff87168152602081018590526001600160a01b0386169189917fefed6d3500546b29533b128a29e3a94d70788727f0507505ac12eaf2e578fd9c910160405180910390a350506002805460ff60a01b1916600160a01b1790555050505050565b6005546001600160a01b0316338114612f1957604051635bd25eff60e01b815260040160405180910390fd5b47612f2633826000614278565b6040518181527f19e23b96a5e0d494b59baca97d1fe386cf8e80a978dfd8845d25f1a9d5c7e18390602001611a6e565b612f5e6146fc565b604080518082019091526000815260606020820152612fb16040518060400160405280601a81526020017f5374617274696e67205f726964654275732066756e6374696f6e000000000000815250613d09565b602085015115612fd45760405163b5e0bf8d60e01b815260040160405180910390fd5b6006546040805160a081019091523381526001600160a01b03909116906385afd45390602080820190613009908b018b614c2d565b63ffffffff16815260208a810135908201526001600160401b0388166040820152606001600061303c60808c018c6152da565b9190911190915250604080516001600160e01b031960e085901b16815282516001600160a01b03166004820152602083015163ffffffff16602482015290820151604482015260608201516001600160401b031660648201526080909101511515608482015260a4016000604051808303816000875af11580156130c4573d6000803e3d6000fd5b505050506040513d6000823e601f3d908101601f191682016040526130ec91908101906157d9565b604080830151518851825180840184526008815267313ab9a330b9329d60c11b6020808301919091528451808601909552600d85526c383937bb34b232b22330b9329d60991b9085015294965092945092613149918490846139a7565b818114613187578181111561316e57818103613167868260006142a0565b5050613187565b604051635014298b60e11b815260040160405180910390fd5b505094509492505050565b6005546001600160a01b03163381146131be57604051635bd25eff60e01b815260040160405180910390fd5b600254600119600160a01b90910460ff16016131ed576040516376a9ad7360e01b815260040160405180910390fd5b816131f95760016131fc565b60035b6002805460ff92909216600160a01b0260ff60a01b1990921691909117905560405182151581527f878ac8a2ca79520471f8f3c8494fa802c03ce3bf034252aad7f22318984fdbdb90602001611a6e565b6132556146fc565b604080518082019091526000808252602082015261327485858561334e565b5090969095509350505050565b6007546001600160a01b03163381146132ad57604051635bd25eff60e01b815260040160405180910390fd5b81600260158282829054906101000a90046001600160401b03166132d1919061533d565b92506101000a8154816001600160401b0302191690836001600160401b031602179055506133078361330284613626565b6140ed565b604080516001600160a01b03851681526001600160401b03841660208201527fa46907b6b80b882da80d6e36cc905dde57fafff0a5442c8898526fe952d1e6539101611750565b6133566146fc565b6040805180820190915260008082526020820152604080518082019091526000815260606020820152600254600160a01b900460ff166001146133c257600254600119600160a01b90910460ff1601610bcb576040516376a9ad7360e01b815260040160405180910390fd5b6002805460ff60a01b1916600160a11b179055600080806133e289613654565b92509250925061344d6040518060400160405280600b81526020016a30b6b7bab73a24b729a21d60a91b815250836001600160401b03166040518060400160405280600c81526020016b30b6b7bab73a27baba29a21d60a11b815250846001600160401b03166139a7565b604051806040016040528061346184613626565b815260200161346f83613626565b81525094506134c36040518060600160405280602b8152602001615ac9602b913989600001356040518060400160405280600b81526020016a363d2a37b5b2b72332b29d60a91b8152508b602001356139a7565b6135066040518060400160405280601981526020017f6f6674526563656970742c20616d6f756e7453656e744c443a000000000000008152508660000151614381565b600061352161351a368b90038b018b61561d565b8751610ddd565b905061357c6040518060400160405280600a8152602001693730ba34bb32a332b29d60b11b81525082600001516040518060400160405280600b81526020016a363d2a37b5b2b72332b29d60a91b81525084602001516139a7565b83156135955761358e8a82848b613f41565b96506135a7565b6135a18a82848b612f56565b90975094505b865133907f85496b760a4b7f8d66384b9df21b381f5d1b1e79f229a47aaf4c232edc2fe59a6135d960208e018e614c2d565b89516020808c01516040805163ffffffff90951685529184019290925282015260600160405180910390a350506002805460ff60a01b1916600160a01b1790555092969195509350915050565b6001600160401b03167f00000000000000000000000000000000000000000000000000000000000000000290565b60008080613668610a8260c08601866152da565b92506136783385604001356123d0565b9150600061369361368c6020870187614c2d565b84866137d2565b90506136ff6040518060400160405280600a81526020016930b6b7bab73a24b7299d60b11b81525082604001516001600160401b03166040518060400160405280600a8152602001693232b334b1b4ba29a21d60b11b81525084606001516001600160401b03166139a7565b613710816106a98760600135612889565b91506137496040518060400160405280600c81526020016b30b6b7bab73a27baba29a21d60a11b815250836001600160401b0316614381565b61375e826008600061262960208a018a614c2d565b61376782613d4c565b6040805185151581526001600160401b03858116602083015284168183015290517faf253ae740b91d82cc9ab31a875d58fe375eaabca0def3165ddb83904af9b7059181900360600190a1509193909250565b600a546000906123cb906001600160401b0316613626565b6040805160c081018252600080825260208201819052918101829052606081018290526080810182905260a0810191909152600a54600090613826906001600160401b03600160801b820481169116615545565b600a549091506000906001600160401b03600160401b90910481169083161161385057600061386d565b600a5461386d90600160401b90046001600160401b03168361533d565b6040805160c08101825233815263ffffffff891660208083018290526001600160401b038a811684860152948516606084015260009182526008905291909120548216909114608082015284151560a0820152925050505b9392505050565b6138d4613c48565b6001600160a01b03811661390357604051631e4fbdf760e01b8152600060048201526024015b60405180910390fd5b61390c81613e02565b50565b82546000906001600160401b031667fffffffffffffffe19810161394657604051632d2e64a360e11b815260040160405180910390fd5b806001600160401b0316836001600160401b03161015612cdb578281036001600160401b038082169086161161397c578461397e565b805b86546001600160401b038285031667ffffffffffffffff19909116178755925050509392505050565b6139f0848484846040516024016139c194939291906158d8565b60408051601f198184030181529190526020810180516001600160e01b031663c67ea9d160e01b1790526143ca565b50505050565b60006001600160ff1b03821115613a235760405163123baf0360e11b8152600481018390526024016138fa565b5090565b60025460009081906001600160401b03600160a81b9091048116908416811015613a5957838503810192509050613a61565b848492509250505b9250929050565b606084848484604051602001613a819493929190615915565b6040516020818303038152906040529050949350505050565b60006138c57f000000000000000000000000000000000000000000000000000000000000000084846143d3565b613afa604051806040016040528060128152602001717374617274205f706f73744f7574666c6f7760701b815250613d09565b613b846040518060400160405280601d81526020017f6265666f7265206465647563742c20706f6f6c42616c616e636553443a000000815250600a60089054906101000a90046001600160401b03166001600160401b03166040518060400160405280600a8152602001692fb0b6b7bab73a29a21d60b11b815250846001600160401b03166139a7565b80600a60088282829054906101000a90046001600160401b0316613ba8919061533d565b92506101000a8154816001600160401b0302191690836001600160401b0316021790555061390c6040518060400160405280601b81526020017f61667465722064656475637420706f6f6c42616c616e636553443a0000000000815250600a60089054906101000a90046001600160401b03166001600160401b0316614381565b341561390c57604051633442dd9560e01b815260040160405180910390fd5b6000546001600160a01b031633146124235760405163118cdaa760e01b81523360048201526024016138fa565b81546001600160401b03168115613ccb576001600160401b03811615613cae57604051631945787360e31b815260040160405180910390fd5b825467ffffffffffffffff19166001600160401b03178355505050565b6001600160401b0381811614613cf457604051631945787360e31b815260040160405180910390fd5b825467ffffffffffffffff191683555b505050565b61390c81604051602401613d1d9190615964565b60408051601f198184030181529190526020810180516001600160e01b031663104c13eb60e21b1790526143ca565b63ffffffff7f000000000000000000000000000000000000000000000000000000000000000081166000908152600860205260409020613d8e918390613ec316565b80600a60088282829054906101000a90046001600160401b0316613db29190615545565b92506101000a8154816001600160401b0302191690836001600160401b0316021790555050565b613de584848484614439565b6139f057604051633e3ae1e960e11b815260040160405180910390fd5b600080546001600160a01b038381166001600160a01b0319831681178455604051919092169283917f8be0079c531659141344cd1fd0a4f28419497f9722a3daafe3b4186f6b6457e09190a35050565b81546001600160401b031667fffffffffffffffe198101613e7257505050565b816001600160401b0316816001600160401b03161015613ea557604051632b4d0ad560e01b815260040160405180910390fd5b825467ffffffffffffffff19169190036001600160401b0316179055565b81546001600160401b031667fffffffffffffffe198101613ee357505050565b613eed8282615545565b905067fffffffffffffffe196001600160401b03821601613f2157604051632d2e64a360e11b815260040160405180910390fd5b825467ffffffffffffffff19166001600160401b03919091161790915550565b613f496146fc565b602084015115613f6057613f608460200151614474565b60065484516040805160c081019091523381526001600160a01b039092169163ff6fb3009190602080820190613f98908b018b614c2d565b63ffffffff16815260208a810135908201526001600160401b0388166040820152606001613fc960a08b018b6152da565b8080601f01602080910402602001604051908101604052809392919081815260200183838082843760009201919091525050509082525060200161401060808b018b6152da565b8080601f01602080910402602001604051908101604052809392919081815260200183838082843760009201919091525050509152506040516001600160e01b031960e085901b16815261406b919089908890600401615977565b60806040518083038185885af1158015614089573d6000803e3d6000fd5b50505050506040513d601f19601f820116820180604052508101906140ae91906159bc565b95945050505050565b60006001600160401b03821115613a2357604080516306dfcc6560e41b81526004810191909152602481018390526044016138fa565b60006140f98383613a9a565b905080613d04576040516303530b3f60e11b815260040160405180910390fd5b6040516370a0823160e01b81523060048201526000907f00000000000000000000000000000000000000000000000000000000000000006001600160a01b0316906370a0823190602401602060405180830381865afa158015614180573d6000803e3d6000fd5b505050506040513d601f19601f820116820180604052508101906123cb9190615604565b600254600090600160a01b900460ff166001146141ea57600254600119600160a01b90910460ff1601610bcb576040516376a9ad7360e01b815260040160405180910390fd5b6002805460ff60a01b1916600160a11b1790556007546001600160a01b031633811461422957604051635bd25eff60e01b815260040160405180910390fd5b6001600160a01b0385166142505760405163809fc44b60e01b815260040160405180910390fd5b61425d85858560006144ca565b50506002805460ff60a01b1916600160a01b17905592915050565b6142838383836142a0565b613d0457604051633e3ae1e960e11b815260040160405180910390fd5b60006142c3604051806060016040528060228152602001615af460229139613d09565b6000826142d0575a6142d4565b6001545b905061431d604051806040016040528060048152602001632fba379d60e11b81525086604051806040016040528060078152602001662fbb30b63ab29d60c91b815250876144d6565b61436e6040518060400160405280600d81526020016c233937b69020b2323932b9b99d60991b81525030604051806040016040528060088152602001672130b630b731b29d60c11b815250476144d6565b600080600080878986f195945050505050565b6143c682826040516024016143979291906159d8565b60408051601f198184030181529190526020810180516001600160e01b0316632d839cb360e21b1790526143ca565b5050565b61390c8161451f565b6040516001600160a01b0383166024820152604481018290526000906113c190859063a9059cbb60e01b906064015b60408051601f198184030181529190526020810180516001600160e01b03166001600160e01b031990931692909217909152614540565b6040516001600160a01b03808516602483015283166044820152606481018290526000906140ae9086906323b872dd60e01b90608401614402565b6004546001600160a01b03168061449e5760405163b5e0bf8d60e01b815260040160405180910390fd5b6143c681337f000000000000000000000000000000000000000000000000000000000000000085613dd9565b613de5848484846145cd565b6139f0848484846040516024016144f094939291906159fa565b60408051601f198184030181529190526020810180516001600160e01b03166348e8889760e11b1790526143ca565b60006a636f6e736f6c652e6c6f679050600080835160208501845afa505050565b6000806000846001600160a01b03168460405161455d9190615a2e565b6000604051808303816000865af19150503d806000811461459a576040519150601f19603f3d011682016040523d82523d6000602084013e61459f565b606091505b5091509150816145b05760006140ae565b805115806140ae5750808060200190518101906140ae9190615a4a565b6000614616604051806040016040528060078152602001662fba37b5b2b71d60c91b81525086604051806040016040528060048152602001632fba379d60e11b8152508761466e565b6001600160a01b0385166146365761462f8484846142a0565b9050614644565b6146418585856143d3565b90505b6113c16040518060400160405280600881526020016739bab1b1b2b9b99d60c11b815250826146b7565b6139f0848484846040516024016146889493929190615a67565b60408051601f198184030181529190526020810180516001600160e01b031663aabc9a3160e01b1790526143ca565b6143c682826040516024016146cd929190615ab5565b60408051601f198184030181529190526020810180516001600160e01b031663c3b5563560e01b1790526143ca565b60405180606001604052806000801916815260200160006001600160401b0316815260200161473e604051806040016040528060008152602001600081525090565b905290565b803563ffffffff8116811461475757600080fd5b919050565b60008060006040848603121561477157600080fd5b61477a84614743565b925060208401356001600160401b0381111561479557600080fd5b8401601f810186136147a657600080fd5b80356001600160401b038111156147bc57600080fd5b8660206060830284010111156147d157600080fd5b939660209190910195509293505050565b600081518084526020840193506020830160005b8281101561482f578151805163ffffffff1687526020908101516001600160401b031681880152604090960195909101906001016147f6565b5093949350505050565b6020815260006138c560208301846147e2565b634e487b7160e01b600052604160045260246000fd5b604080519081016001600160401b03811182821017156148845761488461484c565b60405290565b60405160c081016001600160401b03811182821017156148845761488461484c565b604051601f8201601f191681016001600160401b03811182821017156148d4576148d461484c565b604052919050565b6000604082840312156148ee57600080fd5b6148f6614862565b823581526020928301359281019290925250919050565b6000806060838503121561492057600080fd5b61492a84846148dc565b946040939093013593505050565b815181526020808301519082015260408101610e60565b600060e082840312156121c757600080fd5b60006020828403121561497357600080fd5b81356001600160401b0381111561498957600080fd5b6113c18482850161494f565b60005b838110156149b0578181015183820152602001614998565b50506000910152565b600081518084526149d1816020860160208601614995565b601f01601f19169290920160200192915050565b8351815260208085015190820152600060a0820160a0604084015280855180835260c08501915060c08160051b86010192506020870160005b82811015614a665760bf198786030184528151805186526020810151905060406020870152614a5060408701826149b9565b9550506020938401939190910190600101614a1e565b50508551606086015250506020840151608084015290506113c1565b600060208284031215614a9457600080fd5b5035919050565b6020810160028310614abd57634e487b7160e01b600052602160045260246000fd5b91905290565b801515811461390c57600080fd5b60008060408385031215614ae457600080fd5b82356001600160401b03811115614afa57600080fd5b614b068582860161494f565b9250506020830135614b1781614ac3565b809150509250929050565b6000606082840312156121c757600080fd5b80356001600160a01b038116811461475757600080fd5b6001600160401b038116811461390c57600080fd5b803561475781614b4b565b60008083601f840112614b7d57600080fd5b5081356001600160401b03811115614b9457600080fd5b602083019150836020828501011115613a6157600080fd5b60008060008060008060e08789031215614bc557600080fd5b614bcf8888614b22565b955060608701359450614be460808801614b34565b935060a0870135614bf481614b4b565b925060c08701356001600160401b03811115614c0f57600080fd5b614c1b89828a01614b6b565b979a9699509497509295939492505050565b600060208284031215614c3f57600080fd5b6138c582614743565b60008060408385031215614c5b57600080fd5b614c6483614743565b91506020830135614b1781614ac3565b803560ff8116811461475757600080fd5b600080600080600060e08688031215614c9d57600080fd5b614ca78787614b22565b945060608601359350614cbc60808701614c74565b9250614cca60a08701614b34565b915060c0860135614cda81614b4b565b809150509295509295909350565b600060c0828403128015614cfb57600080fd5b509092915050565b60008060408385031215614d1657600080fd5b614d1f83614b34565b946020939093013593505050565b600060208284031215614d3f57600080fd5b6138c582614b34565b60008082840360e0811215614d5c57600080fd5b60c0811215614d6a57600080fd5b50614d7361488a565b614d7c84614b34565b8152614d8a60208501614743565b60208201526040840135614d9d81614b4b565b60408201526060840135614db081614b4b565b60608201526080840135614dc381614ac3565b608082015260a0840135614dd681614ac3565b60a08201529150614de960c08401614b60565b90509250929050565b60008060008385036080811215614e0857600080fd5b84356001600160401b03811115614e1e57600080fd5b614e2a8782880161494f565b9450506040601f1982011215614e3f57600080fd5b50602084019150614e5260608501614b34565b90509250925092565b805182526001600160401b0360208201511660208301526040810151613d04604084018280518252602090810151910152565b60c08101614e9c8285614e5b565b82516080830152602083015160a08301526138c5565b60008060408385031215614ec557600080fd5b82359150614de960208401614b34565b600080600060408486031215614eea57600080fd5b614ef384614743565b925060208401356001600160401b03811115614f0e57600080fd5b8401601f81018613614f1f57600080fd5b80356001600160401b03811115614f3557600080fd5b8660208260061b84010111156147d157600080fd5b600080600060608486031215614f5f57600080fd5b614f6884614b34565b9250614f7660208501614b34565b929592945050506040919091013590565b600080600080600080600060c0888a031215614fa257600080fd5b87359650614fb260208901614c74565b9550614fc060408901614743565b9450614fce60608901614b34565b93506080880135925060a08801356001600160401b03811115614ff057600080fd5b614ffc8a828b01614b6b565b989b979a50959850939692959293505050565b60008060008060a0858703121561502557600080fd5b84356001600160401b0381111561503b57600080fd5b6150478782880161494f565b94505061505786602087016148dc565b9250606085013561506781614b4b565b915061507560808601614b34565b905092959194509250565b68ffffffffffffffffff815116825260006020820151604060208501526113c160408501826149b9565b6150b48184614e5b565b60a0608082015260006113c160a0830184615080565b6000602082840312156150dc57600080fd5b81356138c581614ac3565b600080604083850312156150fa57600080fd5b61510383614b34565b91506020830135614b1781614b4b565b61511d8185614e5b565b82516080820152602083015160a082015260e060c082015260006140ae60e0830184615080565b6000806040838503121561515757600080fd5b82359150614de960208401614c74565b6000806020838503121561517a57600080fd5b82356001600160401b0381111561519057600080fd5b61519c85828601614b6b565b90969095509350505050565b6000602082840312156151ba57600080fd5b81356138c581614b4b565b6000806000606084860312156151da57600080fd5b6151e384614743565b925060208401356151f381614b4b565b9150604084013561520381614ac3565b809150509250925092565b600060c08201905060018060a01b03835116825263ffffffff60208401511660208301526001600160401b0360408401511660408301526001600160401b03606084015116606083015260808301511515608083015260a0830151151560a083015292915050565b634e487b7160e01b600052603260045260246000fd5b634e487b7160e01b600052601160045260246000fd5b6000600182016152b4576152b461528c565b5060010190565b63ffffffff831681526040602082015260006113c160408301846147e2565b6000808335601e198436030181126152f157600080fd5b8301803591506001600160401b0382111561530b57600080fd5b602001915036819003821315613a6157600080fd5b60006020828403121561533257600080fd5b81516138c581614b4b565b6001600160401b038281168282160390811115610e6057610e6061528c565b80820260008212600160ff1b841416156153785761537861528c565b8181058314821517610e6057610e6061528c565b60018060a01b03815116825263ffffffff6020820151166020830152604081015160408301526001600160401b0360608201511660608301526000608082015160c060808501526153e060c08501826149b9565b905060a083015184820360a08601526140ae82826149b9565b60408152600061540c604083018561538c565b905082151560208301529392505050565b60006040828403121561542f57600080fd5b615437614862565b825181526020928301519281019290925250919050565b60006040828403121561546057600080fd5b6138c5838361541d565b60018060a01b038516815283602082015261ffff8316604082015260806060820152600061549b60808301846149b9565b9695505050505050565b63ffffffff60e01b8560e01b1681526bffffffffffffffffffffffff198460601b166004820152826018820152600082516154e7816038850160208701614995565b9190910160380195945050505050565b86815260ff8616602082015263ffffffff8516604082015260018060a01b038416606082015282608082015260c060a0820152600061553960c08301846149b9565b98975050505050505050565b6001600160401b038181168382160190811115610e6057610e6061528c565b60c081016001600160a01b0361557984614b34565b1682526001600160a01b0361559060208501614b34565b1660208301526001600160a01b036155aa60408501614b34565b1660408301526001600160a01b036155c460608501614b34565b1660608301526001600160a01b036155de60808501614b34565b1660808301526001600160a01b036155f860a08501614b34565b1660a083015292915050565b60006020828403121561561657600080fd5b5051919050565b60006040828403121561562f57600080fd5b6138c583836148dc565b634e487b7160e01b600052601260045260246000fd5b63ffffffff84168152604060208201819052810182905260008360608301825b858110156156b65763ffffffff61568584614743565b168252602083013561569681614b4b565b6001600160401b031660208301526040928301929091019060010161566f565b509695505050505050565b81810381811115610e6057610e6061528c565b63ffffffff60e01b8660e01b1681526bffffffffffffffffffffffff198560601b1660048201528360188201528183603883013760009101603801908152949350505050565b6001600160a01b03861681526020810185905261ffff841660408201526080606082018190528101829052818360a0830137600081830160a090810191909152601f909201601f19160101949350505050565b60006080828403121561577f57600080fd5b604051606081016001600160401b03811182821017156157a1576157a161484c565b80604052508091508251815260208301516157bb81614b4b565b60208201526157cd846040850161541d565b60408201525092915050565b60008060a083850312156157ec57600080fd5b6157f6848461576d565b915060808301516001600160401b0381111561581157600080fd5b83016040818603121561582357600080fd5b61582b614862565b815168ffffffffffffffffff8116811461584457600080fd5b815260208201516001600160401b0381111561585f57600080fd5b80830192505085601f83011261587457600080fd5b81516001600160401b0381111561588d5761588d61484c565b6158a0601f8201601f19166020016148ac565b8181528760208386010111156158b557600080fd5b6158c6826020830160208701614995565b60208301525092959294509192505050565b6080815260006158eb60808301876149b9565b856020840152828103604084015261590381866149b9565b91505082606083015295945050505050565b6001600160401b0360c01b8560c01b16815263ffffffff60e01b8460e01b16600882015282600c8201526000825161595481602c850160208701614995565b91909101602c0195945050505050565b6020815260006138c560208301846149b9565b60808152600061598a608083018661538c565b90506159a3602083018580518252602090810151910152565b6001600160a01b03929092166060919091015292915050565b6000608082840312156159ce57600080fd5b6138c5838361576d565b6040815260006159eb60408301856149b9565b90508260208301529392505050565b608081526000615a0d60808301876149b9565b6001600160a01b0386166020840152828103604084015261590381866149b9565b60008251615a40818460208701614995565b9190910192915050565b600060208284031215615a5c57600080fd5b81516138c581614ac3565b608081526000615a7a60808301876149b9565b6001600160a01b03861660208401528281036040840152615a9b81866149b9565b91505060018060a01b038316606083015295945050505050565b60408152600061540c60408301856149b956fe6265666f7265205f6173736572744d6573736167696e674665652066756e632c206e61746976654665653a73746172676174654e6174697665207472616e736665724e61746976652066756e63a2646970667358221220ffb9d8f161d75dd2249cbbd08a9cee93b721ffb21807c2714378eb2eba57c11864736f6c634300081c00336101a060405234801561001157600080fd5b506040516115d63803806115d68339810160408190526100309161026e565b6040805180820190915260018152603160f81b6020820152839081908185600361005a838261037a565b506004610067828261037a565b5061007791508390506005610131565b61012052610086816006610131565b61014052815160208084019190912060e052815190820120610100524660a05261011360e05161010051604080517f8b73c3c69bb8fe3d512ecc4cf759cc79239f7b179b0ffacaa9a75d522b39400f60208201529081019290925260608201524660808201523060a082015260009060c00160405160208183030381529060405280519060200120905090565b60805250503060c05250336101605260ff16610180525061048f9050565b600060208351101561014d5761014683610164565b905061015e565b81610158848261037a565b5060ff90505b92915050565b600080829050601f81511115610198578260405163305a27a960e01b815260040161018f9190610438565b60405180910390fd5b80516101a38261046b565b179392505050565b634e487b7160e01b600052604160045260246000fd5b60005b838110156101dc5781810151838201526020016101c4565b50506000910152565b600082601f8301126101f657600080fd5b81516001600160401b0381111561020f5761020f6101ab565b604051601f8201601f19908116603f011681016001600160401b038111828210171561023d5761023d6101ab565b60405281815283820160200185101561025557600080fd5b6102668260208301602087016101c1565b949350505050565b60008060006060848603121561028357600080fd5b83516001600160401b0381111561029957600080fd5b6102a5868287016101e5565b602086015190945090506001600160401b038111156102c357600080fd5b6102cf868287016101e5565b925050604084015160ff811681146102e657600080fd5b809150509250925092565b600181811c9082168061030557607f821691505b60208210810361032557634e487b7160e01b600052602260045260246000fd5b50919050565b601f82111561037557806000526020600020601f840160051c810160208510156103525750805b601f840160051c820191505b81811015610372576000815560010161035e565b50505b505050565b81516001600160401b03811115610393576103936101ab565b6103a7816103a184546102f1565b8461032b565b6020601f8211600181146103db57600083156103c35750848201515b600019600385901b1c1916600184901b178455610372565b600084815260208120601f198516915b8281101561040b57878501518255602094850194600190920191016103eb565b50848210156104295786840151600019600387901b60f8161c191681555b50505050600190811b01905550565b60208152600082518060208401526104578160408501602087016101c1565b601f01601f19169190910160400192915050565b805160208083015191908110156103255760001960209190910360031b1b16919050565b60805160a05160c05160e05161010051610120516101405161016051610180516110c961050d60003960006101720152600081816101be015281816103b3015261040a015260006108cc0152600061089f015260006107db015260006107b30152600061070e015260006107380152600061076201526110c96000f3fe608060405234801561001057600080fd5b50600436106101005760003560e01c806370a082311161009757806395d89b411161006657806395d89b4114610262578063a9059cbb1461026a578063d505accf1461027d578063dd62ed3e1461029057600080fd5b806370a08231146101f857806379cc6790146102215780637ecebe001461023457806384b0196e1461024757600080fd5b8063313ce567116100d3578063313ce5671461016b5780633644e5151461019c57806340c10f19146101a45780636c099dee146101b957600080fd5b806306fdde0314610105578063095ea7b31461012357806318160ddd1461014657806323b872dd14610158575b600080fd5b61010d6102c9565b60405161011a9190610e2c565b60405180910390f35b610136610131366004610e62565b61035b565b604051901515815260200161011a565b6002545b60405190815260200161011a565b610136610166366004610e8c565b610375565b60405160ff7f000000000000000000000000000000000000000000000000000000000000000016815260200161011a565b61014a610399565b6101b76101b2366004610e62565b6103a8565b005b6101e07f000000000000000000000000000000000000000000000000000000000000000081565b6040516001600160a01b03909116815260200161011a565b61014a610206366004610ec9565b6001600160a01b031660009081526020819052604090205490565b6101b761022f366004610e62565b6103ff565b61014a610242366004610ec9565b610452565b61024f610470565b60405161011a9796959493929190610ee4565b61010d6104b6565b610136610278366004610e62565b6104c5565b6101b761028b366004610f7c565b6104d3565b61014a61029e366004610fef565b6001600160a01b03918216600090815260016020908152604080832093909416825291909152205490565b6060600380546102d890611022565b80601f016020809104026020016040519081016040528092919081815260200182805461030490611022565b80156103515780601f1061032657610100808354040283529160200191610351565b820191906000526020600020905b81548152906001019060200180831161033457829003601f168201915b5050505050905090565b600033610369818585610612565b60019150505b92915050565b600033610383858285610624565b61038e8585856106a2565b506001949350505050565b60006103a3610701565b905090565b336001600160a01b037f000000000000000000000000000000000000000000000000000000000000000016146103f15760405163ba06efeb60e01b815260040160405180910390fd5b6103fb828261082c565b5050565b336001600160a01b037f000000000000000000000000000000000000000000000000000000000000000016146104485760405163ba06efeb60e01b815260040160405180910390fd5b6103fb8282610862565b6001600160a01b03811660009081526007602052604081205461036f565b600060608060008060006060610484610898565b61048c6108c5565b60408051600080825260208201909252600f60f81b9b939a50919850469750309650945092509050565b6060600480546102d890611022565b6000336103698185856106a2565b834211156104fc5760405163313c898160e11b8152600481018590526024015b60405180910390fd5b60007f6e71edae12b1b97f4d1f60370fef10105fa2faae0126114a169c64845d6126c98888886105498c6001600160a01b0316600090815260076020526040902080546001810190915590565b6040805160208101969096526001600160a01b0394851690860152929091166060840152608083015260a082015260c0810186905260e00160405160208183030381529060405280519060200120905060006105a4826108f2565b905060006105b48287878761091f565b9050896001600160a01b0316816001600160a01b0316146105fb576040516325c0072360e11b81526001600160a01b0380831660048301528b1660248201526044016104f3565b6106068a8a8a610612565b50505050505050505050565b61061f838383600161094d565b505050565b6001600160a01b03838116600090815260016020908152604080832093861683529290522054600019811461069c578181101561068d57604051637dc7a0d960e11b81526001600160a01b038416600482015260248101829052604481018390526064016104f3565b61069c8484848403600061094d565b50505050565b6001600160a01b0383166106cc57604051634b637e8f60e11b8152600060048201526024016104f3565b6001600160a01b0382166106f65760405163ec442f0560e01b8152600060048201526024016104f3565b61061f838383610a22565b6000306001600160a01b037f00000000000000000000000000000000000000000000000000000000000000001614801561075a57507f000000000000000000000000000000000000000000000000000000000000000046145b1561078457507f000000000000000000000000000000000000000000000000000000000000000090565b6103a3604080517f8b73c3c69bb8fe3d512ecc4cf759cc79239f7b179b0ffacaa9a75d522b39400f60208201527f0000000000000000000000000000000000000000000000000000000000000000918101919091527f000000000000000000000000000000000000000000000000000000000000000060608201524660808201523060a082015260009060c00160405160208183030381529060405280519060200120905090565b6001600160a01b0382166108565760405163ec442f0560e01b8152600060048201526024016104f3565b6103fb60008383610a22565b6001600160a01b03821661088c57604051634b637e8f60e11b8152600060048201526024016104f3565b6103fb82600083610a22565b60606103a37f00000000000000000000000000000000000000000000000000000000000000006005610b4c565b60606103a37f00000000000000000000000000000000000000000000000000000000000000006006610b4c565b600061036f6108ff610701565b8360405161190160f01b8152600281019290925260228201526042902090565b60008060008061093188888888610bf7565b9250925092506109418282610cc6565b50909695505050505050565b6001600160a01b0384166109775760405163e602df0560e01b8152600060048201526024016104f3565b6001600160a01b0383166109a157604051634a1406b160e11b8152600060048201526024016104f3565b6001600160a01b038085166000908152600160209081526040808320938716835292905220829055801561069c57826001600160a01b0316846001600160a01b03167f8c5be1e5ebec7d5bd14f71427d1e84f3dd0314c0f7b2291e5b200ac8c7c3b92584604051610a1491815260200190565b60405180910390a350505050565b6001600160a01b038316610a4d578060026000828254610a42919061105c565b90915550610abf9050565b6001600160a01b03831660009081526020819052604090205481811015610aa05760405163391434e360e21b81526001600160a01b038516600482015260248101829052604481018390526064016104f3565b6001600160a01b03841660009081526020819052604090209082900390555b6001600160a01b038216610adb57600280548290039055610afa565b6001600160a01b03821660009081526020819052604090208054820190555b816001600160a01b0316836001600160a01b03167fddf252ad1be2c89b69c2b068fc378daa952ba7f163c4a11628f55a4df523b3ef83604051610b3f91815260200190565b60405180910390a3505050565b606060ff8314610b6657610b5f83610d7f565b905061036f565b818054610b7290611022565b80601f0160208091040260200160405190810160405280929190818152602001828054610b9e90611022565b8015610beb5780601f10610bc057610100808354040283529160200191610beb565b820191906000526020600020905b815481529060010190602001808311610bce57829003601f168201915b5050505050905061036f565b600080807f7fffffffffffffffffffffffffffffff5d576e7357a4501ddfe92f46681b20a0841115610c325750600091506003905082610cbc565b604080516000808252602082018084528a905260ff891692820192909252606081018790526080810186905260019060a0016020604051602081039080840390855afa158015610c86573d6000803e3d6000fd5b5050604051601f1901519150506001600160a01b038116610cb257506000925060019150829050610cbc565b9250600091508190505b9450945094915050565b6000826003811115610cda57610cda61107d565b03610ce3575050565b6001826003811115610cf757610cf761107d565b03610d155760405163f645eedf60e01b815260040160405180910390fd5b6002826003811115610d2957610d2961107d565b03610d4a5760405163fce698f760e01b8152600481018290526024016104f3565b6003826003811115610d5e57610d5e61107d565b036103fb576040516335e2f38360e21b8152600481018290526024016104f3565b60606000610d8c83610dbe565b604080516020808252818301909252919250600091906020820181803683375050509182525060208101929092525090565b600060ff8216601f81111561036f57604051632cd44ac360e21b815260040160405180910390fd5b6000815180845260005b81811015610e0c57602081850181015186830182015201610df0565b506000602082860101526020601f19601f83011685010191505092915050565b602081526000610e3f6020830184610de6565b9392505050565b80356001600160a01b0381168114610e5d57600080fd5b919050565b60008060408385031215610e7557600080fd5b610e7e83610e46565b946020939093013593505050565b600080600060608486031215610ea157600080fd5b610eaa84610e46565b9250610eb860208501610e46565b929592945050506040919091013590565b600060208284031215610edb57600080fd5b610e3f82610e46565b60ff60f81b8816815260e060208201526000610f0360e0830189610de6565b8281036040840152610f158189610de6565b606084018890526001600160a01b038716608085015260a0840186905283810360c08501528451808252602080870193509091019060005b81811015610f6b578351835260209384019390920191600101610f4d565b50909b9a5050505050505050505050565b600080600080600080600060e0888a031215610f9757600080fd5b610fa088610e46565b9650610fae60208901610e46565b95506040880135945060608801359350608088013560ff81168114610fd257600080fd5b9699959850939692959460a0840135945060c09093013592915050565b6000806040838503121561100257600080fd5b61100b83610e46565b915061101960208401610e46565b90509250929050565b600181811c9082168061103657607f821691505b60208210810361105657634e487b7160e01b600052602260045260246000fd5b50919050565b8082018082111561036f57634e487b7160e01b600052601160045260246000fd5b634e487b7160e01b600052602160045260246000fdfea26469706673582212205ce3c61f8a1c8f3b5ad8f2ee0bf03daea088ac65e95726526e56f3b8588a2c4164736f6c634300081c0033",
  "linkReferences": {},
  "deployedLinkReferences": {}
}