{
  "_format": "hh-sol-artifact-1",
  "contractName": "StargatePool",
  "sourceName": "contracts/StargatePool.sol",
  "abi": [
    {
      "inputs": [
        {
          "internalType": "string",
          "name": "_lpTokenName",
          "type": "string"
        },
        {
          "internalType": "string",
          "name": "_lpTokenSymbol",
          "type": "string"
        },
        {
          "internalType": "address",
          "name": "_token",
          "type": "address"
        },
        {
          "internalType": "uint8",
          "name": "_tokenDecimals",
          "type": "uint8"
        },
        {
          "internalType": "uint8",
          "name": "_sharedDecimals",
          "type": "uint8"
        },
        {
          "internalType": "address",
          "name": "_endpoint",
          "type": "address"
        },
        {
          "internalType": "address",
          "name": "_owner",
          "type": "address"
        }
      ],
      "stateMutability": "nonpayable",
      "type": "constructor"
    },
    {
      "inputs": [],
      "name": "InvalidLocalDecimals",
      "type": "error"
    },
    {
      "inputs": [
        {
          "internalType": "address",
          "name": "owner",
          "type": "address"
        }
      ],
      "name": "OwnableInvalidOwner",
      "type": "error"
    },
    {
      "inputs": [
        {
          "internalType": "address",
          "name": "account",
          "type": "address"
        }
      ],
      "name": "OwnableUnauthorizedAccount",
      "type": "error"
    },
    {
      "inputs": [],
      "name": "Path_AlreadyHasCredit",
      "type": "error"
    },
    {
      "inputs": [],
      "name": "Path_InsufficientCredit",
      "type": "error"
    },
    {
      "inputs": [],
      "name": "Path_UnlimitedCredit",
      "type": "error"
    },
    {
      "inputs": [
        {
          "internalType": "uint8",
          "name": "bits",
          "type": "uint8"
        },
        {
          "internalType": "uint256",
          "name": "value",
          "type": "uint256"
        }
      ],
      "name": "SafeCastOverflowedUintDowncast",
      "type": "error"
    },
    {
      "inputs": [
        {
          "internalType": "uint256",
          "name": "value",
          "type": "uint256"
        }
      ],
      "name": "SafeCastOverflowedUintToInt",
      "type": "error"
    },
    {
      "inputs": [
        {
          "internalType": "uint256",
          "name": "amountLD",
          "type": "uint256"
        },
        {
          "internalType": "uint256",
          "name": "minAmountLD",
          "type": "uint256"
        }
      ],
      "name": "SlippageExceeded",
      "type": "error"
    },
    {
      "inputs": [],
      "name": "Stargate_InsufficientFare",
      "type": "error"
    },
    {
      "inputs": [],
      "name": "Stargate_InvalidAmount",
      "type": "error"
    },
    {
      "inputs": [],
      "name": "Stargate_InvalidPath",
      "type": "error"
    },
    {
      "inputs": [],
      "name": "Stargate_InvalidTokenDecimals",
      "type": "error"
    },
    {
      "inputs": [],
      "name": "Stargate_LzTokenUnavailable",
      "type": "error"
    },
    {
      "inputs": [],
      "name": "Stargate_OnlyTaxi",
      "type": "error"
    },
    {
      "inputs": [],
      "name": "Stargate_OutflowFailed",
      "type": "error"
    },
    {
      "inputs": [],
      "name": "Stargate_Paused",
      "type": "error"
    },
    {
      "inputs": [],
      "name": "Stargate_RecoverTokenUnsupported",
      "type": "error"
    },
    {
      "inputs": [],
      "name": "Stargate_ReentrantCall",
      "type": "error"
    },
    {
      "inputs": [],
      "name": "Stargate_SlippageTooHigh",
      "type": "error"
    },
    {
      "inputs": [],
      "name": "Stargate_Unauthorized",
      "type": "error"
    },
    {
      "inputs": [],
      "name": "Stargate_UnreceivedTokenNotFound",
      "type": "error"
    },
    {
      "inputs": [],
      "name": "Transfer_ApproveFailed",
      "type": "error"
    },
    {
      "inputs": [],
      "name": "Transfer_TransferFailed",
      "type": "error"
    },
    {
      "anonymous": false,
      "inputs": [
        {
          "components": [
            {
              "internalType": "address",
              "name": "feeLib",
              "type": "address"
            },
            {
              "internalType": "address",
              "name": "planner",
              "type": "address"
            },
            {
              "internalType": "address",
              "name": "treasurer",
              "type": "address"
            },
            {
              "internalType": "address",
              "name": "tokenMessaging",
              "type": "address"
            },
            {
              "internalType": "address",
              "name": "creditMessaging",
              "type": "address"
            },
            {
              "internalType": "address",
              "name": "lzToken",
              "type": "address"
            }
          ],
          "indexed": false,
          "internalType": "struct StargateBase.AddressConfig",
          "name": "config",
          "type": "tuple"
        }
      ],
      "name": "AddressConfigSet",
      "type": "event"
    },
    {
      "anonymous": false,
      "inputs": [
        {
          "indexed": false,
          "internalType": "uint32",
          "name": "srcEid",
          "type": "uint32"
        },
        {
          "components": [
            {
              "internalType": "uint32",
              "name": "srcEid",
              "type": "uint32"
            },
            {
              "internalType": "uint64",
              "name": "amount",
              "type": "uint64"
            }
          ],
          "indexed": false,
          "internalType": "struct Credit[]",
          "name": "credits",
          "type": "tuple[]"
        }
      ],
      "name": "CreditsReceived",
      "type": "event"
    },
    {
      "anonymous": false,
      "inputs": [
        {
          "indexed": false,
          "internalType": "uint32",
          "name": "dstEid",
          "type": "uint32"
        },
        {
          "components": [
            {
              "internalType": "uint32",
              "name": "srcEid",
              "type": "uint32"
            },
            {
              "internalType": "uint64",
              "name": "amount",
              "type": "uint64"
            }
          ],
          "indexed": false,
          "internalType": "struct Credit[]",
          "name": "credits",
          "type": "tuple[]"
        }
      ],
      "name": "CreditsSent",
      "type": "event"
    },
    {
      "anonymous": false,
      "inputs": [
        {
          "indexed": true,
          "internalType": "address",
          "name": "payer",
          "type": "address"
        },
        {
          "indexed": true,
          "internalType": "address",
          "name": "receiver",
          "type": "address"
        },
        {
          "indexed": false,
          "internalType": "uint256",
          "name": "amountLD",
          "type": "uint256"
        }
      ],
      "name": "Deposited",
      "type": "event"
    },
    {
      "anonymous": false,
      "inputs": [
        {
          "indexed": false,
          "internalType": "uint64",
          "name": "amountOutSD",
          "type": "uint64"
        }
      ],
      "name": "FeeCharged",
      "type": "event"
    },
    {
      "anonymous": false,
      "inputs": [
        {
          "indexed": false,
          "internalType": "bool",
          "name": "isTaxi",
          "type": "bool"
        },
        {
          "indexed": false,
          "internalType": "uint64",
          "name": "amountInSD",
          "type": "uint64"
        },
        {
          "indexed": false,
          "internalType": "uint64",
          "name": "amountOutSD",
          "type": "uint64"
        }
      ],
      "name": "InflowAndCharge",
      "type": "event"
    },
    {
      "anonymous": false,
      "inputs": [
        {
          "indexed": false,
          "internalType": "uint32",
          "name": "dstEid",
          "type": "uint32"
        },
        {
          "indexed": false,
          "internalType": "bool",
          "name": "oft",
          "type": "bool"
        }
      ],
      "name": "OFTPathSet",
      "type": "event"
    },
    {
      "anonymous": false,
      "inputs": [
        {
          "indexed": true,
          "internalType": "bytes32",
          "name": "guid",
          "type": "bytes32"
        },
        {
          "indexed": false,
          "internalType": "uint32",
          "name": "srcEid",
          "type": "uint32"
        },
        {
          "indexed": true,
          "internalType": "address",
          "name": "toAddress",
          "type": "address"
        },
        {
          "indexed": false,
          "internalType": "uint256",
          "name": "amountReceivedLD",
          "type": "uint256"
        }
      ],
      "name": "OFTReceived",
      "type": "event"
    },
    {
      "anonymous": false,
      "inputs": [
        {
          "indexed": true,
          "internalType": "bytes32",
          "name": "guid",
          "type": "bytes32"
        },
        {
          "indexed": false,
          "internalType": "uint32",
          "name": "dstEid",
          "type": "uint32"
        },
        {
          "indexed": true,
          "internalType": "address",
          "name": "fromAddress",
          "type": "address"
        },
        {
          "indexed": false,
          "internalType": "uint256",
          "name": "amountSentLD",
          "type": "uint256"
        },
        {
          "indexed": false,
          "internalType": "uint256",
          "name": "amountReceivedLD",
          "type": "uint256"
        }
      ],
      "name": "OFTSent",
      "type": "event"
    },
    {
      "anonymous": false,
      "inputs": [
        {
          "indexed": true,
          "internalType": "address",
          "name": "previousOwner",
          "type": "address"
        },
        {
          "indexed": true,
          "internalType": "address",
          "name": "newOwner",
          "type": "address"
        }
      ],
      "name": "OwnershipTransferred",
      "type": "event"
    },
    {
      "anonymous": false,
      "inputs": [
        {
          "indexed": false,
          "internalType": "bool",
          "name": "paused",
          "type": "bool"
        }
      ],
      "name": "PauseSet",
      "type": "event"
    },
    {
      "anonymous": false,
      "inputs": [
        {
          "indexed": false,
          "internalType": "uint256",
          "name": "amount",
          "type": "uint256"
        }
      ],
      "name": "PlannerFeeWithdrawn",
      "type": "event"
    },
    {
      "anonymous": false,
      "inputs": [
        {
          "indexed": true,
          "internalType": "address",
          "name": "payer",
          "type": "address"
        },
        {
          "indexed": true,
          "internalType": "address",
          "name": "receiver",
          "type": "address"
        },
        {
          "indexed": false,
          "internalType": "uint256",
          "name": "amountLD",
          "type": "uint256"
        }
      ],
      "name": "Redeemed",
      "type": "event"
    },
    {
      "anonymous": false,
      "inputs": [
        {
          "indexed": false,
          "internalType": "uint64",
          "name": "amountSD",
          "type": "uint64"
        }
      ],
      "name": "TreasuryFeeAdded",
      "type": "event"
    },
    {
      "anonymous": false,
      "inputs": [
        {
          "indexed": false,
          "internalType": "address",
          "name": "to",
          "type": "address"
        },
        {
          "indexed": false,
          "internalType": "uint64",
          "name": "amountSD",
          "type": "uint64"
        }
      ],
      "name": "TreasuryFeeWithdrawn",
      "type": "event"
    },
    {
      "anonymous": false,
      "inputs": [
        {
          "indexed": false,
          "internalType": "bytes32",
          "name": "guid",
          "type": "bytes32"
        },
        {
          "indexed": false,
          "internalType": "uint8",
          "name": "index",
          "type": "uint8"
        },
        {
          "indexed": false,
          "internalType": "uint32",
          "name": "srcEid",
          "type": "uint32"
        },
        {
          "indexed": false,
          "internalType": "address",
          "name": "receiver",
          "type": "address"
        },
        {
          "indexed": false,
          "internalType": "uint256",
          "name": "amountLD",
          "type": "uint256"
        },
        {
          "indexed": false,
          "internalType": "bytes",
          "name": "composeMsg",
          "type": "bytes"
        }
      ],
      "name": "UnreceivedTokenCached",
      "type": "event"
    },
    {
      "inputs": [
        {
          "components": [
            {
              "internalType": "uint256",
              "name": "nativeFee",
              "type": "uint256"
            },
            {
              "internalType": "uint256",
              "name": "lzTokenFee",
              "type": "uint256"
            }
          ],
          "internalType": "struct MessagingFee",
          "name": "_fee",
          "type": "tuple"
        },
        {
          "internalType": "uint256",
          "name": "",
          "type": "uint256"
        }
      ],
      "name": "_assertMessagingFee",
      "outputs": [
        {
          "components": [
            {
              "internalType": "uint256",
              "name": "nativeFee",
              "type": "uint256"
            },
            {
              "internalType": "uint256",
              "name": "lzTokenFee",
              "type": "uint256"
            }
          ],
          "internalType": "struct MessagingFee",
          "name": "",
          "type": "tuple"
        }
      ],
      "stateMutability": "payable",
      "type": "function"
    },
    {
      "inputs": [
        {
          "internalType": "uint32",
          "name": "_dstEid",
          "type": "uint32"
        },
        {
          "internalType": "uint64",
          "name": "_amountInSD",
          "type": "uint64"
        },
        {
          "internalType": "bool",
          "name": "_isTaxi",
          "type": "bool"
        }
      ],
      "name": "_buildFeeParams",
      "outputs": [
        {
          "components": [
            {
              "internalType": "address",
              "name": "sender",
              "type": "address"
            },
            {
              "internalType": "uint32",
              "name": "dstEid",
              "type": "uint32"
            },
            {
              "internalType": "uint64",
              "name": "amountInSD",
              "type": "uint64"
            },
            {
              "internalType": "uint64",
              "name": "deficitSD",
              "type": "uint64"
            },
            {
              "internalType": "bool",
              "name": "toOFT",
              "type": "bool"
            },
            {
              "internalType": "bool",
              "name": "isTaxi",
              "type": "bool"
            }
          ],
          "internalType": "struct FeeParams",
          "name": "",
          "type": "tuple"
        }
      ],
      "stateMutability": "view",
      "type": "function"
    },
    {
      "inputs": [
        {
          "components": [
            {
              "internalType": "address",
              "name": "sender",
              "type": "address"
            },
            {
              "internalType": "uint32",
              "name": "dstEid",
              "type": "uint32"
            },
            {
              "internalType": "uint64",
              "name": "amountInSD",
              "type": "uint64"
            },
            {
              "internalType": "uint64",
              "name": "deficitSD",
              "type": "uint64"
            },
            {
              "internalType": "bool",
              "name": "toOFT",
              "type": "bool"
            },
            {
              "internalType": "bool",
              "name": "isTaxi",
              "type": "bool"
            }
          ],
          "internalType": "struct FeeParams",
          "name": "_feeParams",
          "type": "tuple"
        },
        {
          "internalType": "uint64",
          "name": "_minAmountOutSD",
          "type": "uint64"
        }
      ],
      "name": "_chargeFee",
      "outputs": [
        {
          "internalType": "uint64",
          "name": "amountOutSD",
          "type": "uint64"
        }
      ],
      "stateMutability": "nonpayable",
      "type": "function"
    },
    {
      "inputs": [
        {
          "internalType": "address",
          "name": "_from",
          "type": "address"
        },
        {
          "internalType": "uint256",
          "name": "_amountLD",
          "type": "uint256"
        }
      ],
      "name": "_inflow",
      "outputs": [
        {
          "internalType": "uint64",
          "name": "amountSD",
          "type": "uint64"
        }
      ],
      "stateMutability": "nonpayable",
      "type": "function"
    },
    {
      "inputs": [
        {
          "components": [
            {
              "internalType": "uint32",
              "name": "dstEid",
              "type": "uint32"
            },
            {
              "internalType": "bytes32",
              "name": "to",
              "type": "bytes32"
            },
            {
              "internalType": "uint256",
              "name": "amountLD",
              "type": "uint256"
            },
            {
              "internalType": "uint256",
              "name": "minAmountLD",
              "type": "uint256"
            },
            {
              "internalType": "bytes",
              "name": "extraOptions",
              "type": "bytes"
            },
            {
              "internalType": "bytes",
              "name": "composeMsg",
              "type": "bytes"
            },
            {
              "internalType": "bytes",
              "name": "oftCmd",
              "type": "bytes"
            }
          ],
          "internalType": "struct SendParam",
          "name": "_sendParam",
          "type": "tuple"
        }
      ],
      "name": "_inflowAndCharge",
      "outputs": [
        {
          "internalType": "bool",
          "name": "isTaxi",
          "type": "bool"
        },
        {
          "internalType": "uint64",
          "name": "amountInSD",
          "type": "uint64"
        },
        {
          "internalType": "uint64",
          "name": "amountOutSD",
          "type": "uint64"
        }
      ],
      "stateMutability": "nonpayable",
      "type": "function"
    },
    {
      "inputs": [
        {
          "internalType": "bytes",
          "name": "_oftCmd",
          "type": "bytes"
        }
      ],
      "name": "_isTaxiMode",
      "outputs": [
        {
          "internalType": "bool",
          "name": "",
          "type": "bool"
        }
      ],
      "stateMutability": "pure",
      "type": "function"
    },
    {
      "inputs": [
        {
          "internalType": "uint256",
          "name": "_amountLD",
          "type": "uint256"
        }
      ],
      "name": "_ld2sd",
      "outputs": [
        {
          "internalType": "uint64",
          "name": "amountSD",
          "type": "uint64"
        }
      ],
      "stateMutability": "view",
      "type": "function"
    },
    {
      "inputs": [
        {
          "components": [
            {
              "internalType": "uint32",
              "name": "dstEid",
              "type": "uint32"
            },
            {
              "internalType": "bytes32",
              "name": "to",
              "type": "bytes32"
            },
            {
              "internalType": "uint256",
              "name": "amountLD",
              "type": "uint256"
            },
            {
              "internalType": "uint256",
              "name": "minAmountLD",
              "type": "uint256"
            },
            {
              "internalType": "bytes",
              "name": "extraOptions",
              "type": "bytes"
            },
            {
              "internalType": "bytes",
              "name": "composeMsg",
              "type": "bytes"
            },
            {
              "internalType": "bytes",
              "name": "oftCmd",
              "type": "bytes"
            }
          ],
          "internalType": "struct SendParam",
          "name": "_sendParam",
          "type": "tuple"
        },
        {
          "components": [
            {
              "internalType": "uint256",
              "name": "nativeFee",
              "type": "uint256"
            },
            {
              "internalType": "uint256",
              "name": "lzTokenFee",
              "type": "uint256"
            }
          ],
          "internalType": "struct MessagingFee",
          "name": "_messagingFee",
          "type": "tuple"
        },
        {
          "internalType": "uint64",
          "name": "_amountSD",
          "type": "uint64"
        },
        {
          "internalType": "address",
          "name": "_refundAddress",
          "type": "address"
        }
      ],
      "name": "_rideBus",
      "outputs": [
        {
          "components": [
            {
              "internalType": "bytes32",
              "name": "guid",
              "type": "bytes32"
            },
            {
              "internalType": "uint64",
              "name": "nonce",
              "type": "uint64"
            },
            {
              "components": [
                {
                  "internalType": "uint256",
                  "name": "nativeFee",
                  "type": "uint256"
                },
                {
                  "internalType": "uint256",
                  "name": "lzTokenFee",
                  "type": "uint256"
                }
              ],
              "internalType": "struct MessagingFee",
              "name": "fee",
              "type": "tuple"
            }
          ],
          "internalType": "struct MessagingReceipt",
          "name": "receipt",
          "type": "tuple"
        },
        {
          "components": [
            {
              "internalType": "uint72",
              "name": "ticketId",
              "type": "uint72"
            },
            {
              "internalType": "bytes",
              "name": "passengerBytes",
              "type": "bytes"
            }
          ],
          "internalType": "struct Ticket",
          "name": "ticket",
          "type": "tuple"
        }
      ],
      "stateMutability": "nonpayable",
      "type": "function"
    },
    {
      "inputs": [
        {
          "internalType": "uint64",
          "name": "_amountSD",
          "type": "uint64"
        }
      ],
      "name": "_sd2ld",
      "outputs": [
        {
          "internalType": "uint256",
          "name": "amountLD",
          "type": "uint256"
        }
      ],
      "stateMutability": "view",
      "type": "function"
    },
    {
      "inputs": [
        {
          "internalType": "uint256",
          "name": "_amountLD",
          "type": "uint256"
        }
      ],
      "name": "addTreasuryFee",
      "outputs": [],
      "stateMutability": "payable",
      "type": "function"
    },
    {
      "inputs": [],
      "name": "approvalRequired",
      "outputs": [
        {
          "internalType": "bool",
          "name": "",
          "type": "bool"
        }
      ],
      "stateMutability": "pure",
      "type": "function"
    },
    {
      "inputs": [],
      "name": "deficitOffset",
      "outputs": [
        {
          "internalType": "uint256",
          "name": "",
          "type": "uint256"
        }
      ],
      "stateMutability": "view",
      "type": "function"
    },
    {
      "inputs": [
        {
          "internalType": "address",
          "name": "_receiver",
          "type": "address"
        },
        {
          "internalType": "uint256",
          "name": "_amountLD",
          "type": "uint256"
        }
      ],
      "name": "deposit",
      "outputs": [
        {
          "internalType": "uint256",
          "name": "amountLD",
          "type": "uint256"
        }
      ],
      "stateMutability": "payable",
      "type": "function"
    },
    {
      "inputs": [],
      "name": "endpoint",
      "outputs": [
        {
          "internalType": "contract ILayerZeroEndpointV2",
          "name": "",
          "type": "address"
        }
      ],
      "stateMutability": "view",
      "type": "function"
    },
    {
      "inputs": [],
      "name": "getAddressConfig",
      "outputs": [
        {
          "components": [
            {
              "internalType": "address",
              "name": "feeLib",
              "type": "address"
            },
            {
              "internalType": "address",
              "name": "planner",
              "type": "address"
            },
            {
              "internalType": "address",
              "name": "treasurer",
              "type": "address"
            },
            {
              "internalType": "address",
              "name": "tokenMessaging",
              "type": "address"
            },
            {
              "internalType": "address",
              "name": "creditMessaging",
              "type": "address"
            },
            {
              "internalType": "address",
              "name": "lzToken",
              "type": "address"
            }
          ],
          "internalType": "struct StargateBase.AddressConfig",
          "name": "",
          "type": "tuple"
        }
      ],
      "stateMutability": "view",
      "type": "function"
    },
    {
      "inputs": [],
      "name": "getTransferGasLimit",
      "outputs": [
        {
          "internalType": "uint256",
          "name": "",
          "type": "uint256"
        }
      ],
      "stateMutability": "view",
      "type": "function"
    },
    {
      "inputs": [],
      "name": "localEid",
      "outputs": [
        {
          "internalType": "uint32",
          "name": "",
          "type": "uint32"
        }
      ],
      "stateMutability": "view",
      "type": "function"
    },
    {
      "inputs": [],
      "name": "lpToken",
      "outputs": [
        {
          "internalType": "address",
          "name": "",
          "type": "address"
        }
      ],
      "stateMutability": "view",
      "type": "function"
    },
    {
      "inputs": [],
      "name": "oftVersion",
      "outputs": [
        {
          "internalType": "bytes4",
          "name": "interfaceId",
          "type": "bytes4"
        },
        {
          "internalType": "uint64",
          "name": "version",
          "type": "uint64"
        }
      ],
      "stateMutability": "pure",
      "type": "function"
    },
    {
      "inputs": [],
      "name": "owner",
      "outputs": [
        {
          "internalType": "address",
          "name": "",
          "type": "address"
        }
      ],
      "stateMutability": "view",
      "type": "function"
    },
    {
      "inputs": [
        {
          "internalType": "uint32",
          "name": "eid",
          "type": "uint32"
        }
      ],
      "name": "paths",
      "outputs": [
        {
          "internalType": "uint64",
          "name": "credit",
          "type": "uint64"
        }
      ],
      "stateMutability": "view",
      "type": "function"
    },
    {
      "inputs": [],
      "name": "plannerFee",
      "outputs": [
        {
          "internalType": "uint256",
          "name": "available",
          "type": "uint256"
        }
      ],
      "stateMutability": "view",
      "type": "function"
    },
    {
      "inputs": [],
      "name": "poolBalance",
      "outputs": [
        {
          "internalType": "uint256",
          "name": "",
          "type": "uint256"
        }
      ],
      "stateMutability": "view",
      "type": "function"
    },
    {
      "inputs": [
        {
          "components": [
            {
              "internalType": "uint32",
              "name": "dstEid",
              "type": "uint32"
            },
            {
              "internalType": "bytes32",
              "name": "to",
              "type": "bytes32"
            },
            {
              "internalType": "uint256",
              "name": "amountLD",
              "type": "uint256"
            },
            {
              "internalType": "uint256",
              "name": "minAmountLD",
              "type": "uint256"
            },
            {
              "internalType": "bytes",
              "name": "extraOptions",
              "type": "bytes"
            },
            {
              "internalType": "bytes",
              "name": "composeMsg",
              "type": "bytes"
            },
            {
              "internalType": "bytes",
              "name": "oftCmd",
              "type": "bytes"
            }
          ],
          "internalType": "struct SendParam",
          "name": "_sendParam",
          "type": "tuple"
        }
      ],
      "name": "quoteOFT",
      "outputs": [
        {
          "components": [
            {
              "internalType": "uint256",
              "name": "minAmountLD",
              "type": "uint256"
            },
            {
              "internalType": "uint256",
              "name": "maxAmountLD",
              "type": "uint256"
            }
          ],
          "internalType": "struct OFTLimit",
          "name": "limit",
          "type": "tuple"
        },
        {
          "components": [
            {
              "internalType": "int256",
              "name": "feeAmountLD",
              "type": "int256"
            },
            {
              "internalType": "string",
              "name": "description",
              "type": "string"
            }
          ],
          "internalType": "struct OFTFeeDetail[]",
          "name": "oftFeeDetails",
          "type": "tuple[]"
        },
        {
          "components": [
            {
              "internalType": "uint256",
              "name": "amountSentLD",
              "type": "uint256"
            },
            {
              "internalType": "uint256",
              "name": "amountReceivedLD",
              "type": "uint256"
            }
          ],
          "internalType": "struct OFTReceipt",
          "name": "receipt",
          "type": "tuple"
        }
      ],
      "stateMutability": "view",
      "type": "function"
    },
    {
      "inputs": [
        {
          "components": [
            {
              "internalType": "uint32",
              "name": "dstEid",
              "type": "uint32"
            },
            {
              "internalType": "bytes32",
              "name": "to",
              "type": "bytes32"
            },
            {
              "internalType": "uint256",
              "name": "amountLD",
              "type": "uint256"
            },
            {
              "internalType": "uint256",
              "name": "minAmountLD",
              "type": "uint256"
            },
            {
              "internalType": "bytes",
              "name": "extraOptions",
              "type": "bytes"
            },
            {
              "internalType": "bytes",
              "name": "composeMsg",
              "type": "bytes"
            },
            {
              "internalType": "bytes",
              "name": "oftCmd",
              "type": "bytes"
            }
          ],
          "internalType": "struct SendParam",
          "name": "_sendParam",
          "type": "tuple"
        },
        {
          "internalType": "bool",
          "name": "_payInLzToken",
          "type": "bool"
        }
      ],
      "name": "quoteRedeemSend",
      "outputs": [
        {
          "components": [
            {
              "internalType": "uint256",
              "name": "nativeFee",
              "type": "uint256"
            },
            {
              "internalType": "uint256",
              "name": "lzTokenFee",
              "type": "uint256"
            }
          ],
          "internalType": "struct MessagingFee",
          "name": "fee",
          "type": "tuple"
        }
      ],
      "stateMutability": "view",
      "type": "function"
    },
    {
      "inputs": [
        {
          "components": [
            {
              "internalType": "uint32",
              "name": "dstEid",
              "type": "uint32"
            },
            {
              "internalType": "bytes32",
              "name": "to",
              "type": "bytes32"
            },
            {
              "internalType": "uint256",
              "name": "amountLD",
              "type": "uint256"
            },
            {
              "internalType": "uint256",
              "name": "minAmountLD",
              "type": "uint256"
            },
            {
              "internalType": "bytes",
              "name": "extraOptions",
              "type": "bytes"
            },
            {
              "internalType": "bytes",
              "name": "composeMsg",
              "type": "bytes"
            },
            {
              "internalType": "bytes",
              "name": "oftCmd",
              "type": "bytes"
            }
          ],
          "internalType": "struct SendParam",
          "name": "_sendParam",
          "type": "tuple"
        },
        {
          "internalType": "bool",
          "name": "_payInLzToken",
          "type": "bool"
        }
      ],
      "name": "quoteSend",
      "outputs": [
        {
          "components": [
            {
              "internalType": "uint256",
              "name": "nativeFee",
              "type": "uint256"
            },
            {
              "internalType": "uint256",
              "name": "lzTokenFee",
              "type": "uint256"
            }
          ],
          "internalType": "struct MessagingFee",
          "name": "fee",
          "type": "tuple"
        }
      ],
      "stateMutability": "view",
      "type": "function"
    },
    {
      "inputs": [
        {
          "internalType": "uint32",
          "name": "_srcEid",
          "type": "uint32"
        },
        {
          "components": [
            {
              "internalType": "uint32",
              "name": "srcEid",
              "type": "uint32"
            },
            {
              "internalType": "uint64",
              "name": "amount",
              "type": "uint64"
            }
          ],
          "internalType": "struct Credit[]",
          "name": "_credits",
          "type": "tuple[]"
        }
      ],
      "name": "receiveCredits",
      "outputs": [],
      "stateMutability": "nonpayable",
      "type": "function"
    },
    {
      "inputs": [
        {
          "components": [
            {
              "internalType": "uint32",
              "name": "srcEid",
              "type": "uint32"
            },
            {
              "internalType": "bytes32",
              "name": "sender",
              "type": "bytes32"
            },
            {
              "internalType": "uint64",
              "name": "nonce",
              "type": "uint64"
            }
          ],
          "internalType": "struct Origin",
          "name": "_origin",
          "type": "tuple"
        },
        {
          "internalType": "bytes32",
          "name": "_guid",
          "type": "bytes32"
        },
        {
          "internalType": "uint8",
          "name": "_seatNumber",
          "type": "uint8"
        },
        {
          "internalType": "address",
          "name": "_receiver",
          "type": "address"
        },
        {
          "internalType": "uint64",
          "name": "_amountSD",
          "type": "uint64"
        }
      ],
      "name": "receiveTokenBus",
      "outputs": [],
      "stateMutability": "nonpayable",
      "type": "function"
    },
    {
      "inputs": [
        {
          "components": [
            {
              "internalType": "uint32",
              "name": "srcEid",
              "type": "uint32"
            },
            {
              "internalType": "bytes32",
              "name": "sender",
              "type": "bytes32"
            },
            {
              "internalType": "uint64",
              "name": "nonce",
              "type": "uint64"
            }
          ],
          "internalType": "struct Origin",
          "name": "_origin",
          "type": "tuple"
        },
        {
          "internalType": "bytes32",
          "name": "_guid",
          "type": "bytes32"
        },
        {
          "internalType": "address",
          "name": "_receiver",
          "type": "address"
        },
        {
          "internalType": "uint64",
          "name": "_amountSD",
          "type": "uint64"
        },
        {
          "internalType": "bytes",
          "name": "_composeMsg",
          "type": "bytes"
        }
      ],
      "name": "receiveTokenTaxi",
      "outputs": [],
      "stateMutability": "nonpayable",
      "type": "function"
    },
    {
      "inputs": [
        {
          "internalType": "address",
          "name": "_token",
          "type": "address"
        },
        {
          "internalType": "address",
          "name": "_to",
          "type": "address"
        },
        {
          "internalType": "uint256",
          "name": "_amount",
          "type": "uint256"
        }
      ],
      "name": "recoverToken",
      "outputs": [
        {
          "internalType": "uint256",
          "name": "",
          "type": "uint256"
        }
      ],
      "stateMutability": "nonpayable",
      "type": "function"
    },
    {
      "inputs": [
        {
          "internalType": "uint256",
          "name": "_amountLD",
          "type": "uint256"
        },
        {
          "internalType": "address",
          "name": "_receiver",
          "type": "address"
        }
      ],
      "name": "redeem",
      "outputs": [
        {
          "internalType": "uint256",
          "name": "amountLD",
          "type": "uint256"
        }
      ],
      "stateMutability": "nonpayable",
      "type": "function"
    },
    {
      "inputs": [
        {
          "components": [
            {
              "internalType": "uint32",
              "name": "dstEid",
              "type": "uint32"
            },
            {
              "internalType": "bytes32",
              "name": "to",
              "type": "bytes32"
            },
            {
              "internalType": "uint256",
              "name": "amountLD",
              "type": "uint256"
            },
            {
              "internalType": "uint256",
              "name": "minAmountLD",
              "type": "uint256"
            },
            {
              "internalType": "bytes",
              "name": "extraOptions",
              "type": "bytes"
            },
            {
              "internalType": "bytes",
              "name": "composeMsg",
              "type": "bytes"
            },
            {
              "internalType": "bytes",
              "name": "oftCmd",
              "type": "bytes"
            }
          ],
          "internalType": "struct SendParam",
          "name": "_sendParam",
          "type": "tuple"
        },
        {
          "components": [
            {
              "internalType": "uint256",
              "name": "nativeFee",
              "type": "uint256"
            },
            {
              "internalType": "uint256",
              "name": "lzTokenFee",
              "type": "uint256"
            }
          ],
          "internalType": "struct MessagingFee",
          "name": "_fee",
          "type": "tuple"
        },
        {
          "internalType": "address",
          "name": "_refundAddress",
          "type": "address"
        }
      ],
      "name": "redeemSend",
      "outputs": [
        {
          "components": [
            {
              "internalType": "bytes32",
              "name": "guid",
              "type": "bytes32"
            },
            {
              "internalType": "uint64",
              "name": "nonce",
              "type": "uint64"
            },
            {
              "components": [
                {
                  "internalType": "uint256",
                  "name": "nativeFee",
                  "type": "uint256"
                },
                {
                  "internalType": "uint256",
                  "name": "lzTokenFee",
                  "type": "uint256"
                }
              ],
              "internalType": "struct MessagingFee",
              "name": "fee",
              "type": "tuple"
            }
          ],
          "internalType": "struct MessagingReceipt",
          "name": "msgReceipt",
          "type": "tuple"
        },
        {
          "components": [
            {
              "internalType": "uint256",
              "name": "amountSentLD",
              "type": "uint256"
            },
            {
              "internalType": "uint256",
              "name": "amountReceivedLD",
              "type": "uint256"
            }
          ],
          "internalType": "struct OFTReceipt",
          "name": "oftReceipt",
          "type": "tuple"
        }
      ],
      "stateMutability": "payable",
      "type": "function"
    },
    {
      "inputs": [
        {
          "internalType": "address",
          "name": "_owner",
          "type": "address"
        }
      ],
      "name": "redeemable",
      "outputs": [
        {
          "internalType": "uint256",
          "name": "amountLD",
          "type": "uint256"
        }
      ],
      "stateMutability": "view",
      "type": "function"
    },
    {
      "inputs": [],
      "name": "renounceOwnership",
      "outputs": [],
      "stateMutability": "nonpayable",
      "type": "function"
    },
    {
      "inputs": [
        {
          "internalType": "bytes32",
          "name": "_guid",
          "type": "bytes32"
        },
        {
          "internalType": "uint8",
          "name": "_index",
          "type": "uint8"
        },
        {
          "internalType": "uint32",
          "name": "_srcEid",
          "type": "uint32"
        },
        {
          "internalType": "address",
          "name": "_receiver",
          "type": "address"
        },
        {
          "internalType": "uint256",
          "name": "_amountLD",
          "type": "uint256"
        },
        {
          "internalType": "bytes",
          "name": "_composeMsg",
          "type": "bytes"
        }
      ],
      "name": "retryReceiveToken",
      "outputs": [],
      "stateMutability": "nonpayable",
      "type": "function"
    },
    {
      "inputs": [
        {
          "components": [
            {
              "internalType": "uint32",
              "name": "dstEid",
              "type": "uint32"
            },
            {
              "internalType": "bytes32",
              "name": "to",
              "type": "bytes32"
            },
            {
              "internalType": "uint256",
              "name": "amountLD",
              "type": "uint256"
            },
            {
              "internalType": "uint256",
              "name": "minAmountLD",
              "type": "uint256"
            },
            {
              "internalType": "bytes",
              "name": "extraOptions",
              "type": "bytes"
            },
            {
              "internalType": "bytes",
              "name": "composeMsg",
              "type": "bytes"
            },
            {
              "internalType": "bytes",
              "name": "oftCmd",
              "type": "bytes"
            }
          ],
          "internalType": "struct SendParam",
          "name": "_sendParam",
          "type": "tuple"
        },
        {
          "components": [
            {
              "internalType": "uint256",
              "name": "nativeFee",
              "type": "uint256"
            },
            {
              "internalType": "uint256",
              "name": "lzTokenFee",
              "type": "uint256"
            }
          ],
          "internalType": "struct MessagingFee",
          "name": "_fee",
          "type": "tuple"
        },
        {
          "internalType": "address",
          "name": "_refundAddress",
          "type": "address"
        }
      ],
      "name": "send",
      "outputs": [
        {
          "components": [
            {
              "internalType": "bytes32",
              "name": "guid",
              "type": "bytes32"
            },
            {
              "internalType": "uint64",
              "name": "nonce",
              "type": "uint64"
            },
            {
              "components": [
                {
                  "internalType": "uint256",
                  "name": "nativeFee",
                  "type": "uint256"
                },
                {
                  "internalType": "uint256",
                  "name": "lzTokenFee",
                  "type": "uint256"
                }
              ],
              "internalType": "struct MessagingFee",
              "name": "fee",
              "type": "tuple"
            }
          ],
          "internalType": "struct MessagingReceipt",
          "name": "msgReceipt",
          "type": "tuple"
        },
        {
          "components": [
            {
              "internalType": "uint256",
              "name": "amountSentLD",
              "type": "uint256"
            },
            {
              "internalType": "uint256",
              "name": "amountReceivedLD",
              "type": "uint256"
            }
          ],
          "internalType": "struct OFTReceipt",
          "name": "oftReceipt",
          "type": "tuple"
        }
      ],
      "stateMutability": "payable",
      "type": "function"
    },
    {
      "inputs": [
        {
          "internalType": "uint32",
          "name": "_dstEid",
          "type": "uint32"
        },
        {
          "components": [
            {
              "internalType": "uint32",
              "name": "srcEid",
              "type": "uint32"
            },
            {
              "internalType": "uint64",
              "name": "amount",
              "type": "uint64"
            },
            {
              "internalType": "uint64",
              "name": "minAmount",
              "type": "uint64"
            }
          ],
          "internalType": "struct TargetCredit[]",
          "name": "_credits",
          "type": "tuple[]"
        }
      ],
      "name": "sendCredits",
      "outputs": [
        {
          "components": [
            {
              "internalType": "uint32",
              "name": "srcEid",
              "type": "uint32"
            },
            {
              "internalType": "uint64",
              "name": "amount",
              "type": "uint64"
            }
          ],
          "internalType": "struct Credit[]",
          "name": "",
          "type": "tuple[]"
        }
      ],
      "stateMutability": "nonpayable",
      "type": "function"
    },
    {
      "inputs": [
        {
          "components": [
            {
              "internalType": "uint32",
              "name": "dstEid",
              "type": "uint32"
            },
            {
              "internalType": "bytes32",
              "name": "to",
              "type": "bytes32"
            },
            {
              "internalType": "uint256",
              "name": "amountLD",
              "type": "uint256"
            },
            {
              "internalType": "uint256",
              "name": "minAmountLD",
              "type": "uint256"
            },
            {
              "internalType": "bytes",
              "name": "extraOptions",
              "type": "bytes"
            },
            {
              "internalType": "bytes",
              "name": "composeMsg",
              "type": "bytes"
            },
            {
              "internalType": "bytes",
              "name": "oftCmd",
              "type": "bytes"
            }
          ],
          "internalType": "struct SendParam",
          "name": "_sendParam",
          "type": "tuple"
        },
        {
          "components": [
            {
              "internalType": "uint256",
              "name": "nativeFee",
              "type": "uint256"
            },
            {
              "internalType": "uint256",
              "name": "lzTokenFee",
              "type": "uint256"
            }
          ],
          "internalType": "struct MessagingFee",
          "name": "_fee",
          "type": "tuple"
        },
        {
          "internalType": "address",
          "name": "_refundAddress",
          "type": "address"
        }
      ],
      "name": "sendToken",
      "outputs": [
        {
          "components": [
            {
              "internalType": "bytes32",
              "name": "guid",
              "type": "bytes32"
            },
            {
              "internalType": "uint64",
              "name": "nonce",
              "type": "uint64"
            },
            {
              "components": [
                {
                  "internalType": "uint256",
                  "name": "nativeFee",
                  "type": "uint256"
                },
                {
                  "internalType": "uint256",
                  "name": "lzTokenFee",
                  "type": "uint256"
                }
              ],
              "internalType": "struct MessagingFee",
              "name": "fee",
              "type": "tuple"
            }
          ],
          "internalType": "struct MessagingReceipt",
          "name": "msgReceipt",
          "type": "tuple"
        },
        {
          "components": [
            {
              "internalType": "uint256",
              "name": "amountSentLD",
              "type": "uint256"
            },
            {
              "internalType": "uint256",
              "name": "amountReceivedLD",
              "type": "uint256"
            }
          ],
          "internalType": "struct OFTReceipt",
          "name": "oftReceipt",
          "type": "tuple"
        },
        {
          "components": [
            {
              "internalType": "uint72",
              "name": "ticketId",
              "type": "uint72"
            },
            {
              "internalType": "bytes",
              "name": "passengerBytes",
              "type": "bytes"
            }
          ],
          "internalType": "struct Ticket",
          "name": "ticket",
          "type": "tuple"
        }
      ],
      "stateMutability": "payable",
      "type": "function"
    },
    {
      "inputs": [
        {
          "components": [
            {
              "internalType": "address",
              "name": "feeLib",
              "type": "address"
            },
            {
              "internalType": "address",
              "name": "planner",
              "type": "address"
            },
            {
              "internalType": "address",
              "name": "treasurer",
              "type": "address"
            },
            {
              "internalType": "address",
              "name": "tokenMessaging",
              "type": "address"
            },
            {
              "internalType": "address",
              "name": "creditMessaging",
              "type": "address"
            },
            {
              "internalType": "address",
              "name": "lzToken",
              "type": "address"
            }
          ],
          "internalType": "struct StargateBase.AddressConfig",
          "name": "_config",
          "type": "tuple"
        }
      ],
      "name": "setAddressConfig",
      "outputs": [],
      "stateMutability": "nonpayable",
      "type": "function"
    },
    {
      "inputs": [
        {
          "internalType": "uint256",
          "name": "_deficitOffsetLD",
          "type": "uint256"
        }
      ],
      "name": "setDeficitOffset",
      "outputs": [],
      "stateMutability": "nonpayable",
      "type": "function"
    },
    {
      "inputs": [
        {
          "internalType": "uint32",
          "name": "_dstEid",
          "type": "uint32"
        },
        {
          "internalType": "bool",
          "name": "_oft",
          "type": "bool"
        }
      ],
      "name": "setOFTPath",
      "outputs": [],
      "stateMutability": "nonpayable",
      "type": "function"
    },
    {
      "inputs": [
        {
          "internalType": "bool",
          "name": "_paused",
          "type": "bool"
        }
      ],
      "name": "setPause",
      "outputs": [],
      "stateMutability": "nonpayable",
      "type": "function"
    },
    {
      "inputs": [
        {
          "internalType": "uint256",
          "name": "_gasLimit",
          "type": "uint256"
        }
      ],
      "name": "setTransferGasLimit",
      "outputs": [],
      "stateMutability": "nonpayable",
      "type": "function"
    },
    {
      "inputs": [],
      "name": "sharedDecimals",
      "outputs": [
        {
          "internalType": "uint8",
          "name": "",
          "type": "uint8"
        }
      ],
      "stateMutability": "view",
      "type": "function"
    },
    {
      "inputs": [],
      "name": "stargateType",
      "outputs": [
        {
          "internalType": "enum StargateType",
          "name": "",
          "type": "uint8"
        }
      ],
      "stateMutability": "pure",
      "type": "function"
    },
    {
      "inputs": [],
      "name": "status",
      "outputs": [
        {
          "internalType": "uint8",
          "name": "",
          "type": "uint8"
        }
      ],
      "stateMutability": "view",
      "type": "function"
    },
    {
      "inputs": [],
      "name": "token",
      "outputs": [
        {
          "internalType": "address",
          "name": "",
          "type": "address"
        }
      ],
      "stateMutability": "view",
      "type": "function"
    },
    {
      "inputs": [
        {
          "internalType": "address",
          "name": "newOwner",
          "type": "address"
        }
      ],
      "name": "transferOwnership",
      "outputs": [],
      "stateMutability": "nonpayable",
      "type": "function"
    },
    {
      "inputs": [],
      "name": "treasuryFee",
      "outputs": [
        {
          "internalType": "uint64",
          "name": "",
          "type": "uint64"
        }
      ],
      "stateMutability": "view",
      "type": "function"
    },
    {
      "inputs": [],
      "name": "tvl",
      "outputs": [
        {
          "internalType": "uint256",
          "name": "",
          "type": "uint256"
        }
      ],
      "stateMutability": "view",
      "type": "function"
    },
    {
      "inputs": [
        {
          "internalType": "bytes32",
          "name": "guid",
          "type": "bytes32"
        },
        {
          "internalType": "uint8",
          "name": "index",
          "type": "uint8"
        }
      ],
      "name": "unreceivedTokens",
      "outputs": [
        {
          "internalType": "bytes32",
          "name": "hash",
          "type": "bytes32"
        }
      ],
      "stateMutability": "view",
      "type": "function"
    },
    {
      "inputs": [],
      "name": "withdrawPlannerFee",
      "outputs": [],
      "stateMutability": "nonpayable",
      "type": "function"
    },
    {
      "inputs": [
        {
          "internalType": "address",
          "name": "_to",
          "type": "address"
        },
        {
          "internalType": "uint64",
          "name": "_amountSD",
          "type": "uint64"
        }
      ],
      "name": "withdrawTreasuryFee",
      "outputs": [],
      "stateMutability": "nonpayable",
      "type": "function"
    }
  ],
  "bytecode": "0x6101406040526108fc6001556002805460ff60a01b1916600160a01b17905534801561002a57600080fd5b50604051616f7b380380616f7b833981016040819052610049916102f6565b8484848484338061007457604051631e4fbdf760e01b81526000600482015260240160405180910390fd5b61007d816101a9565b506001600160a01b03851660805260ff80841690851610156100b257604051632e4b554360e01b815260040160405180910390fd5b6100bc83856103c8565b6100c790600a6104ce565b60c05260ff831660a0526001600160a01b03821660e08190526040805163416ecebf60e01b8152905163416ecebf916004808201926020929091908290030181865afa15801561011b573d6000803e3d6000fd5b505050506040513d601f19601f8201168201806040525081019061013f91906104e4565b63ffffffff1661010052610152816101a9565b5050505050868685604051610166906101f9565b61017293929190610536565b604051809103906000f08015801561018e573d6000803e3d6000fd5b506001600160a01b0316610120525061056f95505050505050565b600080546001600160a01b038381166001600160a01b0319831681178455604051919092169283917f8be0079c531659141344cd1fd0a4f28419497f9722a3daafe3b4186f6b6457e09190a35050565b6115d6806159a583390190565b634e487b7160e01b600052604160045260246000fd5b60005b8381101561023757818101518382015260200161021f565b50506000910152565b600082601f83011261025157600080fd5b81516001600160401b0381111561026a5761026a610206565b604051601f8201601f19908116603f011681016001600160401b038111828210171561029857610298610206565b6040528181528382016020018510156102b057600080fd5b6102c182602083016020870161021c565b949350505050565b80516001600160a01b03811681146102e057600080fd5b919050565b805160ff811681146102e057600080fd5b600080600080600080600060e0888a03121561031157600080fd5b87516001600160401b0381111561032757600080fd5b6103338a828b01610240565b60208a015190985090506001600160401b0381111561035157600080fd5b61035d8a828b01610240565b96505061036c604089016102c9565b945061037a606089016102e5565b9350610388608089016102e5565b925061039660a089016102c9565b91506103a460c089016102c9565b905092959891949750929550565b634e487b7160e01b600052601160045260246000fd5b60ff82811682821603908111156103e1576103e16103b2565b92915050565b6001815b600184111561042257808504811115610406576104066103b2565b600184161561041457908102905b60019390931c9280026103eb565b935093915050565b600082610439575060016103e1565b81610446575060006103e1565b816001811461045c576002811461046657610482565b60019150506103e1565b60ff841115610477576104776103b2565b50506001821b6103e1565b5060208310610133831016604e8410600b84101617156104a5575081810a6103e1565b6104b260001984846103e7565b80600019048211156104c6576104c66103b2565b029392505050565b60006104dd60ff84168361042a565b9392505050565b6000602082840312156104f657600080fd5b815163ffffffff811681146104dd57600080fd5b6000815180845261052281602086016020860161021c565b601f01601f19169290920160200192915050565b606081526000610549606083018661050a565b828103602084015261055b818661050a565b91505060ff83166040830152949350505050565b60805160a05160c05160e051610100516101205161536961063c6000396000818161071c01528181611e5501528181611fe10152818161239b01526128310152600081816107870152818161197e01528181611f640152818161251a015281816125d4015281816127ca01526138540152600081816106d3015281816114b301528181612cb00152613f0501526000818161272c015261337c01526000610831015260008181610b630152818161227e01528181612ada015281816136fc0152613c1101526153696000f3fe60806040526004361061031a5760003560e01c80637878e644116101ab578063b20446f8116100f7578063d7c3a56d11610095578063e5328e061161006f578063e5328e0614610aef578063ecb0315f14610b04578063f2fde38b14610b31578063fc0c546a14610b5157600080fd5b8063d7c3a56d14610a67578063d9d1404b14610a88578063dc952df514610aa857600080fd5b8063c859c483116100d1578063c859c483146109c6578063cbef2aa9146109e6578063cc32d17614610a08578063d621ad3f14610a2f57600080fd5b8063b20446f814610965578063bedb86fb14610993578063c7c7f5b3146109b357600080fd5b80639561b12f11610164578063a7229fd91161013e578063a7229fd9146108fb578063a85dc7f21461091b578063a88835d714610930578063b0d7ca5d1461095057600080fd5b80639561b12f146108a657806396365d44146108c65780639f68b964146108db57600080fd5b80637878e644146107df5780637bde82f2146107ff578063857749b01461081f57806388543f0e146108535780638c70830b146108685780638da5cb5b1461088857600080fd5b80633faa12c51161026a5780635114bf09116102235780636b0932ec116101fd5780636b0932ec14610740578063715018a6146107605780637260753714610775578063764f6a78146107be57600080fd5b80635114bf09146106ae5780635e280f11146106c15780635fcbd2851461070d57600080fd5b80633faa12c5146105ed578063434def551461060d578063461bb0b91461062d57806347e7ef241461064d578063484267a41461066e5780634b65b81a1461068e57600080fd5b8063192adc5d116102d75780632bc5114c116102b15780632bc5114c1461047c578063341a46481461056c57806338da6b8e1461057f5780633b6f743b146105cd57600080fd5b8063192adc5d14610409578063200d2ed214610429578063203bd15f1461045c57600080fd5b80630141e41b1461031f5780630478c4c0146103555780630d35b4151461037557806313bc4bc7146103a4578063156a0d0f146103c657806316909bca146103ed575b600080fd5b34801561032b57600080fd5b5061033f61033a36600461407e565b610b85565b60405161034c919061415b565b60405180910390f35b61036861036336600461422f565b610ddd565b60405161034c919061425a565b34801561038157600080fd5b50610395610390366004614283565b610e1b565b60405161034c93929190614307565b3480156103b057600080fd5b506103c46103bf3660046143a4565b611180565b005b3480156103d257600080fd5b506040805162b9270b60e21b8152600060208201520161034c565b3480156103f957600080fd5b50600060405161034c91906143bd565b34801561041557600080fd5b506103686104243660046143f3565b6111df565b34801561043557600080fd5b5060025461044a90600160a01b900460ff1681565b60405160ff909116815260200161034c565b34801561046857600080fd5b506103c46104773660046144ce565b61137e565b34801561048857600080fd5b506105116040805160c081018252600080825260208201819052918101829052606081018290526080810182905260a0810191909152506040805160c0810182526002546001600160a01b03908116825260055481166020830152600754811692820192909252600654821660608201526003548216608082015260045490911660a082015290565b60405161034c919081516001600160a01b03908116825260208084015182169083015260408084015182169083015260608084015182169083015260808084015182169083015260a092830151169181019190915260c00190565b6103c461057a3660046143a4565b61163c565b34801561058b57600080fd5b506105b561059a36600461454f565b6008602052600090815260409020546001600160401b031681565b6040516001600160401b03909116815260200161034c565b3480156105d957600080fd5b506103686105e83660046143f3565b611712565b3480156105f957600080fd5b506103c461060836600461456a565b611974565b34801561061957600080fd5b506103c46106283660046145a7565b611a2f565b34801561063957600080fd5b506103c461064836600461460a565b611c4a565b61066061065b366004614625565b611daa565b60405190815260200161034c565b34801561067a57600080fd5b5061066061068936600461464f565b611f5d565b34801561069a57600080fd5b506105b56106a936600461466a565b612069565b3480156106ba57600080fd5b5047610660565b3480156106cd57600080fd5b506106f57f000000000000000000000000000000000000000000000000000000000000000081565b6040516001600160a01b03909116815260200161034c565b34801561071957600080fd5b507f00000000000000000000000000000000000000000000000000000000000000006106f5565b34801561074c57600080fd5b506105b561075b366004614625565b61226c565b34801561076c57600080fd5b506103c46122ad565b34801561078157600080fd5b506107a97f000000000000000000000000000000000000000000000000000000000000000081565b60405163ffffffff909116815260200161034c565b6107d16107cc366004614714565b6122c1565b60405161034c9291906147b0565b3480156107eb57600080fd5b506105b56107fa3660046143a4565b612725565b34801561080b57600080fd5b5061066061081a3660046147d4565b61275f565b34801561082b57600080fd5b5061044a7f000000000000000000000000000000000000000000000000000000000000000081565b34801561085f57600080fd5b50600154610660565b34801561087457600080fd5b506103c46108833660046143a4565b612928565b34801561089457600080fd5b506000546001600160a01b03166106f5565b3480156108b257600080fd5b506103c46108c13660046147f7565b612935565b3480156108d257600080fd5b50610660612a8a565b3480156108e757600080fd5b5060015b604051901515815260200161034c565b34801561090757600080fd5b5061066061091636600461486c565b612aa9565b34801561092757600080fd5b50610660612b7f565b34801561093c57600080fd5b506103c461094b3660046148a9565b612b9e565b34801561095c57600080fd5b506103c4612d89565b34801561097157600080fd5b50610985610980366004614931565b612df2565b60405161034c9291906149cc565b34801561099f57600080fd5b506103c46109ae3660046149ec565b61302e565b6107d16109c1366004614714565b6130e9565b3480156109d257600080fd5b506103c46109e1366004614a09565b61311d565b6109f96109f4366004614714565b6131ea565b60405161034c93929190614a35565b348015610a1457600080fd5b506002546105b590600160a81b90046001600160401b031681565b348015610a3b57600080fd5b50610660610a4a366004614a66565b600960209081526000928352604080842090915290825290205481565b348015610a7357600080fd5b506108eb610a82366004614a89565b15919050565b348015610a9457600080fd5b50610660610aa3366004614aca565b613371565b348015610ab457600080fd5b50610ac8610ac3366004614283565b61339f565b6040805193151584526001600160401b03928316602085015291169082015260600161034c565b348015610afb57600080fd5b50610660613464565b348015610b1057600080fd5b50610b24610b1f366004614ae7565b61347c565b60405161034c9190614b30565b348015610b3d57600080fd5b506103c4610b4c36600461464f565b613576565b348015610b5d57600080fd5b506106f57f000000000000000000000000000000000000000000000000000000000000000081565b600254606090600160a01b900460ff16600114610be457600254600119600160a01b90910460ff1601610bcb576040516376a9ad7360e01b815260040160405180910390fd5b6040516336c8b0cf60e21b815260040160405180910390fd5b6002805460ff60a01b1916600160a11b1790556003546001600160a01b0316338114610c2357604051635bd25eff60e01b815260040160405180910390fd5b6000836001600160401b03811115610c3d57610c3d61416e565b604051908082528060200260200182016040528015610c8257816020015b6040805180820190915260008082526020820152815260200190600190039081610c5b5790505b5090506000805b85811015610d825736878783818110610ca457610ca4614b98565b90506060020190506000610d0e826020016020810190610cc49190614aca565b610cd46060850160408601614aca565b60086000610ce5602088018861454f565b63ffffffff1663ffffffff1681526020019081526020016000206135b99092919063ffffffff16565b90506001600160401b03811615610d78576040805180820190915280610d37602085018561454f565b63ffffffff1681526001600160401b0383166020909101528585610d5a81614bc4565b965081518110610d6c57610d6c614b98565b60200260200101819052505b5050600101610c89565b508082527fce105e156370093e6600169f7c01277f740d45fbcf95435227ce6f43ad0c3abd8783604051610db7929190614bdd565b60405180910390a1509150506002805460ff60a01b1916600160a01b1790559392505050565b604080518082019091526000808252602082015282513414610e1257604051633442dd9560e01b815260040160405180910390fd5b50815b92915050565b60408051808201909152600080825260208201526060610e4e604051806040016040528060008152602001600081525090565b6040518060400160405280610e636001613371565b8152602001610ea760086000886000016020810190610e82919061454f565b63ffffffff1681526020810191909152604001600020546001600160401b0316613371565b81525092506000610ed48460200151866040013511610eca578560400135612725565b8460200151612725565b90506000610ef9610ee8602088018861454f565b83610b1f610a8260c08b018b614bfc565b60025460405163081993cd60e41b81529192506000916001600160a01b03909116906381993cd090610f2f908590600401614b30565b602060405180830381865afa158015610f4c573d6000803e3d6000fd5b505050506040513d601f19601f82011682018060405250810190610f709190614c42565b9050826001600160401b0316816001600160401b0316146111515760408051600180825281830190925290816020015b604080518082019091526000815260606020820152815260200190600190039081610fa0579050509450826001600160401b0316816001600160401b031610156110625760405180604001604052806110066110018487610aa39190614c5f565b613651565b61101290600019614c7e565b81526020016040518060400160405280600c81526020016b70726f746f636f6c2066656560a01b8152508152508560008151811061105257611052614b98565b6020026020010181905250611151565b826001600160401b0316816001600160401b031611156111515760006110888483614c5f565b90506110948282613682565b90925090506001600160401b03808516908316036110f25760408051600080825260208201909252906110ea565b6040805180820190915260008152606060208201528152602001906001900390816110c25790505b50955061114f565b604051806040016040528061110961100184613371565b8152602001604051806040016040528060068152602001651c995dd85c9960d21b8152508152508660008151811061114357611143614b98565b60200260200101819052505b505b604051806040016040528061116585613371565b815260200161117383613371565b9052959794965050505050565b6005546001600160a01b03163381146111ac57604051635bd25eff60e01b815260040160405180910390fd5b6111b582612725565b600a60106101000a8154816001600160401b0302191690836001600160401b031602179055505050565b6040805180820190915260008082526020820152611203610a8260c0850185614bfc565b611220576040516316cab05f60e11b815260040160405180910390fd5b600061122f8460400135612725565b6006546040805160c081019091523381529192506001600160a01b031690633292cf02906020808201906112659089018961454f565b63ffffffff168152602088810135908201526001600160401b038516604082015260600161129660a0890189614bfc565b8080601f0160208091040260200160405190810160405280939291908181526020018383808284376000920191909152505050908252506020016112dd6080890189614bfc565b8080601f01602080910402602001604051908101604052809392919081815260200183838082843760009201919091525050509152506040516001600160e01b031960e084901b16815261133691908790600401614d1b565b6040805180830381865afa158015611352573d6000803e3d6000fd5b505050506040513d601f19601f820116820180604052508101906113769190614d70565b949350505050565b600254600160a01b900460ff166001146113c157600254600119600160a01b90910460ff1601610bcb576040516376a9ad7360e01b815260040160405180910390fd5b6002805460ff60a01b1916600160a11b1790556006546001600160a01b031633811461140057604051635bd25eff60e01b815260040160405180910390fd5b600061140b85613371565b905082158015906060906114795761147661142c60608c0160408d01614aca565b61143960208d018d61454f565b8589898080601f0160208091040260200160405190810160405280939291908181526020018383808284376000920191909152506136c392505050565b90505b600061148589856136f5565b9050801561157e5761149688613722565b821561152257604051633e5ac80960e11b81526001600160a01b037f00000000000000000000000000000000000000000000000000000000000000001690637cb59012906114ef908c908e906000908890600401614d8c565b600060405180830381600087803b15801561150957600080fd5b505af115801561151d573d6000803e3d6000fd5b505050505b6001600160a01b0389168a7fefed6d3500546b29533b128a29e3a94d70788727f0507505ac12eaf2e578fd9c61155b60208f018f61454f565b6040805163ffffffff9092168252602082018990520160405180910390a361161c565b61158b60208c018c61454f565b8985846040516020016115a19493929190614dc7565b60408051601f19818403018152918152815160209283012060008d8152600984528281208180528452918220557e7c17198cd078035dc663f9a0961f84cb6265411d0b4c793f96d432f6af4b55918c91906115fe908f018f61454f565b8c888760405161161396959493929190614e19565b60405180910390a15b50506002805460ff60a01b1916600160a01b179055505050505050505050565b6007546001600160a01b031633811461166857604051635bd25eff60e01b815260040160405180910390fd5b6116718261376d565b600061167d338461226c565b905080600260158282829054906101000a90046001600160401b03166116a39190614e67565b92506101000a8154816001600160401b0302191690836001600160401b031602179055507fa064a2faa279f4d67c85c8fc69d4ebb7de2739a9e6dd864dfdd1b9e066d4bfd08160405161170591906001600160401b0391909116815260200190565b60405180910390a1505050565b604080518082019091526000808252602082015260006117358460400135612725565b9050806001600160401b031660000361176157604051633442dd9560e01b815260040160405180910390fd5b6000611773610a8260c0870187614bfc565b905080156118c8576006546040805160c081019091523381526001600160a01b0390911690633292cf02906020808201906117b0908a018a61454f565b63ffffffff168152602089810135908201526001600160401b03861660408201526060016117e160a08a018a614bfc565b8080601f01602080910402602001604051908101604052809392919081815260200183838082843760009201919091525050509082525060200161182860808a018a614bfc565b8080601f01602080910402602001604051908101604052809392919081815260200183838082843760009201919091525050509152506040516001600160e01b031960e084901b16815261188191908890600401614d1b565b6040805180830381865afa15801561189d573d6000803e3d6000fd5b505050506040513d601f19601f820116820180604052508101906118c19190614d70565b925061196c565b6000806118d86080880188614bfc565b60065492109250506001600160a01b03166375d2208c6118fb602089018961454f565b6040516001600160e01b031960e084901b16815263ffffffff91909116600482015283151560248201526044016040805180830381865afa158015611944573d6000803e3d6000fd5b505050506040513d601f19601f820116820180604052508101906119689190614d70565b9350505b505092915050565b61197c61378c565b7f000000000000000000000000000000000000000000000000000000000000000063ffffffff168263ffffffff16036119c857604051632b6a0d0960e21b815260040160405180910390fd5b63ffffffff80831660009081526008602052604090206119ea9183906137b916565b6040805163ffffffff8416815282151560208201527faf6b8dd4c5a827e03f548d06181b36aaba61e22436ff1cfa9bc409d576366a6091015b60405180910390a15050565b600254600160a01b900460ff16600114611a7257600254600119600160a01b90910460ff1601610bcb576040516376a9ad7360e01b815260040160405180910390fd5b6002805460ff60a01b1916600160a11b1790556006546001600160a01b0316338114611ab157604051635bd25eff60e01b815260040160405180910390fd5b6000611abc83613371565b90506000611aca85836136f5565b90508015611b3757611adb84613722565b6001600160a01b038516877fefed6d3500546b29533b128a29e3a94d70788727f0507505ac12eaf2e578fd9c611b1460208c018c61454f565b6040805163ffffffff9092168252602082018790520160405180910390a3611c2d565b611b44602089018961454f565b60405160e09190911b6001600160e01b0319166020820152606086901b6bffffffffffffffffffffffff191660248201526038810183905260580160408051601f19818403018152918152815160209283012060008a81526009845282812060ff8b168252845291909120557e7c17198cd078035dc663f9a0961f84cb6265411d0b4c793f96d432f6af4b559088908890611be1908c018c61454f565b6040805193845260ff909216602084015263ffffffff16908201526001600160a01b03871660608201526080810184905260c060a0820181905260009082015260e00160405180910390a15b50506002805460ff60a01b1916600160a01b179055505050505050565b611c5261378c565b611c5f602082018261464f565b600280546001600160a01b0319166001600160a01b0392909216919091179055611c8f604082016020830161464f565b600580546001600160a01b0319166001600160a01b0392909216919091179055611cbf606082016040830161464f565b600780546001600160a01b0319166001600160a01b0392909216919091179055611cef608082016060830161464f565b600680546001600160a01b0319166001600160a01b0392909216919091179055611d1f60a082016080830161464f565b600380546001600160a01b0319166001600160a01b0392909216919091179055611d4f60c0820160a0830161464f565b600480546001600160a01b0319166001600160a01b03929092169190911790556040517f9774229668135b546675daf425e41c0848f60aa32d0951881245f4f528cc33f090611d9f908390614e86565b60405180910390a150565b600254600090600160a01b900460ff16600114611df057600254600119600160a01b90910460ff1601610bcb576040516376a9ad7360e01b815260040160405180910390fd5b6002805460ff60a01b1916600160a11b179055611e0c8261376d565b6000611e18338461226c565b9050611e238161384d565b611e2c81613371565b6040516340c10f1960e01b81526001600160a01b038681166004830152602482018390529193507f0000000000000000000000000000000000000000000000000000000000000000909116906340c10f1990604401600060405180830381600087803b158015611e9b57600080fd5b505af1158015611eaf573d6000803e3d6000fd5b5050600a8054849350909150600090611ed29084906001600160401b0316614e67565b92506101000a8154816001600160401b0302191690836001600160401b03160217905550836001600160a01b0316336001600160a01b03167f8752a472e571a816aea92eec8dae9baf628e840f4929fbcc2d155e6233ff68a784604051611f3b91815260200190565b60405180910390a3506002805460ff60a01b1916600160a01b17905592915050565b63ffffffff7f0000000000000000000000000000000000000000000000000000000000000000166000908152600860205260408120548190611fa7906001600160401b0316613371565b90506001600160a01b038316611fbf57809150612063565b6040516370a0823160e01b81526001600160a01b0384811660048301526000917f0000000000000000000000000000000000000000000000000000000000000000909116906370a0823190602401602060405180830381865afa15801561202a573d6000803e3d6000fd5b505050506040513d601f19601f8201168201806040525081019061204e9190614f26565b905080821161205d578161205f565b805b9250505b50919050565b6002546040516343d9564d60e01b81526000916001600160a01b0316906343d9564d9061209a908690600401614b30565b6020604051808303816000875af11580156120b9573d6000803e3d6000fd5b505050506040513d601f19601f820116820180604052508101906120dd9190614c42565b60408401519091506001600160401b03808216908316101561214e576121038282614c5f565b60028054601590612125908490600160a81b90046001600160401b0316614e67565b92506101000a8154816001600160401b0302191690836001600160401b031602179055506121df565b806001600160401b0316826001600160401b031611156121df5760006121748284614c5f565b90506121808382613682565b90935090506001600160401b038116156121dd5780600260158282829054906101000a90046001600160401b03166121b89190614c5f565b92506101000a8154816001600160401b0302191690836001600160401b031602179055505b505b826001600160401b0316826001600160401b0316108061220657506001600160401b038216155b156122245760405163a1e8654560e01b815260040160405180910390fd5b6040516001600160401b03831681527f6f1fa2531369a7ffc9892608e862988368f03d5f2b2ba1c74c4b1a65b44e72c09060200160405180910390a15092915050565b905090565b600061227782612725565b9050610e157f000000000000000000000000000000000000000000000000000000000000000084306122a885613371565b6138b3565b6122b561378c565b6122bf60006138e2565b565b6122c961401e565b6040805180820190915260008082526020820152600254600160a01b900460ff1660011461232057600254600119600160a01b90910460ff1601610bcb576040516376a9ad7360e01b815260040160405180910390fd5b6002805460ff60a01b1916600160a11b179055612343610a8260c0870187614bfc565b612360576040516316cab05f60e11b815260040160405180910390fd5b600061236f8660400135612725565b9050600061237c82613371565b60405163079cc67960e41b8152336004820152602481018290529091507f00000000000000000000000000000000000000000000000000000000000000006001600160a01b0316906379cc679090604401600060405180830381600087803b1580156123e757600080fd5b505af11580156123fb573d6000803e3d6000fd5b5050604051838152600092503391507f27d4634c833b7622a0acddbf7f746183625f105945e95c723ad1d5a9f2a0b6fc9060200160405180910390a3600061245161244960208a018a61454f565b84600161347c565b90506000612466826106a98b60600135612725565b600a805491925085916000906124869084906001600160401b0316614c5f565b92506101000a8154816001600160401b0302191690836001600160401b031602179055506124ed81600860008c60000160208101906124c5919061454f565b63ffffffff1663ffffffff16815260200190815260200160002061393290919063ffffffff16565b806001600160401b0316846001600160401b031611156125a75760006125138286614c5f565b63ffffffff7f0000000000000000000000000000000000000000000000000000000000000000811660009081526008602052604090209192506125599190839061393216565b80600a60088282829054906101000a90046001600160401b031661257d9190614c5f565b92506101000a8154816001600160401b0302191690836001600160401b031602179055505061265d565b806001600160401b0316846001600160401b0316101561265d5760006125cd8583614c5f565b63ffffffff7f000000000000000000000000000000000000000000000000000000000000000081166000908152600860205260409020919250612613919083906139a316565b80600a60088282829054906101000a90046001600160401b03166126379190614e67565b92506101000a8154816001600160401b0302191690836001600160401b03160217905550505b6000612678612671368b90038b018b614f3f565b6000610ddd565b90506126868a82848b613a21565b965060405180604001604052808581526020016126a284613371565b9052875190965033907f85496b760a4b7f8d66384b9df21b381f5d1b1e79f229a47aaf4c232edc2fe59a6126d960208e018e61454f565b60208a8101516040805163ffffffff90941684529183018a90529082015260600160405180910390a350506002805460ff60a01b1916600160a01b179055509296919550909350505050565b6000610e157f0000000000000000000000000000000000000000000000000000000000000000838161275957612759614f5b565b04613b97565b600254600090600160a01b900460ff166001146127a557600254600119600160a01b90910460ff1601610bcb576040516376a9ad7360e01b815260040160405180910390fd5b6002805460ff60a01b1916600160a11b17905560006127c384612725565b63ffffffff7f0000000000000000000000000000000000000000000000000000000000000000811660009081526008602052604090209192506128099190839061393216565b61281281613371565b60405163079cc67960e41b8152336004820152602481018290529092507f00000000000000000000000000000000000000000000000000000000000000006001600160a01b0316906379cc679090604401600060405180830381600087803b15801561287d57600080fd5b505af1158015612891573d6000803e3d6000fd5b5050600a80548493509091506000906128b49084906001600160401b0316614c5f565b92506101000a8154816001600160401b0302191690836001600160401b031602179055506128e28383613bcd565b6128eb81613722565b6040518281526001600160a01b0384169033907f27d4634c833b7622a0acddbf7f746183625f105945e95c723ad1d5a9f2a0b6fc90602001611f3b565b61293061378c565b600155565b600254600160a01b900460ff1660011461297857600254600119600160a01b90910460ff1601610bcb576040516376a9ad7360e01b815260040160405180910390fd5b6002805460ff60a01b1916600160a11b1790556003546001600160a01b03163381146129b757604051635bd25eff60e01b815260040160405180910390fd5b60005b82811015612a3557368484838181106129d5576129d5614b98565b9050604002019050612a2c8160200160208101906129f39190614aca565b60086000612a04602086018661454f565b63ffffffff1663ffffffff1681526020019081526020016000206139a390919063ffffffff16565b506001016129ba565b507f10c5f2b007767d266c6c75c86ae9ed0c74e6320b30bda231af7396a990e7263c848484604051612a6993929190614f71565b60405180910390a150506002805460ff60a01b1916600160a01b1790555050565b600a5460009061226790600160401b90046001600160401b0316613371565b6007546000906001600160a01b0316338114612ad857604051635bd25eff60e01b815260040160405180910390fd5b7f00000000000000000000000000000000000000000000000000000000000000006001600160a01b0316856001600160a01b031603612b6957600254600a54600091612b4291610aa3916001600160401b03600160a81b909104811691600160401b900416614e67565b612b4a613bf9565b612b549190614fe3565b9050808411612b635783612b65565b805b9350505b612b74858585613c84565b91505b509392505050565b600a5460009061226790600160801b90046001600160401b0316613371565b600254600160a01b900460ff16600114612be157600254600119600160a01b90910460ff1601610bcb576040516376a9ad7360e01b815260040160405180910390fd5b6002805460ff60a01b1916600160a11b179055604051612c0d9086908690869086908690602001614ff6565b60408051601f19818403018152918152815160209283012060008a81526009845282812060ff8b16825290935291205414612c5b5760405163aba8b6ef60e01b815260040160405180910390fd5b600087815260096020908152604080832060ff8a168452909152812055612c828484613bcd565b612c93612c8e84612725565b613722565b8015612d2157604051633e5ac80960e11b81526001600160a01b037f00000000000000000000000000000000000000000000000000000000000000001690637cb5901290612cee9087908b906000908890889060040161503c565b600060405180830381600087803b158015612d0857600080fd5b505af1158015612d1c573d6000803e3d6000fd5b505050505b6040805163ffffffff87168152602081018590526001600160a01b0386169189917fefed6d3500546b29533b128a29e3a94d70788727f0507505ac12eaf2e578fd9c910160405180910390a350506002805460ff60a01b1916600160a01b1790555050505050565b6005546001600160a01b0316338114612db557604051635bd25eff60e01b815260040160405180910390fd5b47612dc233826000613d58565b6040518181527f19e23b96a5e0d494b59baca97d1fe386cf8e80a978dfd8845d25f1a9d5c7e18390602001611a23565b612dfa61401e565b604080518082019091526000815260606020820152612e4d6040518060400160405280601a81526020017f5374617274696e67205f726964654275732066756e6374696f6e000000000000815250613d80565b602085015115612e705760405163b5e0bf8d60e01b815260040160405180910390fd5b6006546040805160a081019091523381526001600160a01b03909116906385afd45390602080820190612ea5908b018b61454f565b63ffffffff16815260208a810135908201526001600160401b03881660408201526060016000612ed860808c018c614bfc565b9190911190915250604080516001600160e01b031960e085901b16815282516001600160a01b03166004820152602083015163ffffffff16602482015290820151604482015260608201516001600160401b031660648201526080909101511515608482015260a4016000604051808303816000875af1158015612f60573d6000803e3d6000fd5b505050506040513d6000823e601f3d908101601f19168201604052612f8891908101906150fb565b604080830151518851825180840184526008815267313ab9a330b9329d60c11b6020808301919091528451808601909552600d85526c383937bb34b232b22330b9329d60991b9085015294965092945092612fe591849084613dc3565b818114613023578181111561300a5781810361300386826000613e0c565b5050613023565b604051635014298b60e11b815260040160405180910390fd5b505094509492505050565b6005546001600160a01b031633811461305a57604051635bd25eff60e01b815260040160405180910390fd5b600254600119600160a01b90910460ff1601613089576040516376a9ad7360e01b815260040160405180910390fd5b81613095576001613098565b60035b6002805460ff92909216600160a01b0260ff60a01b1990921691909117905560405182151581527f878ac8a2ca79520471f8f3c8494fa802c03ce3bf034252aad7f22318984fdbdb90602001611a23565b6130f161401e565b60408051808201909152600080825260208201526131108585856131ea565b5090969095509350505050565b6007546001600160a01b031633811461314957604051635bd25eff60e01b815260040160405180910390fd5b81600260158282829054906101000a90046001600160401b031661316d9190614c5f565b92506101000a8154816001600160401b0302191690836001600160401b031602179055506131a38361319e84613371565b613bcd565b604080516001600160a01b03851681526001600160401b03841660208201527fa46907b6b80b882da80d6e36cc905dde57fafff0a5442c8898526fe952d1e6539101611705565b6131f261401e565b6040805180820190915260008082526020820152604080518082019091526000815260606020820152600254600160a01b900460ff1660011461325e57600254600119600160a01b90910460ff1601610bcb576040516376a9ad7360e01b815260040160405180910390fd5b6002805460ff60a01b1916600160a11b1790556000808061327e8961339f565b925092509250604051806040016040528061329884613371565b81526020016132a683613371565b9052945060006132c56132be368b90038b018b614f3f565b8751610ddd565b905083156132e0576132d98a82848b613a21565b96506132f2565b6132ec8a82848b612df2565b90975094505b865133907f85496b760a4b7f8d66384b9df21b381f5d1b1e79f229a47aaf4c232edc2fe59a61332460208e018e61454f565b89516020808c01516040805163ffffffff90951685529184019290925282015260600160405180910390a350506002805460ff60a01b1916600160a01b1790555092969195509350915050565b6001600160401b03167f00000000000000000000000000000000000000000000000000000000000000000290565b600080806133b3610a8260c0860186614bfc565b92506133c333856040013561226c565b915060006133de6133d7602087018761454f565b848661347c565b90506133f1816106a98760600135612725565b915061340882600860006124c560208a018a61454f565b6134118261384d565b6040805185151581526001600160401b03858116602083015284168183015290517faf253ae740b91d82cc9ab31a875d58fe375eaabca0def3165ddb83904af9b7059181900360600190a1509193909250565b600a54600090612267906001600160401b0316613371565b6040805160c081018252600080825260208201819052918101829052606081018290526080810182905260a0810191909152600a546000906134d0906001600160401b03600160801b820481169116614e67565b600a549091506000906001600160401b03600160401b9091048116908316116134fa576000613517565b600a5461351790600160401b90046001600160401b031683614c5f565b6040805160c08101825233815263ffffffff891660208083018290526001600160401b038a811684860152948516606084015260009182526008905291909120548216909114608082015284151560a0820152925050505b9392505050565b61357e61378c565b6001600160a01b0381166135ad57604051631e4fbdf760e01b8152600060048201526024015b60405180910390fd5b6135b6816138e2565b50565b82546000906001600160401b031667fffffffffffffffe1981016135f057604051632d2e64a360e11b815260040160405180910390fd5b806001600160401b0316836001600160401b03161015612b77578281036001600160401b03808216908616116136265784613628565b805b86546001600160401b038285031667ffffffffffffffff19909116178755925050509392505050565b60006001600160ff1b0382111561367e5760405163123baf0360e11b8152600481018390526024016135a4565b5090565b60025460009081906001600160401b03600160a81b90910481169084168110156136b4578385038101925090506136bc565b848492509250505b9250929050565b6060848484846040516020016136dc94939291906151fa565b6040516020818303038152906040529050949350505050565b600061356f7f00000000000000000000000000000000000000000000000000000000000000008484613e33565b80600a60088282829054906101000a90046001600160401b03166137469190614c5f565b92506101000a8154816001600160401b0302191690836001600160401b0316021790555050565b34156135b657604051633442dd9560e01b815260040160405180910390fd5b6000546001600160a01b031633146122bf5760405163118cdaa760e01b81523360048201526024016135a4565b81546001600160401b0316811561380f576001600160401b038116156137f257604051631945787360e31b815260040160405180910390fd5b825467ffffffffffffffff19166001600160401b03178355505050565b6001600160401b038181161461383857604051631945787360e31b815260040160405180910390fd5b825467ffffffffffffffff191683555b505050565b63ffffffff7f00000000000000000000000000000000000000000000000000000000000000008116600090815260086020526040902061388f9183906139a316565b80600a60088282829054906101000a90046001600160401b03166137469190614e67565b6138bf84848484613e99565b6138dc57604051633e3ae1e960e11b815260040160405180910390fd5b50505050565b600080546001600160a01b038381166001600160a01b0319831681178455604051919092169283917f8be0079c531659141344cd1fd0a4f28419497f9722a3daafe3b4186f6b6457e09190a35050565b81546001600160401b031667fffffffffffffffe19810161395257505050565b816001600160401b0316816001600160401b0316101561398557604051632b4d0ad560e01b815260040160405180910390fd5b825467ffffffffffffffff19169190036001600160401b0316179055565b81546001600160401b031667fffffffffffffffe1981016139c357505050565b6139cd8282614e67565b905067fffffffffffffffe196001600160401b03821601613a0157604051632d2e64a360e11b815260040160405180910390fd5b825467ffffffffffffffff19166001600160401b03919091161790915550565b613a2961401e565b602084015115613a4057613a408460200151613ed4565b60065484516040805160c081019091523381526001600160a01b039092169163ff6fb3009190602080820190613a78908b018b61454f565b63ffffffff16815260208a810135908201526001600160401b0388166040820152606001613aa960a08b018b614bfc565b8080601f016020809104026020016040519081016040528093929190818152602001838380828437600092019190915250505090825250602001613af060808b018b614bfc565b8080601f01602080910402602001604051908101604052809392919081815260200183838082843760009201919091525050509152506040516001600160e01b031960e085901b168152613b4b919089908890600401615249565b60806040518083038185885af1158015613b69573d6000803e3d6000fd5b50505050506040513d601f19601f82011682018060405250810190613b8e919061528e565b95945050505050565b60006001600160401b0382111561367e57604080516306dfcc6560e41b81526004810191909152602481018390526044016135a4565b6000613bd983836136f5565b905080613848576040516303530b3f60e11b815260040160405180910390fd5b6040516370a0823160e01b81523060048201526000907f00000000000000000000000000000000000000000000000000000000000000006001600160a01b0316906370a0823190602401602060405180830381865afa158015613c60573d6000803e3d6000fd5b505050506040513d601f19601f820116820180604052508101906122679190614f26565b600254600090600160a01b900460ff16600114613cca57600254600119600160a01b90910460ff1601610bcb576040516376a9ad7360e01b815260040160405180910390fd5b6002805460ff60a01b1916600160a11b1790556007546001600160a01b0316338114613d0957604051635bd25eff60e01b815260040160405180910390fd5b6001600160a01b038516613d305760405163809fc44b60e01b815260040160405180910390fd5b613d3d8585856000613f2e565b50506002805460ff60a01b1916600160a01b17905592915050565b613d63838383613e0c565b61384857604051633e3ae1e960e11b815260040160405180910390fd5b6135b681604051602401613d9491906152aa565b60408051601f198184030181529190526020810180516001600160e01b031663104c13eb60e21b179052613f3a565b6138dc84848484604051602401613ddd94939291906152bd565b60408051601f198184030181529190526020810180516001600160e01b031663c67ea9d160e01b179052613f3a565b60008082613e1a575a613e1e565b6001545b9050600080600080878986f195945050505050565b6040516001600160a01b03831660248201526044810182905260009061137690859063a9059cbb60e01b906064015b60408051601f198184030181529190526020810180516001600160e01b03166001600160e01b031990931692909217909152613f43565b6040516001600160a01b0380851660248301528316604482015260648101829052600090613b8e9086906323b872dd60e01b90608401613e62565b6004546001600160a01b031680613efe5760405163b5e0bf8d60e01b815260040160405180910390fd5b613f2a81337f0000000000000000000000000000000000000000000000000000000000000000856138b3565b5050565b6138bf84848484613fd0565b6135b681613ffd565b6000806000846001600160a01b031684604051613f6091906152fa565b6000604051808303816000865af19150503d8060008114613f9d576040519150601f19603f3d011682016040523d82523d6000602084013e613fa2565b606091505b509150915081613fb3576000613b8e565b80511580613b8e575080806020019051810190613b8e9190615316565b60006001600160a01b038516613ff257613feb848484613e0c565b9050611376565b613b8e858585613e33565b60006a636f6e736f6c652e6c6f679050600080835160208501845afa505050565b60405180606001604052806000801916815260200160006001600160401b03168152602001614060604051806040016040528060008152602001600081525090565b905290565b803563ffffffff8116811461407957600080fd5b919050565b60008060006040848603121561409357600080fd5b61409c84614065565b925060208401356001600160401b038111156140b757600080fd5b8401601f810186136140c857600080fd5b80356001600160401b038111156140de57600080fd5b8660206060830284010111156140f357600080fd5b939660209190910195509293505050565b600081518084526020840193506020830160005b82811015614151578151805163ffffffff1687526020908101516001600160401b03168188015260409096019590910190600101614118565b5093949350505050565b60208152600061356f6020830184614104565b634e487b7160e01b600052604160045260246000fd5b604080519081016001600160401b03811182821017156141a6576141a661416e565b60405290565b60405160c081016001600160401b03811182821017156141a6576141a661416e565b604051601f8201601f191681016001600160401b03811182821017156141f6576141f661416e565b604052919050565b60006040828403121561421057600080fd5b614218614184565b823581526020928301359281019290925250919050565b6000806060838503121561424257600080fd5b61424c84846141fe565b946040939093013593505050565b815181526020808301519082015260408101610e15565b600060e0828403121561206357600080fd5b60006020828403121561429557600080fd5b81356001600160401b038111156142ab57600080fd5b61137684828501614271565b60005b838110156142d25781810151838201526020016142ba565b50506000910152565b600081518084526142f38160208601602086016142b7565b601f01601f19169290920160200192915050565b8351815260208085015190820152600060a0820160a0604084015280855180835260c08501915060c08160051b86010192506020870160005b828110156143885760bf19878603018452815180518652602081015190506040602087015261437260408701826142db565b9550506020938401939190910190600101614340565b5050855160608601525050602084015160808401529050611376565b6000602082840312156143b657600080fd5b5035919050565b60208101600283106143df57634e487b7160e01b600052602160045260246000fd5b91905290565b80151581146135b657600080fd5b6000806040838503121561440657600080fd5b82356001600160401b0381111561441c57600080fd5b61442885828601614271565b9250506020830135614439816143e5565b809150509250929050565b60006060828403121561206357600080fd5b80356001600160a01b038116811461407957600080fd5b6001600160401b03811681146135b657600080fd5b80356140798161446d565b60008083601f84011261449f57600080fd5b5081356001600160401b038111156144b657600080fd5b6020830191508360208285010111156136bc57600080fd5b60008060008060008060e087890312156144e757600080fd5b6144f18888614444565b95506060870135945061450660808801614456565b935060a08701356145168161446d565b925060c08701356001600160401b0381111561453157600080fd5b61453d89828a0161448d565b979a9699509497509295939492505050565b60006020828403121561456157600080fd5b61356f82614065565b6000806040838503121561457d57600080fd5b61458683614065565b91506020830135614439816143e5565b803560ff8116811461407957600080fd5b600080600080600060e086880312156145bf57600080fd5b6145c98787614444565b9450606086013593506145de60808701614596565b92506145ec60a08701614456565b915060c08601356145fc8161446d565b809150509295509295909350565b600060c082840312801561461d57600080fd5b509092915050565b6000806040838503121561463857600080fd5b61464183614456565b946020939093013593505050565b60006020828403121561466157600080fd5b61356f82614456565b60008082840360e081121561467e57600080fd5b60c081121561468c57600080fd5b506146956141ac565b61469e84614456565b81526146ac60208501614065565b602082015260408401356146bf8161446d565b604082015260608401356146d28161446d565b606082015260808401356146e5816143e5565b608082015260a08401356146f8816143e5565b60a0820152915061470b60c08401614482565b90509250929050565b6000806000838503608081121561472a57600080fd5b84356001600160401b0381111561474057600080fd5b61474c87828801614271565b9450506040601f198201121561476157600080fd5b5060208401915061477460608501614456565b90509250925092565b805182526001600160401b0360208201511660208301526040810151613848604084018280518252602090810151910152565b60c081016147be828561477d565b82516080830152602083015160a083015261356f565b600080604083850312156147e757600080fd5b8235915061470b60208401614456565b60008060006040848603121561480c57600080fd5b61481584614065565b925060208401356001600160401b0381111561483057600080fd5b8401601f8101861361484157600080fd5b80356001600160401b0381111561485757600080fd5b8660208260061b84010111156140f357600080fd5b60008060006060848603121561488157600080fd5b61488a84614456565b925061489860208501614456565b929592945050506040919091013590565b600080600080600080600060c0888a0312156148c457600080fd5b873596506148d460208901614596565b95506148e260408901614065565b94506148f060608901614456565b93506080880135925060a08801356001600160401b0381111561491257600080fd5b61491e8a828b0161448d565b989b979a50959850939692959293505050565b60008060008060a0858703121561494757600080fd5b84356001600160401b0381111561495d57600080fd5b61496987828801614271565b94505061497986602087016141fe565b925060608501356149898161446d565b915061499760808601614456565b905092959194509250565b68ffffffffffffffffff8151168252600060208201516040602085015261137660408501826142db565b6149d6818461477d565b60a06080820152600061137660a08301846149a2565b6000602082840312156149fe57600080fd5b813561356f816143e5565b60008060408385031215614a1c57600080fd5b614a2583614456565b915060208301356144398161446d565b614a3f818561477d565b82516080820152602083015160a082015260e060c08201526000613b8e60e08301846149a2565b60008060408385031215614a7957600080fd5b8235915061470b60208401614596565b60008060208385031215614a9c57600080fd5b82356001600160401b03811115614ab257600080fd5b614abe8582860161448d565b90969095509350505050565b600060208284031215614adc57600080fd5b813561356f8161446d565b600080600060608486031215614afc57600080fd5b614b0584614065565b92506020840135614b158161446d565b91506040840135614b25816143e5565b809150509250925092565b600060c08201905060018060a01b03835116825263ffffffff60208401511660208301526001600160401b0360408401511660408301526001600160401b03606084015116606083015260808301511515608083015260a0830151151560a083015292915050565b634e487b7160e01b600052603260045260246000fd5b634e487b7160e01b600052601160045260246000fd5b600060018201614bd657614bd6614bae565b5060010190565b63ffffffff831681526040602082015260006113766040830184614104565b6000808335601e19843603018112614c1357600080fd5b8301803591506001600160401b03821115614c2d57600080fd5b6020019150368190038213156136bc57600080fd5b600060208284031215614c5457600080fd5b815161356f8161446d565b6001600160401b038281168282160390811115610e1557610e15614bae565b80820260008212600160ff1b84141615614c9a57614c9a614bae565b8181058314821517610e1557610e15614bae565b60018060a01b03815116825263ffffffff6020820151166020830152604081015160408301526001600160401b0360608201511660608301526000608082015160c06080850152614d0260c08501826142db565b905060a083015184820360a0860152613b8e82826142db565b604081526000614d2e6040830185614cae565b905082151560208301529392505050565b600060408284031215614d5157600080fd5b614d59614184565b825181526020928301519281019290925250919050565b600060408284031215614d8257600080fd5b61356f8383614d3f565b60018060a01b038516815283602082015261ffff83166040820152608060608201526000614dbd60808301846142db565b9695505050505050565b63ffffffff60e01b8560e01b1681526bffffffffffffffffffffffff198460601b16600482015282601882015260008251614e098160388501602087016142b7565b9190910160380195945050505050565b86815260ff8616602082015263ffffffff8516604082015260018060a01b038416606082015282608082015260c060a08201526000614e5b60c08301846142db565b98975050505050505050565b6001600160401b038181168382160190811115610e1557610e15614bae565b60c081016001600160a01b03614e9b84614456565b1682526001600160a01b03614eb260208501614456565b1660208301526001600160a01b03614ecc60408501614456565b1660408301526001600160a01b03614ee660608501614456565b1660608301526001600160a01b03614f0060808501614456565b1660808301526001600160a01b03614f1a60a08501614456565b1660a083015292915050565b600060208284031215614f3857600080fd5b5051919050565b600060408284031215614f5157600080fd5b61356f83836141fe565b634e487b7160e01b600052601260045260246000fd5b63ffffffff84168152604060208201819052810182905260008360608301825b85811015614fd85763ffffffff614fa784614065565b1682526020830135614fb88161446d565b6001600160401b0316602083015260409283019290910190600101614f91565b509695505050505050565b81810381811115610e1557610e15614bae565b63ffffffff60e01b8660e01b1681526bffffffffffffffffffffffff198560601b1660048201528360188201528183603883013760009101603801908152949350505050565b6001600160a01b03861681526020810185905261ffff841660408201526080606082018190528101829052818360a0830137600081830160a090810191909152601f909201601f19160101949350505050565b6000608082840312156150a157600080fd5b604051606081016001600160401b03811182821017156150c3576150c361416e565b80604052508091508251815260208301516150dd8161446d565b60208201526150ef8460408501614d3f565b60408201525092915050565b60008060a0838503121561510e57600080fd5b615118848461508f565b915060808301516001600160401b0381111561513357600080fd5b83016040818603121561514557600080fd5b61514d614184565b815168ffffffffffffffffff8116811461516657600080fd5b815260208201516001600160401b0381111561518157600080fd5b80830192505085601f83011261519657600080fd5b81516001600160401b038111156151af576151af61416e565b6151c2601f8201601f19166020016141ce565b8181528760208386010111156151d757600080fd5b6151e88260208301602087016142b7565b60208301525092959294509192505050565b6001600160401b0360c01b8560c01b16815263ffffffff60e01b8460e01b16600882015282600c8201526000825161523981602c8501602087016142b7565b91909101602c0195945050505050565b60808152600061525c6080830186614cae565b9050615275602083018580518252602090810151910152565b6001600160a01b03929092166060919091015292915050565b6000608082840312156152a057600080fd5b61356f838361508f565b60208152600061356f60208301846142db565b6080815260006152d060808301876142db565b85602084015282810360408401526152e881866142db565b91505082606083015295945050505050565b6000825161530c8184602087016142b7565b9190910192915050565b60006020828403121561532857600080fd5b815161356f816143e556fea2646970667358221220615ff1e0f9e72a480da9b14dd425015f6492d7857d096befe1d600c32a82128364736f6c634300081c00336101a060405234801561001157600080fd5b506040516115d63803806115d68339810160408190526100309161026e565b6040805180820190915260018152603160f81b6020820152839081908185600361005a838261037a565b506004610067828261037a565b5061007791508390506005610131565b61012052610086816006610131565b61014052815160208084019190912060e052815190820120610100524660a05261011360e05161010051604080517f8b73c3c69bb8fe3d512ecc4cf759cc79239f7b179b0ffacaa9a75d522b39400f60208201529081019290925260608201524660808201523060a082015260009060c00160405160208183030381529060405280519060200120905090565b60805250503060c05250336101605260ff16610180525061048f9050565b600060208351101561014d5761014683610164565b905061015e565b81610158848261037a565b5060ff90505b92915050565b600080829050601f81511115610198578260405163305a27a960e01b815260040161018f9190610438565b60405180910390fd5b80516101a38261046b565b179392505050565b634e487b7160e01b600052604160045260246000fd5b60005b838110156101dc5781810151838201526020016101c4565b50506000910152565b600082601f8301126101f657600080fd5b81516001600160401b0381111561020f5761020f6101ab565b604051601f8201601f19908116603f011681016001600160401b038111828210171561023d5761023d6101ab565b60405281815283820160200185101561025557600080fd5b6102668260208301602087016101c1565b949350505050565b60008060006060848603121561028357600080fd5b83516001600160401b0381111561029957600080fd5b6102a5868287016101e5565b602086015190945090506001600160401b038111156102c357600080fd5b6102cf868287016101e5565b925050604084015160ff811681146102e657600080fd5b809150509250925092565b600181811c9082168061030557607f821691505b60208210810361032557634e487b7160e01b600052602260045260246000fd5b50919050565b601f82111561037557806000526020600020601f840160051c810160208510156103525750805b601f840160051c820191505b81811015610372576000815560010161035e565b50505b505050565b81516001600160401b03811115610393576103936101ab565b6103a7816103a184546102f1565b8461032b565b6020601f8211600181146103db57600083156103c35750848201515b600019600385901b1c1916600184901b178455610372565b600084815260208120601f198516915b8281101561040b57878501518255602094850194600190920191016103eb565b50848210156104295786840151600019600387901b60f8161c191681555b50505050600190811b01905550565b60208152600082518060208401526104578160408501602087016101c1565b601f01601f19169190910160400192915050565b805160208083015191908110156103255760001960209190910360031b1b16919050565b60805160a05160c05160e05161010051610120516101405161016051610180516110c961050d60003960006101720152600081816101be015281816103b3015261040a015260006108cc0152600061089f015260006107db015260006107b30152600061070e015260006107380152600061076201526110c96000f3fe608060405234801561001057600080fd5b50600436106101005760003560e01c806370a082311161009757806395d89b411161006657806395d89b4114610262578063a9059cbb1461026a578063d505accf1461027d578063dd62ed3e1461029057600080fd5b806370a08231146101f857806379cc6790146102215780637ecebe001461023457806384b0196e1461024757600080fd5b8063313ce567116100d3578063313ce5671461016b5780633644e5151461019c57806340c10f19146101a45780636c099dee146101b957600080fd5b806306fdde0314610105578063095ea7b31461012357806318160ddd1461014657806323b872dd14610158575b600080fd5b61010d6102c9565b60405161011a9190610e2c565b60405180910390f35b610136610131366004610e62565b61035b565b604051901515815260200161011a565b6002545b60405190815260200161011a565b610136610166366004610e8c565b610375565b60405160ff7f000000000000000000000000000000000000000000000000000000000000000016815260200161011a565b61014a610399565b6101b76101b2366004610e62565b6103a8565b005b6101e07f000000000000000000000000000000000000000000000000000000000000000081565b6040516001600160a01b03909116815260200161011a565b61014a610206366004610ec9565b6001600160a01b031660009081526020819052604090205490565b6101b761022f366004610e62565b6103ff565b61014a610242366004610ec9565b610452565b61024f610470565b60405161011a9796959493929190610ee4565b61010d6104b6565b610136610278366004610e62565b6104c5565b6101b761028b366004610f7c565b6104d3565b61014a61029e366004610fef565b6001600160a01b03918216600090815260016020908152604080832093909416825291909152205490565b6060600380546102d890611022565b80601f016020809104026020016040519081016040528092919081815260200182805461030490611022565b80156103515780601f1061032657610100808354040283529160200191610351565b820191906000526020600020905b81548152906001019060200180831161033457829003601f168201915b5050505050905090565b600033610369818585610612565b60019150505b92915050565b600033610383858285610624565b61038e8585856106a2565b506001949350505050565b60006103a3610701565b905090565b336001600160a01b037f000000000000000000000000000000000000000000000000000000000000000016146103f15760405163ba06efeb60e01b815260040160405180910390fd5b6103fb828261082c565b5050565b336001600160a01b037f000000000000000000000000000000000000000000000000000000000000000016146104485760405163ba06efeb60e01b815260040160405180910390fd5b6103fb8282610862565b6001600160a01b03811660009081526007602052604081205461036f565b600060608060008060006060610484610898565b61048c6108c5565b60408051600080825260208201909252600f60f81b9b939a50919850469750309650945092509050565b6060600480546102d890611022565b6000336103698185856106a2565b834211156104fc5760405163313c898160e11b8152600481018590526024015b60405180910390fd5b60007f6e71edae12b1b97f4d1f60370fef10105fa2faae0126114a169c64845d6126c98888886105498c6001600160a01b0316600090815260076020526040902080546001810190915590565b6040805160208101969096526001600160a01b0394851690860152929091166060840152608083015260a082015260c0810186905260e00160405160208183030381529060405280519060200120905060006105a4826108f2565b905060006105b48287878761091f565b9050896001600160a01b0316816001600160a01b0316146105fb576040516325c0072360e11b81526001600160a01b0380831660048301528b1660248201526044016104f3565b6106068a8a8a610612565b50505050505050505050565b61061f838383600161094d565b505050565b6001600160a01b03838116600090815260016020908152604080832093861683529290522054600019811461069c578181101561068d57604051637dc7a0d960e11b81526001600160a01b038416600482015260248101829052604481018390526064016104f3565b61069c8484848403600061094d565b50505050565b6001600160a01b0383166106cc57604051634b637e8f60e11b8152600060048201526024016104f3565b6001600160a01b0382166106f65760405163ec442f0560e01b8152600060048201526024016104f3565b61061f838383610a22565b6000306001600160a01b037f00000000000000000000000000000000000000000000000000000000000000001614801561075a57507f000000000000000000000000000000000000000000000000000000000000000046145b1561078457507f000000000000000000000000000000000000000000000000000000000000000090565b6103a3604080517f8b73c3c69bb8fe3d512ecc4cf759cc79239f7b179b0ffacaa9a75d522b39400f60208201527f0000000000000000000000000000000000000000000000000000000000000000918101919091527f000000000000000000000000000000000000000000000000000000000000000060608201524660808201523060a082015260009060c00160405160208183030381529060405280519060200120905090565b6001600160a01b0382166108565760405163ec442f0560e01b8152600060048201526024016104f3565b6103fb60008383610a22565b6001600160a01b03821661088c57604051634b637e8f60e11b8152600060048201526024016104f3565b6103fb82600083610a22565b60606103a37f00000000000000000000000000000000000000000000000000000000000000006005610b4c565b60606103a37f00000000000000000000000000000000000000000000000000000000000000006006610b4c565b600061036f6108ff610701565b8360405161190160f01b8152600281019290925260228201526042902090565b60008060008061093188888888610bf7565b9250925092506109418282610cc6565b50909695505050505050565b6001600160a01b0384166109775760405163e602df0560e01b8152600060048201526024016104f3565b6001600160a01b0383166109a157604051634a1406b160e11b8152600060048201526024016104f3565b6001600160a01b038085166000908152600160209081526040808320938716835292905220829055801561069c57826001600160a01b0316846001600160a01b03167f8c5be1e5ebec7d5bd14f71427d1e84f3dd0314c0f7b2291e5b200ac8c7c3b92584604051610a1491815260200190565b60405180910390a350505050565b6001600160a01b038316610a4d578060026000828254610a42919061105c565b90915550610abf9050565b6001600160a01b03831660009081526020819052604090205481811015610aa05760405163391434e360e21b81526001600160a01b038516600482015260248101829052604481018390526064016104f3565b6001600160a01b03841660009081526020819052604090209082900390555b6001600160a01b038216610adb57600280548290039055610afa565b6001600160a01b03821660009081526020819052604090208054820190555b816001600160a01b0316836001600160a01b03167fddf252ad1be2c89b69c2b068fc378daa952ba7f163c4a11628f55a4df523b3ef83604051610b3f91815260200190565b60405180910390a3505050565b606060ff8314610b6657610b5f83610d7f565b905061036f565b818054610b7290611022565b80601f0160208091040260200160405190810160405280929190818152602001828054610b9e90611022565b8015610beb5780601f10610bc057610100808354040283529160200191610beb565b820191906000526020600020905b815481529060010190602001808311610bce57829003601f168201915b5050505050905061036f565b600080807f7fffffffffffffffffffffffffffffff5d576e7357a4501ddfe92f46681b20a0841115610c325750600091506003905082610cbc565b604080516000808252602082018084528a905260ff891692820192909252606081018790526080810186905260019060a0016020604051602081039080840390855afa158015610c86573d6000803e3d6000fd5b5050604051601f1901519150506001600160a01b038116610cb257506000925060019150829050610cbc565b9250600091508190505b9450945094915050565b6000826003811115610cda57610cda61107d565b03610ce3575050565b6001826003811115610cf757610cf761107d565b03610d155760405163f645eedf60e01b815260040160405180910390fd5b6002826003811115610d2957610d2961107d565b03610d4a5760405163fce698f760e01b8152600481018290526024016104f3565b6003826003811115610d5e57610d5e61107d565b036103fb576040516335e2f38360e21b8152600481018290526024016104f3565b60606000610d8c83610dbe565b604080516020808252818301909252919250600091906020820181803683375050509182525060208101929092525090565b600060ff8216601f81111561036f57604051632cd44ac360e21b815260040160405180910390fd5b6000815180845260005b81811015610e0c57602081850181015186830182015201610df0565b506000602082860101526020601f19601f83011685010191505092915050565b602081526000610e3f6020830184610de6565b9392505050565b80356001600160a01b0381168114610e5d57600080fd5b919050565b60008060408385031215610e7557600080fd5b610e7e83610e46565b946020939093013593505050565b600080600060608486031215610ea157600080fd5b610eaa84610e46565b9250610eb860208501610e46565b929592945050506040919091013590565b600060208284031215610edb57600080fd5b610e3f82610e46565b60ff60f81b8816815260e060208201526000610f0360e0830189610de6565b8281036040840152610f158189610de6565b606084018890526001600160a01b038716608085015260a0840186905283810360c08501528451808252602080870193509091019060005b81811015610f6b578351835260209384019390920191600101610f4d565b50909b9a5050505050505050505050565b600080600080600080600060e0888a031215610f9757600080fd5b610fa088610e46565b9650610fae60208901610e46565b95506040880135945060608801359350608088013560ff81168114610fd257600080fd5b9699959850939692959460a0840135945060c09093013592915050565b6000806040838503121561100257600080fd5b61100b83610e46565b915061101960208401610e46565b90509250929050565b600181811c9082168061103657607f821691505b60208210810361105657634e487b7160e01b600052602260045260246000fd5b50919050565b8082018082111561036f57634e487b7160e01b600052601160045260246000fd5b634e487b7160e01b600052602160045260246000fdfea26469706673582212205ce3c61f8a1c8f3b5ad8f2ee0bf03daea088ac65e95726526e56f3b8588a2c4164736f6c634300081c0033",
  "linkReferences": {},
  "deployedLinkReferences": {}
}