{
  "_format": "hh-sol-artifact-1",
  "contractName": "EndpointV2View",
  "sourceName": "contracts/EndpointV2View.sol",
  "abi": [
    {
      "inputs": [],
      "name": "InvalidInitialization",
      "type": "error"
    },
    {
      "inputs": [],
      "name": "NotInitializing",
      "type": "error"
    },
    {
      "anonymous": false,
      "inputs": [
        {
          "indexed": false,
          "internalType": "uint64",
          "name": "version",
          "type": "uint64"
        }
      ],
      "name": "Initialized",
      "type": "event"
    },
    {
      "inputs": [],
      "name": "EMPTY_PAYLOAD_HASH",
      "outputs": [
        {
          "internalType": "bytes32",
          "name": "",
          "type": "bytes32"
        }
      ],
      "stateMutability": "view",
      "type": "function"
    },
    {
      "inputs": [],
      "name": "NIL_PAYLOAD_HASH",
      "outputs": [
        {
          "internalType": "bytes32",
          "name": "",
          "type": "bytes32"
        }
      ],
      "stateMutability": "view",
      "type": "function"
    },
    {
      "inputs": [],
      "name": "endpoint",
      "outputs": [
        {
          "internalType": "contract ILayerZeroEndpointV2",
          "name": "",
          "type": "address"
        }
      ],
      "stateMutability": "view",
      "type": "function"
    },
    {
      "inputs": [
        {
          "components": [
            {
              "internalType": "uint32",
              "name": "srcEid",
              "type": "uint32"
            },
            {
              "internalType": "bytes32",
              "name": "sender",
              "type": "bytes32"
            },
            {
              "internalType": "uint64",
              "name": "nonce",
              "type": "uint64"
            }
          ],
          "internalType": "struct Origin",
          "name": "_origin",
          "type": "tuple"
        },
        {
          "internalType": "address",
          "name": "_receiver",
          "type": "address"
        }
      ],
      "name": "executable",
      "outputs": [
        {
          "internalType": "enum ExecutionState",
          "name": "",
          "type": "uint8"
        }
      ],
      "stateMutability": "view",
      "type": "function"
    },
    {
      "inputs": [
        {
          "components": [
            {
              "internalType": "uint32",
              "name": "srcEid",
              "type": "uint32"
            },
            {
              "internalType": "bytes32",
              "name": "sender",
              "type": "bytes32"
            },
            {
              "internalType": "uint64",
              "name": "nonce",
              "type": "uint64"
            }
          ],
          "internalType": "struct Origin",
          "name": "_origin",
          "type": "tuple"
        },
        {
          "internalType": "address",
          "name": "_receiver",
          "type": "address"
        }
      ],
      "name": "initializable",
      "outputs": [
        {
          "internalType": "bool",
          "name": "",
          "type": "bool"
        }
      ],
      "stateMutability": "view",
      "type": "function"
    },
    {
      "inputs": [
        {
          "internalType": "address",
          "name": "_endpoint",
          "type": "address"
        }
      ],
      "name": "initialize",
      "outputs": [],
      "stateMutability": "nonpayable",
      "type": "function"
    },
    {
      "inputs": [
        {
          "components": [
            {
              "internalType": "uint32",
              "name": "srcEid",
              "type": "uint32"
            },
            {
              "internalType": "bytes32",
              "name": "sender",
              "type": "bytes32"
            },
            {
              "internalType": "uint64",
              "name": "nonce",
              "type": "uint64"
            }
          ],
          "internalType": "struct Origin",
          "name": "_origin",
          "type": "tuple"
        },
        {
          "internalType": "address",
          "name": "_receiver",
          "type": "address"
        },
        {
          "internalType": "address",
          "name": "_receiveLib",
          "type": "address"
        },
        {
          "internalType": "bytes32",
          "name": "_payloadHash",
          "type": "bytes32"
        }
      ],
      "name": "verifiable",
      "outputs": [
        {
          "internalType": "bool",
          "name": "",
          "type": "bool"
        }
      ],
      "stateMutability": "view",
      "type": "function"
    }
  ],
  "bytecode": "0x6080604052348015600f57600080fd5b5061099f8061001f6000396000f3fe608060405234801561001057600080fd5b506004361061007d5760003560e01c8063861e1ca51161005b578063861e1ca5146100e9578063c4d66de81461010c578063cb5026b914610121578063e1e3a7df1461012957600080fd5b80632baf0be7146100825780634b4b2efb1461009e5780635e280f11146100be575b600080fd5b61008b60001981565b6040519081526020015b60405180910390f35b6100b16100ac366004610808565b61013c565b604051610095919061083c565b6000546100d1906001600160a01b031681565b6040516001600160a01b039091168152602001610095565b6100fc6100f7366004610808565b61038a565b6040519015158152602001610095565b61011f61011a366004610864565b610409565b005b61008b600081565b6100fc610137366004610886565b610598565b6000805483516020850151604080870151905163c9fc7bcd60e01b81526001600160a01b03878116600483015263ffffffff9094166024820152604481019290925267ffffffffffffffff1660648201528392919091169063c9fc7bcd90608401602060405180830381865afa1580156101ba573d6000803e3d6000fd5b505050506040513d601f19601f820116820180604052508101906101de91906108d2565b90508015801561028e5750600054845160208601516040516305b17bb760e41b81526001600160a01b03878116600483015263ffffffff90931660248201526044810191909152911690635b17bb7090606401602060405180830381865afa15801561024e573d6000803e3d6000fd5b505050506040513d601f19601f8201168201806040525081019061027291906108eb565b67ffffffffffffffff16846040015167ffffffffffffffff1611155b1561029d576003915050610384565b600019811480159061034f57506000548451602086015160405163283750ff60e21b81526001600160a01b03878116600483015263ffffffff9093166024820152604481019190915291169063a0dd43fc90606401602060405180830381865afa15801561030f573d6000803e3d6000fd5b505050506040513d601f19601f8201168201806040525081019061033391906108eb565b67ffffffffffffffff16846040015167ffffffffffffffff1611155b1561035e576002915050610384565b801580159061036f57506000198114155b1561037e576001915050610384565b60009150505b92915050565b6000805460405163861e1ca560e01b81526001600160a01b039091169063861e1ca5906103bd9086908690600401610908565b602060405180830381865afa9250505080156103f6575060408051601f3d908101601f191682019092526103f391810190610947565b60015b61040257506000610384565b9050610384565b60006104337fb53127684a568b3173ae13b9f8a6016e243e63b6e8ee1178d6a717850b5d61035490565b90506001600160a01b038116610472576001600160a01b037fb53127684a568b3173ae13b9f8a6016e243e63b6e8ee1178d6a717850b5d610355610487565b336001600160a01b0382161461048757600080fd5b7ff0c57e16840df040f15088dc2f81fe391c3923bec73e23a9662efc9c229c6a008054600160401b810460ff16159067ffffffffffffffff166000811580156104cd5750825b905060008267ffffffffffffffff1660011480156104ea5750303b155b9050811580156104f8575080155b156105165760405163f92ee8a960e01b815260040160405180910390fd5b845467ffffffffffffffff19166001178555831561054057845460ff60401b1916600160401b1785555b610549876106c1565b831561058f57845460ff60401b19168555604051600181527fc7f505b2f371ae2175ee4913f4499e1f2633a7b5936321eed1cdaeb6115181d29060200160405180910390a15b50505050505050565b600080548551604051639d7f977560e01b81526001600160a01b03878116600483015263ffffffff90921660248201528582166044820152911690639d7f977590606401602060405180830381865afa1580156105f9573d6000803e3d6000fd5b505050506040513d601f19601f8201168201806040525081019061061d9190610947565b610629575060006106b9565b60005460405163c9a54a9960e01b81526001600160a01b039091169063c9a54a999061065b9088908890600401610908565b602060405180830381865afa158015610678573d6000803e3d6000fd5b505050506040513d601f19601f8201168201806040525081019061069c9190610947565b6106a8575060006106b9565b816106b5575060006106b9565b5060015b949350505050565b6106c96106d5565b6106d281610720565b50565b7ff0c57e16840df040f15088dc2f81fe391c3923bec73e23a9662efc9c229c6a0054600160401b900460ff1661071e57604051631afcd79f60e31b815260040160405180910390fd5b565b6107286106d5565b600080546001600160a01b0319166001600160a01b0392909216919091179055565b67ffffffffffffffff811681146106d257600080fd5b803561076b8161074a565b919050565b60006060828403121561078257600080fd5b6040516060810181811067ffffffffffffffff821117156107b357634e487b7160e01b600052604160045260246000fd5b604052905080823563ffffffff811681146107cd57600080fd5b8152602083810135908201526107e560408401610760565b60408201525092915050565b80356001600160a01b038116811461076b57600080fd5b6000806080838503121561081b57600080fd5b6108258484610770565b9150610833606084016107f1565b90509250929050565b602081016004831061085e57634e487b7160e01b600052602160045260246000fd5b91905290565b60006020828403121561087657600080fd5b61087f826107f1565b9392505050565b60008060008060c0858703121561089c57600080fd5b6108a68686610770565b93506108b4606086016107f1565b92506108c2608086016107f1565b9396929550929360a00135925050565b6000602082840312156108e457600080fd5b5051919050565b6000602082840312156108fd57600080fd5b815161087f8161074a565b825163ffffffff1681526020808401519082015260409283015167ffffffffffffffff16928101929092526001600160a01b0316606082015260800190565b60006020828403121561095957600080fd5b8151801515811461087f57600080fdfea2646970667358221220f08b25c99abd53fb2c3181123cd13de7d8a74f282678055282d836fd95ad8b2664736f6c634300081c0033",
  "linkReferences": {},
  "deployedLinkReferences": {}
}