{
  "_format": "hh-sol-artifact-1",
  "contractName": "MockTokenMessaging",
  "sourceName": "contracts/MockTokenMessaging.sol",
  "abi": [
    {
      "inputs": [
        {
          "internalType": "address",
          "name": "_endpoint",
          "type": "address"
        },
        {
          "internalType": "address",
          "name": "_owner",
          "type": "address"
        },
        {
          "internalType": "uint16",
          "name": "_queueCapacity",
          "type": "uint16"
        }
      ],
      "stateMutability": "nonpayable",
      "type": "constructor"
    },
    {
      "inputs": [],
      "name": "BusCodec_InvalidBusBytesLength",
      "type": "error"
    },
    {
      "inputs": [],
      "name": "BusCodec_InvalidMessage",
      "type": "error"
    },
    {
      "inputs": [],
      "name": "BusCodec_InvalidPassengersBytesLength",
      "type": "error"
    },
    {
      "inputs": [
        {
          "internalType": "bool",
          "name": "nativeDrop",
          "type": "bool"
        }
      ],
      "name": "Bus_InvalidFare",
      "type": "error"
    },
    {
      "inputs": [
        {
          "internalType": "uint8",
          "name": "numPassengers",
          "type": "uint8"
        }
      ],
      "name": "Bus_InvalidNumPassengers",
      "type": "error"
    },
    {
      "inputs": [],
      "name": "Bus_InvalidPassenger",
      "type": "error"
    },
    {
      "inputs": [],
      "name": "Bus_QueueFull",
      "type": "error"
    },
    {
      "inputs": [],
      "name": "InvalidDelegate",
      "type": "error"
    },
    {
      "inputs": [],
      "name": "InvalidEndpointCall",
      "type": "error"
    },
    {
      "inputs": [
        {
          "internalType": "bytes",
          "name": "options",
          "type": "bytes"
        }
      ],
      "name": "InvalidOptions",
      "type": "error"
    },
    {
      "inputs": [],
      "name": "LzTokenUnavailable",
      "type": "error"
    },
    {
      "inputs": [],
      "name": "MessagingOptions_ZeroGasLimit",
      "type": "error"
    },
    {
      "inputs": [],
      "name": "Messaging_InvalidAssetId",
      "type": "error"
    },
    {
      "inputs": [],
      "name": "Messaging_InvalidEid",
      "type": "error"
    },
    {
      "inputs": [],
      "name": "Messaging_InvalidMsgValue",
      "type": "error"
    },
    {
      "inputs": [],
      "name": "Messaging_InvalidQueueCapacity",
      "type": "error"
    },
    {
      "inputs": [],
      "name": "Messaging_MaxNumPassengersExceedsQueueCapacity",
      "type": "error"
    },
    {
      "inputs": [],
      "name": "Messaging_NotEnoughPassengers",
      "type": "error"
    },
    {
      "inputs": [],
      "name": "Messaging_Unauthorized",
      "type": "error"
    },
    {
      "inputs": [],
      "name": "Messaging_Unavailable",
      "type": "error"
    },
    {
      "inputs": [
        {
          "internalType": "uint32",
          "name": "eid",
          "type": "uint32"
        }
      ],
      "name": "NoPeer",
      "type": "error"
    },
    {
      "inputs": [
        {
          "internalType": "uint256",
          "name": "msgValue",
          "type": "uint256"
        }
      ],
      "name": "NotEnoughNative",
      "type": "error"
    },
    {
      "inputs": [
        {
          "internalType": "address",
          "name": "addr",
          "type": "address"
        }
      ],
      "name": "OnlyEndpoint",
      "type": "error"
    },
    {
      "inputs": [
        {
          "internalType": "uint32",
          "name": "eid",
          "type": "uint32"
        },
        {
          "internalType": "bytes32",
          "name": "sender",
          "type": "bytes32"
        }
      ],
      "name": "OnlyPeer",
      "type": "error"
    },
    {
      "inputs": [],
      "name": "OnlySelf",
      "type": "error"
    },
    {
      "inputs": [
        {
          "internalType": "address",
          "name": "owner",
          "type": "address"
        }
      ],
      "name": "OwnableInvalidOwner",
      "type": "error"
    },
    {
      "inputs": [
        {
          "internalType": "address",
          "name": "account",
          "type": "address"
        }
      ],
      "name": "OwnableUnauthorizedAccount",
      "type": "error"
    },
    {
      "inputs": [
        {
          "internalType": "uint8",
          "name": "bits",
          "type": "uint8"
        },
        {
          "internalType": "uint256",
          "name": "value",
          "type": "uint256"
        }
      ],
      "name": "SafeCastOverflowedUintDowncast",
      "type": "error"
    },
    {
      "inputs": [
        {
          "internalType": "bytes",
          "name": "result",
          "type": "bytes"
        }
      ],
      "name": "SimulationResult",
      "type": "error"
    },
    {
      "inputs": [],
      "name": "TaxiCodec_InvalidMessage",
      "type": "error"
    },
    {
      "inputs": [],
      "name": "Transfer_ApproveFailed",
      "type": "error"
    },
    {
      "inputs": [],
      "name": "Transfer_TransferFailed",
      "type": "error"
    },
    {
      "anonymous": false,
      "inputs": [
        {
          "indexed": false,
          "internalType": "address",
          "name": "stargateImpl",
          "type": "address"
        },
        {
          "indexed": false,
          "internalType": "uint16",
          "name": "assetId",
          "type": "uint16"
        }
      ],
      "name": "AssetIdSet",
      "type": "event"
    },
    {
      "anonymous": false,
      "inputs": [
        {
          "indexed": false,
          "internalType": "uint32",
          "name": "dstEid",
          "type": "uint32"
        },
        {
          "indexed": false,
          "internalType": "uint72",
          "name": "startTicketId",
          "type": "uint72"
        },
        {
          "indexed": false,
          "internalType": "uint8",
          "name": "numPassengers",
          "type": "uint8"
        },
        {
          "indexed": false,
          "internalType": "bytes32",
          "name": "guid",
          "type": "bytes32"
        }
      ],
      "name": "BusDriven",
      "type": "event"
    },
    {
      "anonymous": false,
      "inputs": [
        {
          "indexed": false,
          "internalType": "uint32",
          "name": "dstEid",
          "type": "uint32"
        },
        {
          "indexed": false,
          "internalType": "uint16",
          "name": "startSlot",
          "type": "uint16"
        },
        {
          "indexed": false,
          "internalType": "uint16",
          "name": "endSlot",
          "type": "uint16"
        }
      ],
      "name": "BusQueueStorageInitialized",
      "type": "event"
    },
    {
      "anonymous": false,
      "inputs": [
        {
          "indexed": false,
          "internalType": "uint32",
          "name": "dstEid",
          "type": "uint32"
        },
        {
          "indexed": false,
          "internalType": "uint72",
          "name": "ticketId",
          "type": "uint72"
        },
        {
          "indexed": false,
          "internalType": "uint80",
          "name": "fare",
          "type": "uint80"
        },
        {
          "indexed": false,
          "internalType": "bytes",
          "name": "passenger",
          "type": "bytes"
        }
      ],
      "name": "BusRode",
      "type": "event"
    },
    {
      "anonymous": false,
      "inputs": [
        {
          "components": [
            {
              "internalType": "uint32",
              "name": "eid",
              "type": "uint32"
            },
            {
              "internalType": "uint16",
              "name": "msgType",
              "type": "uint16"
            },
            {
              "internalType": "bytes",
              "name": "options",
              "type": "bytes"
            }
          ],
          "indexed": false,
          "internalType": "struct EnforcedOptionParam[]",
          "name": "_enforcedOptions",
          "type": "tuple[]"
        }
      ],
      "name": "EnforcedOptionSet",
      "type": "event"
    },
    {
      "anonymous": false,
      "inputs": [
        {
          "indexed": false,
          "internalType": "uint32",
          "name": "dstEid",
          "type": "uint32"
        },
        {
          "indexed": false,
          "internalType": "uint80",
          "name": "busFare",
          "type": "uint80"
        },
        {
          "indexed": false,
          "internalType": "uint80",
          "name": "busAndNativeDropFare",
          "type": "uint80"
        }
      ],
      "name": "FaresSet",
      "type": "event"
    },
    {
      "anonymous": false,
      "inputs": [
        {
          "indexed": false,
          "internalType": "uint32",
          "name": "eid",
          "type": "uint32"
        },
        {
          "indexed": false,
          "internalType": "uint128",
          "name": "gasLimit",
          "type": "uint128"
        },
        {
          "indexed": false,
          "internalType": "uint128",
          "name": "nativeDropGasLimit",
          "type": "uint128"
        }
      ],
      "name": "GasLimitSet",
      "type": "event"
    },
    {
      "anonymous": false,
      "inputs": [
        {
          "indexed": false,
          "internalType": "uint16",
          "name": "maxAssetId",
          "type": "uint16"
        }
      ],
      "name": "MaxAssetIdSet",
      "type": "event"
    },
    {
      "anonymous": false,
      "inputs": [
        {
          "indexed": false,
          "internalType": "uint32",
          "name": "dstEid",
          "type": "uint32"
        },
        {
          "indexed": false,
          "internalType": "uint8",
          "name": "maxNumPassengers",
          "type": "uint8"
        }
      ],
      "name": "MaxNumPassengersSet",
      "type": "event"
    },
    {
      "anonymous": false,
      "inputs": [
        {
          "indexed": false,
          "internalType": "uint32",
          "name": "dstEid",
          "type": "uint32"
        },
        {
          "indexed": false,
          "internalType": "uint128",
          "name": "nativeDropAmount",
          "type": "uint128"
        }
      ],
      "name": "NativeDropAmountSet",
      "type": "event"
    },
    {
      "anonymous": false,
      "inputs": [
        {
          "indexed": false,
          "internalType": "address",
          "name": "receiver",
          "type": "address"
        },
        {
          "indexed": false,
          "internalType": "uint128",
          "name": "amount",
          "type": "uint128"
        }
      ],
      "name": "NativeDropApplied",
      "type": "event"
    },
    {
      "anonymous": false,
      "inputs": [
        {
          "indexed": false,
          "internalType": "address",
          "name": "receiver",
          "type": "address"
        },
        {
          "indexed": false,
          "internalType": "uint128",
          "name": "amount",
          "type": "uint128"
        }
      ],
      "name": "NativeDropFailed",
      "type": "event"
    },
    {
      "anonymous": false,
      "inputs": [
        {
          "indexed": true,
          "internalType": "address",
          "name": "previousOwner",
          "type": "address"
        },
        {
          "indexed": true,
          "internalType": "address",
          "name": "newOwner",
          "type": "address"
        }
      ],
      "name": "OwnershipTransferred",
      "type": "event"
    },
    {
      "anonymous": false,
      "inputs": [
        {
          "indexed": false,
          "internalType": "uint32",
          "name": "eid",
          "type": "uint32"
        },
        {
          "indexed": false,
          "internalType": "bytes32",
          "name": "peer",
          "type": "bytes32"
        }
      ],
      "name": "PeerSet",
      "type": "event"
    },
    {
      "anonymous": false,
      "inputs": [
        {
          "indexed": false,
          "internalType": "address",
          "name": "planner",
          "type": "address"
        }
      ],
      "name": "PlannerSet",
      "type": "event"
    },
    {
      "anonymous": false,
      "inputs": [
        {
          "indexed": false,
          "internalType": "address",
          "name": "preCrimeAddress",
          "type": "address"
        }
      ],
      "name": "PreCrimeSet",
      "type": "event"
    },
    {
      "inputs": [],
      "name": "MSG_TYPE_BUS",
      "outputs": [
        {
          "internalType": "uint8",
          "name": "",
          "type": "uint8"
        }
      ],
      "stateMutability": "view",
      "type": "function"
    },
    {
      "inputs": [],
      "name": "MSG_TYPE_TAXI",
      "outputs": [
        {
          "internalType": "uint8",
          "name": "",
          "type": "uint8"
        }
      ],
      "stateMutability": "view",
      "type": "function"
    },
    {
      "inputs": [
        {
          "components": [
            {
              "internalType": "uint32",
              "name": "srcEid",
              "type": "uint32"
            },
            {
              "internalType": "bytes32",
              "name": "sender",
              "type": "bytes32"
            },
            {
              "internalType": "uint64",
              "name": "nonce",
              "type": "uint64"
            }
          ],
          "internalType": "struct Origin",
          "name": "origin",
          "type": "tuple"
        }
      ],
      "name": "allowInitializePath",
      "outputs": [
        {
          "internalType": "bool",
          "name": "",
          "type": "bool"
        }
      ],
      "stateMutability": "view",
      "type": "function"
    },
    {
      "inputs": [
        {
          "internalType": "address",
          "name": "stargateImpl",
          "type": "address"
        }
      ],
      "name": "assetIds",
      "outputs": [
        {
          "internalType": "uint16",
          "name": "assetId",
          "type": "uint16"
        }
      ],
      "stateMutability": "view",
      "type": "function"
    },
    {
      "inputs": [
        {
          "internalType": "uint32",
          "name": "dstEid",
          "type": "uint32"
        }
      ],
      "name": "busQueues",
      "outputs": [
        {
          "internalType": "uint8",
          "name": "maxNumPassengers",
          "type": "uint8"
        },
        {
          "internalType": "uint80",
          "name": "busFare",
          "type": "uint80"
        },
        {
          "internalType": "uint80",
          "name": "busAndNativeDropFare",
          "type": "uint80"
        },
        {
          "internalType": "uint16",
          "name": "qLength",
          "type": "uint16"
        },
        {
          "internalType": "uint72",
          "name": "nextTicketId",
          "type": "uint72"
        }
      ],
      "stateMutability": "view",
      "type": "function"
    },
    {
      "inputs": [
        {
          "internalType": "uint32",
          "name": "_eid",
          "type": "uint32"
        },
        {
          "internalType": "uint16",
          "name": "_msgType",
          "type": "uint16"
        },
        {
          "internalType": "bytes",
          "name": "_extraOptions",
          "type": "bytes"
        }
      ],
      "name": "combineOptions",
      "outputs": [
        {
          "internalType": "bytes",
          "name": "",
          "type": "bytes"
        }
      ],
      "stateMutability": "view",
      "type": "function"
    },
    {
      "inputs": [
        {
          "internalType": "uint32",
          "name": "_dstEid",
          "type": "uint32"
        },
        {
          "internalType": "bytes",
          "name": "_passengers",
          "type": "bytes"
        }
      ],
      "name": "driveBus",
      "outputs": [
        {
          "components": [
            {
              "internalType": "bytes32",
              "name": "guid",
              "type": "bytes32"
            },
            {
              "internalType": "uint64",
              "name": "nonce",
              "type": "uint64"
            },
            {
              "components": [
                {
                  "internalType": "uint256",
                  "name": "nativeFee",
                  "type": "uint256"
                },
                {
                  "internalType": "uint256",
                  "name": "lzTokenFee",
                  "type": "uint256"
                }
              ],
              "internalType": "struct MessagingFee",
              "name": "fee",
              "type": "tuple"
            }
          ],
          "internalType": "struct MessagingReceipt",
          "name": "receipt",
          "type": "tuple"
        }
      ],
      "stateMutability": "payable",
      "type": "function"
    },
    {
      "inputs": [],
      "name": "endpoint",
      "outputs": [
        {
          "internalType": "contract ILayerZeroEndpointV2",
          "name": "",
          "type": "address"
        }
      ],
      "stateMutability": "view",
      "type": "function"
    },
    {
      "inputs": [
        {
          "internalType": "uint32",
          "name": "eid",
          "type": "uint32"
        },
        {
          "internalType": "uint16",
          "name": "msgType",
          "type": "uint16"
        }
      ],
      "name": "enforcedOptions",
      "outputs": [
        {
          "internalType": "bytes",
          "name": "enforcedOption",
          "type": "bytes"
        }
      ],
      "stateMutability": "view",
      "type": "function"
    },
    {
      "inputs": [
        {
          "internalType": "uint32",
          "name": "eid",
          "type": "uint32"
        }
      ],
      "name": "gasLimits",
      "outputs": [
        {
          "internalType": "uint128",
          "name": "gasLimit",
          "type": "uint128"
        },
        {
          "internalType": "uint128",
          "name": "nativeDropGasLimit",
          "type": "uint128"
        }
      ],
      "stateMutability": "view",
      "type": "function"
    },
    {
      "inputs": [
        {
          "internalType": "uint32",
          "name": "_dstEid",
          "type": "uint32"
        },
        {
          "internalType": "uint16",
          "name": "_index",
          "type": "uint16"
        }
      ],
      "name": "getPassengerHash",
      "outputs": [
        {
          "internalType": "bytes32",
          "name": "hash",
          "type": "bytes32"
        }
      ],
      "stateMutability": "view",
      "type": "function"
    },
    {
      "inputs": [],
      "name": "getTransferGasLimit",
      "outputs": [
        {
          "internalType": "uint256",
          "name": "",
          "type": "uint256"
        }
      ],
      "stateMutability": "view",
      "type": "function"
    },
    {
      "inputs": [
        {
          "internalType": "uint32[]",
          "name": "_dstEids",
          "type": "uint32[]"
        },
        {
          "internalType": "uint16",
          "name": "_startSlot",
          "type": "uint16"
        },
        {
          "internalType": "uint16",
          "name": "_endSlot",
          "type": "uint16"
        }
      ],
      "name": "initializeBusQueueStorage",
      "outputs": [],
      "stateMutability": "nonpayable",
      "type": "function"
    },
    {
      "inputs": [
        {
          "components": [
            {
              "internalType": "uint32",
              "name": "srcEid",
              "type": "uint32"
            },
            {
              "internalType": "bytes32",
              "name": "sender",
              "type": "bytes32"
            },
            {
              "internalType": "uint64",
              "name": "nonce",
              "type": "uint64"
            }
          ],
          "internalType": "struct Origin",
          "name": "",
          "type": "tuple"
        },
        {
          "internalType": "bytes",
          "name": "_message",
          "type": "bytes"
        },
        {
          "internalType": "address",
          "name": "_sender",
          "type": "address"
        }
      ],
      "name": "isComposeMsgSender",
      "outputs": [
        {
          "internalType": "bool",
          "name": "",
          "type": "bool"
        }
      ],
      "stateMutability": "view",
      "type": "function"
    },
    {
      "inputs": [
        {
          "internalType": "uint32",
          "name": "_eid",
          "type": "uint32"
        },
        {
          "internalType": "bytes32",
          "name": "_peer",
          "type": "bytes32"
        }
      ],
      "name": "isPeer",
      "outputs": [
        {
          "internalType": "bool",
          "name": "",
          "type": "bool"
        }
      ],
      "stateMutability": "view",
      "type": "function"
    },
    {
      "inputs": [
        {
          "components": [
            {
              "internalType": "uint32",
              "name": "srcEid",
              "type": "uint32"
            },
            {
              "internalType": "bytes32",
              "name": "sender",
              "type": "bytes32"
            },
            {
              "internalType": "uint64",
              "name": "nonce",
              "type": "uint64"
            }
          ],
          "internalType": "struct Origin",
          "name": "_origin",
          "type": "tuple"
        },
        {
          "internalType": "bytes32",
          "name": "_guid",
          "type": "bytes32"
        },
        {
          "internalType": "bytes",
          "name": "_message",
          "type": "bytes"
        },
        {
          "internalType": "address",
          "name": "_executor",
          "type": "address"
        },
        {
          "internalType": "bytes",
          "name": "_extraData",
          "type": "bytes"
        }
      ],
      "name": "lzReceive",
      "outputs": [],
      "stateMutability": "payable",
      "type": "function"
    },
    {
      "inputs": [
        {
          "components": [
            {
              "components": [
                {
                  "internalType": "uint32",
                  "name": "srcEid",
                  "type": "uint32"
                },
                {
                  "internalType": "bytes32",
                  "name": "sender",
                  "type": "bytes32"
                },
                {
                  "internalType": "uint64",
                  "name": "nonce",
                  "type": "uint64"
                }
              ],
              "internalType": "struct Origin",
              "name": "origin",
              "type": "tuple"
            },
            {
              "internalType": "uint32",
              "name": "dstEid",
              "type": "uint32"
            },
            {
              "internalType": "address",
              "name": "receiver",
              "type": "address"
            },
            {
              "internalType": "bytes32",
              "name": "guid",
              "type": "bytes32"
            },
            {
              "internalType": "uint256",
              "name": "value",
              "type": "uint256"
            },
            {
              "internalType": "address",
              "name": "executor",
              "type": "address"
            },
            {
              "internalType": "bytes",
              "name": "message",
              "type": "bytes"
            },
            {
              "internalType": "bytes",
              "name": "extraData",
              "type": "bytes"
            }
          ],
          "internalType": "struct InboundPacket[]",
          "name": "_packets",
          "type": "tuple[]"
        }
      ],
      "name": "lzReceiveAndRevert",
      "outputs": [],
      "stateMutability": "payable",
      "type": "function"
    },
    {
      "inputs": [
        {
          "components": [
            {
              "internalType": "uint32",
              "name": "srcEid",
              "type": "uint32"
            },
            {
              "internalType": "bytes32",
              "name": "sender",
              "type": "bytes32"
            },
            {
              "internalType": "uint64",
              "name": "nonce",
              "type": "uint64"
            }
          ],
          "internalType": "struct Origin",
          "name": "_origin",
          "type": "tuple"
        },
        {
          "internalType": "bytes32",
          "name": "_guid",
          "type": "bytes32"
        },
        {
          "internalType": "bytes",
          "name": "_message",
          "type": "bytes"
        },
        {
          "internalType": "address",
          "name": "_executor",
          "type": "address"
        },
        {
          "internalType": "bytes",
          "name": "_extraData",
          "type": "bytes"
        }
      ],
      "name": "lzReceiveSimulate",
      "outputs": [],
      "stateMutability": "payable",
      "type": "function"
    },
    {
      "inputs": [],
      "name": "maxAssetId",
      "outputs": [
        {
          "internalType": "uint16",
          "name": "",
          "type": "uint16"
        }
      ],
      "stateMutability": "view",
      "type": "function"
    },
    {
      "inputs": [
        {
          "internalType": "uint32",
          "name": "dstEid",
          "type": "uint32"
        }
      ],
      "name": "nativeDropAmounts",
      "outputs": [
        {
          "internalType": "uint128",
          "name": "nativeDropAmount",
          "type": "uint128"
        }
      ],
      "stateMutability": "view",
      "type": "function"
    },
    {
      "inputs": [
        {
          "internalType": "uint32",
          "name": "",
          "type": "uint32"
        },
        {
          "internalType": "bytes32",
          "name": "",
          "type": "bytes32"
        }
      ],
      "name": "nextNonce",
      "outputs": [
        {
          "internalType": "uint64",
          "name": "nonce",
          "type": "uint64"
        }
      ],
      "stateMutability": "view",
      "type": "function"
    },
    {
      "inputs": [],
      "name": "oApp",
      "outputs": [
        {
          "internalType": "address",
          "name": "",
          "type": "address"
        }
      ],
      "stateMutability": "view",
      "type": "function"
    },
    {
      "inputs": [],
      "name": "oAppVersion",
      "outputs": [
        {
          "internalType": "uint64",
          "name": "senderVersion",
          "type": "uint64"
        },
        {
          "internalType": "uint64",
          "name": "receiverVersion",
          "type": "uint64"
        }
      ],
      "stateMutability": "pure",
      "type": "function"
    },
    {
      "inputs": [],
      "name": "owner",
      "outputs": [
        {
          "internalType": "address",
          "name": "",
          "type": "address"
        }
      ],
      "stateMutability": "view",
      "type": "function"
    },
    {
      "inputs": [
        {
          "internalType": "uint32",
          "name": "eid",
          "type": "uint32"
        }
      ],
      "name": "peers",
      "outputs": [
        {
          "internalType": "bytes32",
          "name": "peer",
          "type": "bytes32"
        }
      ],
      "stateMutability": "view",
      "type": "function"
    },
    {
      "inputs": [],
      "name": "planner",
      "outputs": [
        {
          "internalType": "address",
          "name": "",
          "type": "address"
        }
      ],
      "stateMutability": "view",
      "type": "function"
    },
    {
      "inputs": [],
      "name": "preCrime",
      "outputs": [
        {
          "internalType": "address",
          "name": "",
          "type": "address"
        }
      ],
      "stateMutability": "view",
      "type": "function"
    },
    {
      "inputs": [],
      "name": "queueCapacity",
      "outputs": [
        {
          "internalType": "uint16",
          "name": "",
          "type": "uint16"
        }
      ],
      "stateMutability": "view",
      "type": "function"
    },
    {
      "inputs": [
        {
          "internalType": "uint32",
          "name": "_dstEid",
          "type": "uint32"
        },
        {
          "internalType": "bytes",
          "name": "_passengers",
          "type": "bytes"
        }
      ],
      "name": "quoteDriveBus",
      "outputs": [
        {
          "components": [
            {
              "internalType": "uint256",
              "name": "nativeFee",
              "type": "uint256"
            },
            {
              "internalType": "uint256",
              "name": "lzTokenFee",
              "type": "uint256"
            }
          ],
          "internalType": "struct MessagingFee",
          "name": "fee",
          "type": "tuple"
        }
      ],
      "stateMutability": "view",
      "type": "function"
    },
    {
      "inputs": [
        {
          "internalType": "uint32",
          "name": "_dstEid",
          "type": "uint32"
        },
        {
          "internalType": "uint8",
          "name": "_numPassengers",
          "type": "uint8"
        }
      ],
      "name": "quoteFares",
      "outputs": [
        {
          "internalType": "uint256",
          "name": "busFare",
          "type": "uint256"
        },
        {
          "internalType": "uint256",
          "name": "busAndNativeDropFare",
          "type": "uint256"
        }
      ],
      "stateMutability": "view",
      "type": "function"
    },
    {
      "inputs": [
        {
          "internalType": "uint32",
          "name": "_dstEid",
          "type": "uint32"
        },
        {
          "internalType": "bool",
          "name": "_airdrop",
          "type": "bool"
        }
      ],
      "name": "quoteRideBus",
      "outputs": [
        {
          "components": [
            {
              "internalType": "uint256",
              "name": "nativeFee",
              "type": "uint256"
            },
            {
              "internalType": "uint256",
              "name": "lzTokenFee",
              "type": "uint256"
            }
          ],
          "internalType": "struct MessagingFee",
          "name": "fee",
          "type": "tuple"
        }
      ],
      "stateMutability": "view",
      "type": "function"
    },
    {
      "inputs": [
        {
          "components": [
            {
              "internalType": "address",
              "name": "sender",
              "type": "address"
            },
            {
              "internalType": "uint32",
              "name": "dstEid",
              "type": "uint32"
            },
            {
              "internalType": "bytes32",
              "name": "receiver",
              "type": "bytes32"
            },
            {
              "internalType": "uint64",
              "name": "amountSD",
              "type": "uint64"
            },
            {
              "internalType": "bytes",
              "name": "composeMsg",
              "type": "bytes"
            },
            {
              "internalType": "bytes",
              "name": "extraOptions",
              "type": "bytes"
            }
          ],
          "internalType": "struct TaxiParams",
          "name": "_params",
          "type": "tuple"
        },
        {
          "internalType": "bool",
          "name": "_payInLzToken",
          "type": "bool"
        }
      ],
      "name": "quoteTaxi",
      "outputs": [
        {
          "components": [
            {
              "internalType": "uint256",
              "name": "nativeFee",
              "type": "uint256"
            },
            {
              "internalType": "uint256",
              "name": "lzTokenFee",
              "type": "uint256"
            }
          ],
          "internalType": "struct MessagingFee",
          "name": "fee",
          "type": "tuple"
        }
      ],
      "stateMutability": "view",
      "type": "function"
    },
    {
      "inputs": [],
      "name": "renounceOwnership",
      "outputs": [],
      "stateMutability": "nonpayable",
      "type": "function"
    },
    {
      "inputs": [
        {
          "components": [
            {
              "internalType": "address",
              "name": "sender",
              "type": "address"
            },
            {
              "internalType": "uint32",
              "name": "dstEid",
              "type": "uint32"
            },
            {
              "internalType": "bytes32",
              "name": "receiver",
              "type": "bytes32"
            },
            {
              "internalType": "uint64",
              "name": "amountSD",
              "type": "uint64"
            },
            {
              "internalType": "bool",
              "name": "nativeDrop",
              "type": "bool"
            }
          ],
          "internalType": "struct RideBusParams",
          "name": "_params",
          "type": "tuple"
        }
      ],
      "name": "rideBus",
      "outputs": [
        {
          "components": [
            {
              "internalType": "bytes32",
              "name": "guid",
              "type": "bytes32"
            },
            {
              "internalType": "uint64",
              "name": "nonce",
              "type": "uint64"
            },
            {
              "components": [
                {
                  "internalType": "uint256",
                  "name": "nativeFee",
                  "type": "uint256"
                },
                {
                  "internalType": "uint256",
                  "name": "lzTokenFee",
                  "type": "uint256"
                }
              ],
              "internalType": "struct MessagingFee",
              "name": "fee",
              "type": "tuple"
            }
          ],
          "internalType": "struct MessagingReceipt",
          "name": "receipt",
          "type": "tuple"
        },
        {
          "components": [
            {
              "internalType": "uint72",
              "name": "ticketId",
              "type": "uint72"
            },
            {
              "internalType": "bytes",
              "name": "passengerBytes",
              "type": "bytes"
            }
          ],
          "internalType": "struct Ticket",
          "name": "ticket",
          "type": "tuple"
        }
      ],
      "stateMutability": "nonpayable",
      "type": "function"
    },
    {
      "inputs": [
        {
          "internalType": "uint32",
          "name": "_dstEid",
          "type": "uint32"
        },
        {
          "internalType": "string",
          "name": "_message",
          "type": "string"
        },
        {
          "internalType": "bytes",
          "name": "_options",
          "type": "bytes"
        }
      ],
      "name": "send",
      "outputs": [],
      "stateMutability": "payable",
      "type": "function"
    },
    {
      "inputs": [
        {
          "internalType": "address",
          "name": "_stargateImpl",
          "type": "address"
        },
        {
          "internalType": "uint16",
          "name": "_assetId",
          "type": "uint16"
        }
      ],
      "name": "setAssetId",
      "outputs": [],
      "stateMutability": "nonpayable",
      "type": "function"
    },
    {
      "inputs": [
        {
          "internalType": "address",
          "name": "_delegate",
          "type": "address"
        }
      ],
      "name": "setDelegate",
      "outputs": [],
      "stateMutability": "nonpayable",
      "type": "function"
    },
    {
      "inputs": [
        {
          "components": [
            {
              "internalType": "uint32",
              "name": "eid",
              "type": "uint32"
            },
            {
              "internalType": "uint16",
              "name": "msgType",
              "type": "uint16"
            },
            {
              "internalType": "bytes",
              "name": "options",
              "type": "bytes"
            }
          ],
          "internalType": "struct EnforcedOptionParam[]",
          "name": "_enforcedOptions",
          "type": "tuple[]"
        }
      ],
      "name": "setEnforcedOptions",
      "outputs": [],
      "stateMutability": "nonpayable",
      "type": "function"
    },
    {
      "inputs": [
        {
          "internalType": "uint32",
          "name": "_dstEid",
          "type": "uint32"
        },
        {
          "internalType": "uint80",
          "name": "_busFare",
          "type": "uint80"
        },
        {
          "internalType": "uint80",
          "name": "_busAndNativeDropFare",
          "type": "uint80"
        }
      ],
      "name": "setFares",
      "outputs": [],
      "stateMutability": "nonpayable",
      "type": "function"
    },
    {
      "inputs": [
        {
          "internalType": "uint32",
          "name": "_eid",
          "type": "uint32"
        },
        {
          "internalType": "uint128",
          "name": "_gasLimit",
          "type": "uint128"
        },
        {
          "internalType": "uint128",
          "name": "_nativeDropGasLimit",
          "type": "uint128"
        }
      ],
      "name": "setGasLimit",
      "outputs": [],
      "stateMutability": "nonpayable",
      "type": "function"
    },
    {
      "inputs": [
        {
          "internalType": "uint16",
          "name": "_maxAssetId",
          "type": "uint16"
        }
      ],
      "name": "setMaxAssetId",
      "outputs": [],
      "stateMutability": "nonpayable",
      "type": "function"
    },
    {
      "inputs": [
        {
          "internalType": "uint32",
          "name": "_dstEid",
          "type": "uint32"
        },
        {
          "internalType": "uint8",
          "name": "_maxNumPassengers",
          "type": "uint8"
        }
      ],
      "name": "setMaxNumPassengers",
      "outputs": [],
      "stateMutability": "nonpayable",
      "type": "function"
    },
    {
      "inputs": [
        {
          "internalType": "uint32",
          "name": "_dstEid",
          "type": "uint32"
        },
        {
          "internalType": "uint128",
          "name": "_nativeDropAmount",
          "type": "uint128"
        }
      ],
      "name": "setNativeDropAmount",
      "outputs": [],
      "stateMutability": "nonpayable",
      "type": "function"
    },
    {
      "inputs": [
        {
          "internalType": "uint32",
          "name": "_eid",
          "type": "uint32"
        },
        {
          "internalType": "bytes32",
          "name": "_peer",
          "type": "bytes32"
        }
      ],
      "name": "setPeer",
      "outputs": [],
      "stateMutability": "nonpayable",
      "type": "function"
    },
    {
      "inputs": [
        {
          "internalType": "address",
          "name": "_planner",
          "type": "address"
        }
      ],
      "name": "setPlanner",
      "outputs": [],
      "stateMutability": "nonpayable",
      "type": "function"
    },
    {
      "inputs": [
        {
          "internalType": "address",
          "name": "_preCrime",
          "type": "address"
        }
      ],
      "name": "setPreCrime",
      "outputs": [],
      "stateMutability": "nonpayable",
      "type": "function"
    },
    {
      "inputs": [
        {
          "internalType": "uint256",
          "name": "_gasLimit",
          "type": "uint256"
        }
      ],
      "name": "setTransferGasLimit",
      "outputs": [],
      "stateMutability": "nonpayable",
      "type": "function"
    },
    {
      "inputs": [
        {
          "internalType": "uint16",
          "name": "assetId",
          "type": "uint16"
        }
      ],
      "name": "stargateImpls",
      "outputs": [
        {
          "internalType": "address",
          "name": "stargateImpl",
          "type": "address"
        }
      ],
      "stateMutability": "view",
      "type": "function"
    },
    {
      "inputs": [
        {
          "components": [
            {
              "internalType": "address",
              "name": "sender",
              "type": "address"
            },
            {
              "internalType": "uint32",
              "name": "dstEid",
              "type": "uint32"
            },
            {
              "internalType": "bytes32",
              "name": "receiver",
              "type": "bytes32"
            },
            {
              "internalType": "uint64",
              "name": "amountSD",
              "type": "uint64"
            },
            {
              "internalType": "bytes",
              "name": "composeMsg",
              "type": "bytes"
            },
            {
              "internalType": "bytes",
              "name": "extraOptions",
              "type": "bytes"
            }
          ],
          "internalType": "struct TaxiParams",
          "name": "_params",
          "type": "tuple"
        },
        {
          "components": [
            {
              "internalType": "uint256",
              "name": "nativeFee",
              "type": "uint256"
            },
            {
              "internalType": "uint256",
              "name": "lzTokenFee",
              "type": "uint256"
            }
          ],
          "internalType": "struct MessagingFee",
          "name": "_messagingFee",
          "type": "tuple"
        },
        {
          "internalType": "address",
          "name": "_refundAddress",
          "type": "address"
        }
      ],
      "name": "taxi",
      "outputs": [
        {
          "components": [
            {
              "internalType": "bytes32",
              "name": "guid",
              "type": "bytes32"
            },
            {
              "internalType": "uint64",
              "name": "nonce",
              "type": "uint64"
            },
            {
              "components": [
                {
                  "internalType": "uint256",
                  "name": "nativeFee",
                  "type": "uint256"
                },
                {
                  "internalType": "uint256",
                  "name": "lzTokenFee",
                  "type": "uint256"
                }
              ],
              "internalType": "struct MessagingFee",
              "name": "fee",
              "type": "tuple"
            }
          ],
          "internalType": "struct MessagingReceipt",
          "name": "receipt",
          "type": "tuple"
        }
      ],
      "stateMutability": "payable",
      "type": "function"
    },
    {
      "inputs": [
        {
          "internalType": "address",
          "name": "newOwner",
          "type": "address"
        }
      ],
      "name": "transferOwnership",
      "outputs": [],
      "stateMutability": "nonpayable",
      "type": "function"
    }
  ],
  "bytecode": "0x60e06040526108fc60015534801561001657600080fd5b506040516155c53803806155c58339810160408190526100359161021b565b828282828281818181338061006457604051631e4fbdf760e01b81526000600482015260240160405180910390fd5b61006d816101af565b506001600160a01b03808316608052811661009b57604051632d618d8160e21b815260040160405180910390fd5b60805160405163ca5eb5e160e01b81526001600160a01b0383811660048301529091169063ca5eb5e190602401600060405180830381600087803b1580156100e257600080fd5b505af11580156100f6573d6000803e3d6000fd5b5050505050505050505060028161ffff161015610126576040516327f53ac760e01b815260040160405180910390fd5b8061ffff1660a08161ffff16815250506080516001600160a01b031663416ecebf6040518163ffffffff1660e01b8152600401602060405180830381865afa158015610176573d6000803e3d6000fd5b505050506040513d601f19601f8201168201806040525081019061019a9190610269565b63ffffffff1660c05250610296945050505050565b600080546001600160a01b038381166001600160a01b0319831681178455604051919092169283917f8be0079c531659141344cd1fd0a4f28419497f9722a3daafe3b4186f6b6457e09190a35050565b80516001600160a01b038116811461021657600080fd5b919050565b60008060006060848603121561023057600080fd5b610239846101ff565b9250610247602085016101ff565b9150604084015161ffff8116811461025e57600080fd5b809150509250925092565b60006020828403121561027b57600080fd5b815163ffffffff8116811461028f57600080fd5b9392505050565b60805160a05160c0516152ba61030b6000396000610bd00152600081816107d401528181610b0601528181610ca101528181610f0c0152818161151601528181611d6701528181611e120152611e5201526000818161049c01528181611b4c0152818161246b015261284a01526152ba6000f3fe6080604052600436106102c95760003560e01c806388543f0e11610175578063ca5eb5e1116100dc578063ee5ccf6a11610095578063fd6f05571161006f578063fd6f055714610a38578063fdee84ec14610a58578063ff6fb30014610aa0578063ff7bd03d14610ab357600080fd5b8063ee5ccf6a14610997578063f2fde38b146109b7578063f8d50da6146109d757600080fd5b8063ca5eb5e1146108e0578063d045a0dc14610900578063d424388514610913578063d8e8dbc714610933578063e0539e5814610964578063e4c572cc1461097757600080fd5b8063b731ea0a1161012e578063b731ea0a1461082b578063b98bd0701461084b578063bb0b6a531461086b578063bc70b35414610898578063bd815db0146108b8578063c239f1ad146108cb57600080fd5b806388543f0e146107455780638c70830b146107645780638da5cb5b146107845780638f71f7dd146107a257806390fdb20c146107c2578063917df23b1461080957600080fd5b80635e280f1111610234578063731dbe0c116101ed5780637d25a05e116101c75780637d25a05e1461069c57806382413eac146106d7578063826f1fb1146106f757806385afd4531461071757600080fd5b8063731dbe0c146105f957806375d2208c146106475780637845ca231461066757600080fd5b80635e280f111461048a5780635f6d9ae4146104be57806364e4ac27146104f45780636763d689146105145780636ad9914d14610534578063715018a6146105e457600080fd5b806332e4e3631161028657806332e4e3631461039b5780633400288b146103d357806345655a16146103f357806352ae28791461041a5780635535d4611461042d5780635a0dfe4d1461045a57600080fd5b8063086431ec146102ce57806313137d651461030457806317442b70146103195780632b28b34e1461033b5780632dca2f511461035b5780633292cf021461037b575b600080fd5b3480156102da57600080fd5b506102ee6102e9366004613d7b565b610ad3565b6040516102fb9190613dcd565b60405180910390f35b610317610312366004613e13565b610b5b565b005b34801561032557600080fd5b50604080516001815260026020820152016102fb565b34801561034757600080fd5b50610317610356366004613eca565b610ba3565b34801561036757600080fd5b50610317610376366004613f0d565b610c97565b34801561038757600080fd5b506102ee610396366004613f6c565b610d4e565b3480156103a757600080fd5b506006546103bb906001600160a01b031681565b6040516001600160a01b0390911681526020016102fb565b3480156103df57600080fd5b506103176103ee366004613fb9565b610d97565b3480156103ff57600080fd5b50610408600181565b60405160ff90911681526020016102fb565b34801561042657600080fd5b50306103bb565b34801561043957600080fd5b5061044d610448366004613ff5565b610dad565b6040516102fb919061406f565b34801561046657600080fd5b5061047a610475366004613fb9565b610e52565b60405190151581526020016102fb565b34801561049657600080fd5b506103bb7f000000000000000000000000000000000000000000000000000000000000000081565b3480156104ca57600080fd5b506103bb6104d9366004614089565b6005602052600090815260409020546001600160a01b031681565b610507610502366004613d7b565b610e71565b6040516102fb91906140d7565b34801561052057600080fd5b5061031761052f3660046140fc565b61104c565b34801561054057600080fd5b5061059e61054f366004614126565b60096020526000908152604090205460ff8116906001600160501b036101008204811691600160581b81049091169061ffff600160a81b820416906001600160481b03600160b81b9091041685565b6040805160ff9690961686526001600160501b039485166020870152929093169184019190915261ffff1660608301526001600160481b0316608082015260a0016102fb565b3480156105f057600080fd5b506103176110ba565b34801561060557600080fd5b5061062f610614366004614126565b600a602052600090815260409020546001600160801b031681565b6040516001600160801b0390911681526020016102fb565b34801561065357600080fd5b506102ee610662366004614141565b6110ce565b34801561067357600080fd5b50610687610682366004613f0d565b611115565b604080519283526020830191909152016102fb565b3480156106a857600080fd5b506106bf6106b7366004613fb9565b600092915050565b6040516001600160401b0390911681526020016102fb565b3480156106e357600080fd5b5061047a6106f236600461416b565b61122d565b34801561070357600080fd5b506103176107123660046141d0565b61128e565b34801561072357600080fd5b506107376107323660046141eb565b6112eb565b6040516102fb929190614206565b34801561075157600080fd5b506001545b6040519081526020016102fb565b34801561077057600080fd5b5061031761077f366004614242565b6115ef565b34801561079057600080fd5b506000546001600160a01b03166103bb565b3480156107ae57600080fd5b506103176107bd36600461425b565b6115fc565b3480156107ce57600080fd5b506107f67f000000000000000000000000000000000000000000000000000000000000000081565b60405161ffff90911681526020016102fb565b34801561081557600080fd5b506003546107f690600160a01b900461ffff1681565b34801561083757600080fd5b506003546103bb906001600160a01b031681565b34801561085757600080fd5b506103176108663660046142bb565b6117e7565b34801561087757600080fd5b50610756610886366004614126565b60026020526000908152604090205481565b3480156108a457600080fd5b5061044d6108b33660046142fc565b611801565b6103176108c63660046142bb565b6119b2565b3480156108d757600080fd5b50610408600281565b3480156108ec57600080fd5b506103176108fb3660046141d0565b611b25565b61031761090e366004613e13565b611bab565b34801561091f57600080fd5b5061031761092e3660046141d0565b611bda565b34801561093f57600080fd5b506107f661094e3660046141d0565b60046020526000908152604090205461ffff1681565b610317610972366004614451565b611c30565b34801561098357600080fd5b50610317610992366004614089565b611caf565b3480156109a357600080fd5b506103176109b23660046144c7565b611d07565b3480156109c357600080fd5b506103176109d23660046141d0565b611f37565b3480156109e357600080fd5b50610a186109f2366004614126565b6008602052600090815260409020546001600160801b0380821691600160801b90041682565b604080516001600160801b039384168152929091166020830152016102fb565b348015610a4457600080fd5b50610317610a53366004614520565b611f75565b348015610a6457600080fd5b50610756610a73366004613ff5565b63ffffffff909116600090815260096020908152604080832061ffff909416835260019093019052205490565b610507610aae36600461455a565b611ffd565b348015610abf57600080fd5b5061047a610ace3660046145ba565b61204a565b604080518082019091526000808252602082015263ffffffff80851660009081526009602052604081209091610b3091907f0000000000000000000000000000000000000000000000000000000000000000908790879061208016565b9050600080610b3f8784612358565b91509150610b508783836000612455565b979650505050505050565b610b8b6040518060400160405280600f81526020016e363d2932b1b2b4bb32903132b3b4b760891b81525061252d565b610b9a87878787878787612570565b50505050505050565b6006546001600160a01b03163314610bce5760405163318eaacb60e21b815260040160405180910390fd5b7f000000000000000000000000000000000000000000000000000000000000000063ffffffff168363ffffffff1603610c1a5760405163513ee88160e11b815260040160405180910390fd5b63ffffffff8084166000908152600960205260409020610c3e918490849061259c16565b6040805163ffffffff851681526001600160501b0380851660208301528316918101919091527fd2245824774f1c2de21256e9fb34d9cc4633cf72c0952a82a996e45ad4df3c70906060015b60405180910390a1505050565b610c9f6125d8565b7f000000000000000000000000000000000000000000000000000000000000000061ffff168160ff1610610ce6576040516318c21dab60e11b815260040160405180910390fd5b63ffffffff8083166000908152600960205260409020610d0891839061260516565b6040805163ffffffff8416815260ff831660208201527ff9fa6c3c4dbf13c4a8348c3102ef22789aa450b81e492b853e93f9701e08958091015b60405180910390a15050565b6040805180820190915260008082526020820152600080610d6e85612616565b9092509050610d8e610d866040870160208801614126565b838387612455565b95945050505050565b610d9f6125d8565b610da9828261268d565b5050565b600760209081526000928352604080842090915290825290208054610dd1906145d6565b80601f0160208091040260200160405190810160405280929190818152602001828054610dfd906145d6565b8015610e4a5780601f10610e1f57610100808354040283529160200191610e4a565b820191906000526020600020905b815481529060010190602001808311610e2d57829003601f168201915b505050505081565b63ffffffff821660009081526002602052604090205481145b92915050565b610e79613cd8565b610eae6040518060400160405280601481526020017339ba30b93a10323934bb32a13ab990333ab7319d60611b81525061252d565b610eed83838080601f0160208091040260200160405190810160405280939291908181526020018383808284376000920191909152506126db92505050565b63ffffffff80851660009081526009602052604081209091610f3691907f0000000000000000000000000000000000000000000000000000000000000000908790879061271e16565b9050610f766040518060400160405280601f81526020017f616674657220636865636b5469636b657473416e6444726976652066756e630081525061252d565b600080610f838784612358565b91509150610f90826126db565b610f99816126db565b610fba6040518060600160405280602e815260200161520d602e913961252d565b610fdc87838360405180604001604052803481526020016000815250336127b8565b835160208086015183516040805163ffffffff8e1681526001600160481b039095169385019390935260ff909116838301526060830152519195507f1623f9ea59bd6f214c9571a892da012fc23534aa5906bef4ae8c5d15ee7d2d6e919081900360800190a15050509392505050565b6110546125d8565b63ffffffff82166000818152600a602090815260409182902080546001600160801b0319166001600160801b0386169081179091558251938452908301527f5b9fac6cf74b12ad67aa143075523ab25ca781b0f611c4897b31d1500f2ae9629101610d42565b6110c26125d8565b6110cc6000612917565b565b604080518082019091526000808252602082015263ffffffff808416600090815260096020526040902061110491849061296716565b6001600160501b0316815292915050565b6000808260ff1660000361113c576040516371d49ca960e11b815260040160405180910390fd5b600061114c602b60ff8616614620565b6001600160401b038111156111635761116361435c565b6040519080825280601f01601f19166020018201604052801561118d576020820181803683370190505b509050600061119e600080846129c6565b905060006111af87876000806129f8565b90508560ff166111c28884846000612455565b516111cd919061464d565b63ffffffff88166000908152600a602052604081205491965090611202908990899060ff8216906001600160801b03166129f8565b90508660ff166112158985846000612455565b51611220919061464d565b9450505050509250929050565b60006112398484612c3a565b1561128257600061124a8585612c85565b50505061ffff81166000908152600560205260409020549091506001600160a01b03808516911603611280576001915050611286565b505b5060005b949350505050565b6112966125d8565b600680546001600160a01b0319166001600160a01b0383169081179091556040519081527f5767d79cd17d7554509a4dd59a5a7a9175c7e36466455d7b2fa4788228808579906020015b60405180910390a150565b6112f3613cd8565b60408051808201909152600081526060602082015261132a6040518060600160405280602281526020016151eb6022913933612d2a565b600061133533612d6f565b905060006113496040860160208701614126565b90506113796040518060400160405280600881526020016730b9b9b2ba24b21d60c11b8152508361ffff16612db2565b6040805180820190915260118152702fb830b930b6b99730b6b7bab73a29a21d60791b60208201526113c3906113b56080880160608901614676565b6001600160401b0316612db2565b6113fd6040518060600160405280602481526020016151996024913963ffffffff831660009081526009602052604090205460ff16612db2565b604080518082018252601b81527f6275735175657565735b6473744569645d2e62757346617265203a000000000060208083019190915263ffffffff8416600090815260099091529190912054611462919061010090046001600160501b0316612db2565b6114a960405180606001604052806028815260200161525d6028913963ffffffff8316600090815260096020526040902054600160581b90046001600160501b0316612db2565b60408051808201825260208082527f6275735175657565735b6473744569645d2e6e6578745469636b65744964203a8183015263ffffffff841660009081526009909152919091205461150c9190600160b81b90046001600160481b0316612db2565b60008060006115aa7f00000000000000000000000000000000000000000000000000000000000000008560405180608001604052808961ffff1681526020018c6040013581526020018c60600160208101906115689190614676565b6001600160401b0316815260200161158660a08e0160808f01614693565b1515905263ffffffff808916600090815260096020526040902093929190612df716565b6001600160501b03169250925092506115c2826126db565b6040805180820182526001600160481b039094168452602084019290925290860151529395939450505050565b6115f76125d8565b600155565b6116046125d8565b8061ffff1660000361162957604051637223aa3b60e11b815260040160405180910390fd5b60035461ffff600160a01b90910481169082161115611696576003805461ffff60a01b1916600160a01b61ffff8416908102919091179091556040519081527f8f1145f51954bc9512a08693182e170a57b63ca4f6acc321b87c526970f4c0179060200160405180910390a15b6001600160a01b0380831660009081526004602090815260408083205461ffff868116855260059093529220549116911681156116ef5761ffff8216600090815260056020526040902080546001600160a01b03191690555b6001600160a01b03811615611720576001600160a01b0381166000908152600460205260409020805461ffff191690555b6001600160a01b0384166117545761ffff8316600090815260056020526040902080546001600160a01b031916905561179c565b6001600160a01b0384166000818152600460209081526040808320805461ffff191661ffff891690811790915583526005909152902080546001600160a01b03191690911790555b604080516001600160a01b038616815261ffff851660208201527fac53470cf8e9e3d673caa7d47cd7db36c0d38cf37fc147c70c92bc0c1c4734f5910160405180910390a150505050565b6117ef6125d8565b610da96117fc82846146ae565b612f7d565b63ffffffff8416600090815260076020908152604080832061ffff87168452909152812080546060929190611835906145d6565b80601f0160208091040260200160405190810160405280929190818152602001828054611861906145d6565b80156118ae5780601f10611883576101008083540402835291602001916118ae565b820191906000526020600020905b81548152906001019060200180831161189157829003601f168201915b5050505050905080516000036118fe5783838080601f0160208091040260200160405190810160405280939291908181526020018383808284376000920191909152509294506112869350505050565b600083900361190e579050611286565b6002831061198c5761195584848080601f01602080910402602001604051908101604052809392919081815260200183838082843760009201919091525061308492505050565b8061196384600281886147a1565b604051602001611975939291906147cb565b604051602081830303815290604052915050611286565b8383604051639a6d49cd60e01b81526004016119a992919061481c565b60405180910390fd5b60005b81811015611aa457368383838181106119d0576119d0614830565b90506020028101906119e29190614846565b90506119fe6119f46020830183614126565b6020830135610e52565b611a085750611a9c565b3063d045a0dc60c08301358360a0810135611a27610100830183614867565b611a38610100890160e08a016141d0565b611a466101208a018a614867565b6040518963ffffffff1660e01b8152600401611a6897969594939291906148ea565b6000604051808303818588803b158015611a8157600080fd5b505af1158015611a95573d6000803e3d6000fd5b5050505050505b6001016119b5565b50336001600160a01b0316638e9e70996040518163ffffffff1660e01b8152600401600060405180830381865afa158015611ae3573d6000803e3d6000fd5b505050506040513d6000823e601f3d908101601f19168201604052611b0b9190810190614941565b604051638351eea760e01b81526004016119a9919061406f565b611b2d6125d8565b60405163ca5eb5e160e01b81526001600160a01b0382811660048301527f0000000000000000000000000000000000000000000000000000000000000000169063ca5eb5e190602401600060405180830381600087803b158015611b9057600080fd5b505af1158015611ba4573d6000803e3d6000fd5b5050505050565b333014611bcb5760405163029a949d60e31b815260040160405180910390fd5b610b9a87878787878787610b8b565b611be26125d8565b600380546001600160a01b0319166001600160a01b0383169081179091556040519081527fd48d879cef83a1c0bdda516f27b13ddb1b3f8bbac1c9e1511bb2a659c2427760906020016112e0565b600083604051602001611c43919061406f565b60408051601f198184030181526020601f86018190048102840181019092528483529250611ca79187918491908790879081908401838280828437600092018290525060408051808201909152348152602081019190915292503391506127b89050565b505050505050565b611cb76125d8565b6003805461ffff60a01b1916600160a01b61ffff8416908102919091179091556040519081527f8f1145f51954bc9512a08693182e170a57b63ca4f6acc321b87c526970f4c017906020016112e0565b611d0f6125d8565b60005b83811015611ba457600060096000878785818110611d3257611d32614830565b9050602002016020810190611d479190614126565b63ffffffff1681526020810191909152604001600020805490915061ffff7f0000000000000000000000000000000000000000000000000000000000000000811691611dac91600160a81b820416906001600160481b03600160b81b909104166149ae565b6001600160481b03161115611dc15750611f2f565b8054600090611deb90600160a81b810461ffff1690600160b81b90046001600160481b03166149ae565b905060008161ffff168661ffff161015611e055781611e07565b855b90506000611e3660017f00000000000000000000000000000000000000000000000000000000000000006149cd565b61ffff168661ffff161015611e4b5785611e76565b611e7660017f00000000000000000000000000000000000000000000000000000000000000006149cd565b9050815b8161ffff168161ffff1611611eb75761ffff811660009081526001860160205260409020602360f91b905580611eaf816149e7565b915050611e7a565b507f68ae5a72b18bd3a6fbbc56d3cddb8a1c567b1d6ad4e705dd0b9295de05262bf4898987818110611eeb57611eeb614830565b9050602002016020810190611f009190614126565b6040805163ffffffff909216825261ffff808616602084015284169082015260600160405180910390a1505050505b600101611d12565b611f3f6125d8565b6001600160a01b038116611f6957604051631e4fbdf760e01b8152600060048201526024016119a9565b611f7281612917565b50565b611f7d6125d8565b6040805180820182526001600160801b03848116808352848216602080850182815263ffffffff8a16600081815260088452889020965191518616600160801b029190951617909455845192835292820152918201527fff958b7fbea293188b750425e92bd9c7a646f9063b9fc7722ae861802a7a1fe790606001610c8a565b612005613cd8565b60008061201186612616565b90925090506120406120296040880160208901614126565b838361203a368a90038a018a614a08565b886127b8565b9695505050505050565b60006020820180359060029083906120629086614126565b63ffffffff1681526020810191909152604001600020541492915050565b60408051608081018252600080825260208201819052918101829052606080820152906120ad84846130b0565b905061212f6040518060400160405280600e81526020016d373ab6a830b9b9b2b733b2b9399d60911b8152508260ff166040518060400160405280601881526020017f5f71756575652e6d61784e756d50617373656e676572733a00000000000000008152508960000160159054906101000a900461ffff1661ffff166130ef565b60ff811615806121465750855460ff908116908216115b8061215f57508554600160a81b900461ffff1660ff8216115b156121825760405163c5ad74c760e01b815260ff821660048201526024016119a9565b8554600160b81b90046001600160481b0316600081156121da578760010160008861ffff166001856121b49190614a3b565b6121be9190614a5a565b61ffff1661ffff168152602001908152602001600020546121dd565b60005b90506000806121ed88888561313e565b91509150612227604051806040016040528060118152602001703a37ba30b62730ba34bb32a23937b8399d60791b8152508360ff16612db2565b6000600161223860ff8816876149ae565b6122429190614a3b565b90506122a86040518060400160405280600e81526020016d39ba30b93a2a34b1b5b2ba24b21d60911b815250866001600160481b03166040518060400160405280600e81526020016d373ab6a830b9b9b2b733b2b9399d60911b8152508960ff166130ef565b60018b0160006122bc61ffff8d1684614a5a565b61ffff1661ffff1681526020019081526020016000205482146122f257604051635b3f67cd60e01b815260040160405180910390fd5b6001600160481b038516875260ff861660208089019190915260408051601f8b01839004830281018301909152898152908a908a90819084018382808284376000920191909152505050506060880152505060ff16604085015250919695505050505050565b63ffffffff82166000908152600a60209081526040918290205482516060818101909452602e80825284936001600160801b03909316926123a19291906151bd9083013961252d565b6123dd604051806040016040528060118152602001703730ba34bb32a23937b820b6b7bab73a1d60791b815250826001600160801b0316612db2565b61241c604051806040016040528060168152602001752fb13ab9973a37ba30b62730ba34bb32a23937b8399d60511b815250856040015160ff16612db2565b612432846040015160ff168286606001516129c6565b925061244b858560200151866040015160ff16846129f8565b9150509250929050565b60408051808201909152600080825260208201527f00000000000000000000000000000000000000000000000000000000000000006001600160a01b031663ddc28c586040518060a001604052808863ffffffff1681526020016124b8896131fc565b8152602001878152602001868152602001851515815250306040518363ffffffff1660e01b81526004016124ed929190614a88565b6040805180830381865afa158015612509573d6000803e3d6000fd5b505050506040513d601f19601f82011682018060405250810190610d8e9190614b32565b611f7281604051602401612541919061406f565b60408051601f198184030181529190526020810180516001600160e01b031663104c13eb60e21b179052613238565b61257a8585613241565b156125905761258b87878787613278565b610b9a565b610b9a87878787613616565b8254610100600160a81b0319166101006001600160501b039384160269ffffffffffffffffffff60581b191617600160581b9190921602179055565b6000546001600160a01b031633146110cc5760405163118cdaa760e01b81523360048201526024016119a9565b815460ff191660ff91909116179055565b606080600061262433612d6f565b905061265e61263660208601866141d0565b82604087013561264c6080890160608a01614676565b61265960808a018a614867565b6136b9565b92506126856126736040860160208701614126565b61268060a0870187614867565b61375e565b915050915091565b63ffffffff8216600081815260026020908152604091829020849055815192835282018390527f238399d427b947898edb290f5ff0f9109849b1c3ba196a42e35f00c50a54b98b9101610d42565b611f72816040516024016126ef919061406f565b60408051601f198184030181529190526020810180516001600160e01b03166305f3bfab60e11b179052613238565b604080516080810182526000808252602082018190529181019190915260608082015261274d85858585612080565b6020810151865460ff90911661ffff600160a81b6001600160481b03600160b81b80860482168501909116026001600160b81b03851681178290048316939093039091160261ffff60a81b199091166001600160a81b03909216919091171790955550929392505050565b6127c0613cd8565b60006127cf846000015161376d565b9050612807604051806040016040528060158152602001746265666f726520656e64706f696e742e73656e642160581b81525061252d565b6128366040518060400160405280600d81526020016c36b2b9b9b0b3b2ab30b63ab29d60991b81525082612db2565b61283f866126db565b612848856126db565b7f00000000000000000000000000000000000000000000000000000000000000006001600160a01b0316632637a450826040518060a001604052808b63ffffffff1681526020016128988c6131fc565b81526020018a815260200189815260200160008960200151111515815250866040518463ffffffff1660e01b81526004016128d4929190614a88565b60806040518083038185885af11580156128f2573d6000803e3d6000fd5b50505050506040513d601f19601f82011682018060405250810190610b509190614b4e565b600080546001600160a01b038381166001600160a01b0319831681178455604051919092169283917f8be0079c531659141344cd1fd0a4f28419497f9722a3daafe3b4186f6b6457e09190a35050565b60008161298357825461010090046001600160501b0316612996565b8254600160581b90046001600160501b03165b9050806001600160501b0316600003610e6b576040516305bc181960e41b815282151560048201526024016119a9565b606060028484846040516020016129e09493929190614b9a565b60405160208183030381529060405290509392505050565b6060600080612a06876137b1565b90925090506000612a2b612a2660ff89166001600160801b038616614620565b613816565b90506000612a45612a266001600160801b03881689614620565b90506001600160801b03811615612a7957612a6c612a26886001600160801b038616614620565b612a769083614bf1565b91505b600080826001600160801b031611612ad457604051600160f81b60208201819052601160f01b602183015260238201526001600160801b0319608085901b166024820152603401604051602081830303815290604052612b23565b604051600160f81b60208201819052602160f01b602183015260238201526001600160801b0319608085811b8216602484015284901b1660348201526044016040516020818303038152906040525b63ffffffff8b16600090815260076020908152604080832060028452909152812080549293509091612b54906145d6565b80601f0160208091040260200160405190810160405280929190818152602001828054612b80906145d6565b8015612bcd5780601f10612ba257610100808354040283529160200191612bcd565b820191906000526020600020905b815481529060010190602001808311612bb057829003601f168201915b505050505090506002815110612c06578082604051602001612bf0929190614c10565b6040516020818303038152906040529650612c2c565b600382604051602001612c1a929190614c3f565b60405160208183030381529060405296505b505050505050949350505050565b6000602b821015612c5e5760405163de01ff2360e01b815260040160405180910390fd5b60018383600081612c7157612c71614830565b919091013560f81c91909114949350505050565b600080806060612c996003600187896147a1565b612ca291614c6f565b60f01c9350612cb56023600387896147a1565b612cbe91614ca7565b9250612cce602b602387896147a1565b612cd791614cc5565b60c01c9150612ce985602b81896147a1565b8080601f0160208091040260200160405190810160405280939291908181526020018383808284376000920191909152509699959850939650909450505050565b610da98282604051602401612d40929190614cfb565b60408051601f198184030181529190526020810180516001600160e01b031663319af33360e01b179052613238565b6001600160a01b03811660009081526004602052604081205461ffff1690819003612dad57604051638b6fecb760e01b815260040160405180910390fd5b919050565b610da98282604051602401612dc8929190614d25565b60408051601f198184030181529190526020810180516001600160e01b0316632d839cb360e21b179052613238565b8354600161ffff600160a81b80840482169283018216810261ffff60a81b19909416939093178088556001600160481b03600160b81b82041690920192606092600092888116929091041610612e6057604051637d1b715d60e11b815260040160405180910390fd5b612e698461384a565b9150612e8284606001518861296790919063ffffffff16565b905060006001600160481b03841615612ed7578760010160008861ffff16600187036001600160481b031681612eba57612eba614637565b0661ffff1661ffff16815260200190815260200160002054612eda565b60005b90508083604051602001612eef929190614d47565b604051602081830303815290604052805190602001208860010160008961ffff1687612f1b9190614a5a565b61ffff1661ffff168152602001908152602001600020819055507f15955c5a4cc61b8fbb05301bce47fd31c0e6f935e1ab97fdac9b134c887bb07486858486604051612f6a9493929190614d6d565b60405180910390a1509450945094915050565b60005b815181101561305457612faf828281518110612f9e57612f9e614830565b602002602001015160400151613084565b818181518110612fc157612fc1614830565b60200260200101516040015160076000848481518110612fe357612fe3614830565b60200260200101516000015163ffffffff1663ffffffff168152602001908152602001600020600084848151811061301d5761301d614830565b60200260200101516020015161ffff1661ffff168152602001908152602001600020908161304b9190614df1565b50600101612f80565b507fbe4864a8e820971c0247f5992e2da559595f7bf076a21cb5928d443d2a13b674816040516112e09190614eaf565b600281015161ffff8116600314610da95781604051639a6d49cd60e01b81526004016119a9919061406f565b6000816130be602b82614f3f565b156130dc5760405163bcbb94ef60e01b815260040160405180910390fd5b6112866130ea602b8361464d565b6138c0565b613138848484846040516024016131099493929190614f53565b60408051601f198184030181529190526020810180516001600160e01b031663c67ea9d160e01b179052613238565b50505050565b600081815b848110156131f35736600087838861315c602b83614f90565b92613169939291906147a1565b9150915083828260405160200161318293929190614fa3565b604051602081830303815290604052805190602001209350600082826001602b6131ac9190614fbd565b8181106131bb576131bb614830565b9091013560f81c60011491505080156131dc57856131d881614fd0565b9650505b505050602b816131ec9190614f90565b9050613143565b50935093915050565b63ffffffff811660009081526002602052604081205480610e6b5760405163f6ff4fb760e01b815263ffffffff841660048201526024016119a9565b611f72816138ee565b600060218210156132655760405163e907cd4f60e01b815260040160405180910390fd5b60028383600081612c7157612c71614830565b6000806000613287858561390f565b9250925092506132fd604051806040016040528060118152602001703a37ba30b62730ba34bb32a23937b8399d60791b815250846001600160801b0316604051806040016040528060118152602001703730ba34bb32a23937b820b6b7bab73a1d60791b815250856001600160801b03166130ef565b6133296040518060400160405280600a81526020016936b9b3973b30b63ab29d60b11b81525034612db2565b6000836001600160801b031611801561335457506133478284614fe6565b6001600160801b03163414155b156133715760405162e1315760e31b815260040160405180910390fd5b3460005b82518160ff1610156135b7576133b860405180604001604052806016815260200175666f72206c6f6f70205f6c7a5265636569766542757360501b81525061252d565b6000838260ff16815181106133cf576133cf614830565b6020026020010151905060006133e88260000151613a74565b905060006133f7836020015190565b90506000876001600160801b0316118015613413575082606001515b156134d25761342d81886001600160801b03166001613aaf565b1561348757604080516001600160a01b03831681526001600160801b03891660208201819052909603957f2d0eb51492ddbee9e95192a44349b114ecfdaacebba5e8aa735b12f14ab1affa910160405180910390a16134d2565b604080516001600160a01b03831681526001600160801b03891660208201527f4e2061832d78c1622b4b41b221d1791733ba77cd67e86bba10b3e61194d55eb2910160405180910390a15b613537604051806040016040528060098152602001683932b1b2b4bb32b91d60b91b81525082604051806040016040528060138152602001723830b9b9b2b733b2b91730b6b7bab73a29a21d60691b81525086604001516001600160401b0316613b90565b816001600160a01b031663434def558d8d878588604001516040518663ffffffff1660e01b815260040161356f959493929190615008565b600060405180830381600087803b15801561358957600080fd5b505af115801561359d573d6000803e3d6000fd5b5050505050505080806135af90614fd0565b915050613375565b506135ee604051806040016040528060148152602001731b985d1a5d99511c9bdc105b5bdd5b9d1319599d60621b81525082612db2565b801561360c5760065461360c906001600160a01b0316826000613bd9565b5050505050505050565b6000806000806136268686612c85565b935093509350935060006136378490565b9050600061364486613a74565b60405163203bd15f60e01b81529091506001600160a01b0382169063203bd15f9061367b908d908d9087908a908a9060040161504e565b600060405180830381600087803b15801561369557600080fd5b505af11580156136a9573d6000803e3d6000fd5b5050505050505050505050505050565b60606001868686856137015786868080601f01602080910402602001604051908101604052809392919081815260200183838082843760009201919091525061372f92505050565b6001600160a01b038b16878760405160200161371f93929190614fa3565b6040516020818303038152906040525b604051602001613743959493929190615091565b60405160208183030381529060405290509695505050505050565b60606112868460018585611801565b60006137ad6040518060400160405280601781526020017f746f6b656e4d7367207061794e61746976652066756e6300000000000000000081525061252d565b5090565b63ffffffff811660009081526008602090815260408083208151808301909252546001600160801b03808216808452600160801b90920416928201839052928390036138105760405163c960f36b60e01b815260040160405180910390fd5b50915091565b60006001600160801b038211156137ad576040516306dfcc6560e41b815260806004820152602481018390526044016119a9565b606081600001518260200151836040015184606001516040516020016138aa949392919060f09490941b6001600160f01b0319168452600284019290925260c01b6001600160c01b0319166022830152151560f81b602a820152602b0190565b6040516020818303038152906040529050919050565b600060ff8211156137ad576040516306dfcc6560e41b815260086004820152602481018390526044016119a9565b60006a636f6e736f6c652e6c6f679050600080835160208501845afa505050565b60008060608360218110156139375760405163262c503d60e01b815260040160405180910390fd5b6139456011600187896147a1565b61394e916150f8565b60801c93506139616021601187896147a1565b61396a916150f8565b60801c92506000602b61397e602184614fbd565b613988919061464d565b9050806001600160401b038111156139a2576139a261435c565b6040519080825280602002602001820160405280156139f457816020015b6040805160808101825260008082526020808301829052928201819052606082015282526000199092019101816139c05790505b509250602160005b828160ff161015613a6957613a2a89838a613a18602b83614f90565b92613a25939291906147a1565b613c06565b858260ff1681518110613a3f57613a3f614830565b6020908102919091010152613a55602b83614f90565b915080613a6181614fd0565b9150506139fc565b505050509250925092565b61ffff81166000908152600560205260409020546001600160a01b031680612dad57604051638b6fecb760e01b815260040160405180910390fd5b6000613ad260405180606001604052806022815260200161523b6022913961252d565b600082613adf575a613ae3565b6001545b9050613b2c604051806040016040528060048152602001632fba379d60e11b81525086604051806040016040528060078152602001662fbb30b63ab29d60c91b81525087613b90565b613b7d6040518060400160405280600d81526020016c233937b69020b2323932b9b99d60991b81525030604051806040016040528060088152602001672130b630b731b29d60c11b81525047613b90565b600080600080878986f195945050505050565b61313884848484604051602401613baa949392919061512e565b60408051601f198184030181529190526020810180516001600160e01b03166348e8889760e11b179052613238565b613be4838383613aaf565b613c0157604051633e3ae1e960e11b815260040160405180910390fd5b505050565b604080516080810182526000808252602082018190529181018290526060810182905290613c3760028285876147a1565b613c4091614c6f565b60f01c90506000613c556022600286886147a1565b613c5e91614ca7565b90506000613c70602a602287896147a1565b613c7991614cc5565b60c01c90506000613c8e602b602a888a6147a1565b613c9791615162565b6040805160808101825261ffff96909616865260208601949094526001600160401b03929092169284019290925260f81c6001146060830152509392505050565b60405180606001604052806000801916815260200160006001600160401b03168152602001613d1a604051806040016040528060008152602001600081525090565b905290565b803563ffffffff81168114612dad57600080fd5b60008083601f840112613d4557600080fd5b5081356001600160401b03811115613d5c57600080fd5b602083019150836020828501011115613d7457600080fd5b9250929050565b600080600060408486031215613d9057600080fd5b613d9984613d1f565b925060208401356001600160401b03811115613db457600080fd5b613dc086828701613d33565b9497909650939450505050565b815181526020808301519082015260408101610e6b565b600060608284031215613df657600080fd5b50919050565b80356001600160a01b0381168114612dad57600080fd5b600080600080600080600060e0888a031215613e2e57600080fd5b613e388989613de4565b96506060880135955060808801356001600160401b03811115613e5a57600080fd5b613e668a828b01613d33565b9096509450613e79905060a08901613dfc565b925060c08801356001600160401b03811115613e9457600080fd5b613ea08a828b01613d33565b989b979a50959850939692959293505050565b80356001600160501b0381168114612dad57600080fd5b600080600060608486031215613edf57600080fd5b613ee884613d1f565b9250613ef660208501613eb3565b9150613f0460408501613eb3565b90509250925092565b60008060408385031215613f2057600080fd5b613f2983613d1f565b9150602083013560ff81168114613f3f57600080fd5b809150509250929050565b600060c08284031215613df657600080fd5b80358015158114612dad57600080fd5b60008060408385031215613f7f57600080fd5b82356001600160401b03811115613f9557600080fd5b613fa185828601613f4a565b925050613fb060208401613f5c565b90509250929050565b60008060408385031215613fcc57600080fd5b613fd583613d1f565b946020939093013593505050565b803561ffff81168114612dad57600080fd5b6000806040838503121561400857600080fd5b61401183613d1f565b9150613fb060208401613fe3565b60005b8381101561403a578181015183820152602001614022565b50506000910152565b6000815180845261405b81602086016020860161401f565b601f01601f19169290920160200192915050565b6020815260006140826020830184614043565b9392505050565b60006020828403121561409b57600080fd5b61408282613fe3565b805182526001600160401b0360208201511660208301526040810151613c01604084018280518252602090810151910152565b60808101610e6b82846140a4565b80356001600160801b0381168114612dad57600080fd5b6000806040838503121561410f57600080fd5b61411883613d1f565b9150613fb0602084016140e5565b60006020828403121561413857600080fd5b61408282613d1f565b6000806040838503121561415457600080fd5b61415d83613d1f565b9150613fb060208401613f5c565b60008060008060a0858703121561418157600080fd5b61418b8686613de4565b935060608501356001600160401b038111156141a657600080fd5b6141b287828801613d33565b90945092506141c5905060808601613dfc565b905092959194509250565b6000602082840312156141e257600080fd5b61408282613dfc565b600060a08284031280156141fe57600080fd5b509092915050565b61421081846140a4565b60a060808201526001600160481b0382511660a082015260006020830151604060c0840152610d8e60e0840182614043565b60006020828403121561425457600080fd5b5035919050565b6000806040838503121561426e57600080fd5b61401183613dfc565b60008083601f84011261428957600080fd5b5081356001600160401b038111156142a057600080fd5b6020830191508360208260051b8501011115613d7457600080fd5b600080602083850312156142ce57600080fd5b82356001600160401b038111156142e457600080fd5b6142f085828601614277565b90969095509350505050565b6000806000806060858703121561431257600080fd5b61431b85613d1f565b935061432960208601613fe3565b925060408501356001600160401b0381111561434457600080fd5b61435087828801613d33565b95989497509550505050565b634e487b7160e01b600052604160045260246000fd5b604051606081016001600160401b03811182821017156143945761439461435c565b60405290565b604080519081016001600160401b03811182821017156143945761439461435c565b604051601f8201601f191681016001600160401b03811182821017156143e4576143e461435c565b604052919050565b60006001600160401b038211156144055761440561435c565b50601f01601f191660200190565b6000614426614421846143ec565b6143bc565b905082815283838301111561443a57600080fd5b828260208301376000602084830101529392505050565b6000806000806060858703121561446757600080fd5b61447085613d1f565b935060208501356001600160401b0381111561448b57600080fd5b8501601f8101871361449c57600080fd5b6144ab87823560208401614413565b93505060408501356001600160401b0381111561434457600080fd5b600080600080606085870312156144dd57600080fd5b84356001600160401b038111156144f357600080fd5b6144ff87828801614277565b9095509350614512905060208601613fe3565b91506141c560408601613fe3565b60008060006060848603121561453557600080fd5b61453e84613d1f565b925061454c602085016140e5565b9150613f04604085016140e5565b6000806000838503608081121561457057600080fd5b84356001600160401b0381111561458657600080fd5b61459287828801613f4a565b9450506040601f19820112156145a757600080fd5b50602084019150613f0460608501613dfc565b6000606082840312156145cc57600080fd5b6140828383613de4565b600181811c908216806145ea57607f821691505b602082108103613df657634e487b7160e01b600052602260045260246000fd5b634e487b7160e01b600052601160045260246000fd5b8082028115828204841417610e6b57610e6b61460a565b634e487b7160e01b600052601260045260246000fd5b60008261465c5761465c614637565b500490565b6001600160401b0381168114611f7257600080fd5b60006020828403121561468857600080fd5b813561408281614661565b6000602082840312156146a557600080fd5b61408282613f5c565b60006001600160401b038311156146c7576146c761435c565b8260051b6146d7602082016143bc565b848152908301906020810190368311156146f057600080fd5b845b838110156147975780356001600160401b0381111561471057600080fd5b8601606036829003121561472357600080fd5b61472b614372565b61473482613d1f565b815261474260208301613fe3565b602082015260408201356001600160401b0381111561476057600080fd5b919091019036601f83011261477457600080fd5b61478336833560208501614413565b6040820152845250602092830192016146f2565b5095945050505050565b600080858511156147b157600080fd5b838611156147be57600080fd5b5050820193919092039150565b600084516147dd81846020890161401f565b8201838582376000930192835250909392505050565b81835281816020850137506000828201602090810191909152601f909101601f19169091010190565b6020815260006112866020830184866147f3565b634e487b7160e01b600052603260045260246000fd5b6000823561013e1983360301811261485d57600080fd5b9190910192915050565b6000808335601e1984360301811261487e57600080fd5b8301803591506001600160401b0382111561489857600080fd5b602001915036819003821315613d7457600080fd5b63ffffffff6148bb82613d1f565b1682526020818101359083015260408101356148d681614661565b6001600160401b0381166040840152505050565b6148f481896148ad565b86606082015260e06080820152600061491160e0830187896147f3565b6001600160a01b03861660a084015282810360c08401526149338185876147f3565b9a9950505050505050505050565b60006020828403121561495357600080fd5b81516001600160401b0381111561496957600080fd5b8201601f8101841361497a57600080fd5b8051614988614421826143ec565b81815285602083850101111561499d57600080fd5b610d8e82602083016020860161401f565b6001600160481b038181168382160190811115610e6b57610e6b61460a565b61ffff8281168282160390811115610e6b57610e6b61460a565b600061ffff821661ffff81036149ff576149ff61460a565b60010192915050565b60006040828403128015614a1b57600080fd5b50614a2461439a565b823581526020928301359281019290925250919050565b6001600160481b038281168282160390811115610e6b57610e6b61460a565b60006001600160481b03831680614a7357614a73614637565b806001600160481b0384160691505092915050565b6040815263ffffffff8351166040820152602083015160608201526000604084015160a06080840152614abe60e0840182614043565b90506060850151603f198483030160a0850152614adb8282614043565b60809690960151151560c08501525050506001600160a01b039190911660209091015290565b600060408284031215614b1357600080fd5b614b1b61439a565b825181526020928301519281019290925250919050565b600060408284031215614b4457600080fd5b6140828383614b01565b60006080828403128015614b6157600080fd5b50614b6a614372565b825181526020830151614b7c81614661565b6020820152614b8e8460408501614b01565b60408201529392505050565b60ff60f81b8560f81b1681526001600160801b03198460801b1660018201526001600160801b03198360801b16601182015260008251614be181602185016020870161401f565b9190910160210195945050505050565b6001600160801b038181168382160190811115610e6b57610e6b61460a565b60008351614c2281846020880161401f565b835190830190614c3681836020880161401f565b01949350505050565b61ffff60f01b8360f01b16815260008251614c6181600285016020870161401f565b919091016002019392505050565b80356001600160f01b03198116906002841015614ca0576001600160f01b0319600285900360031b81901b82161691505b5092915050565b80356020831015610e6b57600019602084900360031b1b1692915050565b80356001600160c01b03198116906008841015614ca0576001600160c01b031960089490940360031b84901b1690921692915050565b604081526000614d0e6040830185614043565b905060018060a01b03831660208301529392505050565b604081526000614d386040830185614043565b90508260208301529392505050565b82815260008251614d5f81602085016020870161401f565b919091016020019392505050565b63ffffffff851681526001600160481b03841660208201526001600160501b03831660408201526080606082015260006120406080830184614043565b601f821115613c0157806000526020600020601f840160051c81016020851015614dd15750805b601f840160051c820191505b81811015611ba45760008155600101614ddd565b81516001600160401b03811115614e0a57614e0a61435c565b614e1e81614e1884546145d6565b84614daa565b6020601f821160018114614e525760008315614e3a5750848201515b600019600385901b1c1916600184901b178455611ba4565b600084815260208120601f198516915b82811015614e825787850151825560209485019460019092019101614e62565b5084821015614ea05786840151600019600387901b60f8161c191681555b50505050600190811b01905550565b6000602082016020835280845180835260408501915060408160051b86010192506020860160005b82811015614f3357603f19878603018452815163ffffffff815116865261ffff60208201511660208701526040810151905060606040870152614f1d6060870182614043565b9550506020938401939190910190600101614ed7565b50929695505050505050565b600082614f4e57614f4e614637565b500690565b608081526000614f666080830187614043565b8560208401528281036040840152614f7e8186614043565b91505082606083015295945050505050565b80820180821115610e6b57610e6b61460a565b838152818360208301376000910160200190815292915050565b81810381811115610e6b57610e6b61460a565b600060ff821660ff81036149ff576149ff61460a565b6001600160801b038181168382160290811690818114614ca057614ca061460a565b60e0810161501682886148ad565b606082019590955260ff9390931660808401526001600160a01b039190911660a08301526001600160401b031660c090910152919050565b61505881876148ad565b84606082015260018060a01b03841660808201526001600160401b03831660a082015260e060c08201526000610b5060e0830184614043565b60f886901b6001600160f81b031916815260f085901b6001600160f01b03191660018201526003810184905260c083901b6001600160c01b031916602382015281516000906150e781602b85016020870161401f565b91909101602b019695505050505050565b80356001600160801b03198116906010841015614ca0576001600160801b031960109490940360031b84901b1690921692915050565b6080815260006151416080830187614043565b6001600160a01b03861660208401528281036040840152614f7e8186614043565b80356001600160f81b03198116906001841015614ca0576001600160f81b031960019490940360031b84901b169092169291505056fe6275735175657565735b6473744569645d2e6d61784e756d50617373656e67657273203a7374617274205f656e636f64654d657373616765416e644f7074696f6e73466f7244726976654275732066756e635374617274696e6720726964654275732066756e6374696f6e2c2073656e6465723a6166746572205f656e636f64654d657373616765416e644f7074696f6e73466f7244726976654275732066756e6373746172676174654e6174697665207472616e736665724e61746976652066756e636275735175657565735b6473744569645d2e627573416e644e617469766544726f7046617265203aa2646970667358221220cbafb568ad6a7bb99462026aeddeb1c388801086470957cb701640bd27833d0c64736f6c634300081c0033",
  "linkReferences": {},
  "deployedLinkReferences": {}
}